{
  "abi": [
    {
      "inputs": [
        {
          "internalType": "string",
          "name": "_name",
          "type": "string"
        },
        {
          "internalType": "string",
          "name": "_symbol",
          "type": "string"
        },
        {
          "internalType": "address",
          "name": "_royaltyRecipient",
          "type": "address"
        },
        {
          "internalType": "uint128",
          "name": "_royaltyBps",
          "type": "uint128"
        }
      ],
      "stateMutability": "nonpayable",
      "type": "constructor"
    },
    {
      "inputs": [],
      "name": "ApprovalCallerNotOwnerNorApproved",
      "type": "error"
    },
    {
      "inputs": [],
      "name": "ApprovalQueryForNonexistentToken",
      "type": "error"
    },
    {
      "inputs": [],
      "name": "ApprovalToCurrentOwner",
      "type": "error"
    },
    {
      "inputs": [],
      "name": "ApproveToCaller",
      "type": "error"
    },
    {
      "inputs": [],
      "name": "BalanceQueryForZeroAddress",
      "type": "error"
    },
    {
      "inputs": [],
      "name": "MintToZeroAddress",
      "type": "error"
    },
    {
      "inputs": [],
      "name": "MintZeroQuantity",
      "type": "error"
    },
    {
      "inputs": [
        {
          "internalType": "address",
          "name": "operator",
          "type": "address"
        }
      ],
      "name": "OperatorNotAllowed",
      "type": "error"
    },
    {
      "inputs": [],
      "name": "OwnerQueryForNonexistentToken",
      "type": "error"
    },
    {
      "inputs": [],
      "name": "TransferCallerNotOwnerNorApproved",
      "type": "error"
    },
    {
      "inputs": [],
      "name": "TransferFromIncorrectOwner",
      "type": "error"
    },
    {
      "inputs": [],
      "name": "TransferToNonERC721ReceiverImplementer",
      "type": "error"
    },
    {
      "inputs": [],
      "name": "TransferToZeroAddress",
      "type": "error"
    },
    {
      "inputs": [],
      "name": "URIQueryForNonexistentToken",
      "type": "error"
    },
    {
      "anonymous": false,
      "inputs": [
        {
          "indexed": true,
          "internalType": "address",
          "name": "owner",
          "type": "address"
        },
        {
          "indexed": true,
          "internalType": "address",
          "name": "approved",
          "type": "address"
        },
        {
          "indexed": true,
          "internalType": "uint256",
          "name": "tokenId",
          "type": "uint256"
        }
      ],
      "name": "Approval",
      "type": "event"
    },
    {
      "anonymous": false,
      "inputs": [
        {
          "indexed": true,
          "internalType": "address",
          "name": "owner",
          "type": "address"
        },
        {
          "indexed": true,
          "internalType": "address",
          "name": "operator",
          "type": "address"
        },
        {
          "indexed": false,
          "internalType": "bool",
          "name": "approved",
          "type": "bool"
        }
      ],
      "name": "ApprovalForAll",
      "type": "event"
    },
    {
      "anonymous": false,
      "inputs": [
        {
          "indexed": false,
          "internalType": "string",
          "name": "prevURI",
          "type": "string"
        },
        {
          "indexed": false,
          "internalType": "string",
          "name": "newURI",
          "type": "string"
        }
      ],
      "name": "ContractURIUpdated",
      "type": "event"
    },
    {
      "anonymous": false,
      "inputs": [
        {
          "indexed": true,
          "internalType": "address",
          "name": "newRoyaltyRecipient",
          "type": "address"
        },
        {
          "indexed": false,
          "internalType": "uint256",
          "name": "newRoyaltyBps",
          "type": "uint256"
        }
      ],
      "name": "DefaultRoyalty",
      "type": "event"
    },
    {
      "anonymous": false,
      "inputs": [
        {
          "indexed": false,
          "internalType": "bool",
          "name": "restriction",
          "type": "bool"
        }
      ],
      "name": "OperatorRestriction",
      "type": "event"
    },
    {
      "anonymous": false,
      "inputs": [
        {
          "indexed": true,
          "internalType": "address",
          "name": "prevOwner",
          "type": "address"
        },
        {
          "indexed": true,
          "internalType": "address",
          "name": "newOwner",
          "type": "address"
        }
      ],
      "name": "OwnerUpdated",
      "type": "event"
    },
    {
      "anonymous": false,
      "inputs": [
        {
          "indexed": true,
          "internalType": "uint256",
          "name": "tokenId",
          "type": "uint256"
        },
        {
          "indexed": true,
          "internalType": "address",
          "name": "royaltyRecipient",
          "type": "address"
        },
        {
          "indexed": false,
          "internalType": "uint256",
          "name": "royaltyBps",
          "type": "uint256"
        }
      ],
      "name": "RoyaltyForToken",
      "type": "event"
    },
    {
      "anonymous": false,
      "inputs": [
        {
          "indexed": true,
          "internalType": "address",
          "name": "from",
          "type": "address"
        },
        {
          "indexed": true,
          "internalType": "address",
          "name": "to",
          "type": "address"
        },
        {
          "indexed": true,
          "internalType": "uint256",
          "name": "tokenId",
          "type": "uint256"
        }
      ],
      "name": "Transfer",
      "type": "event"
    },
    {
      "inputs": [],
      "name": "OPERATOR_FILTER_REGISTRY",
      "outputs": [
        {
          "internalType": "contract IOperatorFilterRegistry",
          "name": "",
          "type": "address"
        }
      ],
      "stateMutability": "view",
      "type": "function"
    },
    {
      "inputs": [
        {
          "internalType": "address",
          "name": "operator",
          "type": "address"
        },
        {
          "internalType": "uint256",
          "name": "tokenId",
          "type": "uint256"
        }
      ],
      "name": "approve",
      "outputs": [],
      "stateMutability": "nonpayable",
      "type": "function"
    },
    {
      "inputs": [
        {
          "internalType": "address",
          "name": "owner",
          "type": "address"
        }
      ],
      "name": "balanceOf",
      "outputs": [
        {
          "internalType": "uint256",
          "name": "",
          "type": "uint256"
        }
      ],
      "stateMutability": "view",
      "type": "function"
    },
    {
      "inputs": [
        {
          "internalType": "address",
          "name": "_to",
          "type": "address"
        },
        {
          "internalType": "uint256",
          "name": "_quantity",
          "type": "uint256"
        },
        {
          "internalType": "string",
          "name": "_baseURI",
          "type": "string"
        },
        {
          "internalType": "bytes",
          "name": "_data",
          "type": "bytes"
        }
      ],
      "name": "batchMintTo",
      "outputs": [],
      "stateMutability": "nonpayable",
      "type": "function"
    },
    {
      "inputs": [
        {
          "internalType": "uint256",
          "name": "_tokenId",
          "type": "uint256"
        }
      ],
      "name": "burn",
      "outputs": [],
      "stateMutability": "nonpayable",
      "type": "function"
    },
    {
      "inputs": [],
      "name": "contractURI",
      "outputs": [
        {
          "internalType": "string",
          "name": "",
          "type": "string"
        }
      ],
      "stateMutability": "view",
      "type": "function"
    },
    {
      "inputs": [
        {
          "internalType": "uint256",
          "name": "tokenId",
          "type": "uint256"
        }
      ],
      "name": "getApproved",
      "outputs": [
        {
          "internalType": "address",
          "name": "",
          "type": "address"
        }
      ],
      "stateMutability": "view",
      "type": "function"
    },
    {
      "inputs": [],
      "name": "getBaseURICount",
      "outputs": [
        {
          "internalType": "uint256",
          "name": "",
          "type": "uint256"
        }
      ],
      "stateMutability": "view",
      "type": "function"
    },
    {
      "inputs": [
        {
          "internalType": "uint256",
          "name": "_index",
          "type": "uint256"
        }
      ],
      "name": "getBatchIdAtIndex",
      "outputs": [
        {
          "internalType": "uint256",
          "name": "",
          "type": "uint256"
        }
      ],
      "stateMutability": "view",
      "type": "function"
    },
    {
      "inputs": [],
      "name": "getDefaultRoyaltyInfo",
      "outputs": [
        {
          "internalType": "address",
          "name": "",
          "type": "address"
        },
        {
          "internalType": "uint16",
          "name": "",
          "type": "uint16"
        }
      ],
      "stateMutability": "view",
      "type": "function"
    },
    {
      "inputs": [
        {
          "internalType": "uint256",
          "name": "tokenId",
          "type": "uint256"
        }
      ],
      "name": "getNftAnimation",
      "outputs": [
        {
          "components": [
            {
              "internalType": "string",
              "name": "name",
              "type": "string"
            },
            {
              "internalType": "string",
              "name": "animationUrl",
              "type": "string"
            }
          ],
          "internalType": "struct DynamicNFT.NftAnimation",
          "name": "",
          "type": "tuple"
        }
      ],
      "stateMutability": "view",
      "type": "function"
    },
    {
      "inputs": [
        {
          "internalType": "uint256",
          "name": "_tokenId",
          "type": "uint256"
        }
      ],
      "name": "getRoyaltyInfoForToken",
      "outputs": [
        {
          "internalType": "address",
          "name": "",
          "type": "address"
        },
        {
          "internalType": "uint16",
          "name": "",
          "type": "uint16"
        }
      ],
      "stateMutability": "view",
      "type": "function"
    },
    {
      "inputs": [
        {
          "internalType": "address",
          "name": "owner",
          "type": "address"
        },
        {
          "internalType": "address",
          "name": "operator",
          "type": "address"
        }
      ],
      "name": "isApprovedForAll",
      "outputs": [
        {
          "internalType": "bool",
          "name": "",
          "type": "bool"
        }
      ],
      "stateMutability": "view",
      "type": "function"
    },
    {
      "inputs": [
        {
          "internalType": "address",
          "name": "_operator",
          "type": "address"
        },
        {
          "internalType": "uint256",
          "name": "_tokenId",
          "type": "uint256"
        }
      ],
      "name": "isApprovedOrOwner",
      "outputs": [
        {
          "internalType": "bool",
          "name": "isApprovedOrOwnerOf",
          "type": "bool"
        }
      ],
      "stateMutability": "view",
      "type": "function"
    },
    {
      "inputs": [
        {
          "internalType": "address",
          "name": "_to",
          "type": "address"
        },
        {
          "internalType": "string",
          "name": "_tokenURI",
          "type": "string"
        }
      ],
      "name": "mintTo",
      "outputs": [],
      "stateMutability": "nonpayable",
      "type": "function"
    },
    {
      "inputs": [
        {
          "internalType": "bytes[]",
          "name": "data",
          "type": "bytes[]"
        }
      ],
      "name": "multicall",
      "outputs": [
        {
          "internalType": "bytes[]",
          "name": "results",
          "type": "bytes[]"
        }
      ],
      "stateMutability": "nonpayable",
      "type": "function"
    },
    {
      "inputs": [],
      "name": "name",
      "outputs": [
        {
          "internalType": "string",
          "name": "",
          "type": "string"
        }
      ],
      "stateMutability": "view",
      "type": "function"
    },
    {
      "inputs": [],
      "name": "nextTokenIdToMint",
      "outputs": [
        {
          "internalType": "uint256",
          "name": "",
          "type": "uint256"
        }
      ],
      "stateMutability": "view",
      "type": "function"
    },
    {
      "inputs": [],
      "name": "operatorRestriction",
      "outputs": [
        {
          "internalType": "bool",
          "name": "",
          "type": "bool"
        }
      ],
      "stateMutability": "view",
      "type": "function"
    },
    {
      "inputs": [],
      "name": "owner",
      "outputs": [
        {
          "internalType": "address",
          "name": "",
          "type": "address"
        }
      ],
      "stateMutability": "view",
      "type": "function"
    },
    {
      "inputs": [
        {
          "internalType": "uint256",
          "name": "tokenId",
          "type": "uint256"
        }
      ],
      "name": "ownerOf",
      "outputs": [
        {
          "internalType": "address",
          "name": "",
          "type": "address"
        }
      ],
      "stateMutability": "view",
      "type": "function"
    },
    {
      "inputs": [
        {
          "internalType": "uint256",
          "name": "tokenId",
          "type": "uint256"
        },
        {
          "internalType": "uint256",
          "name": "salePrice",
          "type": "uint256"
        }
      ],
      "name": "royaltyInfo",
      "outputs": [
        {
          "internalType": "address",
          "name": "receiver",
          "type": "address"
        },
        {
          "internalType": "uint256",
          "name": "royaltyAmount",
          "type": "uint256"
        }
      ],
      "stateMutability": "view",
      "type": "function"
    },
    {
      "inputs": [
        {
          "internalType": "address",
          "name": "from",
          "type": "address"
        },
        {
          "internalType": "address",
          "name": "to",
          "type": "address"
        },
        {
          "internalType": "uint256",
          "name": "tokenId",
          "type": "uint256"
        }
      ],
      "name": "safeTransferFrom",
      "outputs": [],
      "stateMutability": "nonpayable",
      "type": "function"
    },
    {
      "inputs": [
        {
          "internalType": "address",
          "name": "from",
          "type": "address"
        },
        {
          "internalType": "address",
          "name": "to",
          "type": "address"
        },
        {
          "internalType": "uint256",
          "name": "tokenId",
          "type": "uint256"
        },
        {
          "internalType": "bytes",
          "name": "data",
          "type": "bytes"
        }
      ],
      "name": "safeTransferFrom",
      "outputs": [],
      "stateMutability": "nonpayable",
      "type": "function"
    },
    {
      "inputs": [
        {
          "internalType": "uint256",
          "name": "tokenId",
          "type": "uint256"
        },
        {
          "internalType": "string",
          "name": "name",
          "type": "string"
        },
        {
          "internalType": "string",
          "name": "animationUrl",
          "type": "string"
        }
      ],
      "name": "setAnimationUrl",
      "outputs": [],
      "stateMutability": "nonpayable",
      "type": "function"
    },
    {
      "inputs": [
        {
          "internalType": "address",
          "name": "operator",
          "type": "address"
        },
        {
          "internalType": "bool",
          "name": "approved",
          "type": "bool"
        }
      ],
      "name": "setApprovalForAll",
      "outputs": [],
      "stateMutability": "nonpayable",
      "type": "function"
    },
    {
      "inputs": [
        {
          "internalType": "string",
          "name": "_uri",
          "type": "string"
        }
      ],
      "name": "setContractURI",
      "outputs": [],
      "stateMutability": "nonpayable",
      "type": "function"
    },
    {
      "inputs": [
        {
          "internalType": "address",
          "name": "_royaltyRecipient",
          "type": "address"
        },
        {
          "internalType": "uint256",
          "name": "_royaltyBps",
          "type": "uint256"
        }
      ],
      "name": "setDefaultRoyaltyInfo",
      "outputs": [],
      "stateMutability": "nonpayable",
      "type": "function"
    },
    {
      "inputs": [
        {
          "internalType": "bool",
          "name": "_restriction",
          "type": "bool"
        }
      ],
      "name": "setOperatorRestriction",
      "outputs": [],
      "stateMutability": "nonpayable",
      "type": "function"
    },
    {
      "inputs": [
        {
          "internalType": "address",
          "name": "_newOwner",
          "type": "address"
        }
      ],
      "name": "setOwner",
      "outputs": [],
      "stateMutability": "nonpayable",
      "type": "function"
    },
    {
      "inputs": [
        {
          "internalType": "uint256",
          "name": "_tokenId",
          "type": "uint256"
        },
        {
          "internalType": "address",
          "name": "_recipient",
          "type": "address"
        },
        {
          "internalType": "uint256",
          "name": "_bps",
          "type": "uint256"
        }
      ],
      "name": "setRoyaltyInfoForToken",
      "outputs": [],
      "stateMutability": "nonpayable",
      "type": "function"
    },
    {
      "inputs": [
        {
          "internalType": "bytes4",
          "name": "interfaceId",
          "type": "bytes4"
        }
      ],
      "name": "supportsInterface",
      "outputs": [
        {
          "internalType": "bool",
          "name": "",
          "type": "bool"
        }
      ],
      "stateMutability": "view",
      "type": "function"
    },
    {
      "inputs": [],
      "name": "symbol",
      "outputs": [
        {
          "internalType": "string",
          "name": "",
          "type": "string"
        }
      ],
      "stateMutability": "view",
      "type": "function"
    },
    {
      "inputs": [
        {
          "internalType": "uint256",
          "name": "_tokenId",
          "type": "uint256"
        }
      ],
      "name": "tokenURI",
      "outputs": [
        {
          "internalType": "string",
          "name": "",
          "type": "string"
        }
      ],
      "stateMutability": "view",
      "type": "function"
    },
    {
      "inputs": [],
      "name": "totalSupply",
      "outputs": [
        {
          "internalType": "uint256",
          "name": "",
          "type": "uint256"
        }
      ],
      "stateMutability": "view",
      "type": "function"
    },
    {
      "inputs": [
        {
          "internalType": "address",
          "name": "from",
          "type": "address"
        },
        {
          "internalType": "address",
          "name": "to",
          "type": "address"
        },
        {
          "internalType": "uint256",
          "name": "tokenId",
          "type": "uint256"
        }
      ],
      "name": "transferFrom",
      "outputs": [],
      "stateMutability": "nonpayable",
      "type": "function"
    }
  ],
  "devdoc": {
    "kind": "dev",
    "methods": {
      "approve(address,uint256)": {
        "details": "See {ERC721-approve}."
      },
      "balanceOf(address)": {
        "details": "See {IERC721-balanceOf}."
      },
      "batchMintTo(address,uint256,string,bytes)": {
        "details": "The logic in the `_canMint` function determines whether the caller is authorized to mint NFTs.",
        "params": {
          "_baseURI": "The baseURI for the `n` number of NFTs minted. The metadata for each NFT is `baseURI/tokenId`",
          "_data": "Additional data to pass along during the minting of the NFT.",
          "_quantity": "The number of NFTs to mint.",
          "_to": "The recipient of the NFT to mint."
        }
      },
      "burn(uint256)": {
        "details": "ERC721A's `_burn(uint256,bool)` internally checks for token approvals.",
        "params": {
          "_tokenId": "The tokenId of the NFT to burn."
        }
      },
      "getApproved(uint256)": {
        "details": "See {IERC721-getApproved}."
      },
      "getBaseURICount()": {
        "details": "Each batch of tokens has an in ID and an associated `baseURI`.                  See {batchIds}."
      },
      "getBatchIdAtIndex(uint256)": {
        "details": "See {getBaseURICount}.",
        "params": {
          "_index": "ID of a token."
        }
      },
      "getRoyaltyInfoForToken(uint256)": {
        "details": "Returns royalty recipient and bps for `_tokenId`.",
        "params": {
          "_tokenId": "The tokenID of the NFT for which to query royalty info."
        }
      },
      "isApprovedForAll(address,address)": {
        "details": "See {IERC721-isApprovedForAll}."
      },
      "mintTo(address,string)": {
        "details": "The logic in the `_canMint` function determines whether the caller is authorized to mint NFTs.",
        "params": {
          "_to": "The recipient of the NFT to mint.",
          "_tokenURI": "The full metadata URI for the NFT minted."
        }
      },
      "multicall(bytes[])": {
        "details": "Receives and executes a batch of function calls on this contract.",
        "params": {
          "data": "The bytes data that makes up the batch of function calls to execute."
        },
        "returns": {
          "results": "The bytes data that makes up the result of the batch of function calls executed."
        }
      },
      "name()": {
        "details": "See {IERC721Metadata-name}."
      },
      "ownerOf(uint256)": {
        "details": "See {IERC721-ownerOf}."
      },
      "royaltyInfo(uint256,uint256)": {
        "details": "Returns royalty amount and recipient for `tokenId` and `salePrice`.",
        "params": {
          "salePrice": "Sale price of the token.",
          "tokenId": "The tokenID of the NFT for which to query royalty info."
        },
        "returns": {
          "receiver": "       Address of royalty recipient account.",
          "royaltyAmount": "  Royalty amount calculated at current royaltyBps value."
        }
      },
      "safeTransferFrom(address,address,uint256)": {
        "details": "See {ERC721-_safeTransferFrom}."
      },
      "safeTransferFrom(address,address,uint256,bytes)": {
        "details": "See {ERC721-_safeTransferFrom}."
      },
      "setApprovalForAll(address,bool)": {
        "details": "See {ERC721-setApprovalForAll}."
      },
      "setContractURI(string)": {
        "details": "Caller should be authorized to setup contractURI, e.g. contract admin.                  See {_canSetContractURI}.                  Emits {ContractURIUpdated Event}.",
        "params": {
          "_uri": "keccak256 hash of the role. e.g. keccak256(\"TRANSFER_ROLE\")"
        }
      },
      "setDefaultRoyaltyInfo(address,uint256)": {
        "details": "Caller should be authorized to set royalty info.                  See {_canSetRoyaltyInfo}.                  Emits {DefaultRoyalty Event}; See {_setupDefaultRoyaltyInfo}.",
        "params": {
          "_royaltyBps": "Updated royalty bps.",
          "_royaltyRecipient": "Address to be set as default royalty recipient."
        }
      },
      "setOwner(address)": {
        "params": {
          "_newOwner": "The address to set as the new owner of the contract."
        }
      },
      "setRoyaltyInfoForToken(uint256,address,uint256)": {
        "details": "Sets royalty info for `_tokenId`. Caller should be authorized to set royalty info.                  See {_canSetRoyaltyInfo}.                  Emits {RoyaltyForToken Event}; See {_setupRoyaltyInfoForToken}.",
        "params": {
          "_bps": "Updated royalty bps for the token Id.",
          "_recipient": "Address to be set as royalty recipient for given token Id."
        }
      },
      "supportsInterface(bytes4)": {
        "details": "See ERC165: https://eips.ethereum.org/EIPS/eip-165"
      },
      "symbol()": {
        "details": "See {IERC721Metadata-symbol}."
      },
      "tokenURI(uint256)": {
        "details": "See `BatchMintMetadata` for handling of metadata in this contract.",
        "params": {
          "_tokenId": "The tokenId of an NFT."
        }
      },
      "totalSupply()": {
        "details": "Burned tokens are calculated here, use _totalMinted() if you want to count just minted tokens."
      },
      "transferFrom(address,address,uint256)": {
        "details": "See {ERC721-_transferFrom}."
      }
    },
    "version": 1
  },
  "evm": {
    "assembly": "    /* \"DynamicNFT.sol\":183:1714  contract DynamicNFT is ERC721Base {... */\n  mstore(0x40, 0x80)\n    /* \"DynamicNFT.sol\":357:642  constructor(... */\n  callvalue\n  dup1\n  iszero\n  tag_1\n  jumpi\n  0x00\n  dup1\n  revert\ntag_1:\n  pop\n  mload(0x40)\n  sub(codesize, bytecodeSize)\n  dup1\n  bytecodeSize\n  dup4\n  codecopy\n  dup2\n  add\n  0x40\n  dup2\n  swap1\n  mstore\n  tag_2\n  swap2\n  tag_3\n  jump\t// in\ntag_2:\n    /* \"DynamicNFT.sol\":538:543  _name */\n  dup4\n    /* \"DynamicNFT.sol\":558:565  _symbol */\n  dup4\n    /* \"DynamicNFT.sol\":580:597  _royaltyRecipient */\n  dup4\n    /* \"DynamicNFT.sol\":612:623  _royaltyBps */\n  dup4\n    /* \"@thirdweb-dev/contracts/extension/DefaultOperatorFilterer.sol\":391:433   */\n  0x3cc6cdda760b79bafa08df41ecfa224f810dceb6\n    /* \"@thirdweb-dev/contracts/extension/DefaultOperatorFilterer.sol\":494:498   */\n  0x01\n    /* \"@thirdweb-dev/contracts/base/ERC721Base.sol\":1850:1855   */\n  dup6\n    /* \"@thirdweb-dev/contracts/base/ERC721Base.sol\":1857:1864   */\n  dup6\n    /* \"@thirdweb-dev/contracts/eip/ERC721AVirtualApprove.sol\":1893:1898   */\n  dup2\n    /* \"@thirdweb-dev/contracts/eip/ERC721AVirtualApprove.sol\":1885:1890   */\n  0x02\n    /* \"@thirdweb-dev/contracts/eip/ERC721AVirtualApprove.sol\":1885:1898   */\n  swap1\n  dup1\n  mload\n  swap1\n  0x20\n  add\n  swap1\n  tag_10\n  swap3\n  swap2\n  swap1\n  tag_11\n  jump\t// in\ntag_10:\n  pop\n    /* \"@thirdweb-dev/contracts/eip/ERC721AVirtualApprove.sol\":1908:1925   */\n  dup1\n  mload\n  tag_12\n  swap1\n    /* \"@thirdweb-dev/contracts/eip/ERC721AVirtualApprove.sol\":1908:1915   */\n  0x03\n  swap1\n    /* \"@thirdweb-dev/contracts/eip/ERC721AVirtualApprove.sol\":1908:1925   */\n  0x20\n  dup5\n  add\n  swap1\n  tag_11\n  jump\t// in\ntag_12:\n  pop\n    /* \"@thirdweb-dev/contracts/eip/ERC721AVirtualApprove.sol\":2121:2128   */\n  0x00\n    /* \"@thirdweb-dev/contracts/eip/ERC721AVirtualApprove.sol\":1935:1948   */\n  dup1\n    /* \"@thirdweb-dev/contracts/eip/ERC721AVirtualApprove.sol\":1935:1966   */\n  sstore\n  pop\n  pop\n    /* \"@thirdweb-dev/contracts/extension/OperatorFilterer.sol\":876:918   */\n  0xaaeb6d7670e522a718067333cd4e\n    /* \"@thirdweb-dev/contracts/extension/OperatorFilterer.sol\":1288:1333   */\n  extcodesize\n    /* \"@thirdweb-dev/contracts/extension/OperatorFilterer.sol\":1288:1337   */\n  iszero\n    /* \"@thirdweb-dev/contracts/extension/OperatorFilterer.sol\":1284:1821   */\n  tag_29\n  jumpi\n    /* \"@thirdweb-dev/contracts/extension/OperatorFilterer.sol\":1357:1366   */\n  dup1\n    /* \"@thirdweb-dev/contracts/extension/OperatorFilterer.sol\":1353:1811   */\n  iszero\n  tag_17\n  jumpi\n    /* \"@thirdweb-dev/contracts/extension/OperatorFilterer.sol\":1386:1478   */\n  mload(0x40)\n  shl(0xe1, 0x3e9f1edf)\n  dup2\n  mstore\n    /* \"@thirdweb-dev/contracts/extension/OperatorFilterer.sol\":1440:1444   */\n  address\n    /* \"@thirdweb-dev/contracts/extension/OperatorFilterer.sol\":1386:1478   */\n  0x04\n  dup3\n  add\n    /* \"#utility.yul\":2158:2192   */\n  mstore\n  sub(shl(0xa0, 0x01), 0x01)\n    /* \"#utility.yul\":2228:2243   */\n  dup4\n  and\n    /* \"#utility.yul\":2208:2226   */\n  0x24\n  dup3\n  add\n    /* \"#utility.yul\":2201:2244   */\n  mstore\n    /* \"@thirdweb-dev/contracts/extension/OperatorFilterer.sol\":876:918   */\n  0xaaeb6d7670e522a718067333cd4e\n  swap1\n    /* \"@thirdweb-dev/contracts/extension/OperatorFilterer.sol\":1386:1431   */\n  0x7d3e3dbe\n  swap1\n    /* \"#utility.yul\":2093:2111   */\n  0x44\n  add\n    /* \"@thirdweb-dev/contracts/extension/OperatorFilterer.sol\":1386:1478   */\ntag_18:\n  0x00\n  mload(0x40)\n  dup1\n  dup4\n  sub\n  dup2\n  0x00\n  dup8\n  dup1\n  extcodesize\n  iszero\n  dup1\n  iszero\n  tag_20\n  jumpi\n  0x00\n  dup1\n  revert\ntag_20:\n  pop\n  gas\n  call\n  iszero\n  dup1\n  iszero\n  tag_22\n  jumpi\n  returndatasize\n  0x00\n  dup1\n  returndatacopy\n  revert(0x00, returndatasize)\ntag_22:\n  pop\n  pop\n  pop\n  pop\n    /* \"@thirdweb-dev/contracts/extension/OperatorFilterer.sol\":1353:1811   */\n  jump(tag_29)\ntag_17:\n  sub(shl(0xa0, 0x01), 0x01)\n    /* \"@thirdweb-dev/contracts/extension/OperatorFilterer.sol\":1521:1565   */\n  dup3\n  and\n  iszero\n    /* \"@thirdweb-dev/contracts/extension/OperatorFilterer.sol\":1517:1797   */\n  tag_24\n  jumpi\n    /* \"@thirdweb-dev/contracts/extension/OperatorFilterer.sol\":1589:1683   */\n  mload(0x40)\n  shl(0xe0, 0xa0af2903)\n  dup2\n  mstore\n    /* \"@thirdweb-dev/contracts/extension/OperatorFilterer.sol\":1645:1649   */\n  address\n    /* \"@thirdweb-dev/contracts/extension/OperatorFilterer.sol\":1589:1683   */\n  0x04\n  dup3\n  add\n    /* \"#utility.yul\":2158:2192   */\n  mstore\n  sub(shl(0xa0, 0x01), 0x01)\n    /* \"#utility.yul\":2228:2243   */\n  dup4\n  and\n    /* \"#utility.yul\":2208:2226   */\n  0x24\n  dup3\n  add\n    /* \"#utility.yul\":2201:2244   */\n  mstore\n    /* \"@thirdweb-dev/contracts/extension/OperatorFilterer.sol\":876:918   */\n  0xaaeb6d7670e522a718067333cd4e\n  swap1\n    /* \"@thirdweb-dev/contracts/extension/OperatorFilterer.sol\":1589:1636   */\n  0xa0af2903\n  swap1\n    /* \"#utility.yul\":2093:2111   */\n  0x44\n  add\n    /* \"@thirdweb-dev/contracts/extension/OperatorFilterer.sol\":1589:1683   */\n  tag_18\n    /* \"#utility.yul\":1946:2250   */\n  jump\n    /* \"@thirdweb-dev/contracts/extension/OperatorFilterer.sol\":1517:1797   */\ntag_24:\n    /* \"@thirdweb-dev/contracts/extension/OperatorFilterer.sol\":1730:1778   */\n  mload(0x40)\n  shl(0xe1, 0x22107243)\n  dup2\n  mstore\n    /* \"@thirdweb-dev/contracts/extension/OperatorFilterer.sol\":1772:1776   */\n  address\n    /* \"@thirdweb-dev/contracts/extension/OperatorFilterer.sol\":1730:1778   */\n  0x04\n  dup3\n  add\n    /* \"#utility.yul\":2401:2452   */\n  mstore\n    /* \"@thirdweb-dev/contracts/extension/OperatorFilterer.sol\":876:918   */\n  0xaaeb6d7670e522a718067333cd4e\n  swap1\n    /* \"@thirdweb-dev/contracts/extension/OperatorFilterer.sol\":1730:1763   */\n  0x4420e486\n  swap1\n    /* \"#utility.yul\":2374:2392   */\n  0x24\n  add\n    /* \"@thirdweb-dev/contracts/extension/OperatorFilterer.sol\":1730:1778   */\n  0x00\n  mload(0x40)\n  dup1\n  dup4\n  sub\n  dup2\n  0x00\n  dup8\n  dup1\n  extcodesize\n  iszero\n  dup1\n  iszero\n  tag_32\n  jumpi\n  0x00\n  dup1\n  revert\ntag_32:\n  pop\n  gas\n  call\n  iszero\n  dup1\n  iszero\n  tag_34\n  jumpi\n  returndatasize\n  0x00\n  dup1\n  returndatacopy\n  revert(0x00, returndatasize)\ntag_34:\n  pop\n  pop\n  pop\n  pop\n    /* \"@thirdweb-dev/contracts/extension/OperatorFilterer.sol\":1517:1797   */\ntag_29:\n  pop\n    /* \"@thirdweb-dev/contracts/base/ERC721Base.sol\":1876:1899   */\n  tag_37\n  swap1\n  pop\n    /* \"@thirdweb-dev/contracts/base/ERC721Base.sol\":1888:1898   */\n  caller\n    /* \"@thirdweb-dev/contracts/base/ERC721Base.sol\":1876:1887   */\n  tag_38\n    /* \"@thirdweb-dev/contracts/base/ERC721Base.sol\":1876:1899   */\n  jump\t// in\ntag_37:\n    /* \"@thirdweb-dev/contracts/base/ERC721Base.sol\":1909:1965   */\n  tag_39\n    /* \"@thirdweb-dev/contracts/base/ERC721Base.sol\":1934:1951   */\n  dup3\n  sub(shl(0x80, 0x01), 0x01)\n    /* \"@thirdweb-dev/contracts/base/ERC721Base.sol\":1909:1965   */\n  dup4\n  and\n    /* \"@thirdweb-dev/contracts/base/ERC721Base.sol\":1909:1933   */\n  tag_40\n    /* \"@thirdweb-dev/contracts/base/ERC721Base.sol\":1909:1965   */\n  jump\t// in\ntag_39:\n    /* \"@thirdweb-dev/contracts/base/ERC721Base.sol\":1975:2004   */\n  tag_41\n    /* \"@thirdweb-dev/contracts/base/ERC721Base.sol\":1999:2003   */\n  0x01\n    /* \"@thirdweb-dev/contracts/base/ERC721Base.sol\":1975:1998   */\n  tag_42\n    /* \"@thirdweb-dev/contracts/base/ERC721Base.sol\":1975:2004   */\n  jump\t// in\ntag_41:\n    /* \"@thirdweb-dev/contracts/base/ERC721Base.sol\":1700:2011   */\n  pop\n  pop\n  pop\n  pop\n    /* \"DynamicNFT.sol\":357:642  constructor(... */\n  pop\n  pop\n  pop\n  pop\n    /* \"DynamicNFT.sol\":183:1714  contract DynamicNFT is ERC721Base {... */\n  jump(tag_69)\n    /* \"@thirdweb-dev/contracts/extension/Ownable.sol\":1399:1571   */\ntag_38:\n    /* \"@thirdweb-dev/contracts/extension/Ownable.sol\":1479:1485   */\n  0x09\n  dup1\n  sload\n  sub(shl(0xa0, 0x01), 0x01)\n    /* \"@thirdweb-dev/contracts/extension/Ownable.sol\":1495:1513   */\n  dup4\n  dup2\n  and\n  not(sub(shl(0xa0, 0x01), 0x01))\n  dup4\n  and\n  dup2\n  or\n  swap1\n  swap4\n  sstore\n    /* \"@thirdweb-dev/contracts/extension/Ownable.sol\":1529:1564   */\n  mload(0x40)\n    /* \"@thirdweb-dev/contracts/extension/Ownable.sol\":1479:1485   */\n  swap2\n  and\n  swap2\n    /* \"@thirdweb-dev/contracts/extension/Ownable.sol\":1495:1513   */\n  swap1\n    /* \"@thirdweb-dev/contracts/extension/Ownable.sol\":1479:1485   */\n  dup3\n  swap1\n    /* \"@thirdweb-dev/contracts/extension/Ownable.sol\":1529:1564   */\n  0x8292fce18fa69edf4db7b94ea2e58241df0ae57f97e0a6c9b29067028bf92d76\n  swap1\n    /* \"@thirdweb-dev/contracts/extension/Ownable.sol\":1458:1476   */\n  0x00\n  swap1\n    /* \"@thirdweb-dev/contracts/extension/Ownable.sol\":1529:1564   */\n  log3\n    /* \"@thirdweb-dev/contracts/extension/Ownable.sol\":1448:1571   */\n  pop\n    /* \"@thirdweb-dev/contracts/extension/Ownable.sol\":1399:1571   */\n  pop\n  jump\t// out\n    /* \"@thirdweb-dev/contracts/extension/Royalty.sol\":3408:3742   */\ntag_40:\n    /* \"@thirdweb-dev/contracts/extension/Royalty.sol\":3527:3533   */\n  0x2710\n    /* \"@thirdweb-dev/contracts/extension/Royalty.sol\":3513:3524   */\n  dup2\n    /* \"@thirdweb-dev/contracts/extension/Royalty.sol\":3513:3533   */\n  gt\n    /* \"@thirdweb-dev/contracts/extension/Royalty.sol\":3509:3585   */\n  iszero\n  tag_48\n  jumpi\n    /* \"@thirdweb-dev/contracts/extension/Royalty.sol\":3549:3574   */\n  mload(0x40)\n  shl(0xe5, 0x461bcd)\n  dup2\n  mstore\n    /* \"#utility.yul\":2665:2667   */\n  0x20\n    /* \"@thirdweb-dev/contracts/extension/Royalty.sol\":3549:3574   */\n  0x04\n  dup3\n  add\n    /* \"#utility.yul\":2647:2668   */\n  mstore\n    /* \"#utility.yul\":2704:2706   */\n  0x0f\n    /* \"#utility.yul\":2684:2702   */\n  0x24\n  dup3\n  add\n    /* \"#utility.yul\":2677:2707   */\n  mstore\n  shl(0x88, 0x45786365656473206d617820627073)\n    /* \"#utility.yul\":2723:2741   */\n  0x44\n  dup3\n  add\n    /* \"#utility.yul\":2716:2761   */\n  mstore\n    /* \"#utility.yul\":2778:2796   */\n  0x64\n  add\n    /* \"@thirdweb-dev/contracts/extension/Royalty.sol\":3549:3574   */\n  mload(0x40)\n  dup1\n  swap2\n  sub\n  swap1\n  revert\n    /* \"@thirdweb-dev/contracts/extension/Royalty.sol\":3509:3585   */\ntag_48:\n    /* \"@thirdweb-dev/contracts/extension/Royalty.sol\":3595:3611   */\n  0x0a\n    /* \"@thirdweb-dev/contracts/extension/Royalty.sol\":3595:3631   */\n  dup1\n  sload\n  sub(shl(0xa0, 0x01), 0x01)\n  dup5\n  and\n  not(sub(shl(0xb0, 0x01), 0x01))\n    /* \"@thirdweb-dev/contracts/extension/Royalty.sol\":3641:3673   */\n  swap1\n  swap2\n  and\n  dup2\n  or\n  shl(0xa0, 0x01)\n  0xffff\n  dup6\n  and\n  mul\n  or\n  swap1\n  swap2\n  sstore\n    /* \"@thirdweb-dev/contracts/extension/Royalty.sol\":3689:3735   */\n  mload(0x40)\n    /* \"#utility.yul\":2953:2978   */\n  dup3\n  dup2\n  mstore\n    /* \"@thirdweb-dev/contracts/extension/Royalty.sol\":3689:3735   */\n  0x90d7ec04bcb8978719414f82e52e4cb651db41d0e6f8cea6118c2191e6183adb\n  swap1\n    /* \"#utility.yul\":2941:2943   */\n  0x20\n    /* \"#utility.yul\":2926:2944   */\n  add\n    /* \"@thirdweb-dev/contracts/extension/Royalty.sol\":3689:3735   */\n  mload(0x40)\n  dup1\n  swap2\n  sub\n  swap1\n  log2\n    /* \"@thirdweb-dev/contracts/extension/Royalty.sol\":3408:3742   */\n  pop\n  pop\n  jump\t// out\n    /* \"@thirdweb-dev/contracts/extension/OperatorFilterToggle.sol\":435:595   */\ntag_42:\n    /* \"@thirdweb-dev/contracts/extension/OperatorFilterToggle.sol\":506:525   */\n  0x0e\n    /* \"@thirdweb-dev/contracts/extension/OperatorFilterToggle.sol\":506:540   */\n  dup1\n  sload\n  not(0xff)\n  and\n  dup3\n  iszero\n  iszero\n  swap1\n  dup2\n  or\n  swap1\n  swap2\n  sstore\n    /* \"@thirdweb-dev/contracts/extension/OperatorFilterToggle.sol\":555:588   */\n  mload(0x40)\n    /* \"#utility.yul\":3129:3170   */\n  swap1\n  dup2\n  mstore\n    /* \"@thirdweb-dev/contracts/extension/OperatorFilterToggle.sol\":555:588   */\n  0x38475885990d8dfe9ca01f0ef160a1b5514426eab9ddbc953a3353410ba78096\n  swap1\n    /* \"#utility.yul\":3117:3119   */\n  0x20\n    /* \"#utility.yul\":3102:3120   */\n  add\n    /* \"@thirdweb-dev/contracts/extension/OperatorFilterToggle.sol\":555:588   */\n  mload(0x40)\n  dup1\n  swap2\n  sub\n  swap1\n  log1\n    /* \"@thirdweb-dev/contracts/extension/OperatorFilterToggle.sol\":435:595   */\n  pop\n  jump\t// out\n    /* \"DynamicNFT.sol\":183:1714  contract DynamicNFT is ERC721Base {... */\ntag_11:\n  dup3\n  dup1\n  sload\n  tag_56\n  swap1\n  tag_57\n  jump\t// in\ntag_56:\n  swap1\n  0x00\n  mstore\n  keccak256(0x00, 0x20)\n  swap1\n  0x1f\n  add\n  0x20\n  swap1\n  div\n  dup2\n  add\n  swap3\n  dup3\n  tag_59\n  jumpi\n  0x00\n  dup6\n  sstore\n  jump(tag_62)\ntag_59:\n  dup3\n  0x1f\n  lt\n  tag_60\n  jumpi\n  dup1\n  mload\n  not(0xff)\n  and\n  dup4\n  dup1\n  add\n  or\n  dup6\n  sstore\n  jump(tag_62)\ntag_60:\n  dup3\n  dup1\n  add\n  0x01\n  add\n  dup6\n  sstore\n  dup3\n  iszero\n  tag_62\n  jumpi\n  swap2\n  dup3\n  add\ntag_61:\n  dup3\n  dup2\n  gt\n  iszero\n  tag_62\n  jumpi\n  dup3\n  mload\n  dup3\n  sstore\n  swap2\n  0x20\n  add\n  swap2\n  swap1\n  0x01\n  add\n  swap1\n  jump(tag_61)\ntag_62:\n  pop\n  tag_63\n  swap3\n  swap2\n  pop\n  tag_64\n  jump\t// in\ntag_63:\n  pop\n  swap1\n  jump\t// out\ntag_64:\ntag_65:\n  dup1\n  dup3\n  gt\n  iszero\n  tag_63\n  jumpi\n  0x00\n  dup2\n  sstore\n  0x01\n  add\n  jump(tag_65)\n    /* \"#utility.yul\":14:141   */\ntag_67:\n    /* \"#utility.yul\":75:85   */\n  0x4e487b71\n    /* \"#utility.yul\":70:73   */\n  0xe0\n    /* \"#utility.yul\":66:86   */\n  shl\n    /* \"#utility.yul\":63:64   */\n  0x00\n    /* \"#utility.yul\":56:87   */\n  mstore\n    /* \"#utility.yul\":106:110   */\n  0x41\n    /* \"#utility.yul\":103:104   */\n  0x04\n    /* \"#utility.yul\":96:111   */\n  mstore\n    /* \"#utility.yul\":130:134   */\n  0x24\n    /* \"#utility.yul\":127:128   */\n  0x00\n    /* \"#utility.yul\":120:135   */\n  revert\n    /* \"#utility.yul\":146:1031   */\ntag_68:\n    /* \"#utility.yul\":200:205   */\n  0x00\n    /* \"#utility.yul\":253:256   */\n  dup3\n    /* \"#utility.yul\":246:250   */\n  0x1f\n    /* \"#utility.yul\":238:244   */\n  dup4\n    /* \"#utility.yul\":234:251   */\n  add\n    /* \"#utility.yul\":230:257   */\n  slt\n    /* \"#utility.yul\":220:275   */\n  tag_72\n  jumpi\n    /* \"#utility.yul\":271:272   */\n  0x00\n    /* \"#utility.yul\":268:269   */\n  dup1\n    /* \"#utility.yul\":261:273   */\n  revert\n    /* \"#utility.yul\":220:275   */\ntag_72:\n    /* \"#utility.yul\":294:307   */\n  dup2\n  mload\n  sub(shl(0x40, 0x01), 0x01)\n    /* \"#utility.yul\":356:366   */\n  dup1\n  dup3\n  gt\n    /* \"#utility.yul\":353:389   */\n  iszero\n  tag_74\n  jumpi\n    /* \"#utility.yul\":369:387   */\n  tag_74\n  tag_67\n  jump\t// in\ntag_74:\n    /* \"#utility.yul\":444:446   */\n  0x40\n    /* \"#utility.yul\":438:447   */\n  mload\n    /* \"#utility.yul\":412:414   */\n  0x1f\n    /* \"#utility.yul\":498:511   */\n  dup4\n  add\n  not(0x1f)\n    /* \"#utility.yul\":494:516   */\n  swap1\n  dup2\n  and\n    /* \"#utility.yul\":518:520   */\n  0x3f\n    /* \"#utility.yul\":490:521   */\n  add\n    /* \"#utility.yul\":486:526   */\n  and\n    /* \"#utility.yul\":474:527   */\n  dup2\n  add\n  swap1\n    /* \"#utility.yul\":542:560   */\n  dup3\n  dup3\n  gt\n    /* \"#utility.yul\":562:584   */\n  dup2\n  dup4\n  lt\n    /* \"#utility.yul\":539:585   */\n  or\n    /* \"#utility.yul\":536:608   */\n  iszero\n  tag_76\n  jumpi\n    /* \"#utility.yul\":588:606   */\n  tag_76\n  tag_67\n  jump\t// in\ntag_76:\n    /* \"#utility.yul\":628:638   */\n  dup2\n    /* \"#utility.yul\":624:626   */\n  0x40\n    /* \"#utility.yul\":617:639   */\n  mstore\n    /* \"#utility.yul\":663:665   */\n  dup4\n    /* \"#utility.yul\":655:661   */\n  dup2\n    /* \"#utility.yul\":648:666   */\n  mstore\n    /* \"#utility.yul\":685:689   */\n  0x20\n    /* \"#utility.yul\":675:689   */\n  swap3\n  pop\n    /* \"#utility.yul\":730:733   */\n  dup7\n    /* \"#utility.yul\":725:727   */\n  dup4\n    /* \"#utility.yul\":720:722   */\n  dup6\n    /* \"#utility.yul\":712:718   */\n  dup9\n    /* \"#utility.yul\":708:723   */\n  add\n    /* \"#utility.yul\":704:728   */\n  add\n    /* \"#utility.yul\":701:734   */\n  gt\n    /* \"#utility.yul\":698:751   */\n  iszero\n  tag_77\n  jumpi\n    /* \"#utility.yul\":747:748   */\n  0x00\n    /* \"#utility.yul\":744:745   */\n  dup1\n    /* \"#utility.yul\":737:749   */\n  revert\n    /* \"#utility.yul\":698:751   */\ntag_77:\n    /* \"#utility.yul\":769:770   */\n  0x00\n    /* \"#utility.yul\":760:770   */\n  swap2\n  pop\n    /* \"#utility.yul\":779:912   */\ntag_78:\n    /* \"#utility.yul\":793:795   */\n  dup4\n    /* \"#utility.yul\":790:791   */\n  dup3\n    /* \"#utility.yul\":787:796   */\n  lt\n    /* \"#utility.yul\":779:912   */\n  iszero\n  tag_80\n  jumpi\n    /* \"#utility.yul\":881:895   */\n  dup6\n  dup3\n  add\n    /* \"#utility.yul\":877:900   */\n  dup4\n  add\n    /* \"#utility.yul\":871:901   */\n  mload\n    /* \"#utility.yul\":850:864   */\n  dup2\n  dup4\n  add\n    /* \"#utility.yul\":846:869   */\n  dup5\n  add\n    /* \"#utility.yul\":839:902   */\n  mstore\n    /* \"#utility.yul\":804:814   */\n  swap1\n  dup3\n  add\n  swap1\n    /* \"#utility.yul\":779:912   */\n  jump(tag_78)\ntag_80:\n    /* \"#utility.yul\":930:932   */\n  dup4\n    /* \"#utility.yul\":927:928   */\n  dup3\n    /* \"#utility.yul\":924:933   */\n  gt\n    /* \"#utility.yul\":921:1001   */\n  iszero\n  tag_81\n  jumpi\n    /* \"#utility.yul\":989:990   */\n  0x00\n    /* \"#utility.yul\":984:986   */\n  dup4\n    /* \"#utility.yul\":979:981   */\n  dup6\n    /* \"#utility.yul\":971:977   */\n  dup4\n    /* \"#utility.yul\":967:982   */\n  add\n    /* \"#utility.yul\":963:987   */\n  add\n    /* \"#utility.yul\":956:991   */\n  mstore\n    /* \"#utility.yul\":921:1001   */\ntag_81:\n    /* \"#utility.yul\":1019:1025   */\n  swap7\n    /* \"#utility.yul\":146:1031   */\n  swap6\n  pop\n  pop\n  pop\n  pop\n  pop\n  pop\n  jump\t// out\n    /* \"#utility.yul\":1036:1941   */\ntag_3:\n    /* \"#utility.yul\":1153:1159   */\n  0x00\n    /* \"#utility.yul\":1161:1167   */\n  dup1\n    /* \"#utility.yul\":1169:1175   */\n  0x00\n    /* \"#utility.yul\":1177:1183   */\n  dup1\n    /* \"#utility.yul\":1230:1233   */\n  0x80\n    /* \"#utility.yul\":1218:1227   */\n  dup6\n    /* \"#utility.yul\":1209:1216   */\n  dup8\n    /* \"#utility.yul\":1205:1228   */\n  sub\n    /* \"#utility.yul\":1201:1234   */\n  slt\n    /* \"#utility.yul\":1198:1251   */\n  iszero\n  tag_83\n  jumpi\n    /* \"#utility.yul\":1247:1248   */\n  0x00\n    /* \"#utility.yul\":1244:1245   */\n  dup1\n    /* \"#utility.yul\":1237:1249   */\n  revert\n    /* \"#utility.yul\":1198:1251   */\ntag_83:\n    /* \"#utility.yul\":1274:1290   */\n  dup5\n  mload\n  sub(shl(0x40, 0x01), 0x01)\n    /* \"#utility.yul\":1339:1353   */\n  dup1\n  dup3\n  gt\n    /* \"#utility.yul\":1336:1370   */\n  iszero\n  tag_84\n  jumpi\n    /* \"#utility.yul\":1366:1367   */\n  0x00\n    /* \"#utility.yul\":1363:1364   */\n  dup1\n    /* \"#utility.yul\":1356:1368   */\n  revert\n    /* \"#utility.yul\":1336:1370   */\ntag_84:\n    /* \"#utility.yul\":1389:1450   */\n  tag_85\n    /* \"#utility.yul\":1442:1449   */\n  dup9\n    /* \"#utility.yul\":1433:1439   */\n  dup4\n    /* \"#utility.yul\":1422:1431   */\n  dup10\n    /* \"#utility.yul\":1418:1440   */\n  add\n    /* \"#utility.yul\":1389:1450   */\n  tag_68\n  jump\t// in\ntag_85:\n    /* \"#utility.yul\":1379:1450   */\n  swap6\n  pop\n    /* \"#utility.yul\":1496:1498   */\n  0x20\n    /* \"#utility.yul\":1485:1494   */\n  dup8\n    /* \"#utility.yul\":1481:1499   */\n  add\n    /* \"#utility.yul\":1475:1500   */\n  mload\n    /* \"#utility.yul\":1459:1500   */\n  swap2\n  pop\n    /* \"#utility.yul\":1525:1527   */\n  dup1\n    /* \"#utility.yul\":1515:1523   */\n  dup3\n    /* \"#utility.yul\":1512:1528   */\n  gt\n    /* \"#utility.yul\":1509:1545   */\n  iszero\n  tag_86\n  jumpi\n    /* \"#utility.yul\":1541:1542   */\n  0x00\n    /* \"#utility.yul\":1538:1539   */\n  dup1\n    /* \"#utility.yul\":1531:1543   */\n  revert\n    /* \"#utility.yul\":1509:1545   */\ntag_86:\n  pop\n    /* \"#utility.yul\":1564:1627   */\n  tag_87\n    /* \"#utility.yul\":1619:1626   */\n  dup8\n    /* \"#utility.yul\":1608:1616   */\n  dup3\n    /* \"#utility.yul\":1597:1606   */\n  dup9\n    /* \"#utility.yul\":1593:1617   */\n  add\n    /* \"#utility.yul\":1564:1627   */\n  tag_68\n  jump\t// in\ntag_87:\n    /* \"#utility.yul\":1670:1672   */\n  0x40\n    /* \"#utility.yul\":1655:1673   */\n  dup8\n  add\n    /* \"#utility.yul\":1649:1674   */\n  mload\n    /* \"#utility.yul\":1554:1627   */\n  swap1\n  swap5\n  pop\n    /* \"#utility.yul\":1649:1674   */\n  swap1\n  pop\n  sub(shl(0xa0, 0x01), 0x01)\n    /* \"#utility.yul\":1703:1734   */\n  dup2\n  and\n    /* \"#utility.yul\":1693:1735   */\n  dup2\n  eq\n    /* \"#utility.yul\":1683:1753   */\n  tag_88\n  jumpi\n    /* \"#utility.yul\":1749:1750   */\n  0x00\n    /* \"#utility.yul\":1746:1747   */\n  dup1\n    /* \"#utility.yul\":1739:1751   */\n  revert\n    /* \"#utility.yul\":1683:1753   */\ntag_88:\n    /* \"#utility.yul\":1822:1824   */\n  0x60\n    /* \"#utility.yul\":1807:1825   */\n  dup7\n  add\n    /* \"#utility.yul\":1801:1826   */\n  mload\n    /* \"#utility.yul\":1772:1777   */\n  swap1\n  swap3\n  pop\n  sub(shl(0x80, 0x01), 0x01)\n    /* \"#utility.yul\":1857:1890   */\n  dup2\n  and\n    /* \"#utility.yul\":1845:1891   */\n  dup2\n  eq\n    /* \"#utility.yul\":1835:1909   */\n  tag_89\n  jumpi\n    /* \"#utility.yul\":1905:1906   */\n  0x00\n    /* \"#utility.yul\":1902:1903   */\n  dup1\n    /* \"#utility.yul\":1895:1907   */\n  revert\n    /* \"#utility.yul\":1835:1909   */\ntag_89:\n    /* \"#utility.yul\":1036:1941   */\n  swap4\n  swap7\n  swap3\n  swap6\n  pop\n  swap1\n  swap4\n  pop\n  pop\n  jump\t// out\n    /* \"#utility.yul\":3181:3561   */\ntag_57:\n    /* \"#utility.yul\":3260:3261   */\n  0x01\n    /* \"#utility.yul\":3256:3268   */\n  dup2\n  dup2\n  shr\n  swap1\n    /* \"#utility.yul\":3303:3315   */\n  dup3\n  and\n  dup1\n    /* \"#utility.yul\":3324:3385   */\n  tag_96\n  jumpi\n    /* \"#utility.yul\":3378:3382   */\n  0x7f\n    /* \"#utility.yul\":3370:3376   */\n  dup3\n    /* \"#utility.yul\":3366:3383   */\n  and\n    /* \"#utility.yul\":3356:3383   */\n  swap2\n  pop\n    /* \"#utility.yul\":3324:3385   */\ntag_96:\n    /* \"#utility.yul\":3431:3433   */\n  0x20\n    /* \"#utility.yul\":3423:3429   */\n  dup3\n    /* \"#utility.yul\":3420:3434   */\n  lt\n    /* \"#utility.yul\":3400:3418   */\n  dup2\n    /* \"#utility.yul\":3397:3435   */\n  sub\n    /* \"#utility.yul\":3394:3555   */\n  tag_97\n  jumpi\n    /* \"#utility.yul\":3477:3487   */\n  0x4e487b71\n    /* \"#utility.yul\":3472:3475   */\n  0xe0\n    /* \"#utility.yul\":3468:3488   */\n  shl\n    /* \"#utility.yul\":3465:3466   */\n  0x00\n    /* \"#utility.yul\":3458:3489   */\n  mstore\n    /* \"#utility.yul\":3512:3516   */\n  0x22\n    /* \"#utility.yul\":3509:3510   */\n  0x04\n    /* \"#utility.yul\":3502:3517   */\n  mstore\n    /* \"#utility.yul\":3540:3544   */\n  0x24\n    /* \"#utility.yul\":3537:3538   */\n  0x00\n    /* \"#utility.yul\":3530:3545   */\n  revert\n    /* \"#utility.yul\":3394:3555   */\ntag_97:\n  pop\n    /* \"#utility.yul\":3181:3561   */\n  swap2\n  swap1\n  pop\n  jump\t// out\ntag_69:\n    /* \"DynamicNFT.sol\":183:1714  contract DynamicNFT is ERC721Base {... */\n  dataSize(sub_0)\n  dup1\n  dataOffset(sub_0)\n  0x00\n  codecopy\n  0x00\n  return\nstop\n\nsub_0: assembly {\n        /* \"DynamicNFT.sol\":183:1714  contract DynamicNFT is ERC721Base {... */\n      mstore(0x40, 0x80)\n      callvalue\n      dup1\n      iszero\n      tag_1\n      jumpi\n      0x00\n      dup1\n      revert\n    tag_1:\n      pop\n      jumpi(tag_2, lt(calldatasize, 0x04))\n      shr(0xe0, calldataload(0x00))\n      dup1\n      0x4cc157df\n      gt\n      tag_39\n      jumpi\n      dup1\n      0x95d89b41\n      gt\n      tag_40\n      jumpi\n      dup1\n      0xb24f2d39\n      gt\n      tag_41\n      jumpi\n      dup1\n      0xc87b56dd\n      gt\n      tag_42\n      jumpi\n      dup1\n      0xc87b56dd\n      eq\n      tag_36\n      jumpi\n      dup1\n      0xe8a3d485\n      eq\n      tag_37\n      jumpi\n      dup1\n      0xe985e9c5\n      eq\n      tag_38\n      jumpi\n      0x00\n      dup1\n      revert\n    tag_42:\n      dup1\n      0xb24f2d39\n      eq\n      tag_34\n      jumpi\n      dup1\n      0xb88d4fde\n      eq\n      tag_35\n      jumpi\n      0x00\n      dup1\n      revert\n    tag_41:\n      dup1\n      0x95d89b41\n      eq\n      tag_30\n      jumpi\n      dup1\n      0x9bcf7a15\n      eq\n      tag_31\n      jumpi\n      dup1\n      0xa22cb465\n      eq\n      tag_32\n      jumpi\n      dup1\n      0xac9650d8\n      eq\n      tag_33\n      jumpi\n      0x00\n      dup1\n      revert\n    tag_40:\n      dup1\n      0x63b45e2d\n      gt\n      tag_43\n      jumpi\n      dup1\n      0x754a81d9\n      gt\n      tag_44\n      jumpi\n      dup1\n      0x754a81d9\n      eq\n      tag_27\n      jumpi\n      dup1\n      0x8da5cb5b\n      eq\n      tag_28\n      jumpi\n      dup1\n      0x938e3d7b\n      eq\n      tag_29\n      jumpi\n      0x00\n      dup1\n      revert\n    tag_44:\n      dup1\n      0x63b45e2d\n      eq\n      tag_25\n      jumpi\n      dup1\n      0x70a08231\n      eq\n      tag_26\n      jumpi\n      0x00\n      dup1\n      revert\n    tag_43:\n      dup1\n      0x4cc157df\n      eq\n      tag_21\n      jumpi\n      dup1\n      0x504c6e01\n      eq\n      tag_22\n      jumpi\n      dup1\n      0x600dd5ea\n      eq\n      tag_23\n      jumpi\n      dup1\n      0x6352211e\n      eq\n      tag_24\n      jumpi\n      0x00\n      dup1\n      revert\n    tag_39:\n      dup1\n      0x2419f51b\n      gt\n      tag_45\n      jumpi\n      dup1\n      0x3b1475a7\n      gt\n      tag_46\n      jumpi\n      dup1\n      0x42842e0e\n      gt\n      tag_47\n      jumpi\n      dup1\n      0x42842e0e\n      eq\n      tag_18\n      jumpi\n      dup1\n      0x42966c68\n      eq\n      tag_19\n      jumpi\n      dup1\n      0x430c2081\n      eq\n      tag_20\n      jumpi\n      0x00\n      dup1\n      revert\n    tag_47:\n      dup1\n      0x3b1475a7\n      eq\n      tag_16\n      jumpi\n      dup1\n      0x41f43434\n      eq\n      tag_17\n      jumpi\n      0x00\n      dup1\n      revert\n    tag_46:\n      dup1\n      0x2419f51b\n      eq\n      tag_12\n      jumpi\n      dup1\n      0x2a55205a\n      eq\n      tag_13\n      jumpi\n      dup1\n      0x32f0cd64\n      eq\n      tag_14\n      jumpi\n      dup1\n      0x3a5376b6\n      eq\n      tag_15\n      jumpi\n      0x00\n      dup1\n      revert\n    tag_45:\n      dup1\n      0x095ea7b3\n      gt\n      tag_48\n      jumpi\n      dup1\n      0x13feba47\n      gt\n      tag_49\n      jumpi\n      dup1\n      0x13feba47\n      eq\n      tag_9\n      jumpi\n      dup1\n      0x18160ddd\n      eq\n      tag_10\n      jumpi\n      dup1\n      0x23b872dd\n      eq\n      tag_11\n      jumpi\n      0x00\n      dup1\n      revert\n    tag_49:\n      dup1\n      0x095ea7b3\n      eq\n      tag_7\n      jumpi\n      dup1\n      0x13af4035\n      eq\n      tag_8\n      jumpi\n      0x00\n      dup1\n      revert\n    tag_48:\n      dup1\n      0x75a317\n      eq\n      tag_3\n      jumpi\n      dup1\n      0x01ffc9a7\n      eq\n      tag_4\n      jumpi\n      dup1\n      0x06fdde03\n      eq\n      tag_5\n      jumpi\n      dup1\n      0x081812fc\n      eq\n      tag_6\n      jumpi\n    tag_2:\n      0x00\n      dup1\n      revert\n        /* \"DynamicNFT.sol\":1486:1709  function mintTo(address _to, string memory _tokenURI)... */\n    tag_3:\n      tag_50\n      tag_51\n      calldatasize\n      0x04\n      tag_52\n      jump\t// in\n    tag_51:\n      tag_53\n      jump\t// in\n    tag_50:\n      stop\n        /* \"@thirdweb-dev/contracts/base/ERC721Base.sol\":2261:2705   */\n    tag_4:\n      tag_54\n      tag_55\n      calldatasize\n      0x04\n      tag_56\n      jump\t// in\n    tag_55:\n      tag_57\n      jump\t// in\n    tag_54:\n      mload(0x40)\n        /* \"#utility.yul\":2023:2037   */\n      swap1\n      iszero\n        /* \"#utility.yul\":2016:2038   */\n      iszero\n        /* \"#utility.yul\":1998:2039   */\n      dup2\n      mstore\n        /* \"#utility.yul\":1986:1988   */\n      0x20\n        /* \"#utility.yul\":1971:1989   */\n      add\n        /* \"@thirdweb-dev/contracts/base/ERC721Base.sol\":2261:2705   */\n    tag_58:\n      mload(0x40)\n      dup1\n      swap2\n      sub\n      swap1\n      return\n        /* \"@thirdweb-dev/contracts/eip/ERC721AVirtualApprove.sol\":6131:6229   */\n    tag_5:\n      tag_60\n      tag_61\n      jump\t// in\n    tag_60:\n      mload(0x40)\n      tag_58\n      swap2\n      swap1\n      tag_63\n      jump\t// in\n        /* \"@thirdweb-dev/contracts/eip/ERC721AVirtualApprove.sol\":7617:7817   */\n    tag_6:\n      tag_64\n      tag_65\n      calldatasize\n      0x04\n      tag_66\n      jump\t// in\n    tag_65:\n      tag_67\n      jump\t// in\n    tag_64:\n      mload(0x40)\n      sub(shl(0xa0, 0x01), 0x01)\n        /* \"#utility.yul\":3150:3205   */\n      swap1\n      swap2\n      and\n        /* \"#utility.yul\":3132:3206   */\n      dup2\n      mstore\n        /* \"#utility.yul\":3120:3122   */\n      0x20\n        /* \"#utility.yul\":3105:3123   */\n      add\n        /* \"@thirdweb-dev/contracts/eip/ERC721AVirtualApprove.sol\":7617:7817   */\n      tag_58\n        /* \"#utility.yul\":2986:3212   */\n      jump\n        /* \"@thirdweb-dev/contracts/base/ERC721Base.sol\":6798:6962   */\n    tag_7:\n      tag_50\n      tag_71\n      calldatasize\n      0x04\n      tag_72\n      jump\t// in\n    tag_71:\n      tag_73\n      jump\t// in\n        /* \"@thirdweb-dev/contracts/extension/Ownable.sol\":1111:1284   */\n    tag_8:\n      tag_50\n      tag_75\n      calldatasize\n      0x04\n      tag_76\n      jump\t// in\n    tag_75:\n      tag_77\n      jump\t// in\n        /* \"DynamicNFT.sol\":648:910  function setAnimationUrl(uint256 tokenId, string memory name, string memory animationUrl) public {... */\n    tag_9:\n      tag_50\n      tag_79\n      calldatasize\n      0x04\n      tag_80\n      jump\t// in\n    tag_79:\n      tag_81\n      jump\t// in\n        /* \"@thirdweb-dev/contracts/eip/ERC721AVirtualApprove.sol\":2284:2590   */\n    tag_10:\n        /* \"@thirdweb-dev/contracts/eip/ERC721AVirtualApprove.sol\":2543:2555   */\n      sload(0x01)\n        /* \"@thirdweb-dev/contracts/eip/ERC721AVirtualApprove.sol\":2337:2344   */\n      0x00\n        /* \"@thirdweb-dev/contracts/eip/ERC721AVirtualApprove.sol\":2527:2540   */\n      sload\n        /* \"@thirdweb-dev/contracts/eip/ERC721AVirtualApprove.sol\":2527:2555   */\n      sub\n        /* \"@thirdweb-dev/contracts/eip/ERC721AVirtualApprove.sol\":2284:2590   */\n    tag_82:\n      mload(0x40)\n        /* \"#utility.yul\":4429:4454   */\n      swap1\n      dup2\n      mstore\n        /* \"#utility.yul\":4417:4419   */\n      0x20\n        /* \"#utility.yul\":4402:4420   */\n      add\n        /* \"@thirdweb-dev/contracts/eip/ERC721AVirtualApprove.sol\":2284:2590   */\n      tag_58\n        /* \"#utility.yul\":4283:4460   */\n      jump\n        /* \"@thirdweb-dev/contracts/base/ERC721Base.sol\":7009:7209   */\n    tag_11:\n      tag_50\n      tag_87\n      calldatasize\n      0x04\n      tag_88\n      jump\t// in\n    tag_87:\n      tag_89\n      jump\t// in\n        /* \"@thirdweb-dev/contracts/extension/BatchMintMetadata.sol\":1255:1458   */\n    tag_12:\n      tag_82\n      tag_91\n      calldatasize\n      0x04\n      tag_66\n      jump\t// in\n    tag_91:\n      tag_92\n      jump\t// in\n        /* \"@thirdweb-dev/contracts/extension/Royalty.sol\":1399:1746   */\n    tag_13:\n      tag_94\n      tag_95\n      calldatasize\n      0x04\n      tag_96\n      jump\t// in\n    tag_95:\n      tag_97\n      jump\t// in\n    tag_94:\n      0x40\n      dup1\n      mload\n      sub(shl(0xa0, 0x01), 0x01)\n        /* \"#utility.yul\":5243:5298   */\n      swap1\n      swap4\n      and\n        /* \"#utility.yul\":5225:5299   */\n      dup4\n      mstore\n        /* \"#utility.yul\":5330:5332   */\n      0x20\n        /* \"#utility.yul\":5315:5333   */\n      dup4\n      add\n        /* \"#utility.yul\":5308:5342   */\n      swap2\n      swap1\n      swap2\n      mstore\n        /* \"#utility.yul\":5198:5216   */\n      add\n        /* \"@thirdweb-dev/contracts/extension/Royalty.sol\":1399:1746   */\n      tag_58\n        /* \"#utility.yul\":5051:5348   */\n      jump\n        /* \"@thirdweb-dev/contracts/extension/OperatorFilterToggle.sol\":221:429   */\n    tag_14:\n      tag_50\n      tag_101\n      calldatasize\n      0x04\n      tag_102\n      jump\t// in\n    tag_101:\n      tag_103\n      jump\t// in\n        /* \"DynamicNFT.sol\":914:1483  function getNftAnimation(uint256 tokenId) public view returns (NftAnimation memory) {... */\n    tag_15:\n      tag_104\n      tag_105\n      calldatasize\n      0x04\n      tag_66\n      jump\t// in\n    tag_105:\n      tag_106\n      jump\t// in\n    tag_104:\n      mload(0x40)\n      tag_58\n      swap2\n      swap1\n      tag_108\n      jump\t// in\n        /* \"@thirdweb-dev/contracts/base/ERC721Base.sol\":5753:5857   */\n    tag_16:\n        /* \"@thirdweb-dev/contracts/base/ERC721Base.sol\":5811:5818   */\n      0x00\n        /* \"@thirdweb-dev/contracts/base/ERC721Base.sol\":5837:5850   */\n      sload\n        /* \"@thirdweb-dev/contracts/base/ERC721Base.sol\":5753:5857   */\n      jump(tag_82)\n        /* \"@thirdweb-dev/contracts/extension/OperatorFilterer.sol\":777:919   */\n    tag_17:\n      tag_64\n        /* \"@thirdweb-dev/contracts/extension/OperatorFilterer.sol\":876:918   */\n      0xaaeb6d7670e522a718067333cd4e\n        /* \"@thirdweb-dev/contracts/extension/OperatorFilterer.sol\":777:919   */\n      dup2\n      jump\n        /* \"@thirdweb-dev/contracts/base/ERC721Base.sol\":7260:7468   */\n    tag_18:\n      tag_50\n      tag_117\n      calldatasize\n      0x04\n      tag_88\n      jump\t// in\n    tag_117:\n      tag_118\n      jump\t// in\n        /* \"@thirdweb-dev/contracts/base/ERC721Base.sol\":5411:5498   */\n    tag_19:\n      tag_50\n      tag_120\n      calldatasize\n      0x04\n      tag_66\n      jump\t// in\n    tag_120:\n      tag_121\n      jump\t// in\n        /* \"@thirdweb-dev/contracts/base/ERC721Base.sol\":5957:6314   */\n    tag_20:\n      tag_54\n      tag_123\n      calldatasize\n      0x04\n      tag_72\n      jump\t// in\n    tag_123:\n      tag_124\n      jump\t// in\n        /* \"@thirdweb-dev/contracts/extension/Royalty.sol\":1986:2367   */\n    tag_21:\n      tag_126\n      tag_127\n      calldatasize\n      0x04\n      tag_66\n      jump\t// in\n    tag_127:\n      tag_128\n      jump\t// in\n    tag_126:\n      0x40\n      dup1\n      mload\n      sub(shl(0xa0, 0x01), 0x01)\n        /* \"#utility.yul\":6717:6772   */\n      swap1\n      swap4\n      and\n        /* \"#utility.yul\":6699:6773   */\n      dup4\n      mstore\n        /* \"#utility.yul\":6821:6827   */\n      0xffff\n        /* \"#utility.yul\":6809:6828   */\n      swap1\n      swap2\n      and\n        /* \"#utility.yul\":6804:6806   */\n      0x20\n        /* \"#utility.yul\":6789:6807   */\n      dup4\n      add\n        /* \"#utility.yul\":6782:6829   */\n      mstore\n        /* \"#utility.yul\":6672:6690   */\n      add\n        /* \"@thirdweb-dev/contracts/extension/Royalty.sol\":1986:2367   */\n      tag_58\n        /* \"#utility.yul\":6527:6835   */\n      jump\n        /* \"@thirdweb-dev/contracts/extension/OperatorFilterToggle.sol\":183:214   */\n    tag_22:\n      sload(0x0e)\n      tag_54\n      swap1\n      0xff\n      and\n      dup2\n      jump\n        /* \"@thirdweb-dev/contracts/extension/Royalty.sol\":3065:3321   */\n    tag_23:\n      tag_50\n      tag_135\n      calldatasize\n      0x04\n      tag_72\n      jump\t// in\n    tag_135:\n      tag_136\n      jump\t// in\n        /* \"@thirdweb-dev/contracts/eip/ERC721AVirtualApprove.sol\":5946:6069   */\n    tag_24:\n      tag_64\n      tag_138\n      calldatasize\n      0x04\n      tag_66\n      jump\t// in\n    tag_138:\n      tag_139\n      jump\t// in\n        /* \"@thirdweb-dev/contracts/extension/BatchMintMetadata.sol\":958:1054   */\n    tag_25:\n        /* \"@thirdweb-dev/contracts/extension/BatchMintMetadata.sol\":1032:1040   */\n      0x0c\n        /* \"@thirdweb-dev/contracts/extension/BatchMintMetadata.sol\":1032:1047   */\n      sload\n        /* \"@thirdweb-dev/contracts/extension/BatchMintMetadata.sol\":958:1054   */\n      jump(tag_82)\n        /* \"@thirdweb-dev/contracts/eip/ERC721AVirtualApprove.sol\":3372:3575   */\n    tag_26:\n      tag_82\n      tag_145\n      calldatasize\n      0x04\n      tag_76\n      jump\t// in\n    tag_145:\n      tag_146\n      jump\t// in\n        /* \"@thirdweb-dev/contracts/base/ERC721Base.sol\":4812:5137   */\n    tag_27:\n      tag_50\n      tag_149\n      calldatasize\n      0x04\n      tag_150\n      jump\t// in\n    tag_149:\n      tag_151\n      jump\t// in\n        /* \"@thirdweb-dev/contracts/extension/Ownable.sol\":849:935   */\n    tag_28:\n        /* \"@thirdweb-dev/contracts/extension/Ownable.sol\":922:928   */\n      and(sub(shl(0xa0, 0x01), 0x01), sload(0x09))\n        /* \"@thirdweb-dev/contracts/extension/Ownable.sol\":849:935   */\n      jump(tag_64)\n        /* \"@thirdweb-dev/contracts/extension/ContractMetadata.sol\":981:1169   */\n    tag_29:\n      tag_50\n      tag_156\n      calldatasize\n      0x04\n      tag_157\n      jump\t// in\n    tag_156:\n      tag_158\n      jump\t// in\n        /* \"@thirdweb-dev/contracts/eip/ERC721AVirtualApprove.sol\":6293:6395   */\n    tag_30:\n      tag_60\n      tag_160\n      jump\t// in\n        /* \"@thirdweb-dev/contracts/extension/Royalty.sol\":4259:4547   */\n    tag_31:\n      tag_50\n      tag_163\n      calldatasize\n      0x04\n      tag_164\n      jump\t// in\n    tag_163:\n      tag_165\n      jump\t// in\n        /* \"@thirdweb-dev/contracts/base/ERC721Base.sol\":6546:6757   */\n    tag_32:\n      tag_50\n      tag_167\n      calldatasize\n      0x04\n      tag_168\n      jump\t// in\n    tag_167:\n      tag_169\n      jump\t// in\n        /* \"@thirdweb-dev/contracts/extension/Multicall.sol\":740:1059   */\n    tag_33:\n      tag_170\n      tag_171\n      calldatasize\n      0x04\n      tag_172\n      jump\t// in\n    tag_171:\n      tag_173\n      jump\t// in\n    tag_170:\n      mload(0x40)\n      tag_58\n      swap2\n      swap1\n      tag_175\n      jump\t// in\n        /* \"@thirdweb-dev/contracts/extension/Royalty.sol\":2477:2621   */\n    tag_34:\n        /* \"@thirdweb-dev/contracts/extension/Royalty.sol\":2577:2593   */\n      sload(0x0a)\n      sub(shl(0xa0, 0x01), 0x01)\n      dup2\n      and\n      swap1\n      shl(0xa0, 0x01)\n        /* \"@thirdweb-dev/contracts/extension/Royalty.sol\":2602:2612   */\n      swap1\n      div\n      0xffff\n      and\n        /* \"@thirdweb-dev/contracts/extension/Royalty.sol\":2477:2621   */\n      jump(tag_126)\n        /* \"@thirdweb-dev/contracts/base/ERC721Base.sol\":7519:7760   */\n    tag_35:\n      tag_50\n      tag_180\n      calldatasize\n      0x04\n      tag_181\n      jump\t// in\n    tag_180:\n      tag_182\n      jump\t// in\n        /* \"@thirdweb-dev/contracts/base/ERC721Base.sol\":3119:3498   */\n    tag_36:\n      tag_60\n      tag_184\n      calldatasize\n      0x04\n      tag_66\n      jump\t// in\n    tag_184:\n      tag_185\n      jump\t// in\n        /* \"@thirdweb-dev/contracts/extension/ContractMetadata.sol\":543:577   */\n    tag_37:\n      tag_60\n      tag_188\n      jump\t// in\n        /* \"@thirdweb-dev/contracts/eip/ERC721AVirtualApprove.sol\":8232:8394   */\n    tag_38:\n      tag_54\n      tag_191\n      calldatasize\n      0x04\n      tag_192\n      jump\t// in\n    tag_191:\n      sub(shl(0xa0, 0x01), 0x01)\n        /* \"@thirdweb-dev/contracts/eip/ERC721AVirtualApprove.sol\":8352:8377   */\n      swap2\n      dup3\n      and\n        /* \"@thirdweb-dev/contracts/eip/ERC721AVirtualApprove.sol\":8329:8333   */\n      0x00\n        /* \"@thirdweb-dev/contracts/eip/ERC721AVirtualApprove.sol\":8352:8377   */\n      swap1\n      dup2\n      mstore\n        /* \"@thirdweb-dev/contracts/eip/ERC721AVirtualApprove.sol\":8352:8370   */\n      0x07\n        /* \"@thirdweb-dev/contracts/eip/ERC721AVirtualApprove.sol\":8352:8377   */\n      0x20\n      swap1\n      dup2\n      mstore\n      0x40\n      dup1\n      dup4\n      keccak256\n        /* \"@thirdweb-dev/contracts/eip/ERC721AVirtualApprove.sol\":8352:8387   */\n      swap4\n      swap1\n      swap5\n      and\n      dup3\n      mstore\n      swap2\n      swap1\n      swap2\n      mstore\n      keccak256\n      sload\n      0xff\n      and\n      swap1\n        /* \"@thirdweb-dev/contracts/eip/ERC721AVirtualApprove.sol\":8232:8394   */\n      jump\n        /* \"DynamicNFT.sol\":1486:1709  function mintTo(address _to, string memory _tokenURI)... */\n    tag_53:\n        /* \"DynamicNFT.sol\":1590:1605  uint256 tokenId */\n      0x00\n        /* \"@thirdweb-dev/contracts/base/ERC721Base.sol\":5837:5850   */\n      sload\n        /* \"DynamicNFT.sol\":1638:1670  _setTokenURI(tokenId, _tokenURI) */\n      tag_197\n        /* \"@thirdweb-dev/contracts/base/ERC721Base.sol\":5837:5850   */\n      dup2\n        /* \"DynamicNFT.sol\":1660:1669  _tokenURI */\n      dup4\n        /* \"DynamicNFT.sol\":1638:1650  _setTokenURI */\n      tag_198\n        /* \"DynamicNFT.sol\":1638:1670  _setTokenURI(tokenId, _tokenURI) */\n      jump\t// in\n    tag_197:\n        /* \"DynamicNFT.sol\":1681:1701  _safeMint(_to,1, \"\") */\n      tag_199\n        /* \"DynamicNFT.sol\":1691:1694  _to */\n      dup4\n        /* \"DynamicNFT.sol\":1695:1696  1 */\n      0x01\n        /* \"DynamicNFT.sol\":1681:1701  _safeMint(_to,1, \"\") */\n      mload(0x40)\n      dup1\n      0x20\n      add\n      0x40\n      mstore\n      dup1\n      0x00\n      dup2\n      mstore\n      pop\n        /* \"DynamicNFT.sol\":1681:1690  _safeMint */\n      tag_200\n        /* \"DynamicNFT.sol\":1681:1701  _safeMint(_to,1, \"\") */\n      jump\t// in\n    tag_199:\n        /* \"DynamicNFT.sol\":1579:1709  {... */\n      pop\n        /* \"DynamicNFT.sol\":1486:1709  function mintTo(address _to, string memory _tokenURI)... */\n      pop\n      pop\n      jump\t// out\n        /* \"@thirdweb-dev/contracts/base/ERC721Base.sol\":2261:2705   */\n    tag_57:\n        /* \"@thirdweb-dev/contracts/base/ERC721Base.sol\":2364:2368   */\n      0x00\n      shl(0xe0, 0x01ffc9a7)\n      not(sub(shl(0xe0, 0x01), 0x01))\n        /* \"@thirdweb-dev/contracts/base/ERC721Base.sol\":2399:2424   */\n      dup4\n      and\n      eq\n      dup1\n        /* \"@thirdweb-dev/contracts/base/ERC721Base.sol\":2399:2499   */\n      tag_202\n      jumpi\n      pop\n      shl(0xe0, 0x80ac58cd)\n      not(sub(shl(0xe0, 0x01), 0x01))\n        /* \"@thirdweb-dev/contracts/base/ERC721Base.sol\":2474:2499   */\n      dup4\n      and\n      eq\n        /* \"@thirdweb-dev/contracts/base/ERC721Base.sol\":2399:2499   */\n    tag_202:\n        /* \"@thirdweb-dev/contracts/base/ERC721Base.sol\":2399:2574   */\n      dup1\n      tag_203\n      jumpi\n      pop\n      shl(0xe0, 0x5b5e139f)\n      not(sub(shl(0xe0, 0x01), 0x01))\n        /* \"@thirdweb-dev/contracts/base/ERC721Base.sol\":2549:2574   */\n      dup4\n      and\n      eq\n        /* \"@thirdweb-dev/contracts/base/ERC721Base.sol\":2399:2574   */\n    tag_203:\n        /* \"@thirdweb-dev/contracts/base/ERC721Base.sol\":2399:2673   */\n      dup1\n      tag_204\n      jumpi\n      pop\n      not(sub(shl(0xe0, 0x01), 0x01))\n        /* \"@thirdweb-dev/contracts/base/ERC721Base.sol\":2632:2673   */\n      dup3\n      and\n      shl(0xe1, 0x152a902d)\n      eq\n        /* \"@thirdweb-dev/contracts/base/ERC721Base.sol\":2399:2673   */\n    tag_204:\n        /* \"@thirdweb-dev/contracts/base/ERC721Base.sol\":2380:2673   */\n      swap3\n        /* \"@thirdweb-dev/contracts/base/ERC721Base.sol\":2261:2705   */\n      swap2\n      pop\n      pop\n      jump\t// out\n        /* \"@thirdweb-dev/contracts/eip/ERC721AVirtualApprove.sol\":6131:6229   */\n    tag_61:\n        /* \"@thirdweb-dev/contracts/eip/ERC721AVirtualApprove.sol\":6185:6198   */\n      0x60\n        /* \"@thirdweb-dev/contracts/eip/ERC721AVirtualApprove.sol\":6217:6222   */\n      0x02\n        /* \"@thirdweb-dev/contracts/eip/ERC721AVirtualApprove.sol\":6210:6222   */\n      dup1\n      sload\n      tag_206\n      swap1\n      tag_207\n      jump\t// in\n    tag_206:\n      dup1\n      0x1f\n      add\n      0x20\n      dup1\n      swap2\n      div\n      mul\n      0x20\n      add\n      mload(0x40)\n      swap1\n      dup2\n      add\n      0x40\n      mstore\n      dup1\n      swap3\n      swap2\n      swap1\n      dup2\n      dup2\n      mstore\n      0x20\n      add\n      dup3\n      dup1\n      sload\n      tag_208\n      swap1\n      tag_207\n      jump\t// in\n    tag_208:\n      dup1\n      iszero\n      tag_209\n      jumpi\n      dup1\n      0x1f\n      lt\n      tag_210\n      jumpi\n      0x0100\n      dup1\n      dup4\n      sload\n      div\n      mul\n      dup4\n      mstore\n      swap2\n      0x20\n      add\n      swap2\n      jump(tag_209)\n    tag_210:\n      dup3\n      add\n      swap2\n      swap1\n      0x00\n      mstore\n      keccak256(0x00, 0x20)\n      swap1\n    tag_211:\n      dup2\n      sload\n      dup2\n      mstore\n      swap1\n      0x01\n      add\n      swap1\n      0x20\n      add\n      dup1\n      dup4\n      gt\n      tag_211\n      jumpi\n      dup3\n      swap1\n      sub\n      0x1f\n      and\n      dup3\n      add\n      swap2\n    tag_209:\n      pop\n      pop\n      pop\n      pop\n      pop\n      swap1\n      pop\n        /* \"@thirdweb-dev/contracts/eip/ERC721AVirtualApprove.sol\":6131:6229   */\n      swap1\n      jump\t// out\n        /* \"@thirdweb-dev/contracts/eip/ERC721AVirtualApprove.sol\":7617:7817   */\n    tag_67:\n        /* \"@thirdweb-dev/contracts/eip/ERC721AVirtualApprove.sol\":7685:7692   */\n      0x00\n        /* \"@thirdweb-dev/contracts/eip/ERC721AVirtualApprove.sol\":7709:7725   */\n      tag_213\n        /* \"@thirdweb-dev/contracts/eip/ERC721AVirtualApprove.sol\":7717:7724   */\n      dup3\n        /* \"@thirdweb-dev/contracts/eip/ERC721AVirtualApprove.sol\":7709:7716   */\n      tag_214\n        /* \"@thirdweb-dev/contracts/eip/ERC721AVirtualApprove.sol\":7709:7725   */\n      jump\t// in\n    tag_213:\n        /* \"@thirdweb-dev/contracts/eip/ERC721AVirtualApprove.sol\":7704:7768   */\n      tag_215\n      jumpi\n        /* \"@thirdweb-dev/contracts/eip/ERC721AVirtualApprove.sol\":7734:7768   */\n      mload(0x40)\n      shl(0xe2, 0x33d1c039)\n      dup2\n      mstore\n      0x04\n      add\n      mload(0x40)\n      dup1\n      swap2\n      sub\n      swap1\n      revert\n        /* \"@thirdweb-dev/contracts/eip/ERC721AVirtualApprove.sol\":7704:7768   */\n    tag_215:\n      pop\n        /* \"@thirdweb-dev/contracts/eip/ERC721AVirtualApprove.sol\":7786:7810   */\n      0x00\n      swap1\n      dup2\n      mstore\n        /* \"@thirdweb-dev/contracts/eip/ERC721AVirtualApprove.sol\":7786:7801   */\n      0x06\n        /* \"@thirdweb-dev/contracts/eip/ERC721AVirtualApprove.sol\":7786:7810   */\n      0x20\n      mstore\n      0x40\n      swap1\n      keccak256\n      sload\n      sub(shl(0xa0, 0x01), 0x01)\n      and\n      swap1\n        /* \"@thirdweb-dev/contracts/eip/ERC721AVirtualApprove.sol\":7617:7817   */\n      jump\t// out\n        /* \"@thirdweb-dev/contracts/base/ERC721Base.sol\":6798:6962   */\n    tag_73:\n        /* \"@thirdweb-dev/contracts/base/ERC721Base.sol\":6903:6911   */\n      dup2\n        /* \"@thirdweb-dev/contracts/extension/OperatorFilterer.sol\":2267:2297   */\n      tag_217\n        /* \"@thirdweb-dev/contracts/extension/OperatorFilterer.sol\":2288:2296   */\n      dup2\n        /* \"@thirdweb-dev/contracts/extension/OperatorFilterer.sol\":2267:2287   */\n      tag_218\n        /* \"@thirdweb-dev/contracts/extension/OperatorFilterer.sol\":2267:2297   */\n      jump\t// in\n    tag_217:\n        /* \"@thirdweb-dev/contracts/base/ERC721Base.sol\":6923:6955   */\n      tag_199\n        /* \"@thirdweb-dev/contracts/base/ERC721Base.sol\":6937:6945   */\n      dup4\n        /* \"@thirdweb-dev/contracts/base/ERC721Base.sol\":6947:6954   */\n      dup4\n        /* \"@thirdweb-dev/contracts/base/ERC721Base.sol\":6923:6936   */\n      tag_221\n        /* \"@thirdweb-dev/contracts/base/ERC721Base.sol\":6923:6955   */\n      jump\t// in\n        /* \"@thirdweb-dev/contracts/extension/Ownable.sol\":1111:1284   */\n    tag_77:\n        /* \"@thirdweb-dev/contracts/extension/Ownable.sol\":1181:1195   */\n      tag_223\n        /* \"@thirdweb-dev/contracts/extension/Ownable.sol\":1181:1193   */\n      tag_224\n        /* \"@thirdweb-dev/contracts/extension/Ownable.sol\":1181:1195   */\n      jump\t// in\n    tag_223:\n        /* \"@thirdweb-dev/contracts/extension/Ownable.sol\":1176:1246   */\n      tag_225\n      jumpi\n        /* \"@thirdweb-dev/contracts/extension/Ownable.sol\":1211:1235   */\n      mload(0x40)\n      shl(0xe5, 0x461bcd)\n      dup2\n      mstore\n        /* \"#utility.yul\":11336:11338   */\n      0x20\n        /* \"@thirdweb-dev/contracts/extension/Ownable.sol\":1211:1235   */\n      0x04\n      dup3\n      add\n        /* \"#utility.yul\":11318:11339   */\n      mstore\n        /* \"#utility.yul\":11375:11377   */\n      0x0e\n        /* \"#utility.yul\":11355:11373   */\n      0x24\n      dup3\n      add\n        /* \"#utility.yul\":11348:11378   */\n      mstore\n      shl(0x92, 0x139bdd08185d5d1a1bdc9a5e9959)\n        /* \"#utility.yul\":11394:11412   */\n      0x44\n      dup3\n      add\n        /* \"#utility.yul\":11387:11431   */\n      mstore\n        /* \"#utility.yul\":11448:11466   */\n      0x64\n      add\n        /* \"@thirdweb-dev/contracts/extension/Ownable.sol\":1211:1235   */\n    tag_226:\n      mload(0x40)\n      dup1\n      swap2\n      sub\n      swap1\n      revert\n        /* \"@thirdweb-dev/contracts/extension/Ownable.sol\":1176:1246   */\n    tag_225:\n        /* \"@thirdweb-dev/contracts/extension/Ownable.sol\":1255:1277   */\n      tag_228\n        /* \"@thirdweb-dev/contracts/extension/Ownable.sol\":1267:1276   */\n      dup2\n        /* \"@thirdweb-dev/contracts/extension/Ownable.sol\":1255:1266   */\n      tag_229\n        /* \"@thirdweb-dev/contracts/extension/Ownable.sol\":1255:1277   */\n      jump\t// in\n    tag_228:\n        /* \"@thirdweb-dev/contracts/extension/Ownable.sol\":1111:1284   */\n      pop\n      jump\t// out\n        /* \"DynamicNFT.sol\":648:910  function setAnimationUrl(uint256 tokenId, string memory name, string memory animationUrl) public {... */\n    tag_81:\n        /* \"DynamicNFT.sol\":760:776  _exists(tokenId) */\n      tag_231\n        /* \"DynamicNFT.sol\":768:775  tokenId */\n      dup4\n        /* \"DynamicNFT.sol\":760:767  _exists */\n      tag_214\n        /* \"DynamicNFT.sol\":760:776  _exists(tokenId) */\n      jump\t// in\n    tag_231:\n        /* \"DynamicNFT.sol\":752:808  require(_exists(tokenId), \"MyNFT: token does not exist\") */\n      tag_232\n      jumpi\n      mload(0x40)\n      shl(0xe5, 0x461bcd)\n      dup2\n      mstore\n        /* \"#utility.yul\":11679:11681   */\n      0x20\n        /* \"DynamicNFT.sol\":752:808  require(_exists(tokenId), \"MyNFT: token does not exist\") */\n      0x04\n      dup3\n      add\n        /* \"#utility.yul\":11661:11682   */\n      mstore\n        /* \"#utility.yul\":11718:11720   */\n      0x1b\n        /* \"#utility.yul\":11698:11716   */\n      0x24\n      dup3\n      add\n        /* \"#utility.yul\":11691:11721   */\n      mstore\n        /* \"#utility.yul\":11757:11786   */\n      0x4d794e46543a20746f6b656e20646f6573206e6f742065786973740000000000\n        /* \"#utility.yul\":11737:11755   */\n      0x44\n      dup3\n      add\n        /* \"#utility.yul\":11730:11787   */\n      mstore\n        /* \"#utility.yul\":11804:11822   */\n      0x64\n      add\n        /* \"DynamicNFT.sol\":752:808  require(_exists(tokenId), \"MyNFT: token does not exist\") */\n      tag_226\n        /* \"#utility.yul\":11477:11828   */\n      jump\n        /* \"DynamicNFT.sol\":752:808  require(_exists(tokenId), \"MyNFT: token does not exist\") */\n    tag_232:\n        /* \"DynamicNFT.sol\":815:837  _NftAnimation[tokenId] */\n      0x00\n      dup4\n      dup2\n      mstore\n        /* \"DynamicNFT.sol\":815:828  _NftAnimation */\n      0x10\n        /* \"DynamicNFT.sol\":815:837  _NftAnimation[tokenId] */\n      0x20\n      swap1\n      dup2\n      mstore\n      0x40\n      swap1\n      swap2\n      keccak256\n        /* \"DynamicNFT.sol\":815:849  _NftAnimation[tokenId].name = name */\n      dup4\n      mload\n      tag_235\n      swap3\n      dup6\n      add\n      swap1\n      tag_236\n      jump\t// in\n    tag_235:\n      pop\n        /* \"DynamicNFT.sol\":856:878  _NftAnimation[tokenId] */\n      0x00\n      dup4\n      dup2\n      mstore\n        /* \"DynamicNFT.sol\":856:869  _NftAnimation */\n      0x10\n        /* \"DynamicNFT.sol\":856:878  _NftAnimation[tokenId] */\n      0x20\n      swap1\n      dup2\n      mstore\n      0x40\n      swap1\n      swap2\n      keccak256\n        /* \"DynamicNFT.sol\":856:906  _NftAnimation[tokenId].animationUrl = animationUrl */\n      dup3\n      mload\n      tag_237\n      swap3\n        /* \"DynamicNFT.sol\":856:891  _NftAnimation[tokenId].animationUrl */\n      0x01\n      swap1\n      swap3\n      add\n      swap2\n        /* \"DynamicNFT.sol\":856:906  _NftAnimation[tokenId].animationUrl = animationUrl */\n      dup5\n      add\n      swap1\n      tag_236\n      jump\t// in\n    tag_237:\n      pop\n        /* \"DynamicNFT.sol\":648:910  function setAnimationUrl(uint256 tokenId, string memory name, string memory animationUrl) public {... */\n      pop\n      pop\n      pop\n      jump\t// out\n        /* \"@thirdweb-dev/contracts/base/ERC721Base.sol\":7009:7209   */\n    tag_89:\n        /* \"@thirdweb-dev/contracts/base/ERC721Base.sol\":7149:7153   */\n      dup3\n      sub(shl(0xa0, 0x01), 0x01)\n        /* \"@thirdweb-dev/contracts/extension/OperatorFilterer.sol\":2094:2112   */\n      dup2\n      and\n        /* \"@thirdweb-dev/contracts/extension/OperatorFilterer.sol\":2102:2112   */\n      caller\n        /* \"@thirdweb-dev/contracts/extension/OperatorFilterer.sol\":2094:2112   */\n      eq\n        /* \"@thirdweb-dev/contracts/extension/OperatorFilterer.sol\":2090:2171   */\n      tag_243\n      jumpi\n        /* \"@thirdweb-dev/contracts/extension/OperatorFilterer.sol\":2128:2160   */\n      tag_243\n        /* \"@thirdweb-dev/contracts/extension/OperatorFilterer.sol\":2149:2159   */\n      caller\n        /* \"@thirdweb-dev/contracts/extension/OperatorFilterer.sol\":2128:2148   */\n      tag_218\n        /* \"@thirdweb-dev/contracts/extension/OperatorFilterer.sol\":2128:2160   */\n      jump\t// in\n    tag_243:\n        /* \"@thirdweb-dev/contracts/base/ERC721Base.sol\":7165:7202   */\n      tag_237\n        /* \"@thirdweb-dev/contracts/base/ERC721Base.sol\":7184:7188   */\n      dup5\n        /* \"@thirdweb-dev/contracts/base/ERC721Base.sol\":7190:7192   */\n      dup5\n        /* \"@thirdweb-dev/contracts/base/ERC721Base.sol\":7194:7201   */\n      dup5\n        /* \"@thirdweb-dev/contracts/base/ERC721Base.sol\":7165:7183   */\n      tag_246\n        /* \"@thirdweb-dev/contracts/base/ERC721Base.sol\":7165:7202   */\n      jump\t// in\n        /* \"@thirdweb-dev/contracts/extension/BatchMintMetadata.sol\":1255:1458   */\n    tag_92:\n        /* \"@thirdweb-dev/contracts/extension/BatchMintMetadata.sol\":1319:1326   */\n      0x00\n        /* \"@thirdweb-dev/contracts/extension/BatchMintMetadata.sol\":1352:1369   */\n      tag_248\n        /* \"@thirdweb-dev/contracts/extension/BatchMintMetadata.sol\":1032:1040   */\n      0x0c\n        /* \"@thirdweb-dev/contracts/extension/BatchMintMetadata.sol\":1032:1047   */\n      sload\n      swap1\n        /* \"@thirdweb-dev/contracts/extension/BatchMintMetadata.sol\":958:1054   */\n      jump\n        /* \"@thirdweb-dev/contracts/extension/BatchMintMetadata.sol\":1352:1369   */\n    tag_248:\n        /* \"@thirdweb-dev/contracts/extension/BatchMintMetadata.sol\":1342:1348   */\n      dup3\n        /* \"@thirdweb-dev/contracts/extension/BatchMintMetadata.sol\":1342:1369   */\n      lt\n        /* \"@thirdweb-dev/contracts/extension/BatchMintMetadata.sol\":1338:1419   */\n      tag_249\n      jumpi\n        /* \"@thirdweb-dev/contracts/extension/BatchMintMetadata.sol\":1385:1408   */\n      mload(0x40)\n      shl(0xe5, 0x461bcd)\n      dup2\n      mstore\n        /* \"#utility.yul\":12035:12037   */\n      0x20\n        /* \"@thirdweb-dev/contracts/extension/BatchMintMetadata.sol\":1385:1408   */\n      0x04\n      dup3\n      add\n        /* \"#utility.yul\":12017:12038   */\n      mstore\n        /* \"#utility.yul\":12074:12076   */\n      0x0d\n        /* \"#utility.yul\":12054:12072   */\n      0x24\n      dup3\n      add\n        /* \"#utility.yul\":12047:12077   */\n      mstore\n        /* \"#utility.yul\":12113:12128   */\n      0x496e76616c696420696e64657800000000000000000000000000000000000000\n        /* \"#utility.yul\":12093:12111   */\n      0x44\n      dup3\n      add\n        /* \"#utility.yul\":12086:12129   */\n      mstore\n        /* \"#utility.yul\":12146:12164   */\n      0x64\n      add\n        /* \"@thirdweb-dev/contracts/extension/BatchMintMetadata.sol\":1385:1408   */\n      tag_226\n        /* \"#utility.yul\":11833:12170   */\n      jump\n        /* \"@thirdweb-dev/contracts/extension/BatchMintMetadata.sol\":1338:1419   */\n    tag_249:\n        /* \"@thirdweb-dev/contracts/extension/BatchMintMetadata.sol\":1435:1443   */\n      0x0c\n        /* \"@thirdweb-dev/contracts/extension/BatchMintMetadata.sol\":1444:1450   */\n      dup3\n        /* \"@thirdweb-dev/contracts/extension/BatchMintMetadata.sol\":1435:1451   */\n      dup2\n      sload\n      dup2\n      lt\n      tag_253\n      jumpi\n      tag_253\n      tag_254\n      jump\t// in\n    tag_253:\n      swap1\n      0x00\n      mstore\n      keccak256(0x00, 0x20)\n      add\n      sload\n        /* \"@thirdweb-dev/contracts/extension/BatchMintMetadata.sol\":1428:1451   */\n      swap1\n      pop\n        /* \"@thirdweb-dev/contracts/extension/BatchMintMetadata.sol\":1255:1458   */\n      swap2\n      swap1\n      pop\n      jump\t// out\n        /* \"@thirdweb-dev/contracts/extension/Royalty.sol\":1399:1746   */\n    tag_97:\n        /* \"@thirdweb-dev/contracts/extension/Royalty.sol\":1536:1552   */\n      0x00\n        /* \"@thirdweb-dev/contracts/extension/Royalty.sol\":1554:1575   */\n      dup1\n        /* \"@thirdweb-dev/contracts/extension/Royalty.sol\":1592:1609   */\n      0x00\n        /* \"@thirdweb-dev/contracts/extension/Royalty.sol\":1611:1622   */\n      dup1\n        /* \"@thirdweb-dev/contracts/extension/Royalty.sol\":1626:1657   */\n      tag_257\n        /* \"@thirdweb-dev/contracts/extension/Royalty.sol\":1649:1656   */\n      dup7\n        /* \"@thirdweb-dev/contracts/extension/Royalty.sol\":1626:1648   */\n      tag_128\n        /* \"@thirdweb-dev/contracts/extension/Royalty.sol\":1626:1657   */\n      jump\t// in\n    tag_257:\n        /* \"@thirdweb-dev/contracts/extension/Royalty.sol\":1591:1657   */\n      swap1\n      swap5\n      pop\n      dup5\n      swap3\n      pop\n      0xffff\n      and\n      swap1\n      pop\n        /* \"@thirdweb-dev/contracts/extension/Royalty.sol\":1733:1739   */\n      0x2710\n        /* \"@thirdweb-dev/contracts/extension/Royalty.sol\":1714:1729   */\n      tag_258\n        /* \"@thirdweb-dev/contracts/extension/Royalty.sol\":1591:1657   */\n      dup3\n        /* \"@thirdweb-dev/contracts/extension/Royalty.sol\":1714:1723   */\n      dup8\n        /* \"@thirdweb-dev/contracts/extension/Royalty.sol\":1714:1729   */\n      tag_259\n      jump\t// in\n    tag_258:\n        /* \"@thirdweb-dev/contracts/extension/Royalty.sol\":1713:1739   */\n      tag_260\n      swap2\n      swap1\n      tag_261\n      jump\t// in\n    tag_260:\n        /* \"@thirdweb-dev/contracts/extension/Royalty.sol\":1697:1739   */\n      swap3\n      pop\n        /* \"@thirdweb-dev/contracts/extension/Royalty.sol\":1581:1746   */\n      pop\n      pop\n        /* \"@thirdweb-dev/contracts/extension/Royalty.sol\":1399:1746   */\n      swap3\n      pop\n      swap3\n      swap1\n      pop\n      jump\t// out\n        /* \"@thirdweb-dev/contracts/extension/OperatorFilterToggle.sol\":221:429   */\n    tag_103:\n        /* \"@thirdweb-dev/contracts/extension/OperatorFilterToggle.sol\":299:327   */\n      tag_263\n        /* \"@thirdweb-dev/contracts/extension/OperatorFilterToggle.sol\":299:325   */\n      tag_224\n        /* \"@thirdweb-dev/contracts/extension/OperatorFilterToggle.sol\":299:327   */\n      jump\t// in\n    tag_263:\n        /* \"@thirdweb-dev/contracts/extension/OperatorFilterToggle.sol\":291:375   */\n      tag_265\n      jumpi\n      mload(0x40)\n      shl(0xe5, 0x461bcd)\n      dup2\n      mstore\n        /* \"#utility.yul\":13071:13073   */\n      0x20\n        /* \"@thirdweb-dev/contracts/extension/OperatorFilterToggle.sol\":291:375   */\n      0x04\n      dup3\n      add\n        /* \"#utility.yul\":13053:13074   */\n      mstore\n        /* \"#utility.yul\":13110:13112   */\n      0x2b\n        /* \"#utility.yul\":13090:13108   */\n      0x24\n      dup3\n      add\n        /* \"#utility.yul\":13083:13113   */\n      mstore\n        /* \"#utility.yul\":13149:13183   */\n      0x4e6f7420617574686f72697a656420746f20736574206f70657261746f722072\n        /* \"#utility.yul\":13129:13147   */\n      0x44\n      dup3\n      add\n        /* \"#utility.yul\":13122:13184   */\n      mstore\n        /* \"#utility.yul\":13220:13233   */\n      0x65737472696374696f6e2e000000000000000000000000000000000000000000\n        /* \"#utility.yul\":13200:13218   */\n      0x64\n      dup3\n      add\n        /* \"#utility.yul\":13193:13234   */\n      mstore\n        /* \"#utility.yul\":13251:13270   */\n      0x84\n      add\n        /* \"@thirdweb-dev/contracts/extension/OperatorFilterToggle.sol\":291:375   */\n      tag_226\n        /* \"#utility.yul\":12869:13276   */\n      jump\n        /* \"@thirdweb-dev/contracts/extension/OperatorFilterToggle.sol\":291:375   */\n    tag_265:\n        /* \"@thirdweb-dev/contracts/extension/OperatorFilterToggle.sol\":385:422   */\n      tag_228\n        /* \"@thirdweb-dev/contracts/extension/OperatorFilterToggle.sol\":409:421   */\n      dup2\n        /* \"@thirdweb-dev/contracts/extension/OperatorFilterToggle.sol\":385:408   */\n      tag_269\n        /* \"@thirdweb-dev/contracts/extension/OperatorFilterToggle.sol\":385:422   */\n      jump\t// in\n        /* \"DynamicNFT.sol\":914:1483  function getNftAnimation(uint256 tokenId) public view returns (NftAnimation memory) {... */\n    tag_106:\n      0x40\n      dup1\n      mload\n      dup1\n      dup3\n      add\n      swap1\n      swap2\n      mstore\n      0x60\n      dup1\n      dup3\n      mstore\n      0x20\n      dup3\n      add\n      mstore\n        /* \"DynamicNFT.sol\":1013:1029  _exists(tokenId) */\n      tag_273\n        /* \"DynamicNFT.sol\":1021:1028  tokenId */\n      dup3\n        /* \"DynamicNFT.sol\":1013:1020  _exists */\n      tag_214\n        /* \"DynamicNFT.sol\":1013:1029  _exists(tokenId) */\n      jump\t// in\n    tag_273:\n        /* \"DynamicNFT.sol\":1005:1061  require(_exists(tokenId), \"MyNFT: token does not exist\") */\n      tag_274\n      jumpi\n      mload(0x40)\n      shl(0xe5, 0x461bcd)\n      dup2\n      mstore\n        /* \"#utility.yul\":11679:11681   */\n      0x20\n        /* \"DynamicNFT.sol\":1005:1061  require(_exists(tokenId), \"MyNFT: token does not exist\") */\n      0x04\n      dup3\n      add\n        /* \"#utility.yul\":11661:11682   */\n      mstore\n        /* \"#utility.yul\":11718:11720   */\n      0x1b\n        /* \"#utility.yul\":11698:11716   */\n      0x24\n      dup3\n      add\n        /* \"#utility.yul\":11691:11721   */\n      mstore\n        /* \"#utility.yul\":11757:11786   */\n      0x4d794e46543a20746f6b656e20646f6573206e6f742065786973740000000000\n        /* \"#utility.yul\":11737:11755   */\n      0x44\n      dup3\n      add\n        /* \"#utility.yul\":11730:11787   */\n      mstore\n        /* \"#utility.yul\":11804:11822   */\n      0x64\n      add\n        /* \"DynamicNFT.sol\":1005:1061  require(_exists(tokenId), \"MyNFT: token does not exist\") */\n      tag_226\n        /* \"#utility.yul\":11477:11828   */\n      jump\n        /* \"DynamicNFT.sol\":1005:1061  require(_exists(tokenId), \"MyNFT: token does not exist\") */\n    tag_274:\n        /* \"DynamicNFT.sol\":1112:1134  _NftAnimation[tokenId] */\n      0x00\n      dup3\n      dup2\n      mstore\n        /* \"DynamicNFT.sol\":1112:1125  _NftAnimation */\n      0x10\n        /* \"DynamicNFT.sol\":1112:1134  _NftAnimation[tokenId] */\n      0x20\n      mstore\n      0x40\n      swap1\n      keccak256\n        /* \"DynamicNFT.sol\":1106:1147  bytes(_NftAnimation[tokenId].name).length */\n      dup1\n      sload\n      tag_276\n      swap1\n      tag_207\n      jump\t// in\n    tag_276:\n        /* \"DynamicNFT.sol\":1106:1152  bytes(_NftAnimation[tokenId].name).length == 0 */\n      iszero\n      swap1\n      pop\n        /* \"DynamicNFT.sol\":1106:1210  bytes(_NftAnimation[tokenId].name).length == 0 && bytes(_NftAnimation[tokenId].animationUrl).length == 0 */\n      dup1\n      iszero\n      tag_277\n      jumpi\n      pop\n        /* \"DynamicNFT.sol\":1162:1184  _NftAnimation[tokenId] */\n      0x00\n      dup3\n      dup2\n      mstore\n        /* \"DynamicNFT.sol\":1162:1175  _NftAnimation */\n      0x10\n        /* \"DynamicNFT.sol\":1162:1184  _NftAnimation[tokenId] */\n      0x20\n      mstore\n      0x40\n      swap1\n      keccak256\n        /* \"DynamicNFT.sol\":1162:1197  _NftAnimation[tokenId].animationUrl */\n      0x01\n      add\n        /* \"DynamicNFT.sol\":1156:1205  bytes(_NftAnimation[tokenId].animationUrl).length */\n      dup1\n      sload\n      tag_278\n      swap1\n      tag_207\n      jump\t// in\n    tag_278:\n        /* \"DynamicNFT.sol\":1156:1210  bytes(_NftAnimation[tokenId].animationUrl).length == 0 */\n      iszero\n      swap1\n      pop\n        /* \"DynamicNFT.sol\":1106:1210  bytes(_NftAnimation[tokenId].name).length == 0 && bytes(_NftAnimation[tokenId].animationUrl).length == 0 */\n    tag_277:\n        /* \"DynamicNFT.sol\":1102:1480  if (bytes(_NftAnimation[tokenId].name).length == 0 && bytes(_NftAnimation[tokenId].animationUrl).length == 0) {... */\n      iszero\n      tag_279\n      jumpi\n        /* \"DynamicNFT.sol\":1266:1383  NftAnimation(\"T-pose\", \"https://ipfs.thirdwebcdn.com/ipfs/QmfXftFxvUi43oU7ismHEkRRaMsm9fb6kwX8RhFLMw3aty/T-Pose.fbx\") */\n      mload(0x40)\n      dup1\n      0x40\n      add\n      0x40\n      mstore\n      dup1\n      mload(0x40)\n      dup1\n      0x40\n      add\n      0x40\n      mstore\n      dup1\n      0x06\n      dup2\n      mstore\n      0x20\n      add\n      0x542d706f73650000000000000000000000000000000000000000000000000000\n      dup2\n      mstore\n      pop\n      dup2\n      mstore\n      0x20\n      add\n      mload(0x40)\n      dup1\n      0x80\n      add\n      0x40\n      mstore\n      dup1\n      0x5b\n      dup2\n      mstore\n      0x20\n      add\n      data_9884c79c9a55d6d33b9a1048656903e7f7d98575969060e539b89ef505b34c9f\n      0x5b\n      swap2\n      codecopy\n      swap1\n      mstore\n        /* \"DynamicNFT.sol\":1259:1383  return NftAnimation(\"T-pose\", \"https://ipfs.thirdwebcdn.com/ipfs/QmfXftFxvUi43oU7ismHEkRRaMsm9fb6kwX8RhFLMw3aty/T-Pose.fbx\") */\n      swap3\n        /* \"DynamicNFT.sol\":914:1483  function getNftAnimation(uint256 tokenId) public view returns (NftAnimation memory) {... */\n      swap2\n      pop\n      pop\n      jump\t// out\n        /* \"DynamicNFT.sol\":1102:1480  if (bytes(_NftAnimation[tokenId].name).length == 0 && bytes(_NftAnimation[tokenId].animationUrl).length == 0) {... */\n    tag_279:\n        /* \"DynamicNFT.sol\":1450:1472  _NftAnimation[tokenId] */\n      0x00\n      dup3\n      dup2\n      mstore\n        /* \"DynamicNFT.sol\":1450:1463  _NftAnimation */\n      0x10\n        /* \"DynamicNFT.sol\":1450:1472  _NftAnimation[tokenId] */\n      0x20\n      mstore\n      0x40\n      swap1\n      dup2\n      swap1\n      keccak256\n        /* \"DynamicNFT.sol\":1443:1472  return _NftAnimation[tokenId] */\n      dup2\n      mload\n      dup1\n      dup4\n      add\n      swap1\n      swap3\n      mstore\n      dup1\n      sload\n      dup3\n      swap1\n        /* \"DynamicNFT.sol\":1450:1472  _NftAnimation[tokenId] */\n      dup3\n      swap1\n        /* \"DynamicNFT.sol\":1443:1472  return _NftAnimation[tokenId] */\n      tag_281\n      swap1\n      tag_207\n      jump\t// in\n    tag_281:\n      dup1\n      0x1f\n      add\n      0x20\n      dup1\n      swap2\n      div\n      mul\n      0x20\n      add\n      mload(0x40)\n      swap1\n      dup2\n      add\n      0x40\n      mstore\n      dup1\n      swap3\n      swap2\n      swap1\n      dup2\n      dup2\n      mstore\n      0x20\n      add\n      dup3\n      dup1\n      sload\n      tag_282\n      swap1\n      tag_207\n      jump\t// in\n    tag_282:\n      dup1\n      iszero\n      tag_283\n      jumpi\n      dup1\n      0x1f\n      lt\n      tag_284\n      jumpi\n      0x0100\n      dup1\n      dup4\n      sload\n      div\n      mul\n      dup4\n      mstore\n      swap2\n      0x20\n      add\n      swap2\n      jump(tag_283)\n    tag_284:\n      dup3\n      add\n      swap2\n      swap1\n      0x00\n      mstore\n      keccak256(0x00, 0x20)\n      swap1\n    tag_285:\n      dup2\n      sload\n      dup2\n      mstore\n      swap1\n      0x01\n      add\n      swap1\n      0x20\n      add\n      dup1\n      dup4\n      gt\n      tag_285\n      jumpi\n      dup3\n      swap1\n      sub\n      0x1f\n      and\n      dup3\n      add\n      swap2\n    tag_283:\n      pop\n      pop\n      pop\n      pop\n      pop\n      dup2\n      mstore\n      0x20\n      add\n      0x01\n      dup3\n      add\n      dup1\n      sload\n      tag_286\n      swap1\n      tag_207\n      jump\t// in\n    tag_286:\n      dup1\n      0x1f\n      add\n      0x20\n      dup1\n      swap2\n      div\n      mul\n      0x20\n      add\n      mload(0x40)\n      swap1\n      dup2\n      add\n      0x40\n      mstore\n      dup1\n      swap3\n      swap2\n      swap1\n      dup2\n      dup2\n      mstore\n      0x20\n      add\n      dup3\n      dup1\n      sload\n      tag_287\n      swap1\n      tag_207\n      jump\t// in\n    tag_287:\n      dup1\n      iszero\n      tag_288\n      jumpi\n      dup1\n      0x1f\n      lt\n      tag_289\n      jumpi\n      0x0100\n      dup1\n      dup4\n      sload\n      div\n      mul\n      dup4\n      mstore\n      swap2\n      0x20\n      add\n      swap2\n      jump(tag_288)\n    tag_289:\n      dup3\n      add\n      swap2\n      swap1\n      0x00\n      mstore\n      keccak256(0x00, 0x20)\n      swap1\n    tag_290:\n      dup2\n      sload\n      dup2\n      mstore\n      swap1\n      0x01\n      add\n      swap1\n      0x20\n      add\n      dup1\n      dup4\n      gt\n      tag_290\n      jumpi\n      dup3\n      swap1\n      sub\n      0x1f\n      and\n      dup3\n      add\n      swap2\n    tag_288:\n      pop\n      pop\n      pop\n      pop\n      pop\n      dup2\n      mstore\n      pop\n      pop\n      swap1\n      pop\n        /* \"DynamicNFT.sol\":914:1483  function getNftAnimation(uint256 tokenId) public view returns (NftAnimation memory) {... */\n      swap2\n      swap1\n      pop\n      jump\t// out\n        /* \"DynamicNFT.sol\":1102:1480  if (bytes(_NftAnimation[tokenId].name).length == 0 && bytes(_NftAnimation[tokenId].animationUrl).length == 0) {... */\n    tag_280:\n        /* \"DynamicNFT.sol\":914:1483  function getNftAnimation(uint256 tokenId) public view returns (NftAnimation memory) {... */\n      swap2\n      swap1\n      pop\n      jump\t// out\n        /* \"@thirdweb-dev/contracts/base/ERC721Base.sol\":7260:7468   */\n    tag_118:\n        /* \"@thirdweb-dev/contracts/base/ERC721Base.sol\":7404:7408   */\n      dup3\n      sub(shl(0xa0, 0x01), 0x01)\n        /* \"@thirdweb-dev/contracts/extension/OperatorFilterer.sol\":2094:2112   */\n      dup2\n      and\n        /* \"@thirdweb-dev/contracts/extension/OperatorFilterer.sol\":2102:2112   */\n      caller\n        /* \"@thirdweb-dev/contracts/extension/OperatorFilterer.sol\":2094:2112   */\n      eq\n        /* \"@thirdweb-dev/contracts/extension/OperatorFilterer.sol\":2090:2171   */\n      tag_294\n      jumpi\n        /* \"@thirdweb-dev/contracts/extension/OperatorFilterer.sol\":2128:2160   */\n      tag_294\n        /* \"@thirdweb-dev/contracts/extension/OperatorFilterer.sol\":2149:2159   */\n      caller\n        /* \"@thirdweb-dev/contracts/extension/OperatorFilterer.sol\":2128:2148   */\n      tag_218\n        /* \"@thirdweb-dev/contracts/extension/OperatorFilterer.sol\":2128:2160   */\n      jump\t// in\n    tag_294:\n        /* \"@thirdweb-dev/contracts/base/ERC721Base.sol\":7420:7461   */\n      tag_237\n        /* \"@thirdweb-dev/contracts/base/ERC721Base.sol\":7443:7447   */\n      dup5\n        /* \"@thirdweb-dev/contracts/base/ERC721Base.sol\":7449:7451   */\n      dup5\n        /* \"@thirdweb-dev/contracts/base/ERC721Base.sol\":7453:7460   */\n      dup5\n        /* \"@thirdweb-dev/contracts/base/ERC721Base.sol\":7420:7442   */\n      tag_297\n        /* \"@thirdweb-dev/contracts/base/ERC721Base.sol\":7420:7461   */\n      jump\t// in\n        /* \"@thirdweb-dev/contracts/base/ERC721Base.sol\":5411:5498   */\n    tag_121:\n        /* \"@thirdweb-dev/contracts/base/ERC721Base.sol\":5470:5491   */\n      tag_228\n        /* \"@thirdweb-dev/contracts/base/ERC721Base.sol\":5476:5484   */\n      dup2\n        /* \"@thirdweb-dev/contracts/base/ERC721Base.sol\":5486:5490   */\n      0x01\n        /* \"@thirdweb-dev/contracts/base/ERC721Base.sol\":5470:5475   */\n      tag_300\n        /* \"@thirdweb-dev/contracts/base/ERC721Base.sol\":5470:5491   */\n      jump\t// in\n        /* \"@thirdweb-dev/contracts/base/ERC721Base.sol\":5957:6314   */\n    tag_124:\n        /* \"@thirdweb-dev/contracts/base/ERC721Base.sol\":6082:6106   */\n      0x00\n        /* \"@thirdweb-dev/contracts/base/ERC721Base.sol\":6122:6135   */\n      dup1\n        /* \"@thirdweb-dev/contracts/base/ERC721Base.sol\":6138:6155   */\n      tag_302\n        /* \"@thirdweb-dev/contracts/base/ERC721Base.sol\":6146:6154   */\n      dup4\n        /* \"@thirdweb-dev/contracts/base/ERC721Base.sol\":6138:6145   */\n      tag_139\n        /* \"@thirdweb-dev/contracts/base/ERC721Base.sol\":6138:6155   */\n      jump\t// in\n    tag_302:\n        /* \"@thirdweb-dev/contracts/base/ERC721Base.sol\":6122:6155   */\n      swap1\n      pop\n        /* \"@thirdweb-dev/contracts/base/ERC721Base.sol\":6201:6206   */\n      dup1\n      sub(shl(0xa0, 0x01), 0x01)\n        /* \"@thirdweb-dev/contracts/base/ERC721Base.sol\":6188:6206   */\n      and\n        /* \"@thirdweb-dev/contracts/base/ERC721Base.sol\":6188:6197   */\n      dup5\n      sub(shl(0xa0, 0x01), 0x01)\n        /* \"@thirdweb-dev/contracts/base/ERC721Base.sol\":6188:6206   */\n      and\n      eq\n        /* \"@thirdweb-dev/contracts/base/ERC721Base.sol\":6188:6256   */\n      dup1\n      tag_304\n      jumpi\n      pop\n      sub(shl(0xa0, 0x01), 0x01)\n        /* \"@thirdweb-dev/contracts/eip/ERC721AVirtualApprove.sol\":8352:8377   */\n      dup1\n      dup3\n      and\n        /* \"@thirdweb-dev/contracts/eip/ERC721AVirtualApprove.sol\":8329:8333   */\n      0x00\n        /* \"@thirdweb-dev/contracts/eip/ERC721AVirtualApprove.sol\":8352:8377   */\n      swap1\n      dup2\n      mstore\n        /* \"@thirdweb-dev/contracts/eip/ERC721AVirtualApprove.sol\":8352:8370   */\n      0x07\n        /* \"@thirdweb-dev/contracts/eip/ERC721AVirtualApprove.sol\":8352:8377   */\n      0x20\n      swap1\n      dup2\n      mstore\n      0x40\n      dup1\n      dup4\n      keccak256\n        /* \"@thirdweb-dev/contracts/eip/ERC721AVirtualApprove.sol\":8352:8387   */\n      swap4\n      dup9\n      and\n      dup4\n      mstore\n      swap3\n      swap1\n      mstore\n      keccak256\n      sload\n      0xff\n      and\n        /* \"@thirdweb-dev/contracts/base/ERC721Base.sol\":6222:6256   */\n    tag_304:\n        /* \"@thirdweb-dev/contracts/base/ERC721Base.sol\":6188:6306   */\n      dup1\n      tag_305\n      jumpi\n      pop\n        /* \"@thirdweb-dev/contracts/base/ERC721Base.sol\":6297:6306   */\n      dup4\n      sub(shl(0xa0, 0x01), 0x01)\n        /* \"@thirdweb-dev/contracts/base/ERC721Base.sol\":6272:6306   */\n      and\n        /* \"@thirdweb-dev/contracts/base/ERC721Base.sol\":6272:6293   */\n      tag_306\n        /* \"@thirdweb-dev/contracts/base/ERC721Base.sol\":6284:6292   */\n      dup5\n        /* \"@thirdweb-dev/contracts/base/ERC721Base.sol\":6272:6283   */\n      tag_67\n        /* \"@thirdweb-dev/contracts/base/ERC721Base.sol\":6272:6293   */\n      jump\t// in\n    tag_306:\n      sub(shl(0xa0, 0x01), 0x01)\n        /* \"@thirdweb-dev/contracts/base/ERC721Base.sol\":6272:6306   */\n      and\n      eq\n        /* \"@thirdweb-dev/contracts/base/ERC721Base.sol\":6188:6306   */\n    tag_305:\n        /* \"@thirdweb-dev/contracts/base/ERC721Base.sol\":6165:6307   */\n      swap5\n        /* \"@thirdweb-dev/contracts/base/ERC721Base.sol\":5957:6314   */\n      swap4\n      pop\n      pop\n      pop\n      pop\n      jump\t// out\n        /* \"@thirdweb-dev/contracts/extension/Royalty.sol\":1986:2367   */\n    tag_128:\n        /* \"@thirdweb-dev/contracts/extension/Royalty.sol\":2066:2073   */\n      0x00\n        /* \"@thirdweb-dev/contracts/extension/Royalty.sol\":2130:2159   */\n      dup2\n      dup2\n      mstore\n        /* \"@thirdweb-dev/contracts/extension/Royalty.sol\":2130:2149   */\n      0x0b\n        /* \"@thirdweb-dev/contracts/extension/Royalty.sol\":2130:2159   */\n      0x20\n      swap1\n      dup2\n      mstore\n      0x40\n      dup1\n      dup4\n      keccak256\n        /* \"@thirdweb-dev/contracts/extension/Royalty.sol\":2093:2159   */\n      dup2\n      mload\n      dup1\n      dup4\n      add\n      swap1\n      swap3\n      mstore\n      dup1\n      sload\n      sub(shl(0xa0, 0x01), 0x01)\n      and\n      dup1\n      dup4\n      mstore\n      0x01\n      swap1\n      swap2\n      add\n      sload\n      swap3\n      dup3\n      add\n      swap3\n      swap1\n      swap3\n      mstore\n        /* \"@thirdweb-dev/contracts/extension/Royalty.sol\":2066:2073   */\n      dup3\n      swap2\n        /* \"@thirdweb-dev/contracts/extension/Royalty.sol\":2189:2228   */\n      iszero\n        /* \"@thirdweb-dev/contracts/extension/Royalty.sol\":2189:2360   */\n      tag_308\n      jumpi\n        /* \"@thirdweb-dev/contracts/extension/Royalty.sol\":2305:2330   */\n      dup1\n      mload\n        /* \"@thirdweb-dev/contracts/extension/Royalty.sol\":2339:2358   */\n      0x20\n      dup3\n      add\n      mload\n        /* \"@thirdweb-dev/contracts/extension/Royalty.sol\":2189:2360   */\n      jump(tag_309)\n    tag_308:\n        /* \"@thirdweb-dev/contracts/extension/Royalty.sol\":2248:2264   */\n      sload(0x0a)\n      sub(shl(0xa0, 0x01), 0x01)\n      dup2\n      and\n      swap1\n      shl(0xa0, 0x01)\n        /* \"@thirdweb-dev/contracts/extension/Royalty.sol\":2273:2283   */\n      swap1\n      div\n      0xffff\n      and\n        /* \"@thirdweb-dev/contracts/extension/Royalty.sol\":2189:2360   */\n    tag_309:\n        /* \"@thirdweb-dev/contracts/extension/Royalty.sol\":2170:2360   */\n      swap3\n      pop\n      swap3\n      pop\n      pop\n        /* \"@thirdweb-dev/contracts/extension/Royalty.sol\":1986:2367   */\n      swap2\n      pop\n      swap2\n      jump\t// out\n        /* \"@thirdweb-dev/contracts/extension/Royalty.sol\":3065:3321   */\n    tag_136:\n        /* \"@thirdweb-dev/contracts/extension/Royalty.sol\":3177:3197   */\n      tag_311\n        /* \"@thirdweb-dev/contracts/extension/Royalty.sol\":3177:3195   */\n      tag_224\n        /* \"@thirdweb-dev/contracts/extension/Royalty.sol\":3177:3197   */\n      jump\t// in\n    tag_311:\n        /* \"@thirdweb-dev/contracts/extension/Royalty.sol\":3172:3248   */\n      tag_313\n      jumpi\n        /* \"@thirdweb-dev/contracts/extension/Royalty.sol\":3213:3237   */\n      mload(0x40)\n      shl(0xe5, 0x461bcd)\n      dup2\n      mstore\n        /* \"#utility.yul\":11336:11338   */\n      0x20\n        /* \"@thirdweb-dev/contracts/extension/Royalty.sol\":3213:3237   */\n      0x04\n      dup3\n      add\n        /* \"#utility.yul\":11318:11339   */\n      mstore\n        /* \"#utility.yul\":11375:11377   */\n      0x0e\n        /* \"#utility.yul\":11355:11373   */\n      0x24\n      dup3\n      add\n        /* \"#utility.yul\":11348:11378   */\n      mstore\n      shl(0x92, 0x139bdd08185d5d1a1bdc9a5e9959)\n        /* \"#utility.yul\":11394:11412   */\n      0x44\n      dup3\n      add\n        /* \"#utility.yul\":11387:11431   */\n      mstore\n        /* \"#utility.yul\":11448:11466   */\n      0x64\n      add\n        /* \"@thirdweb-dev/contracts/extension/Royalty.sol\":3213:3237   */\n      tag_226\n        /* \"#utility.yul\":11134:11472   */\n      jump\n        /* \"@thirdweb-dev/contracts/extension/Royalty.sol\":3172:3248   */\n    tag_313:\n        /* \"@thirdweb-dev/contracts/extension/Royalty.sol\":3258:3314   */\n      tag_315\n        /* \"@thirdweb-dev/contracts/extension/Royalty.sol\":3283:3300   */\n      dup3\n        /* \"@thirdweb-dev/contracts/extension/Royalty.sol\":3302:3313   */\n      dup3\n        /* \"@thirdweb-dev/contracts/extension/Royalty.sol\":3258:3282   */\n      tag_316\n        /* \"@thirdweb-dev/contracts/extension/Royalty.sol\":3258:3314   */\n      jump\t// in\n    tag_315:\n        /* \"@thirdweb-dev/contracts/extension/Royalty.sol\":3065:3321   */\n      pop\n      pop\n      jump\t// out\n        /* \"@thirdweb-dev/contracts/eip/ERC721AVirtualApprove.sol\":5946:6069   */\n    tag_139:\n        /* \"@thirdweb-dev/contracts/eip/ERC721AVirtualApprove.sol\":6010:6017   */\n      0x00\n        /* \"@thirdweb-dev/contracts/eip/ERC721AVirtualApprove.sol\":6036:6057   */\n      tag_318\n        /* \"@thirdweb-dev/contracts/eip/ERC721AVirtualApprove.sol\":6049:6056   */\n      dup3\n        /* \"@thirdweb-dev/contracts/eip/ERC721AVirtualApprove.sol\":6036:6048   */\n      tag_319\n        /* \"@thirdweb-dev/contracts/eip/ERC721AVirtualApprove.sol\":6036:6057   */\n      jump\t// in\n    tag_318:\n        /* \"@thirdweb-dev/contracts/eip/ERC721AVirtualApprove.sol\":6036:6062   */\n      mload\n      swap3\n        /* \"@thirdweb-dev/contracts/eip/ERC721AVirtualApprove.sol\":5946:6069   */\n      swap2\n      pop\n      pop\n      jump\t// out\n        /* \"@thirdweb-dev/contracts/eip/ERC721AVirtualApprove.sol\":3372:3575   */\n    tag_146:\n        /* \"@thirdweb-dev/contracts/eip/ERC721AVirtualApprove.sol\":3436:3443   */\n      0x00\n      sub(shl(0xa0, 0x01), 0x01)\n        /* \"@thirdweb-dev/contracts/eip/ERC721AVirtualApprove.sol\":3459:3478   */\n      dup3\n      and\n        /* \"@thirdweb-dev/contracts/eip/ERC721AVirtualApprove.sol\":3455:3515   */\n      tag_322\n      jumpi\n        /* \"@thirdweb-dev/contracts/eip/ERC721AVirtualApprove.sol\":3487:3515   */\n      mload(0x40)\n      shl(0xe2, 0x23d3ad81)\n      dup2\n      mstore\n      0x04\n      add\n      mload(0x40)\n      dup1\n      swap2\n      sub\n      swap1\n      revert\n        /* \"@thirdweb-dev/contracts/eip/ERC721AVirtualApprove.sol\":3455:3515   */\n    tag_322:\n      pop\n      sub(shl(0xa0, 0x01), 0x01)\n        /* \"@thirdweb-dev/contracts/eip/ERC721AVirtualApprove.sol\":3540:3559   */\n      and\n      0x00\n      swap1\n      dup2\n      mstore\n        /* \"@thirdweb-dev/contracts/eip/ERC721AVirtualApprove.sol\":3540:3552   */\n      0x05\n        /* \"@thirdweb-dev/contracts/eip/ERC721AVirtualApprove.sol\":3540:3559   */\n      0x20\n      mstore\n      0x40\n      swap1\n      keccak256\n        /* \"@thirdweb-dev/contracts/eip/ERC721AVirtualApprove.sol\":3540:3567   */\n      sload\n      0xffffffffffffffff\n      and\n      swap1\n        /* \"@thirdweb-dev/contracts/eip/ERC721AVirtualApprove.sol\":3372:3575   */\n      jump\t// out\n        /* \"@thirdweb-dev/contracts/base/ERC721Base.sol\":4812:5137   */\n    tag_151:\n        /* \"@thirdweb-dev/contracts/base/ERC721Base.sol\":4980:4990   */\n      tag_324\n        /* \"@thirdweb-dev/contracts/base/ERC721Base.sol\":4980:4988   */\n      tag_224\n        /* \"@thirdweb-dev/contracts/base/ERC721Base.sol\":4980:4990   */\n      jump\t// in\n    tag_324:\n        /* \"@thirdweb-dev/contracts/base/ERC721Base.sol\":4972:5018   */\n      tag_326\n      jumpi\n      mload(0x40)\n      shl(0xe5, 0x461bcd)\n      dup2\n      mstore\n        /* \"#utility.yul\":13483:13485   */\n      0x20\n        /* \"@thirdweb-dev/contracts/base/ERC721Base.sol\":4972:5018   */\n      0x04\n      dup3\n      add\n        /* \"#utility.yul\":13465:13486   */\n      mstore\n        /* \"#utility.yul\":13522:13524   */\n      0x17\n        /* \"#utility.yul\":13502:13520   */\n      0x24\n      dup3\n      add\n        /* \"#utility.yul\":13495:13525   */\n      mstore\n        /* \"#utility.yul\":13561:13586   */\n      0x4e6f7420617574686f72697a656420746f206d696e742e000000000000000000\n        /* \"#utility.yul\":13541:13559   */\n      0x44\n      dup3\n      add\n        /* \"#utility.yul\":13534:13587   */\n      mstore\n        /* \"#utility.yul\":13604:13622   */\n      0x64\n      add\n        /* \"@thirdweb-dev/contracts/base/ERC721Base.sol\":4972:5018   */\n      tag_226\n        /* \"#utility.yul\":13281:13628   */\n      jump\n        /* \"@thirdweb-dev/contracts/base/ERC721Base.sol\":4972:5018   */\n    tag_326:\n        /* \"@thirdweb-dev/contracts/base/ERC721Base.sol\":5028:5088   */\n      tag_329\n        /* \"@thirdweb-dev/contracts/base/ERC721Base.sol\":5047:5066   */\n      tag_330\n        /* \"@thirdweb-dev/contracts/base/ERC721Base.sol\":5811:5818   */\n      0x00\n        /* \"@thirdweb-dev/contracts/base/ERC721Base.sol\":5837:5850   */\n      sload\n      swap1\n        /* \"@thirdweb-dev/contracts/base/ERC721Base.sol\":5753:5857   */\n      jump\n        /* \"@thirdweb-dev/contracts/base/ERC721Base.sol\":5047:5066   */\n    tag_330:\n        /* \"@thirdweb-dev/contracts/base/ERC721Base.sol\":5068:5077   */\n      dup5\n        /* \"@thirdweb-dev/contracts/base/ERC721Base.sol\":5079:5087   */\n      dup5\n        /* \"@thirdweb-dev/contracts/base/ERC721Base.sol\":5028:5046   */\n      tag_331\n        /* \"@thirdweb-dev/contracts/base/ERC721Base.sol\":5028:5088   */\n      jump\t// in\n    tag_329:\n      pop\n      pop\n        /* \"@thirdweb-dev/contracts/base/ERC721Base.sol\":5098:5130   */\n      tag_237\n        /* \"@thirdweb-dev/contracts/base/ERC721Base.sol\":5108:5111   */\n      dup5\n        /* \"@thirdweb-dev/contracts/base/ERC721Base.sol\":5113:5122   */\n      dup5\n        /* \"@thirdweb-dev/contracts/base/ERC721Base.sol\":5124:5129   */\n      dup4\n        /* \"@thirdweb-dev/contracts/base/ERC721Base.sol\":5098:5107   */\n      tag_200\n        /* \"@thirdweb-dev/contracts/base/ERC721Base.sol\":5098:5130   */\n      jump\t// in\n        /* \"@thirdweb-dev/contracts/extension/ContractMetadata.sol\":981:1169   */\n    tag_158:\n        /* \"@thirdweb-dev/contracts/extension/ContractMetadata.sol\":1058:1078   */\n      tag_335\n        /* \"@thirdweb-dev/contracts/extension/ContractMetadata.sol\":1058:1076   */\n      tag_224\n        /* \"@thirdweb-dev/contracts/extension/ContractMetadata.sol\":1058:1078   */\n      jump\t// in\n    tag_335:\n        /* \"@thirdweb-dev/contracts/extension/ContractMetadata.sol\":1053:1129   */\n      tag_337\n      jumpi\n        /* \"@thirdweb-dev/contracts/extension/ContractMetadata.sol\":1094:1118   */\n      mload(0x40)\n      shl(0xe5, 0x461bcd)\n      dup2\n      mstore\n        /* \"#utility.yul\":11336:11338   */\n      0x20\n        /* \"@thirdweb-dev/contracts/extension/ContractMetadata.sol\":1094:1118   */\n      0x04\n      dup3\n      add\n        /* \"#utility.yul\":11318:11339   */\n      mstore\n        /* \"#utility.yul\":11375:11377   */\n      0x0e\n        /* \"#utility.yul\":11355:11373   */\n      0x24\n      dup3\n      add\n        /* \"#utility.yul\":11348:11378   */\n      mstore\n      shl(0x92, 0x139bdd08185d5d1a1bdc9a5e9959)\n        /* \"#utility.yul\":11394:11412   */\n      0x44\n      dup3\n      add\n        /* \"#utility.yul\":11387:11431   */\n      mstore\n        /* \"#utility.yul\":11448:11466   */\n      0x64\n      add\n        /* \"@thirdweb-dev/contracts/extension/ContractMetadata.sol\":1094:1118   */\n      tag_226\n        /* \"#utility.yul\":11134:11472   */\n      jump\n        /* \"@thirdweb-dev/contracts/extension/ContractMetadata.sol\":1053:1129   */\n    tag_337:\n        /* \"@thirdweb-dev/contracts/extension/ContractMetadata.sol\":1139:1162   */\n      tag_228\n        /* \"@thirdweb-dev/contracts/extension/ContractMetadata.sol\":1157:1161   */\n      dup2\n        /* \"@thirdweb-dev/contracts/extension/ContractMetadata.sol\":1139:1156   */\n      tag_340\n        /* \"@thirdweb-dev/contracts/extension/ContractMetadata.sol\":1139:1162   */\n      jump\t// in\n        /* \"@thirdweb-dev/contracts/eip/ERC721AVirtualApprove.sol\":6293:6395   */\n    tag_160:\n        /* \"@thirdweb-dev/contracts/eip/ERC721AVirtualApprove.sol\":6349:6362   */\n      0x60\n        /* \"@thirdweb-dev/contracts/eip/ERC721AVirtualApprove.sol\":6381:6388   */\n      0x03\n        /* \"@thirdweb-dev/contracts/eip/ERC721AVirtualApprove.sol\":6374:6388   */\n      dup1\n      sload\n      tag_206\n      swap1\n      tag_207\n      jump\t// in\n        /* \"@thirdweb-dev/contracts/extension/Royalty.sol\":4259:4547   */\n    tag_165:\n        /* \"@thirdweb-dev/contracts/extension/Royalty.sol\":4406:4426   */\n      tag_348\n        /* \"@thirdweb-dev/contracts/extension/Royalty.sol\":4406:4424   */\n      tag_224\n        /* \"@thirdweb-dev/contracts/extension/Royalty.sol\":4406:4426   */\n      jump\t// in\n    tag_348:\n        /* \"@thirdweb-dev/contracts/extension/Royalty.sol\":4401:4477   */\n      tag_349\n      jumpi\n        /* \"@thirdweb-dev/contracts/extension/Royalty.sol\":4442:4466   */\n      mload(0x40)\n      shl(0xe5, 0x461bcd)\n      dup2\n      mstore\n        /* \"#utility.yul\":11336:11338   */\n      0x20\n        /* \"@thirdweb-dev/contracts/extension/Royalty.sol\":4442:4466   */\n      0x04\n      dup3\n      add\n        /* \"#utility.yul\":11318:11339   */\n      mstore\n        /* \"#utility.yul\":11375:11377   */\n      0x0e\n        /* \"#utility.yul\":11355:11373   */\n      0x24\n      dup3\n      add\n        /* \"#utility.yul\":11348:11378   */\n      mstore\n      shl(0x92, 0x139bdd08185d5d1a1bdc9a5e9959)\n        /* \"#utility.yul\":11394:11412   */\n      0x44\n      dup3\n      add\n        /* \"#utility.yul\":11387:11431   */\n      mstore\n        /* \"#utility.yul\":11448:11466   */\n      0x64\n      add\n        /* \"@thirdweb-dev/contracts/extension/Royalty.sol\":4442:4466   */\n      tag_226\n        /* \"#utility.yul\":11134:11472   */\n      jump\n        /* \"@thirdweb-dev/contracts/extension/Royalty.sol\":4401:4477   */\n    tag_349:\n        /* \"@thirdweb-dev/contracts/extension/Royalty.sol\":4487:4540   */\n      tag_199\n        /* \"@thirdweb-dev/contracts/extension/Royalty.sol\":4513:4521   */\n      dup4\n        /* \"@thirdweb-dev/contracts/extension/Royalty.sol\":4523:4533   */\n      dup4\n        /* \"@thirdweb-dev/contracts/extension/Royalty.sol\":4535:4539   */\n      dup4\n        /* \"@thirdweb-dev/contracts/extension/Royalty.sol\":4487:4512   */\n      tag_352\n        /* \"@thirdweb-dev/contracts/extension/Royalty.sol\":4487:4540   */\n      jump\t// in\n        /* \"@thirdweb-dev/contracts/base/ERC721Base.sol\":6546:6757   */\n    tag_169:\n        /* \"@thirdweb-dev/contracts/base/ERC721Base.sol\":6683:6691   */\n      dup2\n        /* \"@thirdweb-dev/contracts/extension/OperatorFilterer.sol\":2267:2297   */\n      tag_354\n        /* \"@thirdweb-dev/contracts/extension/OperatorFilterer.sol\":2288:2296   */\n      dup2\n        /* \"@thirdweb-dev/contracts/extension/OperatorFilterer.sol\":2267:2287   */\n      tag_218\n        /* \"@thirdweb-dev/contracts/extension/OperatorFilterer.sol\":2267:2297   */\n      jump\t// in\n    tag_354:\n        /* \"@thirdweb-dev/contracts/base/ERC721Base.sol\":6707:6750   */\n      tag_199\n        /* \"@thirdweb-dev/contracts/base/ERC721Base.sol\":6731:6739   */\n      dup4\n        /* \"@thirdweb-dev/contracts/base/ERC721Base.sol\":6741:6749   */\n      dup4\n        /* \"@thirdweb-dev/contracts/base/ERC721Base.sol\":6707:6730   */\n      tag_357\n        /* \"@thirdweb-dev/contracts/base/ERC721Base.sol\":6707:6750   */\n      jump\t// in\n        /* \"@thirdweb-dev/contracts/extension/Multicall.sol\":740:1059   */\n    tag_173:\n        /* \"@thirdweb-dev/contracts/extension/Multicall.sol\":817:839   */\n      0x60\n        /* \"@thirdweb-dev/contracts/extension/Multicall.sol\":873:877   */\n      dup2\n        /* \"@thirdweb-dev/contracts/extension/Multicall.sol\":861:885   */\n      0xffffffffffffffff\n      dup2\n      gt\n      iszero\n      tag_360\n      jumpi\n      tag_360\n      tag_361\n      jump\t// in\n    tag_360:\n      mload(0x40)\n      swap1\n      dup1\n      dup3\n      mstore\n      dup1\n      0x20\n      mul\n      0x20\n      add\n      dup3\n      add\n      0x40\n      mstore\n      dup1\n      iszero\n      tag_362\n      jumpi\n      dup2\n      0x20\n      add\n    tag_363:\n      0x60\n      dup2\n      mstore\n      0x20\n      add\n      swap1\n      0x01\n      swap1\n      sub\n      swap1\n      dup2\n      tag_363\n      jumpi\n      swap1\n      pop\n    tag_362:\n      pop\n        /* \"@thirdweb-dev/contracts/extension/Multicall.sol\":851:885   */\n      swap1\n      pop\n        /* \"@thirdweb-dev/contracts/extension/Multicall.sol\":900:909   */\n      0x00\n        /* \"@thirdweb-dev/contracts/extension/Multicall.sol\":895:1029   */\n    tag_364:\n        /* \"@thirdweb-dev/contracts/extension/Multicall.sol\":915:930   */\n      dup3\n      dup2\n      lt\n        /* \"@thirdweb-dev/contracts/extension/Multicall.sol\":895:1029   */\n      iszero\n      tag_365\n      jumpi\n        /* \"@thirdweb-dev/contracts/extension/Multicall.sol\":964:1018   */\n      tag_367\n        /* \"@thirdweb-dev/contracts/extension/Multicall.sol\":1003:1007   */\n      address\n        /* \"@thirdweb-dev/contracts/extension/Multicall.sol\":1010:1014   */\n      dup6\n      dup6\n        /* \"@thirdweb-dev/contracts/extension/Multicall.sol\":1015:1016   */\n      dup5\n        /* \"@thirdweb-dev/contracts/extension/Multicall.sol\":1010:1017   */\n      dup2\n      dup2\n      lt\n      tag_369\n      jumpi\n      tag_369\n      tag_254\n      jump\t// in\n    tag_369:\n      swap1\n      pop\n      0x20\n      mul\n      dup2\n      add\n      swap1\n      tag_370\n      swap2\n      swap1\n      tag_371\n      jump\t// in\n    tag_370:\n        /* \"@thirdweb-dev/contracts/extension/Multicall.sol\":964:1018   */\n      dup1\n      dup1\n      0x1f\n      add\n      0x20\n      dup1\n      swap2\n      div\n      mul\n      0x20\n      add\n      mload(0x40)\n      swap1\n      dup2\n      add\n      0x40\n      mstore\n      dup1\n      swap4\n      swap3\n      swap2\n      swap1\n      dup2\n      dup2\n      mstore\n      0x20\n      add\n      dup4\n      dup4\n      dup1\n      dup3\n      dup5\n      calldatacopy\n      0x00\n      swap3\n      add\n      swap2\n      swap1\n      swap2\n      mstore\n      pop\n        /* \"@thirdweb-dev/contracts/extension/Multicall.sol\":964:994   */\n      tag_372\n      swap3\n      pop\n      pop\n      pop\n        /* \"@thirdweb-dev/contracts/extension/Multicall.sol\":964:1018   */\n      jump\t// in\n    tag_367:\n        /* \"@thirdweb-dev/contracts/extension/Multicall.sol\":951:958   */\n      dup3\n        /* \"@thirdweb-dev/contracts/extension/Multicall.sol\":959:960   */\n      dup3\n        /* \"@thirdweb-dev/contracts/extension/Multicall.sol\":951:961   */\n      dup2\n      mload\n      dup2\n      lt\n      tag_374\n      jumpi\n      tag_374\n      tag_254\n      jump\t// in\n    tag_374:\n      0x20\n      mul\n      0x20\n      add\n      add\n        /* \"@thirdweb-dev/contracts/extension/Multicall.sol\":951:1018   */\n      dup2\n      swap1\n      mstore\n      pop\n        /* \"@thirdweb-dev/contracts/extension/Multicall.sol\":932:935   */\n      dup1\n      dup1\n      tag_375\n      swap1\n      tag_376\n      jump\t// in\n    tag_375:\n      swap2\n      pop\n      pop\n        /* \"@thirdweb-dev/contracts/extension/Multicall.sol\":895:1029   */\n      jump(tag_364)\n    tag_365:\n      pop\n        /* \"@thirdweb-dev/contracts/extension/Multicall.sol\":740:1059   */\n      swap3\n      swap2\n      pop\n      pop\n      jump\t// out\n        /* \"@thirdweb-dev/contracts/base/ERC721Base.sol\":7519:7760   */\n    tag_182:\n        /* \"@thirdweb-dev/contracts/base/ERC721Base.sol\":7690:7694   */\n      dup4\n      sub(shl(0xa0, 0x01), 0x01)\n        /* \"@thirdweb-dev/contracts/extension/OperatorFilterer.sol\":2094:2112   */\n      dup2\n      and\n        /* \"@thirdweb-dev/contracts/extension/OperatorFilterer.sol\":2102:2112   */\n      caller\n        /* \"@thirdweb-dev/contracts/extension/OperatorFilterer.sol\":2094:2112   */\n      eq\n        /* \"@thirdweb-dev/contracts/extension/OperatorFilterer.sol\":2090:2171   */\n      tag_380\n      jumpi\n        /* \"@thirdweb-dev/contracts/extension/OperatorFilterer.sol\":2128:2160   */\n      tag_380\n        /* \"@thirdweb-dev/contracts/extension/OperatorFilterer.sol\":2149:2159   */\n      caller\n        /* \"@thirdweb-dev/contracts/extension/OperatorFilterer.sol\":2128:2148   */\n      tag_218\n        /* \"@thirdweb-dev/contracts/extension/OperatorFilterer.sol\":2128:2160   */\n      jump\t// in\n    tag_380:\n        /* \"@thirdweb-dev/contracts/base/ERC721Base.sol\":7706:7753   */\n      tag_382\n        /* \"@thirdweb-dev/contracts/base/ERC721Base.sol\":7729:7733   */\n      dup6\n        /* \"@thirdweb-dev/contracts/base/ERC721Base.sol\":7735:7737   */\n      dup6\n        /* \"@thirdweb-dev/contracts/base/ERC721Base.sol\":7739:7746   */\n      dup6\n        /* \"@thirdweb-dev/contracts/base/ERC721Base.sol\":7748:7752   */\n      dup6\n        /* \"@thirdweb-dev/contracts/base/ERC721Base.sol\":7706:7728   */\n      tag_383\n        /* \"@thirdweb-dev/contracts/base/ERC721Base.sol\":7706:7753   */\n      jump\t// in\n    tag_382:\n        /* \"@thirdweb-dev/contracts/base/ERC721Base.sol\":7519:7760   */\n      pop\n      pop\n      pop\n      pop\n      pop\n      jump\t// out\n        /* \"@thirdweb-dev/contracts/base/ERC721Base.sol\":3119:3498   */\n    tag_185:\n        /* \"@thirdweb-dev/contracts/base/ERC721Base.sol\":3218:3247   */\n      0x00\n        /* \"@thirdweb-dev/contracts/base/ERC721Base.sol\":3250:3267   */\n      dup2\n      dup2\n      mstore\n        /* \"@thirdweb-dev/contracts/base/ERC721Base.sol\":3250:3257   */\n      0x0f\n        /* \"@thirdweb-dev/contracts/base/ERC721Base.sol\":3250:3267   */\n      0x20\n      mstore\n      0x40\n      dup2\n      keccak256\n        /* \"@thirdweb-dev/contracts/base/ERC721Base.sol\":3218:3267   */\n      dup1\n      sload\n        /* \"@thirdweb-dev/contracts/base/ERC721Base.sol\":3193:3206   */\n      0x60\n      swap3\n        /* \"@thirdweb-dev/contracts/base/ERC721Base.sol\":3218:3247   */\n      swap2\n        /* \"@thirdweb-dev/contracts/base/ERC721Base.sol\":3250:3267   */\n      swap1\n        /* \"@thirdweb-dev/contracts/base/ERC721Base.sol\":3218:3267   */\n      tag_385\n      swap1\n      tag_207\n      jump\t// in\n    tag_385:\n      dup1\n      0x1f\n      add\n      0x20\n      dup1\n      swap2\n      div\n      mul\n      0x20\n      add\n      mload(0x40)\n      swap1\n      dup2\n      add\n      0x40\n      mstore\n      dup1\n      swap3\n      swap2\n      swap1\n      dup2\n      dup2\n      mstore\n      0x20\n      add\n      dup3\n      dup1\n      sload\n      tag_386\n      swap1\n      tag_207\n      jump\t// in\n    tag_386:\n      dup1\n      iszero\n      tag_387\n      jumpi\n      dup1\n      0x1f\n      lt\n      tag_388\n      jumpi\n      0x0100\n      dup1\n      dup4\n      sload\n      div\n      mul\n      dup4\n      mstore\n      swap2\n      0x20\n      add\n      swap2\n      jump(tag_387)\n    tag_388:\n      dup3\n      add\n      swap2\n      swap1\n      0x00\n      mstore\n      keccak256(0x00, 0x20)\n      swap1\n    tag_389:\n      dup2\n      sload\n      dup2\n      mstore\n      swap1\n      0x01\n      add\n      swap1\n      0x20\n      add\n      dup1\n      dup4\n      gt\n      tag_389\n      jumpi\n      dup3\n      swap1\n      sub\n      0x1f\n      and\n      dup3\n      add\n      swap2\n    tag_387:\n      pop\n      pop\n      pop\n      pop\n      pop\n      swap1\n      pop\n        /* \"@thirdweb-dev/contracts/base/ERC721Base.sol\":3313:3314   */\n      0x00\n        /* \"@thirdweb-dev/contracts/base/ERC721Base.sol\":3287:3302   */\n      dup2\n        /* \"@thirdweb-dev/contracts/base/ERC721Base.sol\":3281:3310   */\n      mload\n        /* \"@thirdweb-dev/contracts/base/ERC721Base.sol\":3281:3314   */\n      gt\n        /* \"@thirdweb-dev/contracts/base/ERC721Base.sol\":3277:3363   */\n      iszero\n      tag_390\n      jumpi\n        /* \"@thirdweb-dev/contracts/base/ERC721Base.sol\":3337:3352   */\n      swap3\n        /* \"@thirdweb-dev/contracts/base/ERC721Base.sol\":3119:3498   */\n      swap2\n      pop\n      pop\n      jump\t// out\n        /* \"@thirdweb-dev/contracts/base/ERC721Base.sol\":3277:3363   */\n    tag_390:\n        /* \"@thirdweb-dev/contracts/base/ERC721Base.sol\":3373:3395   */\n      0x00\n        /* \"@thirdweb-dev/contracts/base/ERC721Base.sol\":3398:3419   */\n      tag_391\n        /* \"@thirdweb-dev/contracts/base/ERC721Base.sol\":3410:3418   */\n      dup5\n        /* \"@thirdweb-dev/contracts/base/ERC721Base.sol\":3398:3409   */\n      tag_392\n        /* \"@thirdweb-dev/contracts/base/ERC721Base.sol\":3398:3419   */\n      jump\t// in\n    tag_391:\n        /* \"@thirdweb-dev/contracts/base/ERC721Base.sol\":3373:3419   */\n      swap1\n      pop\n        /* \"@thirdweb-dev/contracts/base/ERC721Base.sol\":3460:3468   */\n      dup1\n        /* \"@thirdweb-dev/contracts/base/ERC721Base.sol\":3470:3489   */\n      tag_393\n        /* \"@thirdweb-dev/contracts/base/ERC721Base.sol\":3470:3478   */\n      dup6\n        /* \"@thirdweb-dev/contracts/base/ERC721Base.sol\":3470:3487   */\n      tag_394\n        /* \"@thirdweb-dev/contracts/base/ERC721Base.sol\":3470:3489   */\n      jump\t// in\n    tag_393:\n        /* \"@thirdweb-dev/contracts/base/ERC721Base.sol\":3443:3490   */\n      add(0x20, mload(0x40))\n      tag_395\n      swap3\n      swap2\n      swap1\n      tag_396\n      jump\t// in\n    tag_395:\n      mload(0x40)\n      0x20\n      dup2\n      dup4\n      sub\n      sub\n      dup2\n      mstore\n      swap1\n      0x40\n      mstore\n        /* \"@thirdweb-dev/contracts/base/ERC721Base.sol\":3429:3491   */\n      swap3\n      pop\n      pop\n      pop\n        /* \"@thirdweb-dev/contracts/base/ERC721Base.sol\":3119:3498   */\n      swap2\n      swap1\n      pop\n      jump\t// out\n        /* \"@thirdweb-dev/contracts/extension/ContractMetadata.sol\":543:577   */\n    tag_188:\n      0x08\n      dup1\n      sload\n      tag_397\n      swap1\n      tag_207\n      jump\t// in\n    tag_397:\n      dup1\n      0x1f\n      add\n      0x20\n      dup1\n      swap2\n      div\n      mul\n      0x20\n      add\n      mload(0x40)\n      swap1\n      dup2\n      add\n      0x40\n      mstore\n      dup1\n      swap3\n      swap2\n      swap1\n      dup2\n      dup2\n      mstore\n      0x20\n      add\n      dup3\n      dup1\n      sload\n      tag_398\n      swap1\n      tag_207\n      jump\t// in\n    tag_398:\n      dup1\n      iszero\n      tag_399\n      jumpi\n      dup1\n      0x1f\n      lt\n      tag_400\n      jumpi\n      0x0100\n      dup1\n      dup4\n      sload\n      div\n      mul\n      dup4\n      mstore\n      swap2\n      0x20\n      add\n      swap2\n      jump(tag_399)\n    tag_400:\n      dup3\n      add\n      swap2\n      swap1\n      0x00\n      mstore\n      keccak256(0x00, 0x20)\n      swap1\n    tag_401:\n      dup2\n      sload\n      dup2\n      mstore\n      swap1\n      0x01\n      add\n      swap1\n      0x20\n      add\n      dup1\n      dup4\n      gt\n      tag_401\n      jumpi\n      dup3\n      swap1\n      sub\n      0x1f\n      and\n      dup3\n      add\n      swap2\n    tag_399:\n      pop\n      pop\n      pop\n      pop\n      pop\n      dup2\n      jump\t// out\n        /* \"@thirdweb-dev/contracts/base/ERC721Base.sol\":7963:8165   */\n    tag_198:\n        /* \"@thirdweb-dev/contracts/base/ERC721Base.sol\":8069:8086   */\n      0x00\n      dup3\n      dup2\n      mstore\n        /* \"@thirdweb-dev/contracts/base/ERC721Base.sol\":8069:8076   */\n      0x0f\n        /* \"@thirdweb-dev/contracts/base/ERC721Base.sol\":8069:8086   */\n      0x20\n      mstore\n      0x40\n      swap1\n      keccak256\n        /* \"@thirdweb-dev/contracts/base/ERC721Base.sol\":8063:8094   */\n      dup1\n      sload\n      tag_404\n      swap1\n      tag_207\n      jump\t// in\n    tag_404:\n        /* \"@thirdweb-dev/contracts/base/ERC721Base.sol\":8063:8099   */\n      iszero\n      swap1\n      pop\n        /* \"@thirdweb-dev/contracts/base/ERC721Base.sol\":8055:8119   */\n      tag_405\n      jumpi\n      mload(0x40)\n      shl(0xe5, 0x461bcd)\n      dup2\n      mstore\n        /* \"#utility.yul\":14976:14978   */\n      0x20\n        /* \"@thirdweb-dev/contracts/base/ERC721Base.sol\":8055:8119   */\n      0x04\n      dup3\n      add\n        /* \"#utility.yul\":14958:14979   */\n      mstore\n        /* \"#utility.yul\":15015:15017   */\n      0x0f\n        /* \"#utility.yul\":14995:15013   */\n      0x24\n      dup3\n      add\n        /* \"#utility.yul\":14988:15018   */\n      mstore\n        /* \"#utility.yul\":15054:15071   */\n      0x55524920616c7265616479207365740000000000000000000000000000000000\n        /* \"#utility.yul\":15034:15052   */\n      0x44\n      dup3\n      add\n        /* \"#utility.yul\":15027:15072   */\n      mstore\n        /* \"#utility.yul\":15089:15107   */\n      0x64\n      add\n        /* \"@thirdweb-dev/contracts/base/ERC721Base.sol\":8055:8119   */\n      tag_226\n        /* \"#utility.yul\":14774:15113   */\n      jump\n        /* \"@thirdweb-dev/contracts/base/ERC721Base.sol\":8055:8119   */\n    tag_405:\n        /* \"@thirdweb-dev/contracts/base/ERC721Base.sol\":8129:8146   */\n      0x00\n      dup3\n      dup2\n      mstore\n        /* \"@thirdweb-dev/contracts/base/ERC721Base.sol\":8129:8136   */\n      0x0f\n        /* \"@thirdweb-dev/contracts/base/ERC721Base.sol\":8129:8146   */\n      0x20\n      swap1\n      dup2\n      mstore\n      0x40\n      swap1\n      swap2\n      keccak256\n        /* \"@thirdweb-dev/contracts/base/ERC721Base.sol\":8129:8158   */\n      dup3\n      mload\n      tag_199\n      swap3\n      dup5\n      add\n      swap1\n      tag_236\n      jump\t// in\n        /* \"@thirdweb-dev/contracts/eip/ERC721AVirtualApprove.sol\":10271:11979   */\n    tag_200:\n        /* \"@thirdweb-dev/contracts/eip/ERC721AVirtualApprove.sol\":10389:10409   */\n      0x00\n        /* \"@thirdweb-dev/contracts/eip/ERC721AVirtualApprove.sol\":10412:10425   */\n      sload\n      sub(shl(0xa0, 0x01), 0x01)\n        /* \"@thirdweb-dev/contracts/eip/ERC721AVirtualApprove.sol\":10439:10455   */\n      dup5\n      and\n        /* \"@thirdweb-dev/contracts/eip/ERC721AVirtualApprove.sol\":10435:10483   */\n      tag_410\n      jumpi\n        /* \"@thirdweb-dev/contracts/eip/ERC721AVirtualApprove.sol\":10464:10483   */\n      mload(0x40)\n      shl(0xe8, 0x2e0763)\n      dup2\n      mstore\n      0x04\n      add\n      mload(0x40)\n      dup1\n      swap2\n      sub\n      swap1\n      revert\n        /* \"@thirdweb-dev/contracts/eip/ERC721AVirtualApprove.sol\":10435:10483   */\n    tag_410:\n        /* \"@thirdweb-dev/contracts/eip/ERC721AVirtualApprove.sol\":10497:10505   */\n      dup3\n        /* \"@thirdweb-dev/contracts/eip/ERC721AVirtualApprove.sol\":10509:10510   */\n      0x00\n        /* \"@thirdweb-dev/contracts/eip/ERC721AVirtualApprove.sol\":10497:10510   */\n      sub\n        /* \"@thirdweb-dev/contracts/eip/ERC721AVirtualApprove.sol\":10493:10537   */\n      tag_411\n      jumpi\n        /* \"@thirdweb-dev/contracts/eip/ERC721AVirtualApprove.sol\":10519:10537   */\n      mload(0x40)\n      shl(0xe0, 0xb562e8dd)\n      dup2\n      mstore\n      0x04\n      add\n      mload(0x40)\n      dup1\n      swap2\n      sub\n      swap1\n      revert\n        /* \"@thirdweb-dev/contracts/eip/ERC721AVirtualApprove.sol\":10493:10537   */\n    tag_411:\n      sub(shl(0xa0, 0x01), 0x01)\n        /* \"@thirdweb-dev/contracts/eip/ERC721AVirtualApprove.sol\":10880:10896   */\n      dup5\n      and\n      0x00\n      dup2\n      dup2\n      mstore\n        /* \"@thirdweb-dev/contracts/eip/ERC721AVirtualApprove.sol\":10880:10892   */\n      0x05\n        /* \"@thirdweb-dev/contracts/eip/ERC721AVirtualApprove.sol\":10880:10896   */\n      0x20\n      swap1\n      dup2\n      mstore\n      0x40\n      dup1\n      dup4\n      keccak256\n        /* \"@thirdweb-dev/contracts/eip/ERC721AVirtualApprove.sol\":10880:10924   */\n      dup1\n      sload\n      not(0xffffffffffffffffffffffffffffffff)\n        /* \"@thirdweb-dev/contracts/eip/ERC721AVirtualApprove.sol\":10938:10987   */\n      dup2\n      and\n        /* \"@thirdweb-dev/contracts/eip/ERC721AVirtualApprove.sol\":10880:10924   */\n      0xffffffffffffffff\n      dup1\n      dup4\n      and\n      dup12\n      add\n      dup2\n      and\n        /* \"@thirdweb-dev/contracts/eip/ERC721AVirtualApprove.sol\":10938:10987   */\n      swap2\n      dup3\n      or\n      0x010000000000000000\n      not(0xffffffffffffffff)\n        /* \"@thirdweb-dev/contracts/eip/ERC721AVirtualApprove.sol\":10880:10924   */\n      swap1\n      swap5\n      and\n      swap1\n      swap3\n      or\n        /* \"@thirdweb-dev/contracts/eip/ERC721AVirtualApprove.sol\":10938:10987   */\n      dup4\n      swap1\n      div\n      dup2\n      and\n      dup12\n      add\n      dup2\n      and\n      swap1\n      swap3\n      mul\n      or\n      swap1\n      swap2\n      sstore\n        /* \"@thirdweb-dev/contracts/eip/ERC721AVirtualApprove.sol\":11002:11027   */\n      dup6\n      dup5\n      mstore\n        /* \"@thirdweb-dev/contracts/eip/ERC721AVirtualApprove.sol\":11002:11013   */\n      0x04\n        /* \"@thirdweb-dev/contracts/eip/ERC721AVirtualApprove.sol\":11002:11027   */\n      swap1\n      swap3\n      mstore\n      swap1\n      swap2\n      keccak256\n        /* \"@thirdweb-dev/contracts/eip/ERC721AVirtualApprove.sol\":11002:11037   */\n      dup1\n      sload\n      not(sub(shl(0xe0, 0x01), 0x01))\n        /* \"@thirdweb-dev/contracts/eip/ERC721AVirtualApprove.sol\":11051:11117   */\n      and\n      dup4\n      or\n      shl(0xa0, 0x01)\n        /* \"@thirdweb-dev/contracts/eip/ERC721AVirtualApprove.sol\":11101:11116   */\n      timestamp\n        /* \"@thirdweb-dev/contracts/eip/ERC721AVirtualApprove.sol\":11051:11117   */\n      swap1\n      swap4\n      and\n      swap3\n      swap1\n      swap3\n      mul\n      swap2\n      swap1\n      swap2\n      or\n      swap1\n      sstore\n        /* \"@thirdweb-dev/contracts/eip/ERC721AVirtualApprove.sol\":11002:11027   */\n      dup2\n      swap1\n        /* \"@thirdweb-dev/contracts/eip/ERC721AVirtualApprove.sol\":11195:11218   */\n      dup2\n      dup6\n      add\n      swap1\n        /* \"@thirdweb-dev/contracts/lib/TWAddress.sol\":1467:1486   */\n      extcodesize\n        /* \"@thirdweb-dev/contracts/lib/TWAddress.sol\":1467:1490   */\n      iszero\n        /* \"@thirdweb-dev/contracts/eip/ERC721AVirtualApprove.sol\":11233:11851   */\n      tag_416\n      jumpi\n        /* \"@thirdweb-dev/contracts/eip/ERC721AVirtualApprove.sol\":11272:11580   */\n    tag_417:\n        /* \"@thirdweb-dev/contracts/eip/ERC721AVirtualApprove.sol\":11302:11340   */\n      mload(0x40)\n        /* \"@thirdweb-dev/contracts/eip/ERC721AVirtualApprove.sol\":11327:11339   */\n      dup3\n      swap1\n      sub(shl(0xa0, 0x01), 0x01)\n        /* \"@thirdweb-dev/contracts/eip/ERC721AVirtualApprove.sol\":11302:11340   */\n      dup9\n      and\n      swap1\n        /* \"@thirdweb-dev/contracts/eip/ERC721AVirtualApprove.sol\":11319:11320   */\n      0x00\n      swap1\n        /* \"@thirdweb-dev/contracts/eip/ERC721AVirtualApprove.sol\":11302:11340   */\n      0xddf252ad1be2c89b69c2b068fc378daa952ba7f163c4a11628f55a4df523b3ef\n      swap1\n        /* \"@thirdweb-dev/contracts/eip/ERC721AVirtualApprove.sol\":11319:11320   */\n      dup3\n      swap1\n        /* \"@thirdweb-dev/contracts/eip/ERC721AVirtualApprove.sol\":11302:11340   */\n      log4\n        /* \"@thirdweb-dev/contracts/eip/ERC721AVirtualApprove.sol\":11367:11436   */\n      tag_420\n        /* \"@thirdweb-dev/contracts/eip/ERC721AVirtualApprove.sol\":11406:11407   */\n      0x00\n        /* \"@thirdweb-dev/contracts/eip/ERC721AVirtualApprove.sol\":11410:11412   */\n      dup8\n        /* \"@thirdweb-dev/contracts/eip/ERC721AVirtualApprove.sol\":11414:11428   */\n      dup5\n      dup1\n      0x01\n      add\n      swap6\n      pop\n        /* \"@thirdweb-dev/contracts/eip/ERC721AVirtualApprove.sol\":11430:11435   */\n      dup8\n        /* \"@thirdweb-dev/contracts/eip/ERC721AVirtualApprove.sol\":11367:11397   */\n      tag_421\n        /* \"@thirdweb-dev/contracts/eip/ERC721AVirtualApprove.sol\":11367:11436   */\n      jump\t// in\n    tag_420:\n        /* \"@thirdweb-dev/contracts/eip/ERC721AVirtualApprove.sol\":11362:11534   */\n      tag_422\n      jumpi\n        /* \"@thirdweb-dev/contracts/eip/ERC721AVirtualApprove.sol\":11471:11511   */\n      mload(0x40)\n      shl(0xe1, 0x68d2bf6b)\n      dup2\n      mstore\n      0x04\n      add\n      mload(0x40)\n      dup1\n      swap2\n      sub\n      swap1\n      revert\n        /* \"@thirdweb-dev/contracts/eip/ERC721AVirtualApprove.sol\":11362:11534   */\n    tag_422:\n        /* \"@thirdweb-dev/contracts/eip/ERC721AVirtualApprove.sol\":11575:11578   */\n      dup1\n        /* \"@thirdweb-dev/contracts/eip/ERC721AVirtualApprove.sol\":11560:11572   */\n      dup3\n        /* \"@thirdweb-dev/contracts/eip/ERC721AVirtualApprove.sol\":11560:11578   */\n      lt\n        /* \"@thirdweb-dev/contracts/eip/ERC721AVirtualApprove.sol\":11272:11580   */\n      tag_417\n      jumpi\n        /* \"@thirdweb-dev/contracts/eip/ERC721AVirtualApprove.sol\":11659:11671   */\n      dup3\n        /* \"@thirdweb-dev/contracts/eip/ERC721AVirtualApprove.sol\":11642:11655   */\n      sload(0x00)\n        /* \"@thirdweb-dev/contracts/eip/ERC721AVirtualApprove.sol\":11642:11671   */\n      eq\n        /* \"@thirdweb-dev/contracts/eip/ERC721AVirtualApprove.sol\":11638:11681   */\n      tag_423\n      jumpi\n        /* \"@thirdweb-dev/contracts/eip/ERC721AVirtualApprove.sol\":11673:11681   */\n      0x00\n      dup1\n      revert\n        /* \"@thirdweb-dev/contracts/eip/ERC721AVirtualApprove.sol\":11638:11681   */\n    tag_423:\n        /* \"@thirdweb-dev/contracts/eip/ERC721AVirtualApprove.sol\":11233:11851   */\n      jump(tag_424)\n    tag_416:\n        /* \"@thirdweb-dev/contracts/eip/ERC721AVirtualApprove.sol\":11720:11837   */\n    tag_425:\n        /* \"@thirdweb-dev/contracts/eip/ERC721AVirtualApprove.sol\":11750:11790   */\n      mload(0x40)\n        /* \"@thirdweb-dev/contracts/eip/ERC721AVirtualApprove.sol\":11775:11789   */\n      0x01\n      dup4\n      add\n      swap3\n      swap1\n      sub(shl(0xa0, 0x01), 0x01)\n        /* \"@thirdweb-dev/contracts/eip/ERC721AVirtualApprove.sol\":11750:11790   */\n      dup9\n      and\n      swap1\n        /* \"@thirdweb-dev/contracts/eip/ERC721AVirtualApprove.sol\":11767:11768   */\n      0x00\n      swap1\n        /* \"@thirdweb-dev/contracts/eip/ERC721AVirtualApprove.sol\":11750:11790   */\n      0xddf252ad1be2c89b69c2b068fc378daa952ba7f163c4a11628f55a4df523b3ef\n      swap1\n        /* \"@thirdweb-dev/contracts/eip/ERC721AVirtualApprove.sol\":11767:11768   */\n      dup3\n      swap1\n        /* \"@thirdweb-dev/contracts/eip/ERC721AVirtualApprove.sol\":11750:11790   */\n      log4\n        /* \"@thirdweb-dev/contracts/eip/ERC721AVirtualApprove.sol\":11832:11835   */\n      dup1\n        /* \"@thirdweb-dev/contracts/eip/ERC721AVirtualApprove.sol\":11817:11829   */\n      dup3\n        /* \"@thirdweb-dev/contracts/eip/ERC721AVirtualApprove.sol\":11817:11835   */\n      lt\n        /* \"@thirdweb-dev/contracts/eip/ERC721AVirtualApprove.sol\":11720:11837   */\n      tag_425\n      jumpi\n        /* \"@thirdweb-dev/contracts/eip/ERC721AVirtualApprove.sol\":11233:11851   */\n    tag_424:\n      pop\n        /* \"@thirdweb-dev/contracts/eip/ERC721AVirtualApprove.sol\":11864:11877   */\n      0x00\n        /* \"@thirdweb-dev/contracts/eip/ERC721AVirtualApprove.sol\":11864:11892   */\n      swap1\n      dup2\n      sstore\n        /* \"@thirdweb-dev/contracts/eip/ERC721AVirtualApprove.sol\":11912:11972   */\n      tag_237\n      swap1\n        /* \"@thirdweb-dev/contracts/eip/ERC721AVirtualApprove.sol\":11945:11947   */\n      dup6\n        /* \"@thirdweb-dev/contracts/eip/ERC721AVirtualApprove.sol\":11949:11961   */\n      dup4\n        /* \"@thirdweb-dev/contracts/eip/ERC721AVirtualApprove.sol\":11963:11971   */\n      dup7\n        /* \"@thirdweb-dev/contracts/eip/ERC721AVirtualApprove.sol\":11912:11972   */\n      dup5\n      jump\t// in\n        /* \"@thirdweb-dev/contracts/eip/ERC721AVirtualApprove.sol\":9558:9730   */\n    tag_214:\n        /* \"@thirdweb-dev/contracts/eip/ERC721AVirtualApprove.sol\":9615:9619   */\n      0x00\n        /* \"@thirdweb-dev/contracts/eip/ERC721AVirtualApprove.sol\":9678:9691   */\n      dup1\n      sload\n        /* \"@thirdweb-dev/contracts/eip/ERC721AVirtualApprove.sol\":9668:9675   */\n      dup3\n        /* \"@thirdweb-dev/contracts/eip/ERC721AVirtualApprove.sol\":9668:9691   */\n      lt\n        /* \"@thirdweb-dev/contracts/eip/ERC721AVirtualApprove.sol\":9638:9723   */\n      dup1\n      iszero\n      tag_204\n      jumpi\n      pop\n      pop\n        /* \"@thirdweb-dev/contracts/eip/ERC721AVirtualApprove.sol\":9696:9716   */\n      0x00\n      swap1\n      dup2\n      mstore\n        /* \"@thirdweb-dev/contracts/eip/ERC721AVirtualApprove.sol\":9696:9707   */\n      0x04\n        /* \"@thirdweb-dev/contracts/eip/ERC721AVirtualApprove.sol\":9696:9716   */\n      0x20\n      mstore\n      0x40\n      swap1\n      keccak256\n        /* \"@thirdweb-dev/contracts/eip/ERC721AVirtualApprove.sol\":9696:9723   */\n      sload\n      shl(0xe0, 0x01)\n      swap1\n      div\n      0xff\n      and\n        /* \"@thirdweb-dev/contracts/eip/ERC721AVirtualApprove.sol\":9695:9723   */\n      iszero\n      swap1\n        /* \"@thirdweb-dev/contracts/eip/ERC721AVirtualApprove.sol\":9558:9730   */\n      jump\t// out\n        /* \"@thirdweb-dev/contracts/extension/OperatorFilterer.sol\":2321:2798   */\n    tag_218:\n        /* \"@thirdweb-dev/contracts/extension/OperatorFilterer.sol\":2510:2529   */\n      and(0xff, sload(0x0e))\n        /* \"@thirdweb-dev/contracts/extension/OperatorFilterer.sol\":2506:2792   */\n      iszero\n      tag_228\n      jumpi\n        /* \"@thirdweb-dev/contracts/extension/OperatorFilterer.sol\":876:918   */\n      0xaaeb6d7670e522a718067333cd4e\n        /* \"@thirdweb-dev/contracts/extension/OperatorFilterer.sol\":2549:2594   */\n      extcodesize\n        /* \"@thirdweb-dev/contracts/extension/OperatorFilterer.sol\":2549:2598   */\n      iszero\n        /* \"@thirdweb-dev/contracts/extension/OperatorFilterer.sol\":2545:2782   */\n      tag_228\n      jumpi\n        /* \"@thirdweb-dev/contracts/extension/OperatorFilterer.sol\":2623:2690   */\n      mload(0x40)\n      shl(0xe2, 0x3185c44d)\n      dup2\n      mstore\n        /* \"@thirdweb-dev/contracts/extension/OperatorFilterer.sol\":2674:2678   */\n      address\n        /* \"@thirdweb-dev/contracts/extension/OperatorFilterer.sol\":2623:2690   */\n      0x04\n      dup3\n      add\n        /* \"#utility.yul\":15353:15387   */\n      mstore\n      sub(shl(0xa0, 0x01), 0x01)\n        /* \"#utility.yul\":15423:15438   */\n      dup3\n      and\n        /* \"#utility.yul\":15403:15421   */\n      0x24\n      dup3\n      add\n        /* \"#utility.yul\":15396:15439   */\n      mstore\n        /* \"@thirdweb-dev/contracts/extension/OperatorFilterer.sol\":876:918   */\n      0xaaeb6d7670e522a718067333cd4e\n      swap1\n        /* \"@thirdweb-dev/contracts/extension/OperatorFilterer.sol\":2623:2665   */\n      0xc6171134\n      swap1\n        /* \"#utility.yul\":15265:15283   */\n      0x44\n      add\n        /* \"@thirdweb-dev/contracts/extension/OperatorFilterer.sol\":2623:2690   */\n      0x20\n      mload(0x40)\n      dup1\n      dup4\n      sub\n      dup2\n      dup7\n      gas\n      staticcall\n      iszero\n      dup1\n      iszero\n      tag_440\n      jumpi\n      returndatasize\n      0x00\n      dup1\n      returndatacopy\n      revert(0x00, returndatasize)\n    tag_440:\n      pop\n      pop\n      pop\n      pop\n      mload(0x40)\n      returndatasize\n      not(0x1f)\n      0x1f\n      dup3\n      add\n      and\n      dup3\n      add\n      dup1\n      0x40\n      mstore\n      pop\n      dup2\n      add\n      swap1\n      tag_441\n      swap2\n      swap1\n      tag_442\n      jump\t// in\n    tag_441:\n        /* \"@thirdweb-dev/contracts/extension/OperatorFilterer.sol\":2618:2768   */\n      tag_228\n      jumpi\n        /* \"@thirdweb-dev/contracts/extension/OperatorFilterer.sol\":2721:2749   */\n      mload(0x40)\n      shl(0xe2, 0x3b79c773)\n      dup2\n      mstore\n      sub(shl(0xa0, 0x01), 0x01)\n        /* \"#utility.yul\":3150:3205   */\n      dup3\n      and\n        /* \"@thirdweb-dev/contracts/extension/OperatorFilterer.sol\":2721:2749   */\n      0x04\n      dup3\n      add\n        /* \"#utility.yul\":3132:3206   */\n      mstore\n        /* \"#utility.yul\":3105:3123   */\n      0x24\n      add\n        /* \"@thirdweb-dev/contracts/extension/OperatorFilterer.sol\":2721:2749   */\n      tag_226\n        /* \"#utility.yul\":2986:3212   */\n      jump\n        /* \"@thirdweb-dev/contracts/eip/ERC721AVirtualApprove.sol\":7164:7556   */\n    tag_221:\n        /* \"@thirdweb-dev/contracts/eip/ERC721AVirtualApprove.sol\":7244:7257   */\n      0x00\n        /* \"@thirdweb-dev/contracts/eip/ERC721AVirtualApprove.sol\":7260:7284   */\n      tag_446\n        /* \"@thirdweb-dev/contracts/eip/ERC721AVirtualApprove.sol\":7276:7283   */\n      dup3\n        /* \"@thirdweb-dev/contracts/eip/ERC721AVirtualApprove.sol\":7260:7275   */\n      tag_139\n        /* \"@thirdweb-dev/contracts/eip/ERC721AVirtualApprove.sol\":7260:7284   */\n      jump\t// in\n    tag_446:\n        /* \"@thirdweb-dev/contracts/eip/ERC721AVirtualApprove.sol\":7244:7284   */\n      swap1\n      pop\n        /* \"@thirdweb-dev/contracts/eip/ERC721AVirtualApprove.sol\":7304:7309   */\n      dup1\n      sub(shl(0xa0, 0x01), 0x01)\n        /* \"@thirdweb-dev/contracts/eip/ERC721AVirtualApprove.sol\":7298:7309   */\n      and\n        /* \"@thirdweb-dev/contracts/eip/ERC721AVirtualApprove.sol\":7298:7300   */\n      dup4\n      sub(shl(0xa0, 0x01), 0x01)\n        /* \"@thirdweb-dev/contracts/eip/ERC721AVirtualApprove.sol\":7298:7309   */\n      and\n      sub\n        /* \"@thirdweb-dev/contracts/eip/ERC721AVirtualApprove.sol\":7294:7342   */\n      tag_447\n      jumpi\n        /* \"@thirdweb-dev/contracts/eip/ERC721AVirtualApprove.sol\":7318:7342   */\n      mload(0x40)\n      shl(0xe2, 0x250fdee3)\n      dup2\n      mstore\n      0x04\n      add\n      mload(0x40)\n      dup1\n      swap2\n      sub\n      swap1\n      revert\n        /* \"@thirdweb-dev/contracts/eip/ERC721AVirtualApprove.sol\":7294:7342   */\n    tag_447:\n        /* \"@thirdweb-dev/contracts/openzeppelin-presets/utils/Context.sol\":719:729   */\n      caller\n      sub(shl(0xa0, 0x01), 0x01)\n        /* \"@thirdweb-dev/contracts/eip/ERC721AVirtualApprove.sol\":7357:7378   */\n      dup3\n      and\n      eq\n        /* \"@thirdweb-dev/contracts/eip/ERC721AVirtualApprove.sol\":7353:7511   */\n      tag_453\n      jumpi\n        /* \"@thirdweb-dev/contracts/eip/ERC721AVirtualApprove.sol\":7397:7434   */\n      tag_451\n        /* \"@thirdweb-dev/contracts/eip/ERC721AVirtualApprove.sol\":7414:7419   */\n      dup2\n        /* \"@thirdweb-dev/contracts/openzeppelin-presets/utils/Context.sol\":719:729   */\n      caller\n        /* \"@thirdweb-dev/contracts/eip/ERC721AVirtualApprove.sol\":8232:8394   */\n      tag_191\n      jump\t// in\n        /* \"@thirdweb-dev/contracts/eip/ERC721AVirtualApprove.sol\":7397:7434   */\n    tag_451:\n        /* \"@thirdweb-dev/contracts/eip/ERC721AVirtualApprove.sol\":7392:7511   */\n      tag_453\n      jumpi\n        /* \"@thirdweb-dev/contracts/eip/ERC721AVirtualApprove.sol\":7461:7496   */\n      mload(0x40)\n      shl(0xe1, 0x67d9dca1)\n      dup2\n      mstore\n      0x04\n      add\n      mload(0x40)\n      dup1\n      swap2\n      sub\n      swap1\n      revert\n        /* \"@thirdweb-dev/contracts/eip/ERC721AVirtualApprove.sol\":7392:7511   */\n    tag_453:\n        /* \"@thirdweb-dev/contracts/eip/ERC721AVirtualApprove.sol\":7521:7549   */\n      tag_199\n        /* \"@thirdweb-dev/contracts/eip/ERC721AVirtualApprove.sol\":7530:7532   */\n      dup4\n        /* \"@thirdweb-dev/contracts/eip/ERC721AVirtualApprove.sol\":7534:7541   */\n      dup4\n        /* \"@thirdweb-dev/contracts/eip/ERC721AVirtualApprove.sol\":7543:7548   */\n      dup4\n        /* \"@thirdweb-dev/contracts/eip/ERC721AVirtualApprove.sol\":7521:7529   */\n      tag_455\n        /* \"@thirdweb-dev/contracts/eip/ERC721AVirtualApprove.sol\":7521:7549   */\n      jump\t// in\n        /* \"@thirdweb-dev/contracts/base/ERC721Base.sol\":8657:8772   */\n    tag_224:\n        /* \"@thirdweb-dev/contracts/base/ERC721Base.sol\":8721:8725   */\n      0x00\n        /* \"@thirdweb-dev/contracts/base/ERC721Base.sol\":8758:8765   */\n      tag_457\n        /* \"@thirdweb-dev/contracts/extension/Ownable.sol\":922:928   */\n      and(sub(shl(0xa0, 0x01), 0x01), sload(0x09))\n      swap1\n        /* \"@thirdweb-dev/contracts/extension/Ownable.sol\":849:935   */\n      jump\n        /* \"@thirdweb-dev/contracts/base/ERC721Base.sol\":8758:8765   */\n    tag_457:\n      sub(shl(0xa0, 0x01), 0x01)\n        /* \"@thirdweb-dev/contracts/base/ERC721Base.sol\":8744:8765   */\n      and\n        /* \"@thirdweb-dev/contracts/base/ERC721Base.sol\":8744:8754   */\n      caller\n      sub(shl(0xa0, 0x01), 0x01)\n        /* \"@thirdweb-dev/contracts/base/ERC721Base.sol\":8744:8765   */\n      and\n      eq\n        /* \"@thirdweb-dev/contracts/base/ERC721Base.sol\":8737:8765   */\n      swap1\n      pop\n        /* \"@thirdweb-dev/contracts/base/ERC721Base.sol\":8657:8772   */\n      swap1\n      jump\t// out\n        /* \"@thirdweb-dev/contracts/extension/Ownable.sol\":1399:1571   */\n    tag_229:\n        /* \"@thirdweb-dev/contracts/extension/Ownable.sol\":1479:1485   */\n      0x09\n      dup1\n      sload\n      sub(shl(0xa0, 0x01), 0x01)\n        /* \"@thirdweb-dev/contracts/extension/Ownable.sol\":1495:1513   */\n      dup4\n      dup2\n      and\n      not(0xffffffffffffffffffffffffffffffffffffffff)\n      dup4\n      and\n      dup2\n      or\n      swap1\n      swap4\n      sstore\n        /* \"@thirdweb-dev/contracts/extension/Ownable.sol\":1529:1564   */\n      mload(0x40)\n        /* \"@thirdweb-dev/contracts/extension/Ownable.sol\":1479:1485   */\n      swap2\n      and\n      swap2\n        /* \"@thirdweb-dev/contracts/extension/Ownable.sol\":1495:1513   */\n      swap1\n        /* \"@thirdweb-dev/contracts/extension/Ownable.sol\":1479:1485   */\n      dup3\n      swap1\n        /* \"@thirdweb-dev/contracts/extension/Ownable.sol\":1529:1564   */\n      0x8292fce18fa69edf4db7b94ea2e58241df0ae57f97e0a6c9b29067028bf92d76\n      swap1\n        /* \"@thirdweb-dev/contracts/extension/Ownable.sol\":1458:1476   */\n      0x00\n      swap1\n        /* \"@thirdweb-dev/contracts/extension/Ownable.sol\":1529:1564   */\n      log3\n        /* \"@thirdweb-dev/contracts/extension/Ownable.sol\":1448:1571   */\n      pop\n        /* \"@thirdweb-dev/contracts/extension/Ownable.sol\":1399:1571   */\n      pop\n      jump\t// out\n        /* \"@thirdweb-dev/contracts/eip/ERC721AVirtualApprove.sol\":8456:8620   */\n    tag_246:\n        /* \"@thirdweb-dev/contracts/eip/ERC721AVirtualApprove.sol\":8585:8613   */\n      tag_199\n        /* \"@thirdweb-dev/contracts/eip/ERC721AVirtualApprove.sol\":8595:8599   */\n      dup4\n        /* \"@thirdweb-dev/contracts/eip/ERC721AVirtualApprove.sol\":8601:8603   */\n      dup4\n        /* \"@thirdweb-dev/contracts/eip/ERC721AVirtualApprove.sol\":8605:8612   */\n      dup4\n        /* \"@thirdweb-dev/contracts/eip/ERC721AVirtualApprove.sol\":8585:8594   */\n      tag_462\n        /* \"@thirdweb-dev/contracts/eip/ERC721AVirtualApprove.sol\":8585:8613   */\n      jump\t// in\n        /* \"@thirdweb-dev/contracts/extension/OperatorFilterToggle.sol\":435:595   */\n    tag_269:\n        /* \"@thirdweb-dev/contracts/extension/OperatorFilterToggle.sol\":506:525   */\n      0x0e\n        /* \"@thirdweb-dev/contracts/extension/OperatorFilterToggle.sol\":506:540   */\n      dup1\n      sload\n      not(0xff)\n      and\n      dup3\n      iszero\n      iszero\n      swap1\n      dup2\n      or\n      swap1\n      swap2\n      sstore\n        /* \"@thirdweb-dev/contracts/extension/OperatorFilterToggle.sol\":555:588   */\n      mload(0x40)\n        /* \"#utility.yul\":1998:2039   */\n      swap1\n      dup2\n      mstore\n        /* \"@thirdweb-dev/contracts/extension/OperatorFilterToggle.sol\":555:588   */\n      0x38475885990d8dfe9ca01f0ef160a1b5514426eab9ddbc953a3353410ba78096\n      swap1\n        /* \"#utility.yul\":1986:1988   */\n      0x20\n        /* \"#utility.yul\":1971:1989   */\n      add\n        /* \"@thirdweb-dev/contracts/extension/OperatorFilterToggle.sol\":555:588   */\n      mload(0x40)\n      dup1\n      swap2\n      sub\n      swap1\n      log1\n        /* \"@thirdweb-dev/contracts/extension/OperatorFilterToggle.sol\":435:595   */\n      pop\n      jump\t// out\n        /* \"@thirdweb-dev/contracts/eip/ERC721AVirtualApprove.sol\":8686:8865   */\n    tag_297:\n        /* \"@thirdweb-dev/contracts/eip/ERC721AVirtualApprove.sol\":8819:8858   */\n      tag_199\n        /* \"@thirdweb-dev/contracts/eip/ERC721AVirtualApprove.sol\":8836:8840   */\n      dup4\n        /* \"@thirdweb-dev/contracts/eip/ERC721AVirtualApprove.sol\":8842:8844   */\n      dup4\n        /* \"@thirdweb-dev/contracts/eip/ERC721AVirtualApprove.sol\":8846:8853   */\n      dup4\n        /* \"@thirdweb-dev/contracts/eip/ERC721AVirtualApprove.sol\":8819:8858   */\n      mload(0x40)\n      dup1\n      0x20\n      add\n      0x40\n      mstore\n      dup1\n      0x00\n      dup2\n      mstore\n      pop\n        /* \"@thirdweb-dev/contracts/eip/ERC721AVirtualApprove.sol\":8819:8835   */\n      tag_182\n        /* \"@thirdweb-dev/contracts/eip/ERC721AVirtualApprove.sol\":8819:8858   */\n      jump\t// in\n        /* \"@thirdweb-dev/contracts/eip/ERC721AVirtualApprove.sol\":16073:18428   */\n    tag_300:\n        /* \"@thirdweb-dev/contracts/eip/ERC721AVirtualApprove.sol\":16152:16187   */\n      0x00\n        /* \"@thirdweb-dev/contracts/eip/ERC721AVirtualApprove.sol\":16190:16211   */\n      tag_470\n        /* \"@thirdweb-dev/contracts/eip/ERC721AVirtualApprove.sol\":16203:16210   */\n      dup4\n        /* \"@thirdweb-dev/contracts/eip/ERC721AVirtualApprove.sol\":16190:16202   */\n      tag_319\n        /* \"@thirdweb-dev/contracts/eip/ERC721AVirtualApprove.sol\":16190:16211   */\n      jump\t// in\n    tag_470:\n        /* \"@thirdweb-dev/contracts/eip/ERC721AVirtualApprove.sol\":16237:16255   */\n      dup1\n      mload\n        /* \"@thirdweb-dev/contracts/eip/ERC721AVirtualApprove.sol\":16152:16211   */\n      swap1\n      swap2\n      pop\n        /* \"@thirdweb-dev/contracts/eip/ERC721AVirtualApprove.sol\":16266:16550   */\n      dup3\n      iszero\n      tag_471\n      jumpi\n        /* \"@thirdweb-dev/contracts/eip/ERC721AVirtualApprove.sol\":16299:16321   */\n      0x00\n        /* \"@thirdweb-dev/contracts/openzeppelin-presets/utils/Context.sol\":719:729   */\n      caller\n      sub(shl(0xa0, 0x01), 0x01)\n        /* \"@thirdweb-dev/contracts/eip/ERC721AVirtualApprove.sol\":16325:16345   */\n      dup4\n      and\n      eq\n      dup1\n        /* \"@thirdweb-dev/contracts/eip/ERC721AVirtualApprove.sol\":16325:16401   */\n      tag_474\n      jumpi\n      pop\n        /* \"@thirdweb-dev/contracts/eip/ERC721AVirtualApprove.sol\":16365:16401   */\n      tag_474\n        /* \"@thirdweb-dev/contracts/eip/ERC721AVirtualApprove.sol\":16382:16386   */\n      dup3\n        /* \"@thirdweb-dev/contracts/openzeppelin-presets/utils/Context.sol\":719:729   */\n      caller\n        /* \"@thirdweb-dev/contracts/eip/ERC721AVirtualApprove.sol\":8232:8394   */\n      tag_191\n      jump\t// in\n        /* \"@thirdweb-dev/contracts/eip/ERC721AVirtualApprove.sol\":16365:16401   */\n    tag_474:\n        /* \"@thirdweb-dev/contracts/eip/ERC721AVirtualApprove.sol\":16325:16457   */\n      dup1\n      tag_476\n      jumpi\n      pop\n        /* \"@thirdweb-dev/contracts/openzeppelin-presets/utils/Context.sol\":719:729   */\n      caller\n        /* \"@thirdweb-dev/contracts/eip/ERC721AVirtualApprove.sol\":16421:16441   */\n      tag_478\n        /* \"@thirdweb-dev/contracts/eip/ERC721AVirtualApprove.sol\":16433:16440   */\n      dup7\n        /* \"@thirdweb-dev/contracts/eip/ERC721AVirtualApprove.sol\":16421:16432   */\n      tag_67\n        /* \"@thirdweb-dev/contracts/eip/ERC721AVirtualApprove.sol\":16421:16441   */\n      jump\t// in\n    tag_478:\n      sub(shl(0xa0, 0x01), 0x01)\n        /* \"@thirdweb-dev/contracts/eip/ERC721AVirtualApprove.sol\":16421:16457   */\n      and\n      eq\n        /* \"@thirdweb-dev/contracts/eip/ERC721AVirtualApprove.sol\":16325:16457   */\n    tag_476:\n        /* \"@thirdweb-dev/contracts/eip/ERC721AVirtualApprove.sol\":16299:16458   */\n      swap1\n      pop\n        /* \"@thirdweb-dev/contracts/eip/ERC721AVirtualApprove.sol\":16478:16495   */\n      dup1\n        /* \"@thirdweb-dev/contracts/eip/ERC721AVirtualApprove.sol\":16473:16539   */\n      tag_479\n      jumpi\n        /* \"@thirdweb-dev/contracts/eip/ERC721AVirtualApprove.sol\":16504:16539   */\n      mload(0x40)\n      shl(0xe1, 0x2ce44b5f)\n      dup2\n      mstore\n      0x04\n      add\n      mload(0x40)\n      dup1\n      swap2\n      sub\n      swap1\n      revert\n        /* \"@thirdweb-dev/contracts/eip/ERC721AVirtualApprove.sol\":16473:16539   */\n    tag_479:\n        /* \"@thirdweb-dev/contracts/eip/ERC721AVirtualApprove.sol\":16285:16550   */\n      pop\n        /* \"@thirdweb-dev/contracts/eip/ERC721AVirtualApprove.sol\":16266:16550   */\n    tag_471:\n        /* \"@thirdweb-dev/contracts/eip/ERC721AVirtualApprove.sol\":16673:16708   */\n      tag_481\n        /* \"@thirdweb-dev/contracts/eip/ERC721AVirtualApprove.sol\":16690:16691   */\n      0x00\n        /* \"@thirdweb-dev/contracts/eip/ERC721AVirtualApprove.sol\":16694:16701   */\n      dup6\n        /* \"@thirdweb-dev/contracts/eip/ERC721AVirtualApprove.sol\":16703:16707   */\n      dup4\n        /* \"@thirdweb-dev/contracts/eip/ERC721AVirtualApprove.sol\":16673:16681   */\n      tag_455\n        /* \"@thirdweb-dev/contracts/eip/ERC721AVirtualApprove.sol\":16673:16708   */\n      jump\t// in\n    tag_481:\n      sub(shl(0xa0, 0x01), 0x01)\n        /* \"@thirdweb-dev/contracts/eip/ERC721AVirtualApprove.sol\":17032:17050   */\n      dup1\n      dup3\n      and\n        /* \"@thirdweb-dev/contracts/eip/ERC721AVirtualApprove.sol\":16998:17029   */\n      0x00\n        /* \"@thirdweb-dev/contracts/eip/ERC721AVirtualApprove.sol\":17032:17050   */\n      dup2\n      dup2\n      mstore\n        /* \"@thirdweb-dev/contracts/eip/ERC721AVirtualApprove.sol\":17032:17044   */\n      0x05\n        /* \"@thirdweb-dev/contracts/eip/ERC721AVirtualApprove.sol\":17032:17050   */\n      0x20\n      swap1\n      dup2\n      mstore\n      0x40\n      dup1\n      dup4\n      keccak256\n        /* \"@thirdweb-dev/contracts/eip/ERC721AVirtualApprove.sol\":17064:17088   */\n      dup1\n      sload\n        /* \"@thirdweb-dev/contracts/eip/ERC721AVirtualApprove.sol\":17102:17131   */\n      0x0100000000000000000000000000000000\n      not(0x00)\n        /* \"@thirdweb-dev/contracts/eip/ERC721AVirtualApprove.sol\":17064:17088   */\n      0xffffffffffffffff\n      dup1\n      dup5\n      and\n      swap2\n      swap1\n      swap2\n      add\n      dup2\n      and\n      not(0xffffffffffffffff)\n      dup5\n      and\n      dup2\n      or\n        /* \"@thirdweb-dev/contracts/eip/ERC721AVirtualApprove.sol\":17102:17131   */\n      dup4\n      swap1\n      div\n      dup3\n      and\n        /* \"@thirdweb-dev/contracts/eip/ERC721AVirtualApprove.sol\":17087:17088   */\n      0x01\n        /* \"@thirdweb-dev/contracts/eip/ERC721AVirtualApprove.sol\":17102:17131   */\n      swap1\n      dup2\n      add\n      dup4\n      and\n      swap1\n      swap4\n      mul\n      0xffffffffffffffff0000000000000000ffffffffffffffff0000000000000000\n      swap1\n      swap5\n      and\n      or\n      swap3\n      swap1\n      swap3\n      or\n      dup4\n      sstore\n        /* \"@thirdweb-dev/contracts/eip/ERC721AVirtualApprove.sol\":17261:17281   */\n      dup12\n      dup7\n      mstore\n        /* \"@thirdweb-dev/contracts/eip/ERC721AVirtualApprove.sol\":17261:17272   */\n      0x04\n        /* \"@thirdweb-dev/contracts/eip/ERC721AVirtualApprove.sol\":17261:17281   */\n      swap1\n      swap5\n      mstore\n      dup3\n      dup6\n      keccak256\n        /* \"@thirdweb-dev/contracts/eip/ERC721AVirtualApprove.sol\":17295:17315   */\n      dup1\n      sload\n        /* \"@thirdweb-dev/contracts/eip/ERC721AVirtualApprove.sol\":17392:17414   */\n      0xffffff00ffffffffffffffffffffffffffffffffffffffffffffffffffffffff\n        /* \"@thirdweb-dev/contracts/eip/ERC721AVirtualApprove.sol\":17362:17377   */\n      timestamp\n        /* \"@thirdweb-dev/contracts/eip/ERC721AVirtualApprove.sol\":17329:17378   */\n      swap1\n      swap4\n      and\n      shl(0xa0, 0x01)\n      mul\n      not(sub(shl(0xe0, 0x01), 0x01))\n      swap1\n      swap2\n      and\n      swap1\n      swap8\n      or\n      swap7\n      swap1\n      swap7\n      or\n        /* \"@thirdweb-dev/contracts/eip/ERC721AVirtualApprove.sol\":17392:17414   */\n      and\n      shl(0xe0, 0x01)\n      or\n      dup6\n      sstore\n        /* \"@thirdweb-dev/contracts/eip/ERC721AVirtualApprove.sol\":17680:17691   */\n      swap2\n      dup10\n      add\n        /* \"@thirdweb-dev/contracts/eip/ERC721AVirtualApprove.sol\":17739:17763   */\n      dup1\n      dup5\n      mstore\n      swap3\n      keccak256\n        /* \"@thirdweb-dev/contracts/eip/ERC721AVirtualApprove.sol\":17781:17794   */\n      dup1\n      sload\n        /* \"@thirdweb-dev/contracts/eip/ERC721AVirtualApprove.sol\":17032:17050   */\n      swap2\n      swap5\n        /* \"@thirdweb-dev/contracts/eip/ERC721AVirtualApprove.sol\":17739:17763   */\n      swap1\n      swap2\n        /* \"@thirdweb-dev/contracts/eip/ERC721AVirtualApprove.sol\":17781:17794   */\n      and\n        /* \"@thirdweb-dev/contracts/eip/ERC721AVirtualApprove.sol\":17777:18154   */\n      tag_483\n      jumpi\n        /* \"@thirdweb-dev/contracts/eip/ERC721AVirtualApprove.sol\":17988:18001   */\n      sload(0x00)\n        /* \"@thirdweb-dev/contracts/eip/ERC721AVirtualApprove.sol\":17973:17984   */\n      dup3\n        /* \"@thirdweb-dev/contracts/eip/ERC721AVirtualApprove.sol\":17973:18001   */\n      eq\n        /* \"@thirdweb-dev/contracts/eip/ERC721AVirtualApprove.sol\":17969:18140   */\n      tag_483\n      jumpi\n        /* \"@thirdweb-dev/contracts/eip/ERC721AVirtualApprove.sol\":18025:18045   */\n      dup1\n      sload\n        /* \"@thirdweb-dev/contracts/eip/ERC721AVirtualApprove.sol\":18093:18121   */\n      0x20\n      dup8\n      add\n      mload\n        /* \"@thirdweb-dev/contracts/eip/ERC721AVirtualApprove.sol\":18067:18121   */\n      0xffffffffffffffff\n      and\n      shl(0xa0, 0x01)\n      mul\n      not(sub(shl(0xe0, 0x01), 0x01))\n      swap1\n      swap2\n      and\n      sub(shl(0xa0, 0x01), 0x01)\n        /* \"@thirdweb-dev/contracts/eip/ERC721AVirtualApprove.sol\":18025:18045   */\n      dup8\n      and\n        /* \"@thirdweb-dev/contracts/eip/ERC721AVirtualApprove.sol\":18067:18121   */\n      or\n      or\n      dup2\n      sstore\n        /* \"@thirdweb-dev/contracts/eip/ERC721AVirtualApprove.sol\":17969:18140   */\n    tag_483:\n      pop\n      pop\n        /* \"@thirdweb-dev/contracts/eip/ERC721AVirtualApprove.sol\":18179:18214   */\n      mload(0x40)\n        /* \"@thirdweb-dev/contracts/eip/ERC721AVirtualApprove.sol\":18206:18213   */\n      dup7\n      swap3\n      pop\n        /* \"@thirdweb-dev/contracts/eip/ERC721AVirtualApprove.sol\":18202:18203   */\n      0x00\n      swap2\n      pop\n      sub(shl(0xa0, 0x01), 0x01)\n        /* \"@thirdweb-dev/contracts/eip/ERC721AVirtualApprove.sol\":18179:18214   */\n      dup5\n      and\n      swap1\n      0xddf252ad1be2c89b69c2b068fc378daa952ba7f163c4a11628f55a4df523b3ef\n      swap1\n        /* \"@thirdweb-dev/contracts/eip/ERC721AVirtualApprove.sol\":18202:18203   */\n      dup4\n      swap1\n        /* \"@thirdweb-dev/contracts/eip/ERC721AVirtualApprove.sol\":18179:18214   */\n      log4\n      pop\n      pop\n        /* \"@thirdweb-dev/contracts/eip/ERC721AVirtualApprove.sol\":18397:18409   */\n      0x01\n        /* \"@thirdweb-dev/contracts/eip/ERC721AVirtualApprove.sol\":18397:18411   */\n      dup1\n      sload\n      dup2\n      add\n      swap1\n      sstore\n      pop\n      pop\n        /* \"@thirdweb-dev/contracts/eip/ERC721AVirtualApprove.sol\":16073:18428   */\n      jump\t// out\n        /* \"@thirdweb-dev/contracts/extension/Royalty.sol\":3408:3742   */\n    tag_316:\n        /* \"@thirdweb-dev/contracts/extension/Royalty.sol\":3527:3533   */\n      0x2710\n        /* \"@thirdweb-dev/contracts/extension/Royalty.sol\":3513:3524   */\n      dup2\n        /* \"@thirdweb-dev/contracts/extension/Royalty.sol\":3513:3533   */\n      gt\n        /* \"@thirdweb-dev/contracts/extension/Royalty.sol\":3509:3585   */\n      iszero\n      tag_488\n      jumpi\n        /* \"@thirdweb-dev/contracts/extension/Royalty.sol\":3549:3574   */\n      mload(0x40)\n      shl(0xe5, 0x461bcd)\n      dup2\n      mstore\n        /* \"#utility.yul\":15902:15904   */\n      0x20\n        /* \"@thirdweb-dev/contracts/extension/Royalty.sol\":3549:3574   */\n      0x04\n      dup3\n      add\n        /* \"#utility.yul\":15884:15905   */\n      mstore\n        /* \"#utility.yul\":15941:15943   */\n      0x0f\n        /* \"#utility.yul\":15921:15939   */\n      0x24\n      dup3\n      add\n        /* \"#utility.yul\":15914:15944   */\n      mstore\n      shl(0x88, 0x45786365656473206d617820627073)\n        /* \"#utility.yul\":15960:15978   */\n      0x44\n      dup3\n      add\n        /* \"#utility.yul\":15953:15998   */\n      mstore\n        /* \"#utility.yul\":16015:16033   */\n      0x64\n      add\n        /* \"@thirdweb-dev/contracts/extension/Royalty.sol\":3549:3574   */\n      tag_226\n        /* \"#utility.yul\":15700:16039   */\n      jump\n        /* \"@thirdweb-dev/contracts/extension/Royalty.sol\":3509:3585   */\n    tag_488:\n        /* \"@thirdweb-dev/contracts/extension/Royalty.sol\":3595:3611   */\n      0x0a\n        /* \"@thirdweb-dev/contracts/extension/Royalty.sol\":3595:3631   */\n      dup1\n      sload\n      sub(shl(0xa0, 0x01), 0x01)\n      dup5\n      and\n        /* \"@thirdweb-dev/contracts/extension/Royalty.sol\":3641:3673   */\n      0xffffffffffffffffffff00000000000000000000000000000000000000000000\n      swap1\n      swap2\n      and\n      dup2\n      or\n      shl(0xa0, 0x01)\n      0xffff\n      dup6\n      and\n      mul\n      or\n      swap1\n      swap2\n      sstore\n        /* \"@thirdweb-dev/contracts/extension/Royalty.sol\":3689:3735   */\n      mload(0x40)\n        /* \"#utility.yul\":4429:4454   */\n      dup3\n      dup2\n      mstore\n        /* \"@thirdweb-dev/contracts/extension/Royalty.sol\":3689:3735   */\n      0x90d7ec04bcb8978719414f82e52e4cb651db41d0e6f8cea6118c2191e6183adb\n      swap1\n        /* \"#utility.yul\":4417:4419   */\n      0x20\n        /* \"#utility.yul\":4402:4420   */\n      add\n        /* \"@thirdweb-dev/contracts/extension/Royalty.sol\":3689:3735   */\n      mload(0x40)\n      dup1\n      swap2\n      sub\n      swap1\n      log2\n        /* \"@thirdweb-dev/contracts/extension/Royalty.sol\":3408:3742   */\n      pop\n      pop\n      jump\t// out\n        /* \"@thirdweb-dev/contracts/eip/ERC721AVirtualApprove.sol\":4715:5889   */\n    tag_319:\n      0x40\n      dup1\n      mload\n      0x60\n      dup2\n      add\n      dup3\n      mstore\n      0x00\n      dup1\n      dup3\n      mstore\n      0x20\n      dup3\n      add\n      dup2\n      swap1\n      mstore\n      swap2\n      dup2\n      add\n      swap2\n      swap1\n      swap2\n      mstore\n        /* \"@thirdweb-dev/contracts/eip/ERC721AVirtualApprove.sol\":4825:4832   */\n      dup2\n        /* \"@thirdweb-dev/contracts/eip/ERC721AVirtualApprove.sol\":4923:4936   */\n      sload(0x00)\n        /* \"@thirdweb-dev/contracts/eip/ERC721AVirtualApprove.sol\":4916:4920   */\n      dup2\n        /* \"@thirdweb-dev/contracts/eip/ERC721AVirtualApprove.sol\":4916:4936   */\n      lt\n        /* \"@thirdweb-dev/contracts/eip/ERC721AVirtualApprove.sol\":4912:5825   */\n      iszero\n      tag_497\n      jumpi\n        /* \"@thirdweb-dev/contracts/eip/ERC721AVirtualApprove.sol\":4960:4991   */\n      0x00\n        /* \"@thirdweb-dev/contracts/eip/ERC721AVirtualApprove.sol\":4994:5011   */\n      dup2\n      dup2\n      mstore\n        /* \"@thirdweb-dev/contracts/eip/ERC721AVirtualApprove.sol\":4994:5005   */\n      0x04\n        /* \"@thirdweb-dev/contracts/eip/ERC721AVirtualApprove.sol\":4994:5011   */\n      0x20\n      swap1\n      dup2\n      mstore\n      0x40\n      swap2\n      dup3\n      swap1\n      keccak256\n        /* \"@thirdweb-dev/contracts/eip/ERC721AVirtualApprove.sol\":4960:5011   */\n      dup3\n      mload\n      0x60\n      dup2\n      add\n      dup5\n      mstore\n      swap1\n      sload\n      sub(shl(0xa0, 0x01), 0x01)\n      dup2\n      and\n      dup3\n      mstore\n      shl(0xa0, 0x01)\n      dup2\n      div\n      0xffffffffffffffff\n      and\n      swap3\n      dup3\n      add\n      swap3\n      swap1\n      swap3\n      mstore\n      shl(0xe0, 0x01)\n      swap1\n      swap2\n      div\n      0xff\n      and\n      iszero\n      iszero\n      swap2\n      dup2\n      add\n      dup3\n      swap1\n      mstore\n      swap1\n        /* \"@thirdweb-dev/contracts/eip/ERC721AVirtualApprove.sol\":5033:5807   */\n      tag_501\n      jumpi\n        /* \"@thirdweb-dev/contracts/eip/ERC721AVirtualApprove.sol\":5086:5100   */\n      dup1\n      mload\n      sub(shl(0xa0, 0x01), 0x01)\n        /* \"@thirdweb-dev/contracts/eip/ERC721AVirtualApprove.sol\":5086:5114   */\n      and\n      iszero\n        /* \"@thirdweb-dev/contracts/eip/ERC721AVirtualApprove.sol\":5082:5189   */\n      tag_499\n      jumpi\n        /* \"@thirdweb-dev/contracts/eip/ERC721AVirtualApprove.sol\":5153:5162   */\n      swap4\n        /* \"@thirdweb-dev/contracts/eip/ERC721AVirtualApprove.sol\":4715:5889   */\n      swap3\n      pop\n      pop\n      pop\n      jump\t// out\n        /* \"@thirdweb-dev/contracts/eip/ERC721AVirtualApprove.sol\":5082:5189   */\n    tag_499:\n      pop\n      not(0x00)\n        /* \"@thirdweb-dev/contracts/eip/ERC721AVirtualApprove.sol\":5549:5555   */\n      add\n        /* \"@thirdweb-dev/contracts/eip/ERC721AVirtualApprove.sol\":5597:5614   */\n      0x00\n      dup2\n      dup2\n      mstore\n        /* \"@thirdweb-dev/contracts/eip/ERC721AVirtualApprove.sol\":5597:5608   */\n      0x04\n        /* \"@thirdweb-dev/contracts/eip/ERC721AVirtualApprove.sol\":5597:5614   */\n      0x20\n      swap1\n      dup2\n      mstore\n      0x40\n      swap2\n      dup3\n      swap1\n      keccak256\n        /* \"@thirdweb-dev/contracts/eip/ERC721AVirtualApprove.sol\":5585:5614   */\n      dup3\n      mload\n      0x60\n      dup2\n      add\n      dup5\n      mstore\n      swap1\n      sload\n      sub(shl(0xa0, 0x01), 0x01)\n      dup2\n      and\n      dup1\n      dup4\n      mstore\n      shl(0xa0, 0x01)\n      dup3\n      div\n      0xffffffffffffffff\n      and\n      swap4\n      dup4\n      add\n      swap4\n      swap1\n      swap4\n      mstore\n      shl(0xe0, 0x01)\n      swap1\n      div\n      0xff\n      and\n      iszero\n      iszero\n      swap3\n      dup2\n      add\n      swap3\n      swap1\n      swap3\n      mstore\n        /* \"@thirdweb-dev/contracts/eip/ERC721AVirtualApprove.sol\":5648:5676   */\n      iszero\n        /* \"@thirdweb-dev/contracts/eip/ERC721AVirtualApprove.sol\":5644:5759   */\n      tag_502\n      jumpi\n        /* \"@thirdweb-dev/contracts/eip/ERC721AVirtualApprove.sol\":5719:5728   */\n      swap4\n        /* \"@thirdweb-dev/contracts/eip/ERC721AVirtualApprove.sol\":4715:5889   */\n      swap3\n      pop\n      pop\n      pop\n      jump\t// out\n        /* \"@thirdweb-dev/contracts/eip/ERC721AVirtualApprove.sol\":5644:5759   */\n    tag_502:\n        /* \"@thirdweb-dev/contracts/eip/ERC721AVirtualApprove.sol\":5506:5785   */\n      jump(tag_499)\n    tag_501:\n        /* \"@thirdweb-dev/contracts/eip/ERC721AVirtualApprove.sol\":4938:5825   */\n      pop\n        /* \"@thirdweb-dev/contracts/eip/ERC721AVirtualApprove.sol\":4912:5825   */\n    tag_497:\n        /* \"@thirdweb-dev/contracts/eip/ERC721AVirtualApprove.sol\":5851:5882   */\n      mload(0x40)\n      shl(0xe1, 0x6f96cda1)\n      dup2\n      mstore\n      0x04\n      add\n      mload(0x40)\n      dup1\n      swap2\n      sub\n      swap1\n      revert\n        /* \"@thirdweb-dev/contracts/extension/BatchMintMetadata.sol\":2818:3180   */\n    tag_331:\n        /* \"@thirdweb-dev/contracts/extension/BatchMintMetadata.sol\":2968:2993   */\n      0x00\n      dup1\n        /* \"@thirdweb-dev/contracts/extension/BatchMintMetadata.sol\":3032:3056   */\n      tag_506\n        /* \"@thirdweb-dev/contracts/extension/BatchMintMetadata.sol\":3043:3056   */\n      dup5\n        /* \"@thirdweb-dev/contracts/extension/BatchMintMetadata.sol\":3032:3040   */\n      dup7\n        /* \"@thirdweb-dev/contracts/extension/BatchMintMetadata.sol\":3032:3056   */\n      tag_507\n      jump\t// in\n    tag_506:\n        /* \"@thirdweb-dev/contracts/extension/BatchMintMetadata.sol\":3104:3112   */\n      0x0c\n        /* \"@thirdweb-dev/contracts/extension/BatchMintMetadata.sol\":3104:3126   */\n      dup1\n      sload\n      0x01\n      dup2\n      add\n      swap1\n      swap2\n      sstore\n      0xdf6966c971051c3d54ec59162606531493a51404a002842f56009d7e5cf4a8c7\n      add\n      dup2\n      swap1\n      sstore\n      0x00\n        /* \"@thirdweb-dev/contracts/extension/BatchMintMetadata.sol\":3137:3153   */\n      dup2\n      dup2\n      mstore\n        /* \"@thirdweb-dev/contracts/extension/BatchMintMetadata.sol\":3137:3144   */\n      0x0d\n        /* \"@thirdweb-dev/contracts/extension/BatchMintMetadata.sol\":3104:3126   */\n      0x20\n        /* \"@thirdweb-dev/contracts/extension/BatchMintMetadata.sol\":3137:3153   */\n      swap1\n      dup2\n      mstore\n      0x40\n      swap1\n      swap2\n      keccak256\n        /* \"@thirdweb-dev/contracts/extension/BatchMintMetadata.sol\":3137:3173   */\n      dup6\n      mload\n        /* \"@thirdweb-dev/contracts/extension/BatchMintMetadata.sol\":3022:3056   */\n      swap3\n      swap5\n      pop\n      dup5\n      swap4\n      pop\n        /* \"@thirdweb-dev/contracts/extension/BatchMintMetadata.sol\":3137:3173   */\n      tag_509\n      swap3\n        /* \"@thirdweb-dev/contracts/extension/BatchMintMetadata.sol\":3137:3153   */\n      swap1\n      swap2\n        /* \"@thirdweb-dev/contracts/extension/BatchMintMetadata.sol\":3137:3173   */\n      dup7\n      add\n      swap1\n      tag_236\n      jump\t// in\n    tag_509:\n      pop\n        /* \"@thirdweb-dev/contracts/extension/BatchMintMetadata.sol\":2818:3180   */\n      swap4\n      pop\n      swap4\n      swap2\n      pop\n      pop\n      jump\t// out\n        /* \"@thirdweb-dev/contracts/extension/ContractMetadata.sol\":1251:1436   */\n    tag_340:\n        /* \"@thirdweb-dev/contracts/extension/ContractMetadata.sol\":1317:1338   */\n      0x00\n        /* \"@thirdweb-dev/contracts/extension/ContractMetadata.sol\":1341:1352   */\n      0x08\n        /* \"@thirdweb-dev/contracts/extension/ContractMetadata.sol\":1317:1352   */\n      dup1\n      sload\n      tag_513\n      swap1\n      tag_207\n      jump\t// in\n    tag_513:\n      dup1\n      0x1f\n      add\n      0x20\n      dup1\n      swap2\n      div\n      mul\n      0x20\n      add\n      mload(0x40)\n      swap1\n      dup2\n      add\n      0x40\n      mstore\n      dup1\n      swap3\n      swap2\n      swap1\n      dup2\n      dup2\n      mstore\n      0x20\n      add\n      dup3\n      dup1\n      sload\n      tag_514\n      swap1\n      tag_207\n      jump\t// in\n    tag_514:\n      dup1\n      iszero\n      tag_515\n      jumpi\n      dup1\n      0x1f\n      lt\n      tag_516\n      jumpi\n      0x0100\n      dup1\n      dup4\n      sload\n      div\n      mul\n      dup4\n      mstore\n      swap2\n      0x20\n      add\n      swap2\n      jump(tag_515)\n    tag_516:\n      dup3\n      add\n      swap2\n      swap1\n      0x00\n      mstore\n      keccak256(0x00, 0x20)\n      swap1\n    tag_517:\n      dup2\n      sload\n      dup2\n      mstore\n      swap1\n      0x01\n      add\n      swap1\n      0x20\n      add\n      dup1\n      dup4\n      gt\n      tag_517\n      jumpi\n      dup3\n      swap1\n      sub\n      0x1f\n      and\n      dup3\n      add\n      swap2\n    tag_515:\n      pop\n      pop\n        /* \"@thirdweb-dev/contracts/extension/ContractMetadata.sol\":1362:1380   */\n      dup6\n      mload\n        /* \"@thirdweb-dev/contracts/extension/ContractMetadata.sol\":1317:1352   */\n      swap4\n      swap5\n      pop\n        /* \"@thirdweb-dev/contracts/extension/ContractMetadata.sol\":1362:1380   */\n      tag_518\n      swap4\n        /* \"@thirdweb-dev/contracts/extension/ContractMetadata.sol\":1362:1373   */\n      0x08\n      swap4\n      pop\n        /* \"@thirdweb-dev/contracts/extension/ContractMetadata.sol\":1362:1380   */\n      0x20\n      dup8\n      add\n      swap3\n      pop\n      swap1\n      pop\n      tag_236\n      jump\t// in\n    tag_518:\n      pop\n        /* \"@thirdweb-dev/contracts/extension/ContractMetadata.sol\":1396:1429   */\n      0xc9c7c3fe08b88b4df9d4d47ef47d2c43d55c025a0ba88ca442580ed9e7348a16\n        /* \"@thirdweb-dev/contracts/extension/ContractMetadata.sol\":1415:1422   */\n      dup2\n        /* \"@thirdweb-dev/contracts/extension/ContractMetadata.sol\":1424:1428   */\n      dup4\n        /* \"@thirdweb-dev/contracts/extension/ContractMetadata.sol\":1396:1429   */\n      mload(0x40)\n      tag_519\n      swap3\n      swap2\n      swap1\n      tag_520\n      jump\t// in\n    tag_519:\n      mload(0x40)\n      dup1\n      swap2\n      sub\n      swap1\n      log1\n        /* \"@thirdweb-dev/contracts/extension/ContractMetadata.sol\":1307:1436   */\n      pop\n        /* \"@thirdweb-dev/contracts/extension/ContractMetadata.sol\":1251:1436   */\n      pop\n      jump\t// out\n        /* \"@thirdweb-dev/contracts/extension/Royalty.sol\":4649:5011   */\n    tag_352:\n        /* \"@thirdweb-dev/contracts/extension/Royalty.sol\":4796:4802   */\n      0x2710\n        /* \"@thirdweb-dev/contracts/extension/Royalty.sol\":4789:4793   */\n      dup2\n        /* \"@thirdweb-dev/contracts/extension/Royalty.sol\":4789:4802   */\n      gt\n        /* \"@thirdweb-dev/contracts/extension/Royalty.sol\":4785:4854   */\n      iszero\n      tag_522\n      jumpi\n        /* \"@thirdweb-dev/contracts/extension/Royalty.sol\":4818:4843   */\n      mload(0x40)\n      shl(0xe5, 0x461bcd)\n      dup2\n      mstore\n        /* \"#utility.yul\":15902:15904   */\n      0x20\n        /* \"@thirdweb-dev/contracts/extension/Royalty.sol\":4818:4843   */\n      0x04\n      dup3\n      add\n        /* \"#utility.yul\":15884:15905   */\n      mstore\n        /* \"#utility.yul\":15941:15943   */\n      0x0f\n        /* \"#utility.yul\":15921:15939   */\n      0x24\n      dup3\n      add\n        /* \"#utility.yul\":15914:15944   */\n      mstore\n      shl(0x88, 0x45786365656473206d617820627073)\n        /* \"#utility.yul\":15960:15978   */\n      0x44\n      dup3\n      add\n        /* \"#utility.yul\":15953:15998   */\n      mstore\n        /* \"#utility.yul\":16015:16033   */\n      0x64\n      add\n        /* \"@thirdweb-dev/contracts/extension/Royalty.sol\":4818:4843   */\n      tag_226\n        /* \"#utility.yul\":15700:16039   */\n      jump\n        /* \"@thirdweb-dev/contracts/extension/Royalty.sol\":4785:4854   */\n    tag_522:\n        /* \"@thirdweb-dev/contracts/extension/Royalty.sol\":4896:4945   */\n      0x40\n      dup1\n      mload\n      dup1\n      dup3\n      add\n      dup3\n      mstore\n      sub(shl(0xa0, 0x01), 0x01)\n      dup5\n      dup2\n      and\n      dup1\n      dup4\n      mstore\n      0x20\n      dup1\n      dup5\n      add\n      dup7\n      dup2\n      mstore\n      0x00\n        /* \"@thirdweb-dev/contracts/extension/Royalty.sol\":4864:4893   */\n      dup10\n      dup2\n      mstore\n        /* \"@thirdweb-dev/contracts/extension/Royalty.sol\":4864:4883   */\n      0x0b\n        /* \"@thirdweb-dev/contracts/extension/Royalty.sol\":4864:4893   */\n      dup4\n      mstore\n      dup7\n      swap1\n      keccak256\n        /* \"@thirdweb-dev/contracts/extension/Royalty.sol\":4864:4945   */\n      swap5\n      mload\n      dup6\n      sload\n      not(0xffffffffffffffffffffffffffffffffffffffff)\n      and\n      swap5\n      and\n      swap4\n      swap1\n      swap4\n      or\n      dup5\n      sstore\n      swap2\n      mload\n      0x01\n      swap1\n      swap4\n      add\n      swap3\n      swap1\n      swap3\n      sstore\n        /* \"@thirdweb-dev/contracts/extension/Royalty.sol\":4961:5004   */\n      swap2\n      mload\n        /* \"#utility.yul\":4429:4454   */\n      dup4\n      dup2\n      mstore\n        /* \"@thirdweb-dev/contracts/extension/Royalty.sol\":4896:4945   */\n      swap1\n      swap2\n        /* \"@thirdweb-dev/contracts/extension/Royalty.sol\":4864:4893   */\n      dup6\n      swap2\n        /* \"@thirdweb-dev/contracts/extension/Royalty.sol\":4961:5004   */\n      0x7365cf4122f072a3365c20d54eff9b38d73c096c28e1892ec8f5b0e403a0f12d\n      swap2\n        /* \"#utility.yul\":4402:4420   */\n      add\n        /* \"@thirdweb-dev/contracts/extension/Royalty.sol\":4961:5004   */\n      mload(0x40)\n      dup1\n      swap2\n      sub\n      swap1\n      log3\n        /* \"@thirdweb-dev/contracts/extension/Royalty.sol\":4649:5011   */\n      pop\n      pop\n      pop\n      jump\t// out\n        /* \"@thirdweb-dev/contracts/eip/ERC721AVirtualApprove.sol\":7884:8166   */\n    tag_357:\n        /* \"@thirdweb-dev/contracts/openzeppelin-presets/utils/Context.sol\":719:729   */\n      caller\n      sub(shl(0xa0, 0x01), 0x01)\n        /* \"@thirdweb-dev/contracts/eip/ERC721AVirtualApprove.sol\":7982:8006   */\n      dup4\n      and\n      sub\n        /* \"@thirdweb-dev/contracts/eip/ERC721AVirtualApprove.sol\":7978:8032   */\n      tag_527\n      jumpi\n        /* \"@thirdweb-dev/contracts/eip/ERC721AVirtualApprove.sol\":8015:8032   */\n      mload(0x40)\n      shl(0xe0, 0xb06307db)\n      dup2\n      mstore\n      0x04\n      add\n      mload(0x40)\n      dup1\n      swap2\n      sub\n      swap1\n      revert\n        /* \"@thirdweb-dev/contracts/eip/ERC721AVirtualApprove.sol\":7978:8032   */\n    tag_527:\n        /* \"@thirdweb-dev/contracts/openzeppelin-presets/utils/Context.sol\":719:729   */\n      caller\n        /* \"@thirdweb-dev/contracts/eip/ERC721AVirtualApprove.sol\":8043:8075   */\n      0x00\n      dup2\n      dup2\n      mstore\n        /* \"@thirdweb-dev/contracts/eip/ERC721AVirtualApprove.sol\":8043:8061   */\n      0x07\n        /* \"@thirdweb-dev/contracts/eip/ERC721AVirtualApprove.sol\":8043:8075   */\n      0x20\n      swap1\n      dup2\n      mstore\n      0x40\n      dup1\n      dup4\n      keccak256\n      sub(shl(0xa0, 0x01), 0x01)\n        /* \"@thirdweb-dev/contracts/eip/ERC721AVirtualApprove.sol\":8043:8085   */\n      dup8\n      and\n      dup1\n      dup6\n      mstore\n      swap1\n      dup4\n      mstore\n      swap3\n      dup2\n      swap1\n      keccak256\n        /* \"@thirdweb-dev/contracts/eip/ERC721AVirtualApprove.sol\":8043:8096   */\n      dup1\n      sload\n      not(0xff)\n      and\n      dup7\n      iszero\n      iszero\n      swap1\n      dup2\n      or\n      swap1\n      swap2\n      sstore\n        /* \"@thirdweb-dev/contracts/eip/ERC721AVirtualApprove.sol\":8111:8159   */\n      swap1\n      mload\n        /* \"#utility.yul\":1998:2039   */\n      swap1\n      dup2\n      mstore\n        /* \"@thirdweb-dev/contracts/eip/ERC721AVirtualApprove.sol\":8043:8085   */\n      swap2\n      swap3\n        /* \"@thirdweb-dev/contracts/openzeppelin-presets/utils/Context.sol\":719:729   */\n      swap2\n        /* \"@thirdweb-dev/contracts/eip/ERC721AVirtualApprove.sol\":8111:8159   */\n      0x17307eab39ab6107e8899845ad3d59bd9653f200f220920489ca2b5937696c31\n      swap2\n        /* \"#utility.yul\":1971:1989   */\n      add\n        /* \"@thirdweb-dev/contracts/eip/ERC721AVirtualApprove.sol\":8111:8159   */\n      mload(0x40)\n      dup1\n      swap2\n      sub\n      swap1\n      log3\n        /* \"@thirdweb-dev/contracts/eip/ERC721AVirtualApprove.sol\":7884:8166   */\n      pop\n      pop\n      jump\t// out\n        /* \"@thirdweb-dev/contracts/lib/TWAddress.sol\":6578:6776   */\n    tag_372:\n        /* \"@thirdweb-dev/contracts/lib/TWAddress.sol\":6661:6673   */\n      0x60\n        /* \"@thirdweb-dev/contracts/lib/TWAddress.sol\":6692:6769   */\n      tag_532\n        /* \"@thirdweb-dev/contracts/lib/TWAddress.sol\":6713:6719   */\n      dup4\n        /* \"@thirdweb-dev/contracts/lib/TWAddress.sol\":6721:6725   */\n      dup4\n        /* \"@thirdweb-dev/contracts/lib/TWAddress.sol\":6692:6769   */\n      mload(0x40)\n      dup1\n      0x60\n      add\n      0x40\n      mstore\n      dup1\n      0x27\n      dup2\n      mstore\n      0x20\n      add\n      data_9fdcd12e4b726339b32a442b0a448365d5d85c96b2d2cff917b4f66c63110398\n      0x27\n      swap2\n      codecopy\n        /* \"@thirdweb-dev/contracts/lib/TWAddress.sol\":6692:6712   */\n      tag_533\n        /* \"@thirdweb-dev/contracts/lib/TWAddress.sol\":6692:6769   */\n      jump\t// in\n    tag_532:\n        /* \"@thirdweb-dev/contracts/lib/TWAddress.sol\":6685:6769   */\n      swap4\n        /* \"@thirdweb-dev/contracts/lib/TWAddress.sol\":6578:6776   */\n      swap3\n      pop\n      pop\n      pop\n      jump\t// out\n        /* \"@thirdweb-dev/contracts/eip/ERC721AVirtualApprove.sol\":8931:9312   */\n    tag_383:\n        /* \"@thirdweb-dev/contracts/eip/ERC721AVirtualApprove.sol\":9092:9120   */\n      tag_535\n        /* \"@thirdweb-dev/contracts/eip/ERC721AVirtualApprove.sol\":9102:9106   */\n      dup5\n        /* \"@thirdweb-dev/contracts/eip/ERC721AVirtualApprove.sol\":9108:9110   */\n      dup5\n        /* \"@thirdweb-dev/contracts/eip/ERC721AVirtualApprove.sol\":9112:9119   */\n      dup5\n        /* \"@thirdweb-dev/contracts/eip/ERC721AVirtualApprove.sol\":9092:9101   */\n      tag_462\n        /* \"@thirdweb-dev/contracts/eip/ERC721AVirtualApprove.sol\":9092:9120   */\n      jump\t// in\n    tag_535:\n      sub(shl(0xa0, 0x01), 0x01)\n        /* \"@thirdweb-dev/contracts/eip/ERC721AVirtualApprove.sol\":9134:9147   */\n      dup4\n      and\n        /* \"@thirdweb-dev/contracts/lib/TWAddress.sol\":1467:1486   */\n      extcodesize\n        /* \"@thirdweb-dev/contracts/lib/TWAddress.sol\":1467:1490   */\n      iszero\n        /* \"@thirdweb-dev/contracts/eip/ERC721AVirtualApprove.sol\":9130:9306   */\n      tag_237\n      jumpi\n        /* \"@thirdweb-dev/contracts/eip/ERC721AVirtualApprove.sol\":9168:9224   */\n      tag_538\n        /* \"@thirdweb-dev/contracts/eip/ERC721AVirtualApprove.sol\":9199:9203   */\n      dup5\n        /* \"@thirdweb-dev/contracts/eip/ERC721AVirtualApprove.sol\":9205:9207   */\n      dup5\n        /* \"@thirdweb-dev/contracts/eip/ERC721AVirtualApprove.sol\":9209:9216   */\n      dup5\n        /* \"@thirdweb-dev/contracts/eip/ERC721AVirtualApprove.sol\":9218:9223   */\n      dup5\n        /* \"@thirdweb-dev/contracts/eip/ERC721AVirtualApprove.sol\":9168:9198   */\n      tag_421\n        /* \"@thirdweb-dev/contracts/eip/ERC721AVirtualApprove.sol\":9168:9224   */\n      jump\t// in\n    tag_538:\n        /* \"@thirdweb-dev/contracts/eip/ERC721AVirtualApprove.sol\":9163:9306   */\n      tag_237\n      jumpi\n        /* \"@thirdweb-dev/contracts/eip/ERC721AVirtualApprove.sol\":9251:9291   */\n      mload(0x40)\n      shl(0xe1, 0x68d2bf6b)\n      dup2\n      mstore\n      0x04\n      add\n      mload(0x40)\n      dup1\n      swap2\n      sub\n      swap1\n      revert\n        /* \"@thirdweb-dev/contracts/extension/BatchMintMetadata.sol\":2131:2521   */\n    tag_392:\n        /* \"@thirdweb-dev/contracts/extension/BatchMintMetadata.sol\":2193:2206   */\n      0x60\n        /* \"@thirdweb-dev/contracts/extension/BatchMintMetadata.sol\":2218:2243   */\n      0x00\n        /* \"@thirdweb-dev/contracts/extension/BatchMintMetadata.sol\":2246:2263   */\n      tag_541\n        /* \"@thirdweb-dev/contracts/extension/BatchMintMetadata.sol\":1032:1040   */\n      0x0c\n        /* \"@thirdweb-dev/contracts/extension/BatchMintMetadata.sol\":1032:1047   */\n      sload\n      swap1\n        /* \"@thirdweb-dev/contracts/extension/BatchMintMetadata.sol\":958:1054   */\n      jump\n        /* \"@thirdweb-dev/contracts/extension/BatchMintMetadata.sol\":2246:2263   */\n    tag_541:\n        /* \"@thirdweb-dev/contracts/extension/BatchMintMetadata.sol\":2218:2263   */\n      swap1\n      pop\n        /* \"@thirdweb-dev/contracts/extension/BatchMintMetadata.sol\":2273:2297   */\n      0x00\n        /* \"@thirdweb-dev/contracts/extension/BatchMintMetadata.sol\":2300:2308   */\n      0x0c\n        /* \"@thirdweb-dev/contracts/extension/BatchMintMetadata.sol\":2273:2308   */\n      dup1\n      sload\n      dup1\n      0x20\n      mul\n      0x20\n      add\n      mload(0x40)\n      swap1\n      dup2\n      add\n      0x40\n      mstore\n      dup1\n      swap3\n      swap2\n      swap1\n      dup2\n      dup2\n      mstore\n      0x20\n      add\n      dup3\n      dup1\n      sload\n      dup1\n      iszero\n      tag_542\n      jumpi\n      0x20\n      mul\n      dup3\n      add\n      swap2\n      swap1\n      0x00\n      mstore\n      keccak256(0x00, 0x20)\n      swap1\n    tag_543:\n      dup2\n      sload\n      dup2\n      mstore\n      0x20\n      add\n      swap1\n      0x01\n      add\n      swap1\n      dup1\n      dup4\n      gt\n      tag_543\n      jumpi\n    tag_542:\n      pop\n      pop\n      pop\n      pop\n      pop\n      swap1\n      pop\n        /* \"@thirdweb-dev/contracts/extension/BatchMintMetadata.sol\":2324:2333   */\n      0x00\n        /* \"@thirdweb-dev/contracts/extension/BatchMintMetadata.sol\":2319:2480   */\n    tag_544:\n        /* \"@thirdweb-dev/contracts/extension/BatchMintMetadata.sol\":2343:2360   */\n      dup3\n        /* \"@thirdweb-dev/contracts/extension/BatchMintMetadata.sol\":2339:2340   */\n      dup2\n        /* \"@thirdweb-dev/contracts/extension/BatchMintMetadata.sol\":2339:2360   */\n      lt\n        /* \"@thirdweb-dev/contracts/extension/BatchMintMetadata.sol\":2319:2480   */\n      iszero\n      tag_545\n      jumpi\n        /* \"@thirdweb-dev/contracts/extension/BatchMintMetadata.sol\":2399:2406   */\n      dup2\n        /* \"@thirdweb-dev/contracts/extension/BatchMintMetadata.sol\":2407:2408   */\n      dup2\n        /* \"@thirdweb-dev/contracts/extension/BatchMintMetadata.sol\":2399:2409   */\n      dup2\n      mload\n      dup2\n      lt\n      tag_548\n      jumpi\n      tag_548\n      tag_254\n      jump\t// in\n    tag_548:\n      0x20\n      mul\n      0x20\n      add\n      add\n      mload\n        /* \"@thirdweb-dev/contracts/extension/BatchMintMetadata.sol\":2388:2396   */\n      dup6\n        /* \"@thirdweb-dev/contracts/extension/BatchMintMetadata.sol\":2388:2409   */\n      lt\n        /* \"@thirdweb-dev/contracts/extension/BatchMintMetadata.sol\":2384:2470   */\n      iszero\n      tag_549\n      jumpi\n        /* \"@thirdweb-dev/contracts/extension/BatchMintMetadata.sol\":2436:2443   */\n      0x0d\n        /* \"@thirdweb-dev/contracts/extension/BatchMintMetadata.sol\":2436:2455   */\n      0x00\n        /* \"@thirdweb-dev/contracts/extension/BatchMintMetadata.sol\":2444:2451   */\n      dup4\n        /* \"@thirdweb-dev/contracts/extension/BatchMintMetadata.sol\":2452:2453   */\n      dup4\n        /* \"@thirdweb-dev/contracts/extension/BatchMintMetadata.sol\":2444:2454   */\n      dup2\n      mload\n      dup2\n      lt\n      tag_551\n      jumpi\n      tag_551\n      tag_254\n      jump\t// in\n    tag_551:\n      0x20\n      mul\n      0x20\n      add\n      add\n      mload\n        /* \"@thirdweb-dev/contracts/extension/BatchMintMetadata.sol\":2436:2455   */\n      dup2\n      mstore\n      0x20\n      add\n      swap1\n      dup2\n      mstore\n      0x20\n      add\n      0x00\n      keccak256\n        /* \"@thirdweb-dev/contracts/extension/BatchMintMetadata.sol\":2429:2455   */\n      dup1\n      sload\n      tag_552\n      swap1\n      tag_207\n      jump\t// in\n    tag_552:\n      dup1\n      0x1f\n      add\n      0x20\n      dup1\n      swap2\n      div\n      mul\n      0x20\n      add\n      mload(0x40)\n      swap1\n      dup2\n      add\n      0x40\n      mstore\n      dup1\n      swap3\n      swap2\n      swap1\n      dup2\n      dup2\n      mstore\n      0x20\n      add\n      dup3\n      dup1\n      sload\n      tag_553\n      swap1\n      tag_207\n      jump\t// in\n    tag_553:\n      dup1\n      iszero\n      tag_554\n      jumpi\n      dup1\n      0x1f\n      lt\n      tag_555\n      jumpi\n      0x0100\n      dup1\n      dup4\n      sload\n      div\n      mul\n      dup4\n      mstore\n      swap2\n      0x20\n      add\n      swap2\n      jump(tag_554)\n    tag_555:\n      dup3\n      add\n      swap2\n      swap1\n      0x00\n      mstore\n      keccak256(0x00, 0x20)\n      swap1\n    tag_556:\n      dup2\n      sload\n      dup2\n      mstore\n      swap1\n      0x01\n      add\n      swap1\n      0x20\n      add\n      dup1\n      dup4\n      gt\n      tag_556\n      jumpi\n      dup3\n      swap1\n      sub\n      0x1f\n      and\n      dup3\n      add\n      swap2\n    tag_554:\n      pop\n      pop\n      pop\n      pop\n      pop\n      swap4\n      pop\n      pop\n      pop\n      pop\n        /* \"@thirdweb-dev/contracts/extension/BatchMintMetadata.sol\":2131:2521   */\n      swap2\n      swap1\n      pop\n      jump\t// out\n        /* \"@thirdweb-dev/contracts/extension/BatchMintMetadata.sol\":2384:2470   */\n    tag_549:\n        /* \"@thirdweb-dev/contracts/extension/BatchMintMetadata.sol\":2362:2368   */\n      tag_557\n        /* \"@thirdweb-dev/contracts/extension/BatchMintMetadata.sol\":2367:2368   */\n      0x01\n        /* \"@thirdweb-dev/contracts/extension/BatchMintMetadata.sol\":2362:2368   */\n      dup3\n      tag_507\n      jump\t// in\n    tag_557:\n      swap1\n      pop\n        /* \"@thirdweb-dev/contracts/extension/BatchMintMetadata.sol\":2319:2480   */\n      jump(tag_544)\n    tag_545:\n      pop\n        /* \"@thirdweb-dev/contracts/extension/BatchMintMetadata.sol\":2489:2514   */\n      mload(0x40)\n      shl(0xe5, 0x461bcd)\n      dup2\n      mstore\n        /* \"#utility.yul\":16767:16769   */\n      0x20\n        /* \"@thirdweb-dev/contracts/extension/BatchMintMetadata.sol\":2489:2514   */\n      0x04\n      dup3\n      add\n        /* \"#utility.yul\":16749:16770   */\n      mstore\n        /* \"#utility.yul\":16806:16808   */\n      0x0f\n        /* \"#utility.yul\":16786:16804   */\n      0x24\n      dup3\n      add\n        /* \"#utility.yul\":16779:16809   */\n      mstore\n        /* \"#utility.yul\":16845:16862   */\n      0x496e76616c696420746f6b656e49640000000000000000000000000000000000\n        /* \"#utility.yul\":16825:16843   */\n      0x44\n      dup3\n      add\n        /* \"#utility.yul\":16818:16863   */\n      mstore\n        /* \"#utility.yul\":16880:16898   */\n      0x64\n      add\n        /* \"@thirdweb-dev/contracts/extension/BatchMintMetadata.sol\":2489:2514   */\n      tag_226\n        /* \"#utility.yul\":16565:16904   */\n      jump\n        /* \"@thirdweb-dev/contracts/lib/TWStrings.sol\":330:1033   */\n    tag_394:\n        /* \"@thirdweb-dev/contracts/lib/TWStrings.sol\":386:399   */\n      0x60\n        /* \"@thirdweb-dev/contracts/lib/TWStrings.sol\":603:608   */\n      dup2\n        /* \"@thirdweb-dev/contracts/lib/TWStrings.sol\":612:613   */\n      0x00\n        /* \"@thirdweb-dev/contracts/lib/TWStrings.sol\":603:613   */\n      sub\n        /* \"@thirdweb-dev/contracts/lib/TWStrings.sol\":599:650   */\n      tag_561\n      jumpi\n      pop\n      pop\n        /* \"@thirdweb-dev/contracts/lib/TWStrings.sol\":629:639   */\n      0x40\n      dup1\n      mload\n      dup1\n      dup3\n      add\n      swap1\n      swap2\n      mstore\n      0x01\n      dup2\n      mstore\n      shl(0xfc, 0x03)\n      0x20\n      dup3\n      add\n      mstore\n      swap1\n        /* \"@thirdweb-dev/contracts/lib/TWStrings.sol\":330:1033   */\n      jump\t// out\n        /* \"@thirdweb-dev/contracts/lib/TWStrings.sol\":599:650   */\n    tag_561:\n        /* \"@thirdweb-dev/contracts/lib/TWStrings.sol\":674:679   */\n      dup2\n        /* \"@thirdweb-dev/contracts/lib/TWStrings.sol\":659:671   */\n      0x00\n        /* \"@thirdweb-dev/contracts/lib/TWStrings.sol\":713:788   */\n    tag_562:\n        /* \"@thirdweb-dev/contracts/lib/TWStrings.sol\":720:729   */\n      dup2\n      iszero\n        /* \"@thirdweb-dev/contracts/lib/TWStrings.sol\":713:788   */\n      tag_563\n      jumpi\n        /* \"@thirdweb-dev/contracts/lib/TWStrings.sol\":745:753   */\n      dup1\n      tag_564\n      dup2\n      tag_376\n      jump\t// in\n    tag_564:\n      swap2\n      pop\n        /* \"@thirdweb-dev/contracts/lib/TWStrings.sol\":767:777   */\n      tag_565\n      swap1\n      pop\n        /* \"@thirdweb-dev/contracts/lib/TWStrings.sol\":775:777   */\n      0x0a\n        /* \"@thirdweb-dev/contracts/lib/TWStrings.sol\":767:777   */\n      dup4\n      tag_261\n      jump\t// in\n    tag_565:\n      swap2\n      pop\n        /* \"@thirdweb-dev/contracts/lib/TWStrings.sol\":713:788   */\n      jump(tag_562)\n    tag_563:\n        /* \"@thirdweb-dev/contracts/lib/TWStrings.sol\":797:816   */\n      0x00\n        /* \"@thirdweb-dev/contracts/lib/TWStrings.sol\":829:835   */\n      dup2\n        /* \"@thirdweb-dev/contracts/lib/TWStrings.sol\":819:836   */\n      0xffffffffffffffff\n      dup2\n      gt\n      iszero\n      tag_567\n      jumpi\n      tag_567\n      tag_361\n      jump\t// in\n    tag_567:\n      mload(0x40)\n      swap1\n      dup1\n      dup3\n      mstore\n      dup1\n      0x1f\n      add\n      not(0x1f)\n      and\n      0x20\n      add\n      dup3\n      add\n      0x40\n      mstore\n      dup1\n      iszero\n      tag_568\n      jumpi\n      0x20\n      dup3\n      add\n      dup2\n      dup1\n      calldatasize\n      dup4\n      calldatacopy\n      add\n      swap1\n      pop\n    tag_568:\n      pop\n        /* \"@thirdweb-dev/contracts/lib/TWStrings.sol\":797:836   */\n      swap1\n      pop\n        /* \"@thirdweb-dev/contracts/lib/TWStrings.sol\":846:996   */\n    tag_569:\n        /* \"@thirdweb-dev/contracts/lib/TWStrings.sol\":853:863   */\n      dup5\n      iszero\n        /* \"@thirdweb-dev/contracts/lib/TWStrings.sol\":846:996   */\n      tag_305\n      jumpi\n        /* \"@thirdweb-dev/contracts/lib/TWStrings.sol\":879:890   */\n      tag_571\n        /* \"@thirdweb-dev/contracts/lib/TWStrings.sol\":889:890   */\n      0x01\n        /* \"@thirdweb-dev/contracts/lib/TWStrings.sol\":879:890   */\n      dup4\n      tag_572\n      jump\t// in\n    tag_571:\n      swap2\n      pop\n        /* \"@thirdweb-dev/contracts/lib/TWStrings.sol\":947:957   */\n      tag_573\n        /* \"@thirdweb-dev/contracts/lib/TWStrings.sol\":955:957   */\n      0x0a\n        /* \"@thirdweb-dev/contracts/lib/TWStrings.sol\":947:952   */\n      dup7\n        /* \"@thirdweb-dev/contracts/lib/TWStrings.sol\":947:957   */\n      tag_574\n      jump\t// in\n    tag_573:\n        /* \"@thirdweb-dev/contracts/lib/TWStrings.sol\":934:958   */\n      tag_575\n      swap1\n        /* \"@thirdweb-dev/contracts/lib/TWStrings.sol\":934:936   */\n      0x30\n        /* \"@thirdweb-dev/contracts/lib/TWStrings.sol\":934:958   */\n      tag_507\n      jump\t// in\n    tag_575:\n        /* \"@thirdweb-dev/contracts/lib/TWStrings.sol\":921:960   */\n      0xf8\n      shl\n        /* \"@thirdweb-dev/contracts/lib/TWStrings.sol\":904:910   */\n      dup2\n        /* \"@thirdweb-dev/contracts/lib/TWStrings.sol\":911:917   */\n      dup4\n        /* \"@thirdweb-dev/contracts/lib/TWStrings.sol\":904:918   */\n      dup2\n      mload\n      dup2\n      lt\n      tag_577\n      jumpi\n      tag_577\n      tag_254\n      jump\t// in\n    tag_577:\n      0x20\n      add\n      add\n        /* \"@thirdweb-dev/contracts/lib/TWStrings.sol\":904:960   */\n      swap1\n      not(0xffffffffffffffffffffffffffffffffffffffffffffffffffffffffffffff)\n      and\n      swap1\n      dup2\n      0x00\n      byte\n      swap1\n      mstore8\n      pop\n        /* \"@thirdweb-dev/contracts/lib/TWStrings.sol\":974:985   */\n      tag_578\n        /* \"@thirdweb-dev/contracts/lib/TWStrings.sol\":983:985   */\n      0x0a\n        /* \"@thirdweb-dev/contracts/lib/TWStrings.sol\":974:985   */\n      dup7\n      tag_261\n      jump\t// in\n    tag_578:\n      swap5\n      pop\n        /* \"@thirdweb-dev/contracts/lib/TWStrings.sol\":846:996   */\n      jump(tag_569)\n        /* \"@thirdweb-dev/contracts/eip/ERC721AVirtualApprove.sol\":19209:19859   */\n    tag_421:\n        /* \"@thirdweb-dev/contracts/eip/ERC721AVirtualApprove.sol\":19387:19459   */\n      mload(0x40)\n      shl(0xe1, 0x0a85bd01)\n      dup2\n      mstore\n        /* \"@thirdweb-dev/contracts/eip/ERC721AVirtualApprove.sol\":19367:19371   */\n      0x00\n      swap1\n      sub(shl(0xa0, 0x01), 0x01)\n        /* \"@thirdweb-dev/contracts/eip/ERC721AVirtualApprove.sol\":19387:19423   */\n      dup6\n      and\n      swap1\n      0x150b7a02\n      swap1\n        /* \"@thirdweb-dev/contracts/eip/ERC721AVirtualApprove.sol\":19387:19459   */\n      tag_583\n      swap1\n        /* \"@thirdweb-dev/contracts/openzeppelin-presets/utils/Context.sol\":719:729   */\n      caller\n      swap1\n        /* \"@thirdweb-dev/contracts/eip/ERC721AVirtualApprove.sol\":19438:19442   */\n      dup10\n      swap1\n        /* \"@thirdweb-dev/contracts/eip/ERC721AVirtualApprove.sol\":19444:19451   */\n      dup9\n      swap1\n        /* \"@thirdweb-dev/contracts/eip/ERC721AVirtualApprove.sol\":19453:19458   */\n      dup9\n      swap1\n        /* \"@thirdweb-dev/contracts/eip/ERC721AVirtualApprove.sol\":19387:19459   */\n      0x04\n      add\n      tag_584\n      jump\t// in\n    tag_583:\n      0x20\n      mload(0x40)\n      dup1\n      dup4\n      sub\n      dup2\n      0x00\n      dup8\n      gas\n      call\n      swap3\n      pop\n      pop\n      pop\n      dup1\n      iszero\n      tag_585\n      jumpi\n      pop\n      0x40\n      dup1\n      mload\n      0x1f\n      returndatasize\n      swap1\n      dup2\n      add\n      not(0x1f)\n      and\n      dup3\n      add\n      swap1\n      swap3\n      mstore\n      tag_586\n      swap2\n      dup2\n      add\n      swap1\n      tag_587\n      jump\t// in\n    tag_586:\n      0x01\n    tag_585:\n        /* \"@thirdweb-dev/contracts/eip/ERC721AVirtualApprove.sol\":19383:19853   */\n      tag_588\n      jumpi\n      returndatasize\n      dup1\n      dup1\n      iszero\n      tag_593\n      jumpi\n      mload(0x40)\n      swap2\n      pop\n      and(add(returndatasize, 0x3f), not(0x1f))\n      dup3\n      add\n      0x40\n      mstore\n      returndatasize\n      dup3\n      mstore\n      returndatasize\n      0x00\n      0x20\n      dup5\n      add\n      returndatacopy\n      jump(tag_592)\n    tag_593:\n      0x60\n      swap2\n      pop\n    tag_592:\n      pop\n        /* \"@thirdweb-dev/contracts/eip/ERC721AVirtualApprove.sol\":19618:19624   */\n      dup1\n        /* \"@thirdweb-dev/contracts/eip/ERC721AVirtualApprove.sol\":19618:19631   */\n      mload\n        /* \"@thirdweb-dev/contracts/eip/ERC721AVirtualApprove.sol\":19635:19636   */\n      0x00\n        /* \"@thirdweb-dev/contracts/eip/ERC721AVirtualApprove.sol\":19618:19636   */\n      sub\n        /* \"@thirdweb-dev/contracts/eip/ERC721AVirtualApprove.sol\":19614:19843   */\n      tag_594\n      jumpi\n        /* \"@thirdweb-dev/contracts/eip/ERC721AVirtualApprove.sol\":19663:19703   */\n      mload(0x40)\n      shl(0xe1, 0x68d2bf6b)\n      dup2\n      mstore\n      0x04\n      add\n      mload(0x40)\n      dup1\n      swap2\n      sub\n      swap1\n      revert\n        /* \"@thirdweb-dev/contracts/eip/ERC721AVirtualApprove.sol\":19614:19843   */\n    tag_594:\n        /* \"@thirdweb-dev/contracts/eip/ERC721AVirtualApprove.sol\":19803:19809   */\n      dup1\n        /* \"@thirdweb-dev/contracts/eip/ERC721AVirtualApprove.sol\":19797:19810   */\n      mload\n        /* \"@thirdweb-dev/contracts/eip/ERC721AVirtualApprove.sol\":19788:19794   */\n      dup2\n        /* \"@thirdweb-dev/contracts/eip/ERC721AVirtualApprove.sol\":19784:19786   */\n      0x20\n        /* \"@thirdweb-dev/contracts/eip/ERC721AVirtualApprove.sol\":19780:19795   */\n      add\n        /* \"@thirdweb-dev/contracts/eip/ERC721AVirtualApprove.sol\":19773:19811   */\n      revert\n        /* \"@thirdweb-dev/contracts/eip/ERC721AVirtualApprove.sol\":19383:19853   */\n    tag_588:\n      not(sub(shl(0xe0, 0x01), 0x01))\n        /* \"@thirdweb-dev/contracts/eip/ERC721AVirtualApprove.sol\":19505:19560   */\n      and\n      shl(0xe1, 0x0a85bd01)\n      eq\n      swap1\n      pop\n        /* \"@thirdweb-dev/contracts/eip/ERC721AVirtualApprove.sol\":19209:19859   */\n      swap5\n      swap4\n      pop\n      pop\n      pop\n      pop\n      jump\t// out\n        /* \"@thirdweb-dev/contracts/eip/ERC721AVirtualApprove.sol\":18539:18728   */\n    tag_455:\n        /* \"@thirdweb-dev/contracts/eip/ERC721AVirtualApprove.sol\":18649:18673   */\n      0x00\n      dup3\n      dup2\n      mstore\n        /* \"@thirdweb-dev/contracts/eip/ERC721AVirtualApprove.sol\":18649:18664   */\n      0x06\n        /* \"@thirdweb-dev/contracts/eip/ERC721AVirtualApprove.sol\":18649:18673   */\n      0x20\n      mstore\n      0x40\n      dup1\n      dup3\n      keccak256\n        /* \"@thirdweb-dev/contracts/eip/ERC721AVirtualApprove.sol\":18649:18678   */\n      dup1\n      sload\n      not(0xffffffffffffffffffffffffffffffffffffffff)\n      and\n      sub(shl(0xa0, 0x01), 0x01)\n      dup8\n      dup2\n      and\n      swap2\n      dup3\n      or\n      swap1\n      swap3\n      sstore\n        /* \"@thirdweb-dev/contracts/eip/ERC721AVirtualApprove.sol\":18693:18721   */\n      swap2\n      mload\n        /* \"@thirdweb-dev/contracts/eip/ERC721AVirtualApprove.sol\":18649:18673   */\n      dup6\n      swap4\n        /* \"@thirdweb-dev/contracts/eip/ERC721AVirtualApprove.sol\":18693:18721   */\n      swap2\n      dup6\n      and\n      swap2\n      0x8c5be1e5ebec7d5bd14f71427d1e84f3dd0314c0f7b2291e5b200ac8c7c3b925\n      swap2\n      log4\n        /* \"@thirdweb-dev/contracts/eip/ERC721AVirtualApprove.sol\":18539:18728   */\n      pop\n      pop\n      pop\n      jump\t// out\n        /* \"@thirdweb-dev/contracts/eip/ERC721AVirtualApprove.sol\":13614:15696   */\n    tag_462:\n        /* \"@thirdweb-dev/contracts/eip/ERC721AVirtualApprove.sol\":13724:13759   */\n      0x00\n        /* \"@thirdweb-dev/contracts/eip/ERC721AVirtualApprove.sol\":13762:13783   */\n      tag_601\n        /* \"@thirdweb-dev/contracts/eip/ERC721AVirtualApprove.sol\":13775:13782   */\n      dup3\n        /* \"@thirdweb-dev/contracts/eip/ERC721AVirtualApprove.sol\":13762:13774   */\n      tag_319\n        /* \"@thirdweb-dev/contracts/eip/ERC721AVirtualApprove.sol\":13762:13783   */\n      jump\t// in\n    tag_601:\n        /* \"@thirdweb-dev/contracts/eip/ERC721AVirtualApprove.sol\":13724:13783   */\n      swap1\n      pop\n        /* \"@thirdweb-dev/contracts/eip/ERC721AVirtualApprove.sol\":13820:13824   */\n      dup4\n      sub(shl(0xa0, 0x01), 0x01)\n        /* \"@thirdweb-dev/contracts/eip/ERC721AVirtualApprove.sol\":13798:13824   */\n      and\n        /* \"@thirdweb-dev/contracts/eip/ERC721AVirtualApprove.sol\":13798:13811   */\n      dup2\n        /* \"@thirdweb-dev/contracts/eip/ERC721AVirtualApprove.sol\":13798:13816   */\n      0x00\n      add\n      mload\n      sub(shl(0xa0, 0x01), 0x01)\n        /* \"@thirdweb-dev/contracts/eip/ERC721AVirtualApprove.sol\":13798:13824   */\n      and\n      eq\n        /* \"@thirdweb-dev/contracts/eip/ERC721AVirtualApprove.sol\":13794:13861   */\n      tag_602\n      jumpi\n        /* \"@thirdweb-dev/contracts/eip/ERC721AVirtualApprove.sol\":13833:13861   */\n      mload(0x40)\n      shl(0xe8, 0xa11481)\n      dup2\n      mstore\n      0x04\n      add\n      mload(0x40)\n      dup1\n      swap2\n      sub\n      swap1\n      revert\n        /* \"@thirdweb-dev/contracts/eip/ERC721AVirtualApprove.sol\":13794:13861   */\n    tag_602:\n        /* \"@thirdweb-dev/contracts/eip/ERC721AVirtualApprove.sol\":13872:13894   */\n      0x00\n        /* \"@thirdweb-dev/contracts/openzeppelin-presets/utils/Context.sol\":719:729   */\n      caller\n      sub(shl(0xa0, 0x01), 0x01)\n        /* \"@thirdweb-dev/contracts/eip/ERC721AVirtualApprove.sol\":13898:13918   */\n      dup7\n      and\n      eq\n      dup1\n        /* \"@thirdweb-dev/contracts/eip/ERC721AVirtualApprove.sol\":13898:13970   */\n      tag_605\n      jumpi\n      pop\n        /* \"@thirdweb-dev/contracts/eip/ERC721AVirtualApprove.sol\":13934:13970   */\n      tag_605\n        /* \"@thirdweb-dev/contracts/eip/ERC721AVirtualApprove.sol\":13951:13955   */\n      dup6\n        /* \"@thirdweb-dev/contracts/openzeppelin-presets/utils/Context.sol\":719:729   */\n      caller\n        /* \"@thirdweb-dev/contracts/eip/ERC721AVirtualApprove.sol\":8232:8394   */\n      tag_191\n      jump\t// in\n        /* \"@thirdweb-dev/contracts/eip/ERC721AVirtualApprove.sol\":13934:13970   */\n    tag_605:\n        /* \"@thirdweb-dev/contracts/eip/ERC721AVirtualApprove.sol\":13898:14022   */\n      dup1\n      tag_607\n      jumpi\n      pop\n        /* \"@thirdweb-dev/contracts/openzeppelin-presets/utils/Context.sol\":719:729   */\n      caller\n        /* \"@thirdweb-dev/contracts/eip/ERC721AVirtualApprove.sol\":13986:14006   */\n      tag_609\n        /* \"@thirdweb-dev/contracts/eip/ERC721AVirtualApprove.sol\":13998:14005   */\n      dup5\n        /* \"@thirdweb-dev/contracts/eip/ERC721AVirtualApprove.sol\":13986:13997   */\n      tag_67\n        /* \"@thirdweb-dev/contracts/eip/ERC721AVirtualApprove.sol\":13986:14006   */\n      jump\t// in\n    tag_609:\n      sub(shl(0xa0, 0x01), 0x01)\n        /* \"@thirdweb-dev/contracts/eip/ERC721AVirtualApprove.sol\":13986:14022   */\n      and\n      eq\n        /* \"@thirdweb-dev/contracts/eip/ERC721AVirtualApprove.sol\":13898:14022   */\n    tag_607:\n        /* \"@thirdweb-dev/contracts/eip/ERC721AVirtualApprove.sol\":13872:14023   */\n      swap1\n      pop\n        /* \"@thirdweb-dev/contracts/eip/ERC721AVirtualApprove.sol\":14039:14056   */\n      dup1\n        /* \"@thirdweb-dev/contracts/eip/ERC721AVirtualApprove.sol\":14034:14100   */\n      tag_610\n      jumpi\n        /* \"@thirdweb-dev/contracts/eip/ERC721AVirtualApprove.sol\":14065:14100   */\n      mload(0x40)\n      shl(0xe1, 0x2ce44b5f)\n      dup2\n      mstore\n      0x04\n      add\n      mload(0x40)\n      dup1\n      swap2\n      sub\n      swap1\n      revert\n        /* \"@thirdweb-dev/contracts/eip/ERC721AVirtualApprove.sol\":14034:14100   */\n    tag_610:\n      sub(shl(0xa0, 0x01), 0x01)\n        /* \"@thirdweb-dev/contracts/eip/ERC721AVirtualApprove.sol\":14114:14130   */\n      dup5\n      and\n        /* \"@thirdweb-dev/contracts/eip/ERC721AVirtualApprove.sol\":14110:14162   */\n      tag_611\n      jumpi\n        /* \"@thirdweb-dev/contracts/eip/ERC721AVirtualApprove.sol\":14139:14162   */\n      mload(0x40)\n      shl(0xe2, 0x3a954ecd)\n      dup2\n      mstore\n      0x04\n      add\n      mload(0x40)\n      dup1\n      swap2\n      sub\n      swap1\n      revert\n        /* \"@thirdweb-dev/contracts/eip/ERC721AVirtualApprove.sol\":14110:14162   */\n    tag_611:\n        /* \"@thirdweb-dev/contracts/eip/ERC721AVirtualApprove.sol\":14278:14313   */\n      tag_613\n        /* \"@thirdweb-dev/contracts/eip/ERC721AVirtualApprove.sol\":14295:14296   */\n      0x00\n        /* \"@thirdweb-dev/contracts/eip/ERC721AVirtualApprove.sol\":14299:14306   */\n      dup5\n        /* \"@thirdweb-dev/contracts/eip/ERC721AVirtualApprove.sol\":14308:14312   */\n      dup8\n        /* \"@thirdweb-dev/contracts/eip/ERC721AVirtualApprove.sol\":14278:14286   */\n      tag_455\n        /* \"@thirdweb-dev/contracts/eip/ERC721AVirtualApprove.sol\":14278:14313   */\n      jump\t// in\n    tag_613:\n      sub(shl(0xa0, 0x01), 0x01)\n        /* \"@thirdweb-dev/contracts/eip/ERC721AVirtualApprove.sol\":14603:14621   */\n      dup6\n      dup2\n      and\n      0x00\n      swap1\n      dup2\n      mstore\n        /* \"@thirdweb-dev/contracts/eip/ERC721AVirtualApprove.sol\":14603:14615   */\n      0x05\n        /* \"@thirdweb-dev/contracts/eip/ERC721AVirtualApprove.sol\":14603:14621   */\n      0x20\n      swap1\n      dup2\n      mstore\n      0x40\n      dup1\n      dup4\n      keccak256\n        /* \"@thirdweb-dev/contracts/eip/ERC721AVirtualApprove.sol\":14603:14634   */\n      dup1\n      sload\n      not(0xffffffffffffffff)\n      dup1\n      dup3\n      and\n      0xffffffffffffffff\n      swap3\n      dup4\n      and\n      not(0x00)\n      add\n      dup4\n      and\n      or\n      swap1\n      swap3\n      sstore\n        /* \"@thirdweb-dev/contracts/eip/ERC721AVirtualApprove.sol\":14648:14664   */\n      dup10\n      dup7\n      and\n      dup1\n      dup7\n      mstore\n      dup4\n      dup7\n      keccak256\n        /* \"@thirdweb-dev/contracts/eip/ERC721AVirtualApprove.sol\":14648:14677   */\n      dup1\n      sload\n      swap4\n      dup5\n      and\n      swap4\n      dup4\n      and\n      0x01\n      swap1\n      dup2\n      add\n      dup5\n      and\n      swap5\n      swap1\n      swap5\n      or\n      swap1\n      sstore\n        /* \"@thirdweb-dev/contracts/eip/ERC721AVirtualApprove.sol\":14726:14746   */\n      dup10\n      dup7\n      mstore\n        /* \"@thirdweb-dev/contracts/eip/ERC721AVirtualApprove.sol\":14726:14737   */\n      0x04\n        /* \"@thirdweb-dev/contracts/eip/ERC721AVirtualApprove.sol\":14726:14746   */\n      swap1\n      swap5\n      mstore\n      dup3\n      dup6\n      keccak256\n        /* \"@thirdweb-dev/contracts/eip/ERC721AVirtualApprove.sol\":14760:14778   */\n      dup1\n      sload\n      not(sub(shl(0xe0, 0x01), 0x01))\n        /* \"@thirdweb-dev/contracts/eip/ERC721AVirtualApprove.sol\":14792:14841   */\n      and\n      swap1\n      swap5\n      or\n      shl(0xa0, 0x01)\n        /* \"@thirdweb-dev/contracts/eip/ERC721AVirtualApprove.sol\":14825:14840   */\n      timestamp\n        /* \"@thirdweb-dev/contracts/eip/ERC721AVirtualApprove.sol\":14792:14841   */\n      swap1\n      swap3\n      and\n      swap2\n      swap1\n      swap2\n      mul\n      or\n      dup4\n      sstore\n        /* \"@thirdweb-dev/contracts/eip/ERC721AVirtualApprove.sol\":15111:15122   */\n      dup8\n      add\n        /* \"@thirdweb-dev/contracts/eip/ERC721AVirtualApprove.sol\":15170:15194   */\n      dup1\n      dup5\n      mstore\n      swap3\n      keccak256\n        /* \"@thirdweb-dev/contracts/eip/ERC721AVirtualApprove.sol\":15212:15225   */\n      dup1\n      sload\n        /* \"@thirdweb-dev/contracts/eip/ERC721AVirtualApprove.sol\":14726:14746   */\n      swap2\n      swap4\n        /* \"@thirdweb-dev/contracts/eip/ERC721AVirtualApprove.sol\":15170:15194   */\n      swap1\n      swap2\n        /* \"@thirdweb-dev/contracts/eip/ERC721AVirtualApprove.sol\":15212:15225   */\n      and\n        /* \"@thirdweb-dev/contracts/eip/ERC721AVirtualApprove.sol\":15208:15585   */\n      tag_615\n      jumpi\n        /* \"@thirdweb-dev/contracts/eip/ERC721AVirtualApprove.sol\":15419:15432   */\n      sload(0x00)\n        /* \"@thirdweb-dev/contracts/eip/ERC721AVirtualApprove.sol\":15404:15415   */\n      dup3\n        /* \"@thirdweb-dev/contracts/eip/ERC721AVirtualApprove.sol\":15404:15432   */\n      eq\n        /* \"@thirdweb-dev/contracts/eip/ERC721AVirtualApprove.sol\":15400:15571   */\n      tag_615\n      jumpi\n        /* \"@thirdweb-dev/contracts/eip/ERC721AVirtualApprove.sol\":15456:15476   */\n      dup1\n      sload\n        /* \"@thirdweb-dev/contracts/eip/ERC721AVirtualApprove.sol\":15524:15552   */\n      0x20\n      dup7\n      add\n      mload\n        /* \"@thirdweb-dev/contracts/eip/ERC721AVirtualApprove.sol\":15498:15552   */\n      0xffffffffffffffff\n      and\n      shl(0xa0, 0x01)\n      mul\n      not(sub(shl(0xe0, 0x01), 0x01))\n      swap1\n      swap2\n      and\n      sub(shl(0xa0, 0x01), 0x01)\n        /* \"@thirdweb-dev/contracts/eip/ERC721AVirtualApprove.sol\":15456:15476   */\n      dup11\n      and\n        /* \"@thirdweb-dev/contracts/eip/ERC721AVirtualApprove.sol\":15498:15552   */\n      or\n      or\n      dup2\n      sstore\n        /* \"@thirdweb-dev/contracts/eip/ERC721AVirtualApprove.sol\":15400:15571   */\n    tag_615:\n        /* \"@thirdweb-dev/contracts/eip/ERC721AVirtualApprove.sol\":14579:15595   */\n      pop\n      pop\n      pop\n        /* \"@thirdweb-dev/contracts/eip/ERC721AVirtualApprove.sol\":15629:15636   */\n      dup3\n        /* \"@thirdweb-dev/contracts/eip/ERC721AVirtualApprove.sol\":15625:15627   */\n      dup5\n      sub(shl(0xa0, 0x01), 0x01)\n        /* \"@thirdweb-dev/contracts/eip/ERC721AVirtualApprove.sol\":15610:15637   */\n      and\n        /* \"@thirdweb-dev/contracts/eip/ERC721AVirtualApprove.sol\":15619:15623   */\n      dup7\n      sub(shl(0xa0, 0x01), 0x01)\n        /* \"@thirdweb-dev/contracts/eip/ERC721AVirtualApprove.sol\":15610:15637   */\n      and\n      0xddf252ad1be2c89b69c2b068fc378daa952ba7f163c4a11628f55a4df523b3ef\n      mload(0x40)\n      mload(0x40)\n      dup1\n      swap2\n      sub\n      swap1\n      log4\n        /* \"@thirdweb-dev/contracts/eip/ERC721AVirtualApprove.sol\":15647:15689   */\n      tag_382\n        /* \"DynamicNFT.sol\":648:910  function setAnimationUrl(uint256 tokenId, string memory name, string memory animationUrl) public {... */\n      jump\n        /* \"@thirdweb-dev/contracts/lib/TWAddress.sol\":6962:7349   */\n    tag_533:\n        /* \"@thirdweb-dev/contracts/lib/TWAddress.sol\":7103:7115   */\n      0x60\n      sub(shl(0xa0, 0x01), 0x01)\n        /* \"@thirdweb-dev/contracts/lib/TWAddress.sol\":1467:1486   */\n      dup5\n      and\n      extcodesize\n        /* \"@thirdweb-dev/contracts/lib/TWAddress.sol\":7127:7196   */\n      tag_619\n      jumpi\n      mload(0x40)\n      shl(0xe5, 0x461bcd)\n      dup2\n      mstore\n        /* \"#utility.yul\":18129:18131   */\n      0x20\n        /* \"@thirdweb-dev/contracts/lib/TWAddress.sol\":7127:7196   */\n      0x04\n      dup3\n      add\n        /* \"#utility.yul\":18111:18132   */\n      mstore\n        /* \"#utility.yul\":18168:18170   */\n      0x26\n        /* \"#utility.yul\":18148:18166   */\n      0x24\n      dup3\n      add\n        /* \"#utility.yul\":18141:18171   */\n      mstore\n        /* \"#utility.yul\":18207:18241   */\n      0x416464726573733a2064656c65676174652063616c6c20746f206e6f6e2d636f\n        /* \"#utility.yul\":18187:18205   */\n      0x44\n      dup3\n      add\n        /* \"#utility.yul\":18180:18242   */\n      mstore\n        /* \"#utility.yul\":18278:18286   */\n      0x6e74726163740000000000000000000000000000000000000000000000000000\n        /* \"#utility.yul\":18258:18276   */\n      0x64\n      dup3\n      add\n        /* \"#utility.yul\":18251:18287   */\n      mstore\n        /* \"#utility.yul\":18304:18323   */\n      0x84\n      add\n        /* \"@thirdweb-dev/contracts/lib/TWAddress.sol\":7127:7196   */\n      tag_226\n        /* \"#utility.yul\":17927:18329   */\n      jump\n        /* \"@thirdweb-dev/contracts/lib/TWAddress.sol\":7127:7196   */\n    tag_619:\n        /* \"@thirdweb-dev/contracts/lib/TWAddress.sol\":7208:7220   */\n      0x00\n        /* \"@thirdweb-dev/contracts/lib/TWAddress.sol\":7222:7245   */\n      dup1\n        /* \"@thirdweb-dev/contracts/lib/TWAddress.sol\":7249:7255   */\n      dup6\n      sub(shl(0xa0, 0x01), 0x01)\n        /* \"@thirdweb-dev/contracts/lib/TWAddress.sol\":7249:7268   */\n      and\n        /* \"@thirdweb-dev/contracts/lib/TWAddress.sol\":7269:7273   */\n      dup6\n        /* \"@thirdweb-dev/contracts/lib/TWAddress.sol\":7249:7274   */\n      mload(0x40)\n      tag_622\n      swap2\n      swap1\n      tag_623\n      jump\t// in\n    tag_622:\n      0x00\n      mload(0x40)\n      dup1\n      dup4\n      sub\n      dup2\n      dup6\n      gas\n      delegatecall\n      swap2\n      pop\n      pop\n      returndatasize\n      dup1\n      0x00\n      dup2\n      eq\n      tag_626\n      jumpi\n      mload(0x40)\n      swap2\n      pop\n      and(add(returndatasize, 0x3f), not(0x1f))\n      dup3\n      add\n      0x40\n      mstore\n      returndatasize\n      dup3\n      mstore\n      returndatasize\n      0x00\n      0x20\n      dup5\n      add\n      returndatacopy\n      jump(tag_625)\n    tag_626:\n      0x60\n      swap2\n      pop\n    tag_625:\n      pop\n        /* \"@thirdweb-dev/contracts/lib/TWAddress.sol\":7207:7274   */\n      swap2\n      pop\n      swap2\n      pop\n        /* \"@thirdweb-dev/contracts/lib/TWAddress.sol\":7291:7342   */\n      tag_627\n        /* \"@thirdweb-dev/contracts/lib/TWAddress.sol\":7308:7315   */\n      dup3\n        /* \"@thirdweb-dev/contracts/lib/TWAddress.sol\":7317:7327   */\n      dup3\n        /* \"@thirdweb-dev/contracts/lib/TWAddress.sol\":7329:7341   */\n      dup7\n        /* \"@thirdweb-dev/contracts/lib/TWAddress.sol\":7291:7307   */\n      tag_628\n        /* \"@thirdweb-dev/contracts/lib/TWAddress.sol\":7291:7342   */\n      jump\t// in\n    tag_627:\n        /* \"@thirdweb-dev/contracts/lib/TWAddress.sol\":7284:7342   */\n      swap7\n        /* \"@thirdweb-dev/contracts/lib/TWAddress.sol\":6962:7349   */\n      swap6\n      pop\n      pop\n      pop\n      pop\n      pop\n      pop\n      jump\t// out\n        /* \"@thirdweb-dev/contracts/lib/TWAddress.sol\":7569:8261   */\n    tag_628:\n        /* \"@thirdweb-dev/contracts/lib/TWAddress.sol\":7715:7727   */\n      0x60\n        /* \"@thirdweb-dev/contracts/lib/TWAddress.sol\":7743:7750   */\n      dup4\n        /* \"@thirdweb-dev/contracts/lib/TWAddress.sol\":7739:8255   */\n      iszero\n      tag_630\n      jumpi\n      pop\n        /* \"@thirdweb-dev/contracts/lib/TWAddress.sol\":7773:7783   */\n      dup2\n        /* \"@thirdweb-dev/contracts/lib/TWAddress.sol\":7766:7783   */\n      jump(tag_532)\n        /* \"@thirdweb-dev/contracts/lib/TWAddress.sol\":7739:8255   */\n    tag_630:\n        /* \"@thirdweb-dev/contracts/lib/TWAddress.sol\":7884:7901   */\n      dup3\n      mload\n        /* \"@thirdweb-dev/contracts/lib/TWAddress.sol\":7884:7905   */\n      iszero\n        /* \"@thirdweb-dev/contracts/lib/TWAddress.sol\":7880:8245   */\n      tag_632\n      jumpi\n        /* \"@thirdweb-dev/contracts/lib/TWAddress.sol\":8078:8088   */\n      dup3\n        /* \"@thirdweb-dev/contracts/lib/TWAddress.sol\":8072:8089   */\n      mload\n        /* \"@thirdweb-dev/contracts/lib/TWAddress.sol\":8138:8153   */\n      dup1\n        /* \"@thirdweb-dev/contracts/lib/TWAddress.sol\":8125:8135   */\n      dup5\n        /* \"@thirdweb-dev/contracts/lib/TWAddress.sol\":8121:8123   */\n      0x20\n        /* \"@thirdweb-dev/contracts/lib/TWAddress.sol\":8117:8136   */\n      add\n        /* \"@thirdweb-dev/contracts/lib/TWAddress.sol\":8110:8154   */\n      revert\n        /* \"@thirdweb-dev/contracts/lib/TWAddress.sol\":7880:8245   */\n    tag_632:\n        /* \"@thirdweb-dev/contracts/lib/TWAddress.sol\":8217:8229   */\n      dup2\n        /* \"@thirdweb-dev/contracts/lib/TWAddress.sol\":8210:8230   */\n      mload(0x40)\n      shl(0xe5, 0x461bcd)\n      dup2\n      mstore\n      0x04\n      add\n      tag_226\n      swap2\n      swap1\n      tag_63\n      jump\t// in\n    tag_236:\n      dup3\n      dup1\n      sload\n      tag_635\n      swap1\n      tag_207\n      jump\t// in\n    tag_635:\n      swap1\n      0x00\n      mstore\n      keccak256(0x00, 0x20)\n      swap1\n      0x1f\n      add\n      0x20\n      swap1\n      div\n      dup2\n      add\n      swap3\n      dup3\n      tag_637\n      jumpi\n      0x00\n      dup6\n      sstore\n      jump(tag_640)\n    tag_637:\n      dup3\n      0x1f\n      lt\n      tag_638\n      jumpi\n      dup1\n      mload\n      not(0xff)\n      and\n      dup4\n      dup1\n      add\n      or\n      dup6\n      sstore\n      jump(tag_640)\n    tag_638:\n      dup3\n      dup1\n      add\n      0x01\n      add\n      dup6\n      sstore\n      dup3\n      iszero\n      tag_640\n      jumpi\n      swap2\n      dup3\n      add\n    tag_639:\n      dup3\n      dup2\n      gt\n      iszero\n      tag_640\n      jumpi\n      dup3\n      mload\n      dup3\n      sstore\n      swap2\n      0x20\n      add\n      swap2\n      swap1\n      0x01\n      add\n      swap1\n      jump(tag_639)\n    tag_640:\n      pop\n      tag_641\n      swap3\n      swap2\n      pop\n      tag_642\n      jump\t// in\n    tag_641:\n      pop\n      swap1\n      jump\t// out\n    tag_642:\n    tag_643:\n      dup1\n      dup3\n      gt\n      iszero\n      tag_641\n      jumpi\n      0x00\n      dup2\n      sstore\n      0x01\n      add\n      jump(tag_643)\n        /* \"#utility.yul\":14:210   */\n    tag_645:\n        /* \"#utility.yul\":82:102   */\n      dup1\n      calldataload\n      sub(shl(0xa0, 0x01), 0x01)\n        /* \"#utility.yul\":131:185   */\n      dup2\n      and\n        /* \"#utility.yul\":121:186   */\n      dup2\n      eq\n        /* \"#utility.yul\":111:204   */\n      tag_280\n      jumpi\n        /* \"#utility.yul\":200:201   */\n      0x00\n        /* \"#utility.yul\":197:198   */\n      dup1\n        /* \"#utility.yul\":190:202   */\n      revert\n        /* \"#utility.yul\":215:342   */\n    tag_361:\n        /* \"#utility.yul\":276:286   */\n      0x4e487b71\n        /* \"#utility.yul\":271:274   */\n      0xe0\n        /* \"#utility.yul\":267:287   */\n      shl\n        /* \"#utility.yul\":264:265   */\n      0x00\n        /* \"#utility.yul\":257:288   */\n      mstore\n        /* \"#utility.yul\":307:311   */\n      0x41\n        /* \"#utility.yul\":304:305   */\n      0x04\n        /* \"#utility.yul\":297:312   */\n      mstore\n        /* \"#utility.yul\":331:335   */\n      0x24\n        /* \"#utility.yul\":328:329   */\n      0x00\n        /* \"#utility.yul\":321:336   */\n      revert\n        /* \"#utility.yul\":347:1066   */\n    tag_646:\n        /* \"#utility.yul\":390:395   */\n      0x00\n        /* \"#utility.yul\":443:446   */\n      dup3\n        /* \"#utility.yul\":436:440   */\n      0x1f\n        /* \"#utility.yul\":428:434   */\n      dup4\n        /* \"#utility.yul\":424:441   */\n      add\n        /* \"#utility.yul\":420:447   */\n      slt\n        /* \"#utility.yul\":410:465   */\n      tag_658\n      jumpi\n        /* \"#utility.yul\":461:462   */\n      0x00\n        /* \"#utility.yul\":458:459   */\n      dup1\n        /* \"#utility.yul\":451:463   */\n      revert\n        /* \"#utility.yul\":410:465   */\n    tag_658:\n        /* \"#utility.yul\":497:503   */\n      dup2\n        /* \"#utility.yul\":484:504   */\n      calldataload\n        /* \"#utility.yul\":523:541   */\n      0xffffffffffffffff\n        /* \"#utility.yul\":560:562   */\n      dup1\n        /* \"#utility.yul\":556:558   */\n      dup3\n        /* \"#utility.yul\":553:563   */\n      gt\n        /* \"#utility.yul\":550:586   */\n      iszero\n      tag_660\n      jumpi\n        /* \"#utility.yul\":566:584   */\n      tag_660\n      tag_361\n      jump\t// in\n    tag_660:\n        /* \"#utility.yul\":641:643   */\n      0x40\n        /* \"#utility.yul\":635:644   */\n      mload\n        /* \"#utility.yul\":609:611   */\n      0x1f\n        /* \"#utility.yul\":695:708   */\n      dup4\n      add\n      not(0x1f)\n        /* \"#utility.yul\":691:713   */\n      swap1\n      dup2\n      and\n        /* \"#utility.yul\":715:717   */\n      0x3f\n        /* \"#utility.yul\":687:718   */\n      add\n        /* \"#utility.yul\":683:723   */\n      and\n        /* \"#utility.yul\":671:724   */\n      dup2\n      add\n      swap1\n        /* \"#utility.yul\":739:757   */\n      dup3\n      dup3\n      gt\n        /* \"#utility.yul\":759:781   */\n      dup2\n      dup4\n      lt\n        /* \"#utility.yul\":736:782   */\n      or\n        /* \"#utility.yul\":733:805   */\n      iszero\n      tag_662\n      jumpi\n        /* \"#utility.yul\":785:803   */\n      tag_662\n      tag_361\n      jump\t// in\n    tag_662:\n        /* \"#utility.yul\":825:835   */\n      dup2\n        /* \"#utility.yul\":821:823   */\n      0x40\n        /* \"#utility.yul\":814:836   */\n      mstore\n        /* \"#utility.yul\":860:862   */\n      dup4\n        /* \"#utility.yul\":852:858   */\n      dup2\n        /* \"#utility.yul\":845:863   */\n      mstore\n        /* \"#utility.yul\":906:909   */\n      dup7\n        /* \"#utility.yul\":899:903   */\n      0x20\n        /* \"#utility.yul\":894:896   */\n      dup6\n        /* \"#utility.yul\":886:892   */\n      dup9\n        /* \"#utility.yul\":882:897   */\n      add\n        /* \"#utility.yul\":878:904   */\n      add\n        /* \"#utility.yul\":875:910   */\n      gt\n        /* \"#utility.yul\":872:927   */\n      iszero\n      tag_663\n      jumpi\n        /* \"#utility.yul\":923:924   */\n      0x00\n        /* \"#utility.yul\":920:921   */\n      dup1\n        /* \"#utility.yul\":913:925   */\n      revert\n        /* \"#utility.yul\":872:927   */\n    tag_663:\n        /* \"#utility.yul\":987:989   */\n      dup4\n        /* \"#utility.yul\":980:984   */\n      0x20\n        /* \"#utility.yul\":972:978   */\n      dup8\n        /* \"#utility.yul\":968:985   */\n      add\n        /* \"#utility.yul\":961:965   */\n      0x20\n        /* \"#utility.yul\":953:959   */\n      dup4\n        /* \"#utility.yul\":949:966   */\n      add\n        /* \"#utility.yul\":936:990   */\n      calldatacopy\n        /* \"#utility.yul\":1034:1035   */\n      0x00\n        /* \"#utility.yul\":1027:1031   */\n      0x20\n        /* \"#utility.yul\":1022:1024   */\n      dup6\n        /* \"#utility.yul\":1014:1020   */\n      dup4\n        /* \"#utility.yul\":1010:1025   */\n      add\n        /* \"#utility.yul\":1006:1032   */\n      add\n        /* \"#utility.yul\":999:1036   */\n      mstore\n        /* \"#utility.yul\":1054:1060   */\n      dup1\n        /* \"#utility.yul\":1045:1060   */\n      swap5\n      pop\n      pop\n      pop\n      pop\n      pop\n        /* \"#utility.yul\":347:1066   */\n      swap3\n      swap2\n      pop\n      pop\n      jump\t// out\n        /* \"#utility.yul\":1071:1467   */\n    tag_52:\n        /* \"#utility.yul\":1149:1155   */\n      0x00\n        /* \"#utility.yul\":1157:1163   */\n      dup1\n        /* \"#utility.yul\":1210:1212   */\n      0x40\n        /* \"#utility.yul\":1198:1207   */\n      dup4\n        /* \"#utility.yul\":1189:1196   */\n      dup6\n        /* \"#utility.yul\":1185:1208   */\n      sub\n        /* \"#utility.yul\":1181:1213   */\n      slt\n        /* \"#utility.yul\":1178:1230   */\n      iszero\n      tag_665\n      jumpi\n        /* \"#utility.yul\":1226:1227   */\n      0x00\n        /* \"#utility.yul\":1223:1224   */\n      dup1\n        /* \"#utility.yul\":1216:1228   */\n      revert\n        /* \"#utility.yul\":1178:1230   */\n    tag_665:\n        /* \"#utility.yul\":1249:1278   */\n      tag_666\n        /* \"#utility.yul\":1268:1277   */\n      dup4\n        /* \"#utility.yul\":1249:1278   */\n      tag_645\n      jump\t// in\n    tag_666:\n        /* \"#utility.yul\":1239:1278   */\n      swap2\n      pop\n        /* \"#utility.yul\":1329:1331   */\n      0x20\n        /* \"#utility.yul\":1318:1327   */\n      dup4\n        /* \"#utility.yul\":1314:1332   */\n      add\n        /* \"#utility.yul\":1301:1333   */\n      calldataload\n        /* \"#utility.yul\":1356:1374   */\n      0xffffffffffffffff\n        /* \"#utility.yul\":1348:1354   */\n      dup2\n        /* \"#utility.yul\":1345:1375   */\n      gt\n        /* \"#utility.yul\":1342:1392   */\n      iszero\n      tag_667\n      jumpi\n        /* \"#utility.yul\":1388:1389   */\n      0x00\n        /* \"#utility.yul\":1385:1386   */\n      dup1\n        /* \"#utility.yul\":1378:1390   */\n      revert\n        /* \"#utility.yul\":1342:1392   */\n    tag_667:\n        /* \"#utility.yul\":1411:1461   */\n      tag_668\n        /* \"#utility.yul\":1453:1460   */\n      dup6\n        /* \"#utility.yul\":1444:1450   */\n      dup3\n        /* \"#utility.yul\":1433:1442   */\n      dup7\n        /* \"#utility.yul\":1429:1451   */\n      add\n        /* \"#utility.yul\":1411:1461   */\n      tag_646\n      jump\t// in\n    tag_668:\n        /* \"#utility.yul\":1401:1461   */\n      swap2\n      pop\n      pop\n        /* \"#utility.yul\":1071:1467   */\n      swap3\n      pop\n      swap3\n      swap1\n      pop\n      jump\t// out\n        /* \"#utility.yul\":1472:1603   */\n    tag_647:\n      not(sub(shl(0xe0, 0x01), 0x01))\n        /* \"#utility.yul\":1546:1578   */\n      dup2\n      and\n        /* \"#utility.yul\":1536:1579   */\n      dup2\n      eq\n        /* \"#utility.yul\":1526:1597   */\n      tag_228\n      jumpi\n        /* \"#utility.yul\":1593:1594   */\n      0x00\n        /* \"#utility.yul\":1590:1591   */\n      dup1\n        /* \"#utility.yul\":1583:1595   */\n      revert\n        /* \"#utility.yul\":1608:1853   */\n    tag_56:\n        /* \"#utility.yul\":1666:1672   */\n      0x00\n        /* \"#utility.yul\":1719:1721   */\n      0x20\n        /* \"#utility.yul\":1707:1716   */\n      dup3\n        /* \"#utility.yul\":1698:1705   */\n      dup5\n        /* \"#utility.yul\":1694:1717   */\n      sub\n        /* \"#utility.yul\":1690:1722   */\n      slt\n        /* \"#utility.yul\":1687:1739   */\n      iszero\n      tag_672\n      jumpi\n        /* \"#utility.yul\":1735:1736   */\n      0x00\n        /* \"#utility.yul\":1732:1733   */\n      dup1\n        /* \"#utility.yul\":1725:1737   */\n      revert\n        /* \"#utility.yul\":1687:1739   */\n    tag_672:\n        /* \"#utility.yul\":1774:1783   */\n      dup2\n        /* \"#utility.yul\":1761:1784   */\n      calldataload\n        /* \"#utility.yul\":1793:1823   */\n      tag_532\n        /* \"#utility.yul\":1817:1822   */\n      dup2\n        /* \"#utility.yul\":1793:1823   */\n      tag_647\n      jump\t// in\n        /* \"#utility.yul\":2050:2308   */\n    tag_648:\n        /* \"#utility.yul\":2122:2123   */\n      0x00\n        /* \"#utility.yul\":2132:2245   */\n    tag_676:\n        /* \"#utility.yul\":2146:2152   */\n      dup4\n        /* \"#utility.yul\":2143:2144   */\n      dup2\n        /* \"#utility.yul\":2140:2153   */\n      lt\n        /* \"#utility.yul\":2132:2245   */\n      iszero\n      tag_678\n      jumpi\n        /* \"#utility.yul\":2222:2233   */\n      dup2\n      dup2\n      add\n        /* \"#utility.yul\":2216:2234   */\n      mload\n        /* \"#utility.yul\":2203:2214   */\n      dup4\n      dup3\n      add\n        /* \"#utility.yul\":2196:2235   */\n      mstore\n        /* \"#utility.yul\":2168:2170   */\n      0x20\n        /* \"#utility.yul\":2161:2171   */\n      add\n        /* \"#utility.yul\":2132:2245   */\n      jump(tag_676)\n    tag_678:\n        /* \"#utility.yul\":2263:2269   */\n      dup4\n        /* \"#utility.yul\":2260:2261   */\n      dup2\n        /* \"#utility.yul\":2257:2270   */\n      gt\n        /* \"#utility.yul\":2254:2302   */\n      iszero\n      tag_237\n      jumpi\n      pop\n      pop\n        /* \"#utility.yul\":2298:2299   */\n      0x00\n        /* \"#utility.yul\":2280:2296   */\n      swap2\n      add\n        /* \"#utility.yul\":2273:2300   */\n      mstore\n        /* \"#utility.yul\":2050:2308   */\n      jump\t// out\n        /* \"#utility.yul\":2313:2571   */\n    tag_649:\n        /* \"#utility.yul\":2355:2358   */\n      0x00\n        /* \"#utility.yul\":2393:2398   */\n      dup2\n        /* \"#utility.yul\":2387:2399   */\n      mload\n        /* \"#utility.yul\":2420:2426   */\n      dup1\n        /* \"#utility.yul\":2415:2418   */\n      dup5\n        /* \"#utility.yul\":2408:2427   */\n      mstore\n        /* \"#utility.yul\":2436:2499   */\n      tag_681\n        /* \"#utility.yul\":2492:2498   */\n      dup2\n        /* \"#utility.yul\":2485:2489   */\n      0x20\n        /* \"#utility.yul\":2480:2483   */\n      dup7\n        /* \"#utility.yul\":2476:2490   */\n      add\n        /* \"#utility.yul\":2469:2473   */\n      0x20\n        /* \"#utility.yul\":2462:2467   */\n      dup7\n        /* \"#utility.yul\":2458:2474   */\n      add\n        /* \"#utility.yul\":2436:2499   */\n      tag_648\n      jump\t// in\n    tag_681:\n        /* \"#utility.yul\":2553:2555   */\n      0x1f\n        /* \"#utility.yul\":2532:2547   */\n      add\n      not(0x1f)\n        /* \"#utility.yul\":2528:2557   */\n      and\n        /* \"#utility.yul\":2519:2558   */\n      swap3\n      swap1\n      swap3\n      add\n        /* \"#utility.yul\":2560:2564   */\n      0x20\n        /* \"#utility.yul\":2515:2565   */\n      add\n      swap3\n        /* \"#utility.yul\":2313:2571   */\n      swap2\n      pop\n      pop\n      jump\t// out\n        /* \"#utility.yul\":2576:2796   */\n    tag_63:\n        /* \"#utility.yul\":2725:2727   */\n      0x20\n        /* \"#utility.yul\":2714:2723   */\n      dup2\n        /* \"#utility.yul\":2707:2728   */\n      mstore\n        /* \"#utility.yul\":2688:2692   */\n      0x00\n        /* \"#utility.yul\":2745:2790   */\n      tag_532\n        /* \"#utility.yul\":2786:2788   */\n      0x20\n        /* \"#utility.yul\":2775:2784   */\n      dup4\n        /* \"#utility.yul\":2771:2789   */\n      add\n        /* \"#utility.yul\":2763:2769   */\n      dup5\n        /* \"#utility.yul\":2745:2790   */\n      tag_649\n      jump\t// in\n        /* \"#utility.yul\":2801:2981   */\n    tag_66:\n        /* \"#utility.yul\":2860:2866   */\n      0x00\n        /* \"#utility.yul\":2913:2915   */\n      0x20\n        /* \"#utility.yul\":2901:2910   */\n      dup3\n        /* \"#utility.yul\":2892:2899   */\n      dup5\n        /* \"#utility.yul\":2888:2911   */\n      sub\n        /* \"#utility.yul\":2884:2916   */\n      slt\n        /* \"#utility.yul\":2881:2933   */\n      iszero\n      tag_685\n      jumpi\n        /* \"#utility.yul\":2929:2930   */\n      0x00\n        /* \"#utility.yul\":2926:2927   */\n      dup1\n        /* \"#utility.yul\":2919:2931   */\n      revert\n        /* \"#utility.yul\":2881:2933   */\n    tag_685:\n      pop\n        /* \"#utility.yul\":2952:2975   */\n      calldataload\n      swap2\n        /* \"#utility.yul\":2801:2981   */\n      swap1\n      pop\n      jump\t// out\n        /* \"#utility.yul\":3217:3471   */\n    tag_72:\n        /* \"#utility.yul\":3285:3291   */\n      0x00\n        /* \"#utility.yul\":3293:3299   */\n      dup1\n        /* \"#utility.yul\":3346:3348   */\n      0x40\n        /* \"#utility.yul\":3334:3343   */\n      dup4\n        /* \"#utility.yul\":3325:3332   */\n      dup6\n        /* \"#utility.yul\":3321:3344   */\n      sub\n        /* \"#utility.yul\":3317:3349   */\n      slt\n        /* \"#utility.yul\":3314:3366   */\n      iszero\n      tag_688\n      jumpi\n        /* \"#utility.yul\":3362:3363   */\n      0x00\n        /* \"#utility.yul\":3359:3360   */\n      dup1\n        /* \"#utility.yul\":3352:3364   */\n      revert\n        /* \"#utility.yul\":3314:3366   */\n    tag_688:\n        /* \"#utility.yul\":3385:3414   */\n      tag_689\n        /* \"#utility.yul\":3404:3413   */\n      dup4\n        /* \"#utility.yul\":3385:3414   */\n      tag_645\n      jump\t// in\n    tag_689:\n        /* \"#utility.yul\":3375:3414   */\n      swap5\n        /* \"#utility.yul\":3461:3463   */\n      0x20\n        /* \"#utility.yul\":3446:3464   */\n      swap4\n      swap1\n      swap4\n      add\n        /* \"#utility.yul\":3433:3465   */\n      calldataload\n      swap4\n      pop\n      pop\n      pop\n        /* \"#utility.yul\":3217:3471   */\n      jump\t// out\n        /* \"#utility.yul\":3476:3662   */\n    tag_76:\n        /* \"#utility.yul\":3535:3541   */\n      0x00\n        /* \"#utility.yul\":3588:3590   */\n      0x20\n        /* \"#utility.yul\":3576:3585   */\n      dup3\n        /* \"#utility.yul\":3567:3574   */\n      dup5\n        /* \"#utility.yul\":3563:3586   */\n      sub\n        /* \"#utility.yul\":3559:3591   */\n      slt\n        /* \"#utility.yul\":3556:3608   */\n      iszero\n      tag_691\n      jumpi\n        /* \"#utility.yul\":3604:3605   */\n      0x00\n        /* \"#utility.yul\":3601:3602   */\n      dup1\n        /* \"#utility.yul\":3594:3606   */\n      revert\n        /* \"#utility.yul\":3556:3608   */\n    tag_691:\n        /* \"#utility.yul\":3627:3656   */\n      tag_532\n        /* \"#utility.yul\":3646:3655   */\n      dup3\n        /* \"#utility.yul\":3627:3656   */\n      tag_645\n      jump\t// in\n        /* \"#utility.yul\":3667:4278   */\n    tag_80:\n        /* \"#utility.yul\":3764:3770   */\n      0x00\n        /* \"#utility.yul\":3772:3778   */\n      dup1\n        /* \"#utility.yul\":3780:3786   */\n      0x00\n        /* \"#utility.yul\":3833:3835   */\n      0x60\n        /* \"#utility.yul\":3821:3830   */\n      dup5\n        /* \"#utility.yul\":3812:3819   */\n      dup7\n        /* \"#utility.yul\":3808:3831   */\n      sub\n        /* \"#utility.yul\":3804:3836   */\n      slt\n        /* \"#utility.yul\":3801:3853   */\n      iszero\n      tag_694\n      jumpi\n        /* \"#utility.yul\":3849:3850   */\n      0x00\n        /* \"#utility.yul\":3846:3847   */\n      dup1\n        /* \"#utility.yul\":3839:3851   */\n      revert\n        /* \"#utility.yul\":3801:3853   */\n    tag_694:\n        /* \"#utility.yul\":3885:3894   */\n      dup4\n        /* \"#utility.yul\":3872:3895   */\n      calldataload\n        /* \"#utility.yul\":3862:3895   */\n      swap3\n      pop\n        /* \"#utility.yul\":3946:3948   */\n      0x20\n        /* \"#utility.yul\":3935:3944   */\n      dup5\n        /* \"#utility.yul\":3931:3949   */\n      add\n        /* \"#utility.yul\":3918:3950   */\n      calldataload\n        /* \"#utility.yul\":3969:3987   */\n      0xffffffffffffffff\n        /* \"#utility.yul\":4010:4012   */\n      dup1\n        /* \"#utility.yul\":4002:4008   */\n      dup3\n        /* \"#utility.yul\":3999:4013   */\n      gt\n        /* \"#utility.yul\":3996:4030   */\n      iszero\n      tag_695\n      jumpi\n        /* \"#utility.yul\":4026:4027   */\n      0x00\n        /* \"#utility.yul\":4023:4024   */\n      dup1\n        /* \"#utility.yul\":4016:4028   */\n      revert\n        /* \"#utility.yul\":3996:4030   */\n    tag_695:\n        /* \"#utility.yul\":4049:4099   */\n      tag_696\n        /* \"#utility.yul\":4091:4098   */\n      dup8\n        /* \"#utility.yul\":4082:4088   */\n      dup4\n        /* \"#utility.yul\":4071:4080   */\n      dup9\n        /* \"#utility.yul\":4067:4089   */\n      add\n        /* \"#utility.yul\":4049:4099   */\n      tag_646\n      jump\t// in\n    tag_696:\n        /* \"#utility.yul\":4039:4099   */\n      swap4\n      pop\n        /* \"#utility.yul\":4152:4154   */\n      0x40\n        /* \"#utility.yul\":4141:4150   */\n      dup7\n        /* \"#utility.yul\":4137:4155   */\n      add\n        /* \"#utility.yul\":4124:4156   */\n      calldataload\n        /* \"#utility.yul\":4108:4156   */\n      swap2\n      pop\n        /* \"#utility.yul\":4181:4183   */\n      dup1\n        /* \"#utility.yul\":4171:4179   */\n      dup3\n        /* \"#utility.yul\":4168:4184   */\n      gt\n        /* \"#utility.yul\":4165:4201   */\n      iszero\n      tag_697\n      jumpi\n        /* \"#utility.yul\":4197:4198   */\n      0x00\n        /* \"#utility.yul\":4194:4195   */\n      dup1\n        /* \"#utility.yul\":4187:4199   */\n      revert\n        /* \"#utility.yul\":4165:4201   */\n    tag_697:\n      pop\n        /* \"#utility.yul\":4220:4272   */\n      tag_698\n        /* \"#utility.yul\":4264:4271   */\n      dup7\n        /* \"#utility.yul\":4253:4261   */\n      dup3\n        /* \"#utility.yul\":4242:4251   */\n      dup8\n        /* \"#utility.yul\":4238:4262   */\n      add\n        /* \"#utility.yul\":4220:4272   */\n      tag_646\n      jump\t// in\n    tag_698:\n        /* \"#utility.yul\":4210:4272   */\n      swap2\n      pop\n      pop\n        /* \"#utility.yul\":3667:4278   */\n      swap3\n      pop\n      swap3\n      pop\n      swap3\n      jump\t// out\n        /* \"#utility.yul\":4465:4793   */\n    tag_88:\n        /* \"#utility.yul\":4542:4548   */\n      0x00\n        /* \"#utility.yul\":4550:4556   */\n      dup1\n        /* \"#utility.yul\":4558:4564   */\n      0x00\n        /* \"#utility.yul\":4611:4613   */\n      0x60\n        /* \"#utility.yul\":4599:4608   */\n      dup5\n        /* \"#utility.yul\":4590:4597   */\n      dup7\n        /* \"#utility.yul\":4586:4609   */\n      sub\n        /* \"#utility.yul\":4582:4614   */\n      slt\n        /* \"#utility.yul\":4579:4631   */\n      iszero\n      tag_701\n      jumpi\n        /* \"#utility.yul\":4627:4628   */\n      0x00\n        /* \"#utility.yul\":4624:4625   */\n      dup1\n        /* \"#utility.yul\":4617:4629   */\n      revert\n        /* \"#utility.yul\":4579:4631   */\n    tag_701:\n        /* \"#utility.yul\":4650:4679   */\n      tag_702\n        /* \"#utility.yul\":4669:4678   */\n      dup5\n        /* \"#utility.yul\":4650:4679   */\n      tag_645\n      jump\t// in\n    tag_702:\n        /* \"#utility.yul\":4640:4679   */\n      swap3\n      pop\n        /* \"#utility.yul\":4698:4736   */\n      tag_703\n        /* \"#utility.yul\":4732:4734   */\n      0x20\n        /* \"#utility.yul\":4721:4730   */\n      dup6\n        /* \"#utility.yul\":4717:4735   */\n      add\n        /* \"#utility.yul\":4698:4736   */\n      tag_645\n      jump\t// in\n    tag_703:\n        /* \"#utility.yul\":4688:4736   */\n      swap2\n      pop\n        /* \"#utility.yul\":4783:4785   */\n      0x40\n        /* \"#utility.yul\":4772:4781   */\n      dup5\n        /* \"#utility.yul\":4768:4786   */\n      add\n        /* \"#utility.yul\":4755:4787   */\n      calldataload\n        /* \"#utility.yul\":4745:4787   */\n      swap1\n      pop\n        /* \"#utility.yul\":4465:4793   */\n      swap3\n      pop\n      swap3\n      pop\n      swap3\n      jump\t// out\n        /* \"#utility.yul\":4798:5046   */\n    tag_96:\n        /* \"#utility.yul\":4866:4872   */\n      0x00\n        /* \"#utility.yul\":4874:4880   */\n      dup1\n        /* \"#utility.yul\":4927:4929   */\n      0x40\n        /* \"#utility.yul\":4915:4924   */\n      dup4\n        /* \"#utility.yul\":4906:4913   */\n      dup6\n        /* \"#utility.yul\":4902:4925   */\n      sub\n        /* \"#utility.yul\":4898:4930   */\n      slt\n        /* \"#utility.yul\":4895:4947   */\n      iszero\n      tag_705\n      jumpi\n        /* \"#utility.yul\":4943:4944   */\n      0x00\n        /* \"#utility.yul\":4940:4941   */\n      dup1\n        /* \"#utility.yul\":4933:4945   */\n      revert\n        /* \"#utility.yul\":4895:4947   */\n    tag_705:\n      pop\n      pop\n        /* \"#utility.yul\":4966:4989   */\n      dup1\n      calldataload\n      swap3\n        /* \"#utility.yul\":5036:5038   */\n      0x20\n        /* \"#utility.yul\":5021:5039   */\n      swap1\n      swap2\n      add\n        /* \"#utility.yul\":5008:5040   */\n      calldataload\n      swap2\n      pop\n        /* \"#utility.yul\":4798:5046   */\n      jump\t// out\n        /* \"#utility.yul\":5353:5471   */\n    tag_650:\n        /* \"#utility.yul\":5439:5444   */\n      dup1\n        /* \"#utility.yul\":5432:5445   */\n      iszero\n        /* \"#utility.yul\":5425:5446   */\n      iszero\n        /* \"#utility.yul\":5418:5423   */\n      dup2\n        /* \"#utility.yul\":5415:5447   */\n      eq\n        /* \"#utility.yul\":5405:5465   */\n      tag_228\n      jumpi\n        /* \"#utility.yul\":5461:5462   */\n      0x00\n        /* \"#utility.yul\":5458:5459   */\n      dup1\n        /* \"#utility.yul\":5451:5463   */\n      revert\n        /* \"#utility.yul\":5476:5717   */\n    tag_102:\n        /* \"#utility.yul\":5532:5538   */\n      0x00\n        /* \"#utility.yul\":5585:5587   */\n      0x20\n        /* \"#utility.yul\":5573:5582   */\n      dup3\n        /* \"#utility.yul\":5564:5571   */\n      dup5\n        /* \"#utility.yul\":5560:5583   */\n      sub\n        /* \"#utility.yul\":5556:5588   */\n      slt\n        /* \"#utility.yul\":5553:5605   */\n      iszero\n      tag_710\n      jumpi\n        /* \"#utility.yul\":5601:5602   */\n      0x00\n        /* \"#utility.yul\":5598:5599   */\n      dup1\n        /* \"#utility.yul\":5591:5603   */\n      revert\n        /* \"#utility.yul\":5553:5605   */\n    tag_710:\n        /* \"#utility.yul\":5640:5649   */\n      dup2\n        /* \"#utility.yul\":5627:5650   */\n      calldataload\n        /* \"#utility.yul\":5659:5687   */\n      tag_532\n        /* \"#utility.yul\":5681:5686   */\n      dup2\n        /* \"#utility.yul\":5659:5687   */\n      tag_650\n      jump\t// in\n        /* \"#utility.yul\":5722:6259   */\n    tag_108:\n        /* \"#utility.yul\":5907:5909   */\n      0x20\n        /* \"#utility.yul\":5896:5905   */\n      dup2\n        /* \"#utility.yul\":5889:5910   */\n      mstore\n        /* \"#utility.yul\":5870:5874   */\n      0x00\n        /* \"#utility.yul\":5945:5951   */\n      dup3\n        /* \"#utility.yul\":5939:5952   */\n      mload\n        /* \"#utility.yul\":5988:5992   */\n      0x40\n        /* \"#utility.yul\":5983:5985   */\n      0x20\n        /* \"#utility.yul\":5972:5981   */\n      dup5\n        /* \"#utility.yul\":5968:5986   */\n      add\n        /* \"#utility.yul\":5961:5993   */\n      mstore\n        /* \"#utility.yul\":6016:6067   */\n      tag_713\n        /* \"#utility.yul\":6063:6065   */\n      0x60\n        /* \"#utility.yul\":6052:6061   */\n      dup5\n        /* \"#utility.yul\":6048:6066   */\n      add\n        /* \"#utility.yul\":6034:6046   */\n      dup3\n        /* \"#utility.yul\":6016:6067   */\n      tag_649\n      jump\t// in\n    tag_713:\n        /* \"#utility.yul\":6002:6067   */\n      swap1\n      pop\n        /* \"#utility.yul\":6116:6118   */\n      0x20\n        /* \"#utility.yul\":6108:6114   */\n      dup5\n        /* \"#utility.yul\":6104:6119   */\n      add\n        /* \"#utility.yul\":6098:6120   */\n      mload\n        /* \"#utility.yul\":6190:6192   */\n      0x1f\n        /* \"#utility.yul\":6186:6193   */\n      not\n        /* \"#utility.yul\":6174:6183   */\n      dup5\n        /* \"#utility.yul\":6166:6172   */\n      dup4\n        /* \"#utility.yul\":6162:6184   */\n      sub\n        /* \"#utility.yul\":6158:6194   */\n      add\n        /* \"#utility.yul\":6151:6155   */\n      0x40\n        /* \"#utility.yul\":6140:6149   */\n      dup6\n        /* \"#utility.yul\":6136:6156   */\n      add\n        /* \"#utility.yul\":6129:6195   */\n      mstore\n        /* \"#utility.yul\":6212:6253   */\n      tag_714\n        /* \"#utility.yul\":6246:6252   */\n      dup3\n        /* \"#utility.yul\":6230:6244   */\n      dup3\n        /* \"#utility.yul\":6212:6253   */\n      tag_649\n      jump\t// in\n    tag_714:\n        /* \"#utility.yul\":6204:6253   */\n      swap6\n        /* \"#utility.yul\":5722:6259   */\n      swap5\n      pop\n      pop\n      pop\n      pop\n      pop\n      jump\t// out\n        /* \"#utility.yul\":6840:7525   */\n    tag_150:\n        /* \"#utility.yul\":6945:6951   */\n      0x00\n        /* \"#utility.yul\":6953:6959   */\n      dup1\n        /* \"#utility.yul\":6961:6967   */\n      0x00\n        /* \"#utility.yul\":6969:6975   */\n      dup1\n        /* \"#utility.yul\":7022:7025   */\n      0x80\n        /* \"#utility.yul\":7010:7019   */\n      dup6\n        /* \"#utility.yul\":7001:7008   */\n      dup8\n        /* \"#utility.yul\":6997:7020   */\n      sub\n        /* \"#utility.yul\":6993:7026   */\n      slt\n        /* \"#utility.yul\":6990:7043   */\n      iszero\n      tag_718\n      jumpi\n        /* \"#utility.yul\":7039:7040   */\n      0x00\n        /* \"#utility.yul\":7036:7037   */\n      dup1\n        /* \"#utility.yul\":7029:7041   */\n      revert\n        /* \"#utility.yul\":6990:7043   */\n    tag_718:\n        /* \"#utility.yul\":7062:7091   */\n      tag_719\n        /* \"#utility.yul\":7081:7090   */\n      dup6\n        /* \"#utility.yul\":7062:7091   */\n      tag_645\n      jump\t// in\n    tag_719:\n        /* \"#utility.yul\":7052:7091   */\n      swap4\n      pop\n        /* \"#utility.yul\":7138:7140   */\n      0x20\n        /* \"#utility.yul\":7127:7136   */\n      dup6\n        /* \"#utility.yul\":7123:7141   */\n      add\n        /* \"#utility.yul\":7110:7142   */\n      calldataload\n        /* \"#utility.yul\":7100:7142   */\n      swap3\n      pop\n        /* \"#utility.yul\":7193:7195   */\n      0x40\n        /* \"#utility.yul\":7182:7191   */\n      dup6\n        /* \"#utility.yul\":7178:7196   */\n      add\n        /* \"#utility.yul\":7165:7197   */\n      calldataload\n        /* \"#utility.yul\":7216:7234   */\n      0xffffffffffffffff\n        /* \"#utility.yul\":7257:7259   */\n      dup1\n        /* \"#utility.yul\":7249:7255   */\n      dup3\n        /* \"#utility.yul\":7246:7260   */\n      gt\n        /* \"#utility.yul\":7243:7277   */\n      iszero\n      tag_720\n      jumpi\n        /* \"#utility.yul\":7273:7274   */\n      0x00\n        /* \"#utility.yul\":7270:7271   */\n      dup1\n        /* \"#utility.yul\":7263:7275   */\n      revert\n        /* \"#utility.yul\":7243:7277   */\n    tag_720:\n        /* \"#utility.yul\":7296:7346   */\n      tag_721\n        /* \"#utility.yul\":7338:7345   */\n      dup9\n        /* \"#utility.yul\":7329:7335   */\n      dup4\n        /* \"#utility.yul\":7318:7327   */\n      dup10\n        /* \"#utility.yul\":7314:7336   */\n      add\n        /* \"#utility.yul\":7296:7346   */\n      tag_646\n      jump\t// in\n    tag_721:\n        /* \"#utility.yul\":7286:7346   */\n      swap4\n      pop\n        /* \"#utility.yul\":7399:7401   */\n      0x60\n        /* \"#utility.yul\":7388:7397   */\n      dup8\n        /* \"#utility.yul\":7384:7402   */\n      add\n        /* \"#utility.yul\":7371:7403   */\n      calldataload\n        /* \"#utility.yul\":7355:7403   */\n      swap2\n      pop\n        /* \"#utility.yul\":7428:7430   */\n      dup1\n        /* \"#utility.yul\":7418:7426   */\n      dup3\n        /* \"#utility.yul\":7415:7431   */\n      gt\n        /* \"#utility.yul\":7412:7448   */\n      iszero\n      tag_722\n      jumpi\n        /* \"#utility.yul\":7444:7445   */\n      0x00\n        /* \"#utility.yul\":7441:7442   */\n      dup1\n        /* \"#utility.yul\":7434:7446   */\n      revert\n        /* \"#utility.yul\":7412:7448   */\n    tag_722:\n      pop\n        /* \"#utility.yul\":7467:7519   */\n      tag_723\n        /* \"#utility.yul\":7511:7518   */\n      dup8\n        /* \"#utility.yul\":7500:7508   */\n      dup3\n        /* \"#utility.yul\":7489:7498   */\n      dup9\n        /* \"#utility.yul\":7485:7509   */\n      add\n        /* \"#utility.yul\":7467:7519   */\n      tag_646\n      jump\t// in\n    tag_723:\n        /* \"#utility.yul\":7457:7519   */\n      swap2\n      pop\n      pop\n        /* \"#utility.yul\":6840:7525   */\n      swap3\n      swap6\n      swap2\n      swap5\n      pop\n      swap3\n      pop\n      jump\t// out\n        /* \"#utility.yul\":7530:7852   */\n    tag_157:\n        /* \"#utility.yul\":7599:7605   */\n      0x00\n        /* \"#utility.yul\":7652:7654   */\n      0x20\n        /* \"#utility.yul\":7640:7649   */\n      dup3\n        /* \"#utility.yul\":7631:7638   */\n      dup5\n        /* \"#utility.yul\":7627:7650   */\n      sub\n        /* \"#utility.yul\":7623:7655   */\n      slt\n        /* \"#utility.yul\":7620:7672   */\n      iszero\n      tag_725\n      jumpi\n        /* \"#utility.yul\":7668:7669   */\n      0x00\n        /* \"#utility.yul\":7665:7666   */\n      dup1\n        /* \"#utility.yul\":7658:7670   */\n      revert\n        /* \"#utility.yul\":7620:7672   */\n    tag_725:\n        /* \"#utility.yul\":7708:7717   */\n      dup2\n        /* \"#utility.yul\":7695:7718   */\n      calldataload\n        /* \"#utility.yul\":7741:7759   */\n      0xffffffffffffffff\n        /* \"#utility.yul\":7733:7739   */\n      dup2\n        /* \"#utility.yul\":7730:7760   */\n      gt\n        /* \"#utility.yul\":7727:7777   */\n      iszero\n      tag_726\n      jumpi\n        /* \"#utility.yul\":7773:7774   */\n      0x00\n        /* \"#utility.yul\":7770:7771   */\n      dup1\n        /* \"#utility.yul\":7763:7775   */\n      revert\n        /* \"#utility.yul\":7727:7777   */\n    tag_726:\n        /* \"#utility.yul\":7796:7846   */\n      tag_305\n        /* \"#utility.yul\":7838:7845   */\n      dup5\n        /* \"#utility.yul\":7829:7835   */\n      dup3\n        /* \"#utility.yul\":7818:7827   */\n      dup6\n        /* \"#utility.yul\":7814:7836   */\n      add\n        /* \"#utility.yul\":7796:7846   */\n      tag_646\n      jump\t// in\n        /* \"#utility.yul\":7857:8179   */\n    tag_164:\n        /* \"#utility.yul\":7934:7940   */\n      0x00\n        /* \"#utility.yul\":7942:7948   */\n      dup1\n        /* \"#utility.yul\":7950:7956   */\n      0x00\n        /* \"#utility.yul\":8003:8005   */\n      0x60\n        /* \"#utility.yul\":7991:8000   */\n      dup5\n        /* \"#utility.yul\":7982:7989   */\n      dup7\n        /* \"#utility.yul\":7978:8001   */\n      sub\n        /* \"#utility.yul\":7974:8006   */\n      slt\n        /* \"#utility.yul\":7971:8023   */\n      iszero\n      tag_729\n      jumpi\n        /* \"#utility.yul\":8019:8020   */\n      0x00\n        /* \"#utility.yul\":8016:8017   */\n      dup1\n        /* \"#utility.yul\":8009:8021   */\n      revert\n        /* \"#utility.yul\":7971:8023   */\n    tag_729:\n        /* \"#utility.yul\":8055:8064   */\n      dup4\n        /* \"#utility.yul\":8042:8065   */\n      calldataload\n        /* \"#utility.yul\":8032:8065   */\n      swap3\n      pop\n        /* \"#utility.yul\":8084:8122   */\n      tag_703\n        /* \"#utility.yul\":8118:8120   */\n      0x20\n        /* \"#utility.yul\":8107:8116   */\n      dup6\n        /* \"#utility.yul\":8103:8121   */\n      add\n        /* \"#utility.yul\":8084:8122   */\n      tag_645\n      jump\t// in\n        /* \"#utility.yul\":8184:8499   */\n    tag_168:\n        /* \"#utility.yul\":8249:8255   */\n      0x00\n        /* \"#utility.yul\":8257:8263   */\n      dup1\n        /* \"#utility.yul\":8310:8312   */\n      0x40\n        /* \"#utility.yul\":8298:8307   */\n      dup4\n        /* \"#utility.yul\":8289:8296   */\n      dup6\n        /* \"#utility.yul\":8285:8308   */\n      sub\n        /* \"#utility.yul\":8281:8313   */\n      slt\n        /* \"#utility.yul\":8278:8330   */\n      iszero\n      tag_732\n      jumpi\n        /* \"#utility.yul\":8326:8327   */\n      0x00\n        /* \"#utility.yul\":8323:8324   */\n      dup1\n        /* \"#utility.yul\":8316:8328   */\n      revert\n        /* \"#utility.yul\":8278:8330   */\n    tag_732:\n        /* \"#utility.yul\":8349:8378   */\n      tag_733\n        /* \"#utility.yul\":8368:8377   */\n      dup4\n        /* \"#utility.yul\":8349:8378   */\n      tag_645\n      jump\t// in\n    tag_733:\n        /* \"#utility.yul\":8339:8378   */\n      swap2\n      pop\n        /* \"#utility.yul\":8428:8430   */\n      0x20\n        /* \"#utility.yul\":8417:8426   */\n      dup4\n        /* \"#utility.yul\":8413:8431   */\n      add\n        /* \"#utility.yul\":8400:8432   */\n      calldataload\n        /* \"#utility.yul\":8441:8469   */\n      tag_734\n        /* \"#utility.yul\":8463:8468   */\n      dup2\n        /* \"#utility.yul\":8441:8469   */\n      tag_650\n      jump\t// in\n    tag_734:\n        /* \"#utility.yul\":8488:8493   */\n      dup1\n        /* \"#utility.yul\":8478:8493   */\n      swap2\n      pop\n      pop\n        /* \"#utility.yul\":8184:8499   */\n      swap3\n      pop\n      swap3\n      swap1\n      pop\n      jump\t// out\n        /* \"#utility.yul\":8504:9130   */\n    tag_172:\n        /* \"#utility.yul\":8601:8607   */\n      0x00\n        /* \"#utility.yul\":8609:8615   */\n      dup1\n        /* \"#utility.yul\":8662:8664   */\n      0x20\n        /* \"#utility.yul\":8650:8659   */\n      dup4\n        /* \"#utility.yul\":8641:8648   */\n      dup6\n        /* \"#utility.yul\":8637:8660   */\n      sub\n        /* \"#utility.yul\":8633:8665   */\n      slt\n        /* \"#utility.yul\":8630:8682   */\n      iszero\n      tag_736\n      jumpi\n        /* \"#utility.yul\":8678:8679   */\n      0x00\n        /* \"#utility.yul\":8675:8676   */\n      dup1\n        /* \"#utility.yul\":8668:8680   */\n      revert\n        /* \"#utility.yul\":8630:8682   */\n    tag_736:\n        /* \"#utility.yul\":8718:8727   */\n      dup3\n        /* \"#utility.yul\":8705:8728   */\n      calldataload\n        /* \"#utility.yul\":8747:8765   */\n      0xffffffffffffffff\n        /* \"#utility.yul\":8788:8790   */\n      dup1\n        /* \"#utility.yul\":8780:8786   */\n      dup3\n        /* \"#utility.yul\":8777:8791   */\n      gt\n        /* \"#utility.yul\":8774:8808   */\n      iszero\n      tag_737\n      jumpi\n        /* \"#utility.yul\":8804:8805   */\n      0x00\n        /* \"#utility.yul\":8801:8802   */\n      dup1\n        /* \"#utility.yul\":8794:8806   */\n      revert\n        /* \"#utility.yul\":8774:8808   */\n    tag_737:\n        /* \"#utility.yul\":8842:8848   */\n      dup2\n        /* \"#utility.yul\":8831:8840   */\n      dup6\n        /* \"#utility.yul\":8827:8849   */\n      add\n        /* \"#utility.yul\":8817:8849   */\n      swap2\n      pop\n        /* \"#utility.yul\":8887:8894   */\n      dup6\n        /* \"#utility.yul\":8880:8884   */\n      0x1f\n        /* \"#utility.yul\":8876:8878   */\n      dup4\n        /* \"#utility.yul\":8872:8885   */\n      add\n        /* \"#utility.yul\":8868:8895   */\n      slt\n        /* \"#utility.yul\":8858:8913   */\n      tag_738\n      jumpi\n        /* \"#utility.yul\":8909:8910   */\n      0x00\n        /* \"#utility.yul\":8906:8907   */\n      dup1\n        /* \"#utility.yul\":8899:8911   */\n      revert\n        /* \"#utility.yul\":8858:8913   */\n    tag_738:\n        /* \"#utility.yul\":8949:8951   */\n      dup2\n        /* \"#utility.yul\":8936:8952   */\n      calldataload\n        /* \"#utility.yul\":8975:8977   */\n      dup2\n        /* \"#utility.yul\":8967:8973   */\n      dup2\n        /* \"#utility.yul\":8964:8978   */\n      gt\n        /* \"#utility.yul\":8961:8995   */\n      iszero\n      tag_739\n      jumpi\n        /* \"#utility.yul\":8991:8992   */\n      0x00\n        /* \"#utility.yul\":8988:8989   */\n      dup1\n        /* \"#utility.yul\":8981:8993   */\n      revert\n        /* \"#utility.yul\":8961:8995   */\n    tag_739:\n        /* \"#utility.yul\":9044:9051   */\n      dup7\n        /* \"#utility.yul\":9039:9041   */\n      0x20\n        /* \"#utility.yul\":9029:9035   */\n      dup3\n        /* \"#utility.yul\":9026:9027   */\n      0x05\n        /* \"#utility.yul\":9022:9036   */\n      shl\n        /* \"#utility.yul\":9018:9020   */\n      dup6\n        /* \"#utility.yul\":9014:9037   */\n      add\n        /* \"#utility.yul\":9010:9042   */\n      add\n        /* \"#utility.yul\":9007:9052   */\n      gt\n        /* \"#utility.yul\":9004:9069   */\n      iszero\n      tag_740\n      jumpi\n        /* \"#utility.yul\":9065:9066   */\n      0x00\n        /* \"#utility.yul\":9062:9063   */\n      dup1\n        /* \"#utility.yul\":9055:9067   */\n      revert\n        /* \"#utility.yul\":9004:9069   */\n    tag_740:\n        /* \"#utility.yul\":9096:9098   */\n      0x20\n        /* \"#utility.yul\":9088:9099   */\n      swap3\n      swap1\n      swap3\n      add\n      swap7\n        /* \"#utility.yul\":9118:9124   */\n      swap2\n      swap6\n      pop\n        /* \"#utility.yul\":8504:9130   */\n      swap1\n      swap4\n      pop\n      pop\n      pop\n      pop\n      jump\t// out\n        /* \"#utility.yul\":9135:9936   */\n    tag_175:\n        /* \"#utility.yul\":9295:9299   */\n      0x00\n        /* \"#utility.yul\":9324:9326   */\n      0x20\n        /* \"#utility.yul\":9364:9366   */\n      dup1\n        /* \"#utility.yul\":9353:9362   */\n      dup4\n        /* \"#utility.yul\":9349:9367   */\n      add\n        /* \"#utility.yul\":9394:9396   */\n      dup2\n        /* \"#utility.yul\":9383:9392   */\n      dup5\n        /* \"#utility.yul\":9376:9397   */\n      mstore\n        /* \"#utility.yul\":9417:9423   */\n      dup1\n        /* \"#utility.yul\":9452:9458   */\n      dup6\n        /* \"#utility.yul\":9446:9459   */\n      mload\n        /* \"#utility.yul\":9483:9489   */\n      dup1\n        /* \"#utility.yul\":9475:9481   */\n      dup4\n        /* \"#utility.yul\":9468:9490   */\n      mstore\n        /* \"#utility.yul\":9521:9523   */\n      0x40\n        /* \"#utility.yul\":9510:9519   */\n      dup7\n        /* \"#utility.yul\":9506:9524   */\n      add\n        /* \"#utility.yul\":9499:9524   */\n      swap2\n      pop\n        /* \"#utility.yul\":9583:9585   */\n      0x40\n        /* \"#utility.yul\":9573:9579   */\n      dup2\n        /* \"#utility.yul\":9570:9571   */\n      0x05\n        /* \"#utility.yul\":9566:9580   */\n      shl\n        /* \"#utility.yul\":9555:9564   */\n      dup8\n        /* \"#utility.yul\":9551:9581   */\n      add\n        /* \"#utility.yul\":9547:9586   */\n      add\n        /* \"#utility.yul\":9533:9586   */\n      swap3\n      pop\n        /* \"#utility.yul\":9621:9623   */\n      dup4\n        /* \"#utility.yul\":9613:9619   */\n      dup8\n        /* \"#utility.yul\":9609:9624   */\n      add\n        /* \"#utility.yul\":9642:9643   */\n      0x00\n        /* \"#utility.yul\":9652:9907   */\n    tag_742:\n        /* \"#utility.yul\":9666:9672   */\n      dup3\n        /* \"#utility.yul\":9663:9664   */\n      dup2\n        /* \"#utility.yul\":9660:9673   */\n      lt\n        /* \"#utility.yul\":9652:9907   */\n      iszero\n      tag_744\n      jumpi\n        /* \"#utility.yul\":9759:9761   */\n      0x3f\n        /* \"#utility.yul\":9755:9762   */\n      not\n        /* \"#utility.yul\":9743:9752   */\n      dup9\n        /* \"#utility.yul\":9735:9741   */\n      dup7\n        /* \"#utility.yul\":9731:9753   */\n      sub\n        /* \"#utility.yul\":9727:9763   */\n      add\n        /* \"#utility.yul\":9722:9725   */\n      dup5\n        /* \"#utility.yul\":9715:9764   */\n      mstore\n        /* \"#utility.yul\":9787:9827   */\n      tag_745\n        /* \"#utility.yul\":9820:9826   */\n      dup6\n        /* \"#utility.yul\":9811:9817   */\n      dup4\n        /* \"#utility.yul\":9805:9818   */\n      mload\n        /* \"#utility.yul\":9787:9827   */\n      tag_649\n      jump\t// in\n    tag_745:\n        /* \"#utility.yul\":9777:9827   */\n      swap5\n      pop\n        /* \"#utility.yul\":9885:9897   */\n      swap3\n      dup6\n      add\n      swap3\n        /* \"#utility.yul\":9850:9865   */\n      swap1\n      dup6\n      add\n      swap1\n        /* \"#utility.yul\":9688:9689   */\n      0x01\n        /* \"#utility.yul\":9681:9690   */\n      add\n        /* \"#utility.yul\":9652:9907   */\n      jump(tag_742)\n    tag_744:\n      pop\n        /* \"#utility.yul\":9924:9930   */\n      swap3\n      swap8\n        /* \"#utility.yul\":9135:9936   */\n      swap7\n      pop\n      pop\n      pop\n      pop\n      pop\n      pop\n      pop\n      jump\t// out\n        /* \"#utility.yul\":9941:10479   */\n    tag_181:\n        /* \"#utility.yul\":10036:10042   */\n      0x00\n        /* \"#utility.yul\":10044:10050   */\n      dup1\n        /* \"#utility.yul\":10052:10058   */\n      0x00\n        /* \"#utility.yul\":10060:10066   */\n      dup1\n        /* \"#utility.yul\":10113:10116   */\n      0x80\n        /* \"#utility.yul\":10101:10110   */\n      dup6\n        /* \"#utility.yul\":10092:10099   */\n      dup8\n        /* \"#utility.yul\":10088:10111   */\n      sub\n        /* \"#utility.yul\":10084:10117   */\n      slt\n        /* \"#utility.yul\":10081:10134   */\n      iszero\n      tag_747\n      jumpi\n        /* \"#utility.yul\":10130:10131   */\n      0x00\n        /* \"#utility.yul\":10127:10128   */\n      dup1\n        /* \"#utility.yul\":10120:10132   */\n      revert\n        /* \"#utility.yul\":10081:10134   */\n    tag_747:\n        /* \"#utility.yul\":10153:10182   */\n      tag_748\n        /* \"#utility.yul\":10172:10181   */\n      dup6\n        /* \"#utility.yul\":10153:10182   */\n      tag_645\n      jump\t// in\n    tag_748:\n        /* \"#utility.yul\":10143:10182   */\n      swap4\n      pop\n        /* \"#utility.yul\":10201:10239   */\n      tag_749\n        /* \"#utility.yul\":10235:10237   */\n      0x20\n        /* \"#utility.yul\":10224:10233   */\n      dup7\n        /* \"#utility.yul\":10220:10238   */\n      add\n        /* \"#utility.yul\":10201:10239   */\n      tag_645\n      jump\t// in\n    tag_749:\n        /* \"#utility.yul\":10191:10239   */\n      swap3\n      pop\n        /* \"#utility.yul\":10286:10288   */\n      0x40\n        /* \"#utility.yul\":10275:10284   */\n      dup6\n        /* \"#utility.yul\":10271:10289   */\n      add\n        /* \"#utility.yul\":10258:10290   */\n      calldataload\n        /* \"#utility.yul\":10248:10290   */\n      swap2\n      pop\n        /* \"#utility.yul\":10341:10343   */\n      0x60\n        /* \"#utility.yul\":10330:10339   */\n      dup6\n        /* \"#utility.yul\":10326:10344   */\n      add\n        /* \"#utility.yul\":10313:10345   */\n      calldataload\n        /* \"#utility.yul\":10368:10386   */\n      0xffffffffffffffff\n        /* \"#utility.yul\":10360:10366   */\n      dup2\n        /* \"#utility.yul\":10357:10387   */\n      gt\n        /* \"#utility.yul\":10354:10404   */\n      iszero\n      tag_750\n      jumpi\n        /* \"#utility.yul\":10400:10401   */\n      0x00\n        /* \"#utility.yul\":10397:10398   */\n      dup1\n        /* \"#utility.yul\":10390:10402   */\n      revert\n        /* \"#utility.yul\":10354:10404   */\n    tag_750:\n        /* \"#utility.yul\":10423:10473   */\n      tag_723\n        /* \"#utility.yul\":10465:10472   */\n      dup8\n        /* \"#utility.yul\":10456:10462   */\n      dup3\n        /* \"#utility.yul\":10445:10454   */\n      dup9\n        /* \"#utility.yul\":10441:10463   */\n      add\n        /* \"#utility.yul\":10423:10473   */\n      tag_646\n      jump\t// in\n        /* \"#utility.yul\":10484:10744   */\n    tag_192:\n        /* \"#utility.yul\":10552:10558   */\n      0x00\n        /* \"#utility.yul\":10560:10566   */\n      dup1\n        /* \"#utility.yul\":10613:10615   */\n      0x40\n        /* \"#utility.yul\":10601:10610   */\n      dup4\n        /* \"#utility.yul\":10592:10599   */\n      dup6\n        /* \"#utility.yul\":10588:10611   */\n      sub\n        /* \"#utility.yul\":10584:10616   */\n      slt\n        /* \"#utility.yul\":10581:10633   */\n      iszero\n      tag_753\n      jumpi\n        /* \"#utility.yul\":10629:10630   */\n      0x00\n        /* \"#utility.yul\":10626:10627   */\n      dup1\n        /* \"#utility.yul\":10619:10631   */\n      revert\n        /* \"#utility.yul\":10581:10633   */\n    tag_753:\n        /* \"#utility.yul\":10652:10681   */\n      tag_754\n        /* \"#utility.yul\":10671:10680   */\n      dup4\n        /* \"#utility.yul\":10652:10681   */\n      tag_645\n      jump\t// in\n    tag_754:\n        /* \"#utility.yul\":10642:10681   */\n      swap2\n      pop\n        /* \"#utility.yul\":10700:10738   */\n      tag_755\n        /* \"#utility.yul\":10734:10736   */\n      0x20\n        /* \"#utility.yul\":10723:10732   */\n      dup5\n        /* \"#utility.yul\":10719:10737   */\n      add\n        /* \"#utility.yul\":10700:10738   */\n      tag_645\n      jump\t// in\n    tag_755:\n        /* \"#utility.yul\":10690:10738   */\n      swap1\n      pop\n        /* \"#utility.yul\":10484:10744   */\n      swap3\n      pop\n      swap3\n      swap1\n      pop\n      jump\t// out\n        /* \"#utility.yul\":10749:11129   */\n    tag_207:\n        /* \"#utility.yul\":10828:10829   */\n      0x01\n        /* \"#utility.yul\":10824:10836   */\n      dup2\n      dup2\n      shr\n      swap1\n        /* \"#utility.yul\":10871:10883   */\n      dup3\n      and\n      dup1\n        /* \"#utility.yul\":10892:10953   */\n      tag_757\n      jumpi\n        /* \"#utility.yul\":10946:10950   */\n      0x7f\n        /* \"#utility.yul\":10938:10944   */\n      dup3\n        /* \"#utility.yul\":10934:10951   */\n      and\n        /* \"#utility.yul\":10924:10951   */\n      swap2\n      pop\n        /* \"#utility.yul\":10892:10953   */\n    tag_757:\n        /* \"#utility.yul\":10999:11001   */\n      0x20\n        /* \"#utility.yul\":10991:10997   */\n      dup3\n        /* \"#utility.yul\":10988:11002   */\n      lt\n        /* \"#utility.yul\":10968:10986   */\n      dup2\n        /* \"#utility.yul\":10965:11003   */\n      sub\n        /* \"#utility.yul\":10962:11123   */\n      tag_758\n      jumpi\n        /* \"#utility.yul\":11045:11055   */\n      0x4e487b71\n        /* \"#utility.yul\":11040:11043   */\n      0xe0\n        /* \"#utility.yul\":11036:11056   */\n      shl\n        /* \"#utility.yul\":11033:11034   */\n      0x00\n        /* \"#utility.yul\":11026:11057   */\n      mstore\n        /* \"#utility.yul\":11080:11084   */\n      0x22\n        /* \"#utility.yul\":11077:11078   */\n      0x04\n        /* \"#utility.yul\":11070:11085   */\n      mstore\n        /* \"#utility.yul\":11108:11112   */\n      0x24\n        /* \"#utility.yul\":11105:11106   */\n      0x00\n        /* \"#utility.yul\":11098:11113   */\n      revert\n        /* \"#utility.yul\":10962:11123   */\n    tag_758:\n      pop\n        /* \"#utility.yul\":10749:11129   */\n      swap2\n      swap1\n      pop\n      jump\t// out\n        /* \"#utility.yul\":12175:12302   */\n    tag_254:\n        /* \"#utility.yul\":12236:12246   */\n      0x4e487b71\n        /* \"#utility.yul\":12231:12234   */\n      0xe0\n        /* \"#utility.yul\":12227:12247   */\n      shl\n        /* \"#utility.yul\":12224:12225   */\n      0x00\n        /* \"#utility.yul\":12217:12248   */\n      mstore\n        /* \"#utility.yul\":12267:12271   */\n      0x32\n        /* \"#utility.yul\":12264:12265   */\n      0x04\n        /* \"#utility.yul\":12257:12272   */\n      mstore\n        /* \"#utility.yul\":12291:12295   */\n      0x24\n        /* \"#utility.yul\":12288:12289   */\n      0x00\n        /* \"#utility.yul\":12281:12296   */\n      revert\n        /* \"#utility.yul\":12307:12434   */\n    tag_651:\n        /* \"#utility.yul\":12368:12378   */\n      0x4e487b71\n        /* \"#utility.yul\":12363:12366   */\n      0xe0\n        /* \"#utility.yul\":12359:12379   */\n      shl\n        /* \"#utility.yul\":12356:12357   */\n      0x00\n        /* \"#utility.yul\":12349:12380   */\n      mstore\n        /* \"#utility.yul\":12399:12403   */\n      0x11\n        /* \"#utility.yul\":12396:12397   */\n      0x04\n        /* \"#utility.yul\":12389:12404   */\n      mstore\n        /* \"#utility.yul\":12423:12427   */\n      0x24\n        /* \"#utility.yul\":12420:12421   */\n      0x00\n        /* \"#utility.yul\":12413:12428   */\n      revert\n        /* \"#utility.yul\":12439:12607   */\n    tag_259:\n        /* \"#utility.yul\":12479:12486   */\n      0x00\n        /* \"#utility.yul\":12545:12546   */\n      dup2\n        /* \"#utility.yul\":12541:12542   */\n      0x00\n        /* \"#utility.yul\":12537:12543   */\n      not\n        /* \"#utility.yul\":12533:12547   */\n      div\n        /* \"#utility.yul\":12530:12531   */\n      dup4\n        /* \"#utility.yul\":12527:12548   */\n      gt\n        /* \"#utility.yul\":12522:12523   */\n      dup3\n        /* \"#utility.yul\":12515:12524   */\n      iszero\n        /* \"#utility.yul\":12508:12525   */\n      iszero\n        /* \"#utility.yul\":12504:12549   */\n      and\n        /* \"#utility.yul\":12501:12572   */\n      iszero\n      tag_766\n      jumpi\n        /* \"#utility.yul\":12552:12570   */\n      tag_766\n      tag_651\n      jump\t// in\n    tag_766:\n      pop\n        /* \"#utility.yul\":12592:12601   */\n      mul\n      swap1\n        /* \"#utility.yul\":12439:12607   */\n      jump\t// out\n        /* \"#utility.yul\":12612:12739   */\n    tag_652:\n        /* \"#utility.yul\":12673:12683   */\n      0x4e487b71\n        /* \"#utility.yul\":12668:12671   */\n      0xe0\n        /* \"#utility.yul\":12664:12684   */\n      shl\n        /* \"#utility.yul\":12661:12662   */\n      0x00\n        /* \"#utility.yul\":12654:12685   */\n      mstore\n        /* \"#utility.yul\":12704:12708   */\n      0x12\n        /* \"#utility.yul\":12701:12702   */\n      0x04\n        /* \"#utility.yul\":12694:12709   */\n      mstore\n        /* \"#utility.yul\":12728:12732   */\n      0x24\n        /* \"#utility.yul\":12725:12726   */\n      0x00\n        /* \"#utility.yul\":12718:12733   */\n      revert\n        /* \"#utility.yul\":12744:12864   */\n    tag_261:\n        /* \"#utility.yul\":12784:12785   */\n      0x00\n        /* \"#utility.yul\":12810:12811   */\n      dup3\n        /* \"#utility.yul\":12800:12835   */\n      tag_770\n      jumpi\n        /* \"#utility.yul\":12815:12833   */\n      tag_770\n      tag_652\n      jump\t// in\n    tag_770:\n      pop\n        /* \"#utility.yul\":12849:12858   */\n      div\n      swap1\n        /* \"#utility.yul\":12744:12864   */\n      jump\t// out\n        /* \"#utility.yul\":13633:14154   */\n    tag_371:\n        /* \"#utility.yul\":13710:13714   */\n      0x00\n        /* \"#utility.yul\":13716:13722   */\n      dup1\n        /* \"#utility.yul\":13776:13787   */\n      dup4\n        /* \"#utility.yul\":13763:13788   */\n      calldataload\n        /* \"#utility.yul\":13870:13872   */\n      0x1e\n        /* \"#utility.yul\":13866:13873   */\n      not\n        /* \"#utility.yul\":13855:13863   */\n      dup5\n        /* \"#utility.yul\":13839:13853   */\n      calldatasize\n        /* \"#utility.yul\":13835:13864   */\n      sub\n        /* \"#utility.yul\":13831:13874   */\n      add\n        /* \"#utility.yul\":13811:13829   */\n      dup2\n        /* \"#utility.yul\":13807:13875   */\n      slt\n        /* \"#utility.yul\":13797:13893   */\n      tag_774\n      jumpi\n        /* \"#utility.yul\":13889:13890   */\n      0x00\n        /* \"#utility.yul\":13886:13887   */\n      dup1\n        /* \"#utility.yul\":13879:13891   */\n      revert\n        /* \"#utility.yul\":13797:13893   */\n    tag_774:\n        /* \"#utility.yul\":13916:13949   */\n      dup4\n      add\n        /* \"#utility.yul\":13968:13988   */\n      dup1\n      calldataload\n      swap2\n      pop\n        /* \"#utility.yul\":14011:14029   */\n      0xffffffffffffffff\n        /* \"#utility.yul\":14000:14030   */\n      dup3\n      gt\n        /* \"#utility.yul\":13997:14047   */\n      iszero\n      tag_775\n      jumpi\n        /* \"#utility.yul\":14043:14044   */\n      0x00\n        /* \"#utility.yul\":14040:14041   */\n      dup1\n        /* \"#utility.yul\":14033:14045   */\n      revert\n        /* \"#utility.yul\":13997:14047   */\n    tag_775:\n        /* \"#utility.yul\":14076:14080   */\n      0x20\n        /* \"#utility.yul\":14064:14081   */\n      add\n      swap2\n      pop\n        /* \"#utility.yul\":14107:14121   */\n      calldatasize\n        /* \"#utility.yul\":14103:14130   */\n      dup2\n      swap1\n      sub\n        /* \"#utility.yul\":14093:14131   */\n      dup3\n      sgt\n        /* \"#utility.yul\":14090:14148   */\n      iszero\n      tag_776\n      jumpi\n        /* \"#utility.yul\":14144:14145   */\n      0x00\n        /* \"#utility.yul\":14141:14142   */\n      dup1\n        /* \"#utility.yul\":14134:14146   */\n      revert\n        /* \"#utility.yul\":14090:14148   */\n    tag_776:\n        /* \"#utility.yul\":13633:14154   */\n      swap3\n      pop\n      swap3\n      swap1\n      pop\n      jump\t// out\n        /* \"#utility.yul\":14159:14294   */\n    tag_376:\n        /* \"#utility.yul\":14198:14201   */\n      0x00\n        /* \"#utility.yul\":14219:14236   */\n      0x01\n      dup3\n      add\n        /* \"#utility.yul\":14216:14259   */\n      tag_779\n      jumpi\n        /* \"#utility.yul\":14239:14257   */\n      tag_779\n      tag_651\n      jump\t// in\n    tag_779:\n      pop\n        /* \"#utility.yul\":14286:14287   */\n      0x01\n        /* \"#utility.yul\":14275:14288   */\n      add\n      swap1\n        /* \"#utility.yul\":14159:14294   */\n      jump\t// out\n        /* \"#utility.yul\":14299:14769   */\n    tag_396:\n        /* \"#utility.yul\":14478:14481   */\n      0x00\n        /* \"#utility.yul\":14516:14522   */\n      dup4\n        /* \"#utility.yul\":14510:14523   */\n      mload\n        /* \"#utility.yul\":14532:14585   */\n      tag_781\n        /* \"#utility.yul\":14578:14584   */\n      dup2\n        /* \"#utility.yul\":14573:14576   */\n      dup5\n        /* \"#utility.yul\":14566:14570   */\n      0x20\n        /* \"#utility.yul\":14558:14564   */\n      dup9\n        /* \"#utility.yul\":14554:14571   */\n      add\n        /* \"#utility.yul\":14532:14585   */\n      tag_648\n      jump\t// in\n    tag_781:\n        /* \"#utility.yul\":14648:14661   */\n      dup4\n      mload\n        /* \"#utility.yul\":14607:14623   */\n      swap1\n      dup4\n      add\n      swap1\n        /* \"#utility.yul\":14670:14727   */\n      tag_782\n        /* \"#utility.yul\":14648:14661   */\n      dup2\n        /* \"#utility.yul\":14607:14623   */\n      dup4\n        /* \"#utility.yul\":14704:14708   */\n      0x20\n        /* \"#utility.yul\":14692:14709   */\n      dup9\n      add\n        /* \"#utility.yul\":14670:14727   */\n      tag_648\n      jump\t// in\n    tag_782:\n        /* \"#utility.yul\":14743:14763   */\n      add\n      swap5\n        /* \"#utility.yul\":14299:14769   */\n      swap4\n      pop\n      pop\n      pop\n      pop\n      jump\t// out\n        /* \"#utility.yul\":15450:15695   */\n    tag_442:\n        /* \"#utility.yul\":15517:15523   */\n      0x00\n        /* \"#utility.yul\":15570:15572   */\n      0x20\n        /* \"#utility.yul\":15558:15567   */\n      dup3\n        /* \"#utility.yul\":15549:15556   */\n      dup5\n        /* \"#utility.yul\":15545:15568   */\n      sub\n        /* \"#utility.yul\":15541:15573   */\n      slt\n        /* \"#utility.yul\":15538:15590   */\n      iszero\n      tag_786\n      jumpi\n        /* \"#utility.yul\":15586:15587   */\n      0x00\n        /* \"#utility.yul\":15583:15584   */\n      dup1\n        /* \"#utility.yul\":15576:15588   */\n      revert\n        /* \"#utility.yul\":15538:15590   */\n    tag_786:\n        /* \"#utility.yul\":15618:15627   */\n      dup2\n        /* \"#utility.yul\":15612:15628   */\n      mload\n        /* \"#utility.yul\":15637:15665   */\n      tag_532\n        /* \"#utility.yul\":15659:15664   */\n      dup2\n        /* \"#utility.yul\":15637:15665   */\n      tag_650\n      jump\t// in\n        /* \"#utility.yul\":16044:16172   */\n    tag_507:\n        /* \"#utility.yul\":16084:16087   */\n      0x00\n        /* \"#utility.yul\":16115:16116   */\n      dup3\n        /* \"#utility.yul\":16111:16117   */\n      not\n        /* \"#utility.yul\":16108:16109   */\n      dup3\n        /* \"#utility.yul\":16105:16118   */\n      gt\n        /* \"#utility.yul\":16102:16141   */\n      iszero\n      tag_791\n      jumpi\n        /* \"#utility.yul\":16121:16139   */\n      tag_791\n      tag_651\n      jump\t// in\n    tag_791:\n      pop\n        /* \"#utility.yul\":16157:16166   */\n      add\n      swap1\n        /* \"#utility.yul\":16044:16172   */\n      jump\t// out\n        /* \"#utility.yul\":16177:16560   */\n    tag_520:\n        /* \"#utility.yul\":16374:16376   */\n      0x40\n        /* \"#utility.yul\":16363:16372   */\n      dup2\n        /* \"#utility.yul\":16356:16377   */\n      mstore\n        /* \"#utility.yul\":16337:16341   */\n      0x00\n        /* \"#utility.yul\":16400:16445   */\n      tag_793\n        /* \"#utility.yul\":16441:16443   */\n      0x40\n        /* \"#utility.yul\":16430:16439   */\n      dup4\n        /* \"#utility.yul\":16426:16444   */\n      add\n        /* \"#utility.yul\":16418:16424   */\n      dup6\n        /* \"#utility.yul\":16400:16445   */\n      tag_649\n      jump\t// in\n    tag_793:\n        /* \"#utility.yul\":16493:16502   */\n      dup3\n        /* \"#utility.yul\":16485:16491   */\n      dup2\n        /* \"#utility.yul\":16481:16503   */\n      sub\n        /* \"#utility.yul\":16476:16478   */\n      0x20\n        /* \"#utility.yul\":16465:16474   */\n      dup5\n        /* \"#utility.yul\":16461:16479   */\n      add\n        /* \"#utility.yul\":16454:16504   */\n      mstore\n        /* \"#utility.yul\":16521:16554   */\n      tag_714\n        /* \"#utility.yul\":16547:16553   */\n      dup2\n        /* \"#utility.yul\":16539:16545   */\n      dup6\n        /* \"#utility.yul\":16521:16554   */\n      tag_649\n      jump\t// in\n        /* \"#utility.yul\":16909:17034   */\n    tag_572:\n        /* \"#utility.yul\":16949:16953   */\n      0x00\n        /* \"#utility.yul\":16977:16978   */\n      dup3\n        /* \"#utility.yul\":16974:16975   */\n      dup3\n        /* \"#utility.yul\":16971:16979   */\n      lt\n        /* \"#utility.yul\":16968:17002   */\n      iszero\n      tag_798\n      jumpi\n        /* \"#utility.yul\":16982:17000   */\n      tag_798\n      tag_651\n      jump\t// in\n    tag_798:\n      pop\n        /* \"#utility.yul\":17019:17028   */\n      sub\n      swap1\n        /* \"#utility.yul\":16909:17034   */\n      jump\t// out\n        /* \"#utility.yul\":17039:17151   */\n    tag_574:\n        /* \"#utility.yul\":17071:17072   */\n      0x00\n        /* \"#utility.yul\":17097:17098   */\n      dup3\n        /* \"#utility.yul\":17087:17122   */\n      tag_801\n      jumpi\n        /* \"#utility.yul\":17102:17120   */\n      tag_801\n      tag_652\n      jump\t// in\n    tag_801:\n      pop\n        /* \"#utility.yul\":17136:17145   */\n      mod\n      swap1\n        /* \"#utility.yul\":17039:17151   */\n      jump\t// out\n        /* \"#utility.yul\":17156:17668   */\n    tag_584:\n        /* \"#utility.yul\":17350:17354   */\n      0x00\n      sub(shl(0xa0, 0x01), 0x01)\n        /* \"#utility.yul\":17460:17462   */\n      dup1\n        /* \"#utility.yul\":17452:17458   */\n      dup8\n        /* \"#utility.yul\":17448:17463   */\n      and\n        /* \"#utility.yul\":17437:17446   */\n      dup4\n        /* \"#utility.yul\":17430:17464   */\n      mstore\n        /* \"#utility.yul\":17512:17514   */\n      dup1\n        /* \"#utility.yul\":17504:17510   */\n      dup7\n        /* \"#utility.yul\":17500:17515   */\n      and\n        /* \"#utility.yul\":17495:17497   */\n      0x20\n        /* \"#utility.yul\":17484:17493   */\n      dup5\n        /* \"#utility.yul\":17480:17498   */\n      add\n        /* \"#utility.yul\":17473:17516   */\n      mstore\n      pop\n        /* \"#utility.yul\":17552:17558   */\n      dup4\n        /* \"#utility.yul\":17547:17549   */\n      0x40\n        /* \"#utility.yul\":17536:17545   */\n      dup4\n        /* \"#utility.yul\":17532:17550   */\n      add\n        /* \"#utility.yul\":17525:17559   */\n      mstore\n        /* \"#utility.yul\":17595:17598   */\n      0x80\n        /* \"#utility.yul\":17590:17592   */\n      0x60\n        /* \"#utility.yul\":17579:17588   */\n      dup4\n        /* \"#utility.yul\":17575:17593   */\n      add\n        /* \"#utility.yul\":17568:17599   */\n      mstore\n        /* \"#utility.yul\":17616:17662   */\n      tag_627\n        /* \"#utility.yul\":17657:17660   */\n      0x80\n        /* \"#utility.yul\":17646:17655   */\n      dup4\n        /* \"#utility.yul\":17642:17661   */\n      add\n        /* \"#utility.yul\":17634:17640   */\n      dup5\n        /* \"#utility.yul\":17616:17662   */\n      tag_649\n      jump\t// in\n        /* \"#utility.yul\":17673:17922   */\n    tag_587:\n        /* \"#utility.yul\":17742:17748   */\n      0x00\n        /* \"#utility.yul\":17795:17797   */\n      0x20\n        /* \"#utility.yul\":17783:17792   */\n      dup3\n        /* \"#utility.yul\":17774:17781   */\n      dup5\n        /* \"#utility.yul\":17770:17793   */\n      sub\n        /* \"#utility.yul\":17766:17798   */\n      slt\n        /* \"#utility.yul\":17763:17815   */\n      iszero\n      tag_805\n      jumpi\n        /* \"#utility.yul\":17811:17812   */\n      0x00\n        /* \"#utility.yul\":17808:17809   */\n      dup1\n        /* \"#utility.yul\":17801:17813   */\n      revert\n        /* \"#utility.yul\":17763:17815   */\n    tag_805:\n        /* \"#utility.yul\":17843:17852   */\n      dup2\n        /* \"#utility.yul\":17837:17853   */\n      mload\n        /* \"#utility.yul\":17862:17892   */\n      tag_532\n        /* \"#utility.yul\":17886:17891   */\n      dup2\n        /* \"#utility.yul\":17862:17892   */\n      tag_647\n      jump\t// in\n        /* \"#utility.yul\":18334:18608   */\n    tag_623:\n        /* \"#utility.yul\":18463:18466   */\n      0x00\n        /* \"#utility.yul\":18501:18507   */\n      dup3\n        /* \"#utility.yul\":18495:18508   */\n      mload\n        /* \"#utility.yul\":18517:18570   */\n      tag_809\n        /* \"#utility.yul\":18563:18569   */\n      dup2\n        /* \"#utility.yul\":18558:18561   */\n      dup5\n        /* \"#utility.yul\":18551:18555   */\n      0x20\n        /* \"#utility.yul\":18543:18549   */\n      dup8\n        /* \"#utility.yul\":18539:18556   */\n      add\n        /* \"#utility.yul\":18517:18570   */\n      tag_648\n      jump\t// in\n    tag_809:\n        /* \"#utility.yul\":18586:18602   */\n      swap2\n      swap1\n      swap2\n      add\n      swap3\n        /* \"#utility.yul\":18334:18608   */\n      swap2\n      pop\n      pop\n      jump\t// out\n    stop\n    data_9884c79c9a55d6d33b9a1048656903e7f7d98575969060e539b89ef505b34c9f 68747470733a2f2f697066732e746869726477656263646e2e636f6d2f697066732f516d66586674467876556934336f553769736d48456b5252614d736d396662366b7758385268464c4d77336174792f542d506f73652e666278\n    data_9fdcd12e4b726339b32a442b0a448365d5d85c96b2d2cff917b4f66c63110398 416464726573733a206c6f772d6c6576656c2064656c65676174652063616c6c206661696c6564\n\n    auxdata: 0xa264697066735822122073ae157059640306692baf8302b5942d0550b9d02a843b010359c1452309fb6e64736f6c634300080d0033\n}\n",
    "bytecode": {
      "linkReferences": {},
      "object": "60806040523480156200001157600080fd5b506040516200334b3803806200334b8339810160408190526200003491620004bf565b83838383733cc6cdda760b79bafa08df41ecfa224f810dceb6600185858160029080519060200190620000699291906200034c565b5080516200007f9060039060208401906200034c565b506000805550506daaeb6d7670e522a718067333cd4e3b15620001cb5780156200011957604051633e9f1edf60e11b81523060048201526001600160a01b03831660248201526daaeb6d7670e522a718067333cd4e90637d3e3dbe906044015b600060405180830381600087803b158015620000fa57600080fd5b505af11580156200010f573d6000803e3d6000fd5b50505050620001cb565b6001600160a01b038216156200016a5760405163a0af290360e01b81523060048201526001600160a01b03831660248201526daaeb6d7670e522a718067333cd4e9063a0af290390604401620000df565b604051632210724360e11b81523060048201526daaeb6d7670e522a718067333cd4e90634420e48690602401600060405180830381600087803b158015620001b157600080fd5b505af1158015620001c6573d6000803e3d6000fd5b505050505b50620001d990503362000208565b620001ee826001600160801b0383166200025a565b620001fa600162000305565b5050505050505050620005a7565b600980546001600160a01b038381166001600160a01b0319831681179093556040519116919082907f8292fce18fa69edf4db7b94ea2e58241df0ae57f97e0a6c9b29067028bf92d7690600090a35050565b612710811115620002a35760405162461bcd60e51b815260206004820152600f60248201526e45786365656473206d61782062707360881b604482015260640160405180910390fd5b600a80546001600160a01b0384166001600160b01b03199091168117600160a01b61ffff851602179091556040518281527f90d7ec04bcb8978719414f82e52e4cb651db41d0e6f8cea6118c2191e6183adb9060200160405180910390a25050565b600e805460ff19168215159081179091556040519081527f38475885990d8dfe9ca01f0ef160a1b5514426eab9ddbc953a3353410ba780969060200160405180910390a150565b8280546200035a906200056b565b90600052602060002090601f0160209004810192826200037e5760008555620003c9565b82601f106200039957805160ff1916838001178555620003c9565b82800160010185558215620003c9579182015b82811115620003c9578251825591602001919060010190620003ac565b50620003d7929150620003db565b5090565b5b80821115620003d75760008155600101620003dc565b634e487b7160e01b600052604160045260246000fd5b600082601f8301126200041a57600080fd5b81516001600160401b0380821115620004375762000437620003f2565b604051601f8301601f19908116603f01168101908282118183101715620004625762000462620003f2565b816040528381526020925086838588010111156200047f57600080fd5b600091505b83821015620004a3578582018301518183018401529082019062000484565b83821115620004b55760008385830101525b9695505050505050565b60008060008060808587031215620004d657600080fd5b84516001600160401b0380821115620004ee57600080fd5b620004fc8883890162000408565b955060208701519150808211156200051357600080fd5b50620005228782880162000408565b604087015190945090506001600160a01b03811681146200054257600080fd5b60608601519092506001600160801b03811681146200056057600080fd5b939692955090935050565b600181811c908216806200058057607f821691505b602082108103620005a157634e487b7160e01b600052602260045260246000fd5b50919050565b612d9480620005b76000396000f3fe608060405234801561001057600080fd5b506004361061025b5760003560e01c80634cc157df1161014557806395d89b41116100bd578063b24f2d391161008c578063c87b56dd11610071578063c87b56dd14610546578063e8a3d48514610559578063e985e9c51461056157600080fd5b8063b24f2d3914610515578063b88d4fde1461053357600080fd5b806395d89b41146104c75780639bcf7a15146104cf578063a22cb465146104e2578063ac9650d8146104f557600080fd5b806363b45e2d11610114578063754a81d9116100f9578063754a81d9146104905780638da5cb5b146104a3578063938e3d7b146104b457600080fd5b806363b45e2d1461047557806370a082311461047d57600080fd5b80634cc157df1461040d578063504c6e0114610442578063600dd5ea1461044f5780636352211e1461046257600080fd5b80632419f51b116101d85780633b1475a7116101a757806342842e0e1161018c57806342842e0e146103d457806342966c68146103e7578063430c2081146103fa57600080fd5b80633b1475a7146103b757806341f43434146103bf57600080fd5b80632419f51b1461033f5780632a55205a1461035257806332f0cd64146103845780633a5376b61461039757600080fd5b8063095ea7b31161022f57806313feba471161021457806313feba471461030357806318160ddd1461031657806323b872dd1461032c57600080fd5b8063095ea7b3146102dd57806313af4035146102f057600080fd5b806275a3171461026057806301ffc9a71461027557806306fdde031461029d578063081812fc146102b2575b600080fd5b61027361026e3660046125b0565b61059d565b005b610288610283366004612614565b6105ca565b60405190151581526020015b60405180910390f35b6102a5610637565b6040516102949190612689565b6102c56102c036600461269c565b6106c9565b6040516001600160a01b039091168152602001610294565b6102736102eb3660046126b5565b61070d565b6102736102fe3660046126df565b610721565b6102736103113660046126fa565b610777565b600154600054035b604051908152602001610294565b61027361033a366004612767565b610817565b61031e61034d36600461269c565b61083c565b6103656103603660046127a3565b6108ba565b604080516001600160a01b039093168352602083019190915201610294565b6102736103923660046127d3565b6108f7565b6103aa6103a536600461269c565b61097a565b60405161029491906127f0565b60005461031e565b6102c56daaeb6d7670e522a718067333cd4e81565b6102736103e2366004612767565b610bd9565b6102736103f536600461269c565b610bfe565b6102886104083660046126b5565b610c09565b61042061041b36600461269c565b610c88565b604080516001600160a01b03909316835261ffff909116602083015201610294565b600e546102889060ff1681565b61027361045d3660046126b5565b610cf3565b6102c561047036600461269c565b610d46565b600c5461031e565b61031e61048b3660046126df565b610d58565b61027361049e366004612832565b610da7565b6009546001600160a01b03166102c5565b6102736104c23660046128b0565b610e1b565b6102a5610e69565b6102736104dd3660046128e5565b610e78565b6102736104f036600461290a565b610ec8565b610508610503366004612941565b610edc565b60405161029491906129b6565b600a546001600160a01b03811690600160a01b900461ffff16610420565b610273610541366004612a18565b610fd1565b6102a561055436600461269c565b610ffe565b6102a56110ec565b61028861056f366004612a74565b6001600160a01b03918216600090815260076020908152604080832093909416825291909152205460ff1690565b6000546105aa818361117a565b6105c583600160405180602001604052806000815250611201565b505050565b60006301ffc9a760e01b6001600160e01b0319831614806105fb57506380ac58cd60e01b6001600160e01b03198316145b806106165750635b5e139f60e01b6001600160e01b03198316145b8061063157506001600160e01b0319821663152a902d60e11b145b92915050565b60606002805461064690612aa7565b80601f016020809104026020016040519081016040528092919081815260200182805461067290612aa7565b80156106bf5780601f10610694576101008083540402835291602001916106bf565b820191906000526020600020905b8154815290600101906020018083116106a257829003601f168201915b5050505050905090565b60006106d4826113c9565b6106f1576040516333d1c03960e21b815260040160405180910390fd5b506000908152600660205260409020546001600160a01b031690565b81610717816113f4565b6105c583836114b8565b610729611539565b61076b5760405162461bcd60e51b815260206004820152600e60248201526d139bdd08185d5d1a1bdc9a5e995960921b60448201526064015b60405180910390fd5b61077481611566565b50565b610780836113c9565b6107cc5760405162461bcd60e51b815260206004820152601b60248201527f4d794e46543a20746f6b656e20646f6573206e6f7420657869737400000000006044820152606401610762565b600083815260106020908152604090912083516107eb9285019061245d565b50600083815260106020908152604090912082516108119260019092019184019061245d565b50505050565b826001600160a01b038116331461083157610831336113f4565b6108118484846115c5565b6000610847600c5490565b82106108955760405162461bcd60e51b815260206004820152600d60248201527f496e76616c696420696e646578000000000000000000000000000000000000006044820152606401610762565b600c82815481106108a8576108a8612ae1565b90600052602060002001549050919050565b6000806000806108c986610c88565b90945084925061ffff1690506127106108e28287612b0d565b6108ec9190612b42565b925050509250929050565b6108ff611539565b6109715760405162461bcd60e51b815260206004820152602b60248201527f4e6f7420617574686f72697a656420746f20736574206f70657261746f72207260448201527f65737472696374696f6e2e0000000000000000000000000000000000000000006064820152608401610762565b610774816115d0565b6040805180820190915260608082526020820152610997826113c9565b6109e35760405162461bcd60e51b815260206004820152601b60248201527f4d794e46543a20746f6b656e20646f6573206e6f7420657869737400000000006044820152606401610762565b600082815260106020526040902080546109fc90612aa7565b1590508015610a26575060008281526010602052604090206001018054610a2290612aa7565b1590505b15610a925760405180604001604052806040518060400160405280600681526020017f542d706f7365000000000000000000000000000000000000000000000000000081525081526020016040518060800160405280605b8152602001612cdd605b9139905292915050565b600082815260106020526040908190208151808301909252805482908290610ab990612aa7565b80601f0160208091040260200160405190810160405280929190818152602001828054610ae590612aa7565b8015610b325780601f10610b0757610100808354040283529160200191610b32565b820191906000526020600020905b815481529060010190602001808311610b1557829003601f168201915b50505050508152602001600182018054610b4b90612aa7565b80601f0160208091040260200160405190810160405280929190818152602001828054610b7790612aa7565b8015610bc45780601f10610b9957610100808354040283529160200191610bc4565b820191906000526020600020905b815481529060010190602001808311610ba757829003601f168201915b5050505050815250509050919050565b919050565b826001600160a01b0381163314610bf357610bf3336113f4565b610811848484611617565b610774816001611632565b600080610c1583610d46565b9050806001600160a01b0316846001600160a01b03161480610c5c57506001600160a01b0380821660009081526007602090815260408083209388168352929052205460ff165b80610c805750836001600160a01b0316610c75846106c9565b6001600160a01b0316145b949350505050565b6000818152600b60209081526040808320815180830190925280546001600160a01b031680835260019091015492820192909252829115610ccf5780516020820151610ce9565b600a546001600160a01b03811690600160a01b900461ffff165b9250925050915091565b610cfb611539565b610d385760405162461bcd60e51b815260206004820152600e60248201526d139bdd08185d5d1a1bdc9a5e995960921b6044820152606401610762565b610d428282611828565b5050565b6000610d51826118e6565b5192915050565b60006001600160a01b038216610d81576040516323d3ad8160e21b815260040160405180910390fd5b506001600160a01b031660009081526005602052604090205467ffffffffffffffff1690565b610daf611539565b610dfb5760405162461bcd60e51b815260206004820152601760248201527f4e6f7420617574686f72697a656420746f206d696e742e0000000000000000006044820152606401610762565b610e0e610e0760005490565b8484611a02565b5050610811848483611201565b610e23611539565b610e605760405162461bcd60e51b815260206004820152600e60248201526d139bdd08185d5d1a1bdc9a5e995960921b6044820152606401610762565b61077481611a6f565b60606003805461064690612aa7565b610e80611539565b610ebd5760405162461bcd60e51b815260206004820152600e60248201526d139bdd08185d5d1a1bdc9a5e995960921b6044820152606401610762565b6105c5838383611b51565b81610ed2816113f4565b6105c58383611c27565b60608167ffffffffffffffff811115610ef757610ef761250d565b604051908082528060200260200182016040528015610f2a57816020015b6060815260200190600190039081610f155790505b50905060005b82811015610fca57610f9a30858584818110610f4e57610f4e612ae1565b9050602002810190610f609190612b56565b8080601f016020809104026020016040519081016040528093929190818152602001838380828437600092019190915250611cbc92505050565b828281518110610fac57610fac612ae1565b60200260200101819052508080610fc290612ba4565b915050610f30565b5092915050565b836001600160a01b0381163314610feb57610feb336113f4565b610ff785858585611ce8565b5050505050565b6000818152600f602052604081208054606092919061101c90612aa7565b80601f016020809104026020016040519081016040528092919081815260200182805461104890612aa7565b80156110955780601f1061106a57610100808354040283529160200191611095565b820191906000526020600020905b81548152906001019060200180831161107857829003601f168201915b505050505090506000815111156110ac5792915050565b60006110b784611d2c565b9050806110c385611ed6565b6040516020016110d4929190612bbd565b60405160208183030381529060405292505050919050565b600880546110f990612aa7565b80601f016020809104026020016040519081016040528092919081815260200182805461112590612aa7565b80156111725780601f1061114757610100808354040283529160200191611172565b820191906000526020600020905b81548152906001019060200180831161115557829003601f168201915b505050505081565b6000828152600f60205260409020805461119390612aa7565b1590506111e25760405162461bcd60e51b815260206004820152600f60248201527f55524920616c72656164792073657400000000000000000000000000000000006044820152606401610762565b6000828152600f6020908152604090912082516105c59284019061245d565b6000546001600160a01b03841661122a57604051622e076360e81b815260040160405180910390fd5b8260000361124b5760405163b562e8dd60e01b815260040160405180910390fd5b6001600160a01b038416600081815260056020908152604080832080546fffffffffffffffffffffffffffffffff19811667ffffffffffffffff8083168b0181169182176801000000000000000067ffffffffffffffff1990941690921783900481168b01811690920217909155858452600490925290912080546001600160e01b0319168317600160a01b42909316929092029190911790558190818501903b15611374575b60405182906001600160a01b038816906000907fddf252ad1be2c89b69c2b068fc378daa952ba7f163c4a11628f55a4df523b3ef908290a461133d6000878480600101955087611fef565b61135a576040516368d2bf6b60e11b815260040160405180910390fd5b8082106112f257826000541461136f57600080fd5b6113b9565b5b6040516001830192906001600160a01b038816906000907fddf252ad1be2c89b69c2b068fc378daa952ba7f163c4a11628f55a4df523b3ef908290a4808210611375575b5060009081556108119085838684565b6000805482108015610631575050600090815260046020526040902054600160e01b900460ff161590565b600e5460ff1615610774576daaeb6d7670e522a718067333cd4e3b1561077457604051633185c44d60e21b81523060048201526001600160a01b03821660248201526daaeb6d7670e522a718067333cd4e9063c617113490604401602060405180830381865afa15801561146c573d6000803e3d6000fd5b505050506040513d601f19601f820116820180604052508101906114909190612bec565b61077457604051633b79c77360e21b81526001600160a01b0382166004820152602401610762565b60006114c382610d46565b9050806001600160a01b0316836001600160a01b0316036114f75760405163250fdee360e21b815260040160405180910390fd5b336001600160a01b0382161461152e57611511813361056f565b61152e576040516367d9dca160e11b815260040160405180910390fd5b6105c58383836120da565b600061154d6009546001600160a01b031690565b6001600160a01b0316336001600160a01b031614905090565b600980546001600160a01b0383811673ffffffffffffffffffffffffffffffffffffffff19831681179093556040519116919082907f8292fce18fa69edf4db7b94ea2e58241df0ae57f97e0a6c9b29067028bf92d7690600090a35050565b6105c5838383612143565b600e805460ff19168215159081179091556040519081527f38475885990d8dfe9ca01f0ef160a1b5514426eab9ddbc953a3353410ba780969060200160405180910390a150565b6105c583838360405180602001604052806000815250610fd1565b600061163d836118e6565b805190915082156116a3576000336001600160a01b03831614806116665750611666823361056f565b80611681575033611676866106c9565b6001600160a01b0316145b9050806116a157604051632ce44b5f60e11b815260040160405180910390fd5b505b6116af600085836120da565b6001600160a01b038082166000818152600560209081526040808320805470010000000000000000000000000000000060001967ffffffffffffffff80841691909101811667ffffffffffffffff19841681178390048216600190810183169093027fffffffffffffffff0000000000000000ffffffffffffffff0000000000000000909416179290921783558b8652600490945282852080547fffffff00ffffffffffffffffffffffffffffffffffffffffffffffffffffffff42909316600160a01b026001600160e01b03199091169097179690961716600160e01b1785559189018084529220805491949091166117de5760005482146117de578054602087015167ffffffffffffffff16600160a01b026001600160e01b03199091166001600160a01b038716171781555b5050604051869250600091506001600160a01b038416907fddf252ad1be2c89b69c2b068fc378daa952ba7f163c4a11628f55a4df523b3ef908390a4505060018054810190555050565b61271081111561186c5760405162461bcd60e51b815260206004820152600f60248201526e45786365656473206d61782062707360881b6044820152606401610762565b600a80546001600160a01b0384167fffffffffffffffffffff000000000000000000000000000000000000000000009091168117600160a01b61ffff851602179091556040518281527f90d7ec04bcb8978719414f82e52e4cb651db41d0e6f8cea6118c2191e6183adb9060200160405180910390a25050565b6040805160608101825260008082526020820181905291810191909152816000548110156119e957600081815260046020908152604091829020825160608101845290546001600160a01b0381168252600160a01b810467ffffffffffffffff1692820192909252600160e01b90910460ff161515918101829052906119e75780516001600160a01b03161561197d579392505050565b5060001901600081815260046020908152604091829020825160608101845290546001600160a01b038116808352600160a01b820467ffffffffffffffff1693830193909352600160e01b900460ff16151592810192909252156119e2579392505050565b61197d565b505b604051636f96cda160e11b815260040160405180910390fd5b600080611a0f8486612c09565b600c8054600181019091557fdf6966c971051c3d54ec59162606531493a51404a002842f56009d7e5cf4a8c7018190556000818152600d602090815260409091208551929450849350611a6692909186019061245d565b50935093915050565b600060088054611a7e90612aa7565b80601f0160208091040260200160405190810160405280929190818152602001828054611aaa90612aa7565b8015611af75780601f10611acc57610100808354040283529160200191611af7565b820191906000526020600020905b815481529060010190602001808311611ada57829003601f168201915b50508551939450611b139360089350602087019250905061245d565b507fc9c7c3fe08b88b4df9d4d47ef47d2c43d55c025a0ba88ca442580ed9e7348a168183604051611b45929190612c21565b60405180910390a15050565b612710811115611b955760405162461bcd60e51b815260206004820152600f60248201526e45786365656473206d61782062707360881b6044820152606401610762565b6040805180820182526001600160a01b0384811680835260208084018681526000898152600b83528690209451855473ffffffffffffffffffffffffffffffffffffffff1916941693909317845591516001909301929092559151838152909185917f7365cf4122f072a3365c20d54eff9b38d73c096c28e1892ec8f5b0e403a0f12d910160405180910390a3505050565b336001600160a01b03831603611c505760405163b06307db60e01b815260040160405180910390fd5b3360008181526007602090815260408083206001600160a01b03871680855290835292819020805460ff191686151590811790915590519081529192917f17307eab39ab6107e8899845ad3d59bd9653f200f220920489ca2b5937696c31910160405180910390a35050565b6060611ce18383604051806060016040528060278152602001612d3860279139612330565b9392505050565b611cf3848484612143565b6001600160a01b0383163b1561081157611d0f84848484611fef565b610811576040516368d2bf6b60e11b815260040160405180910390fd5b60606000611d39600c5490565b90506000600c805480602002602001604051908101604052809291908181526020018280548015611d8957602002820191906000526020600020905b815481526020019060010190808311611d75575b5050505050905060005b82811015611e8d57818181518110611dad57611dad612ae1565b6020026020010151851015611e7b57600d6000838381518110611dd257611dd2612ae1565b602002602001015181526020019081526020016000208054611df390612aa7565b80601f0160208091040260200160405190810160405280929190818152602001828054611e1f90612aa7565b8015611e6c5780601f10611e4157610100808354040283529160200191611e6c565b820191906000526020600020905b815481529060010190602001808311611e4f57829003601f168201915b50505050509350505050919050565b611e86600182612c09565b9050611d93565b5060405162461bcd60e51b815260206004820152600f60248201527f496e76616c696420746f6b656e496400000000000000000000000000000000006044820152606401610762565b606081600003611efd5750506040805180820190915260018152600360fc1b602082015290565b8160005b8115611f275780611f1181612ba4565b9150611f209050600a83612b42565b9150611f01565b60008167ffffffffffffffff811115611f4257611f4261250d565b6040519080825280601f01601f191660200182016040528015611f6c576020820181803683370190505b5090505b8415610c8057611f81600183612c46565b9150611f8e600a86612c5d565b611f99906030612c09565b60f81b818381518110611fae57611fae612ae1565b60200101907effffffffffffffffffffffffffffffffffffffffffffffffffffffffffffff1916908160001a905350611fe8600a86612b42565b9450611f70565b604051630a85bd0160e11b81526000906001600160a01b0385169063150b7a0290612024903390899088908890600401612c71565b6020604051808303816000875af192505050801561205f575060408051601f3d908101601f1916820190925261205c91810190612ca3565b60015b6120bd573d80801561208d576040519150601f19603f3d011682016040523d82523d6000602084013e612092565b606091505b5080516000036120b5576040516368d2bf6b60e11b815260040160405180910390fd5b805181602001fd5b6001600160e01b031916630a85bd0160e11b149050949350505050565b600082815260066020526040808220805473ffffffffffffffffffffffffffffffffffffffff19166001600160a01b0387811691821790925591518593918516917f8c5be1e5ebec7d5bd14f71427d1e84f3dd0314c0f7b2291e5b200ac8c7c3b92591a4505050565b600061214e826118e6565b9050836001600160a01b031681600001516001600160a01b0316146121855760405162a1148160e81b815260040160405180910390fd5b6000336001600160a01b03861614806121a357506121a3853361056f565b806121be5750336121b3846106c9565b6001600160a01b0316145b9050806121de57604051632ce44b5f60e11b815260040160405180910390fd5b6001600160a01b03841661220557604051633a954ecd60e21b815260040160405180910390fd5b612211600084876120da565b6001600160a01b038581166000908152600560209081526040808320805467ffffffffffffffff1980821667ffffffffffffffff92831660001901831617909255898616808652838620805493841693831660019081018416949094179055898652600490945282852080546001600160e01b031916909417600160a01b429092169190910217835587018084529220805491939091166122e75760005482146122e7578054602086015167ffffffffffffffff16600160a01b026001600160e01b03199091166001600160a01b038a16171781555b50505082846001600160a01b0316866001600160a01b03167fddf252ad1be2c89b69c2b068fc378daa952ba7f163c4a11628f55a4df523b3ef60405160405180910390a4610ff7565b60606001600160a01b0384163b6123af5760405162461bcd60e51b815260206004820152602660248201527f416464726573733a2064656c65676174652063616c6c20746f206e6f6e2d636f60448201527f6e747261637400000000000000000000000000000000000000000000000000006064820152608401610762565b600080856001600160a01b0316856040516123ca9190612cc0565b600060405180830381855af49150503d8060008114612405576040519150601f19603f3d011682016040523d82523d6000602084013e61240a565b606091505b509150915061241a828286612424565b9695505050505050565b60608315612433575081611ce1565b8251156124435782518084602001fd5b8160405162461bcd60e51b81526004016107629190612689565b82805461246990612aa7565b90600052602060002090601f01602090048101928261248b57600085556124d1565b82601f106124a457805160ff19168380011785556124d1565b828001600101855582156124d1579182015b828111156124d15782518255916020019190600101906124b6565b506124dd9291506124e1565b5090565b5b808211156124dd57600081556001016124e2565b80356001600160a01b0381168114610bd457600080fd5b634e487b7160e01b600052604160045260246000fd5b600082601f83011261253457600080fd5b813567ffffffffffffffff8082111561254f5761254f61250d565b604051601f8301601f19908116603f011681019082821181831017156125775761257761250d565b8160405283815286602085880101111561259057600080fd5b836020870160208301376000602085830101528094505050505092915050565b600080604083850312156125c357600080fd5b6125cc836124f6565b9150602083013567ffffffffffffffff8111156125e857600080fd5b6125f485828601612523565b9150509250929050565b6001600160e01b03198116811461077457600080fd5b60006020828403121561262657600080fd5b8135611ce1816125fe565b60005b8381101561264c578181015183820152602001612634565b838111156108115750506000910152565b60008151808452612675816020860160208601612631565b601f01601f19169290920160200192915050565b602081526000611ce1602083018461265d565b6000602082840312156126ae57600080fd5b5035919050565b600080604083850312156126c857600080fd5b6126d1836124f6565b946020939093013593505050565b6000602082840312156126f157600080fd5b611ce1826124f6565b60008060006060848603121561270f57600080fd5b83359250602084013567ffffffffffffffff8082111561272e57600080fd5b61273a87838801612523565b9350604086013591508082111561275057600080fd5b5061275d86828701612523565b9150509250925092565b60008060006060848603121561277c57600080fd5b612785846124f6565b9250612793602085016124f6565b9150604084013590509250925092565b600080604083850312156127b657600080fd5b50508035926020909101359150565b801515811461077457600080fd5b6000602082840312156127e557600080fd5b8135611ce1816127c5565b60208152600082516040602084015261280c606084018261265d565b90506020840151601f19848303016040850152612829828261265d565b95945050505050565b6000806000806080858703121561284857600080fd5b612851856124f6565b935060208501359250604085013567ffffffffffffffff8082111561287557600080fd5b61288188838901612523565b9350606087013591508082111561289757600080fd5b506128a487828801612523565b91505092959194509250565b6000602082840312156128c257600080fd5b813567ffffffffffffffff8111156128d957600080fd5b610c8084828501612523565b6000806000606084860312156128fa57600080fd5b83359250612793602085016124f6565b6000806040838503121561291d57600080fd5b612926836124f6565b91506020830135612936816127c5565b809150509250929050565b6000806020838503121561295457600080fd5b823567ffffffffffffffff8082111561296c57600080fd5b818501915085601f83011261298057600080fd5b81358181111561298f57600080fd5b8660208260051b85010111156129a457600080fd5b60209290920196919550909350505050565b6000602080830181845280855180835260408601915060408160051b870101925083870160005b82811015612a0b57603f198886030184526129f985835161265d565b945092850192908501906001016129dd565b5092979650505050505050565b60008060008060808587031215612a2e57600080fd5b612a37856124f6565b9350612a45602086016124f6565b925060408501359150606085013567ffffffffffffffff811115612a6857600080fd5b6128a487828801612523565b60008060408385031215612a8757600080fd5b612a90836124f6565b9150612a9e602084016124f6565b90509250929050565b600181811c90821680612abb57607f821691505b602082108103612adb57634e487b7160e01b600052602260045260246000fd5b50919050565b634e487b7160e01b600052603260045260246000fd5b634e487b7160e01b600052601160045260246000fd5b6000816000190483118215151615612b2757612b27612af7565b500290565b634e487b7160e01b600052601260045260246000fd5b600082612b5157612b51612b2c565b500490565b6000808335601e19843603018112612b6d57600080fd5b83018035915067ffffffffffffffff821115612b8857600080fd5b602001915036819003821315612b9d57600080fd5b9250929050565b600060018201612bb657612bb6612af7565b5060010190565b60008351612bcf818460208801612631565b835190830190612be3818360208801612631565b01949350505050565b600060208284031215612bfe57600080fd5b8151611ce1816127c5565b60008219821115612c1c57612c1c612af7565b500190565b604081526000612c34604083018561265d565b8281036020840152612829818561265d565b600082821015612c5857612c58612af7565b500390565b600082612c6c57612c6c612b2c565b500690565b60006001600160a01b0380871683528086166020840152508360408301526080606083015261241a608083018461265d565b600060208284031215612cb557600080fd5b8151611ce1816125fe565b60008251612cd2818460208701612631565b919091019291505056fe68747470733a2f2f697066732e746869726477656263646e2e636f6d2f697066732f516d66586674467876556934336f553769736d48456b5252614d736d396662366b7758385268464c4d77336174792f542d506f73652e666278416464726573733a206c6f772d6c6576656c2064656c65676174652063616c6c206661696c6564a264697066735822122073ae157059640306692baf8302b5942d0550b9d02a843b010359c1452309fb6e64736f6c634300080d0033",
      "opcodes": "PUSH1 0x80 PUSH1 0x40 MSTORE CALLVALUE DUP1 ISZERO PUSH3 0x11 JUMPI PUSH1 0x0 DUP1 REVERT JUMPDEST POP PUSH1 0x40 MLOAD PUSH3 0x334B CODESIZE SUB DUP1 PUSH3 0x334B DUP4 CODECOPY DUP2 ADD PUSH1 0x40 DUP2 SWAP1 MSTORE PUSH3 0x34 SWAP2 PUSH3 0x4BF JUMP JUMPDEST DUP4 DUP4 DUP4 DUP4 PUSH20 0x3CC6CDDA760B79BAFA08DF41ECFA224F810DCEB6 PUSH1 0x1 DUP6 DUP6 DUP2 PUSH1 0x2 SWAP1 DUP1 MLOAD SWAP1 PUSH1 0x20 ADD SWAP1 PUSH3 0x69 SWAP3 SWAP2 SWAP1 PUSH3 0x34C JUMP JUMPDEST POP DUP1 MLOAD PUSH3 0x7F SWAP1 PUSH1 0x3 SWAP1 PUSH1 0x20 DUP5 ADD SWAP1 PUSH3 0x34C JUMP JUMPDEST POP PUSH1 0x0 DUP1 SSTORE POP POP PUSH14 0xAAEB6D7670E522A718067333CD4E EXTCODESIZE ISZERO PUSH3 0x1CB JUMPI DUP1 ISZERO PUSH3 0x119 JUMPI PUSH1 0x40 MLOAD PUSH4 0x3E9F1EDF PUSH1 0xE1 SHL DUP2 MSTORE ADDRESS PUSH1 0x4 DUP3 ADD MSTORE PUSH1 0x1 PUSH1 0x1 PUSH1 0xA0 SHL SUB DUP4 AND PUSH1 0x24 DUP3 ADD MSTORE PUSH14 0xAAEB6D7670E522A718067333CD4E SWAP1 PUSH4 0x7D3E3DBE SWAP1 PUSH1 0x44 ADD JUMPDEST PUSH1 0x0 PUSH1 0x40 MLOAD DUP1 DUP4 SUB DUP2 PUSH1 0x0 DUP8 DUP1 EXTCODESIZE ISZERO DUP1 ISZERO PUSH3 0xFA JUMPI PUSH1 0x0 DUP1 REVERT JUMPDEST POP GAS CALL ISZERO DUP1 ISZERO PUSH3 0x10F JUMPI RETURNDATASIZE PUSH1 0x0 DUP1 RETURNDATACOPY RETURNDATASIZE PUSH1 0x0 REVERT JUMPDEST POP POP POP POP PUSH3 0x1CB JUMP JUMPDEST PUSH1 0x1 PUSH1 0x1 PUSH1 0xA0 SHL SUB DUP3 AND ISZERO PUSH3 0x16A JUMPI PUSH1 0x40 MLOAD PUSH4 0xA0AF2903 PUSH1 0xE0 SHL DUP2 MSTORE ADDRESS PUSH1 0x4 DUP3 ADD MSTORE PUSH1 0x1 PUSH1 0x1 PUSH1 0xA0 SHL SUB DUP4 AND PUSH1 0x24 DUP3 ADD MSTORE PUSH14 0xAAEB6D7670E522A718067333CD4E SWAP1 PUSH4 0xA0AF2903 SWAP1 PUSH1 0x44 ADD PUSH3 0xDF JUMP JUMPDEST PUSH1 0x40 MLOAD PUSH4 0x22107243 PUSH1 0xE1 SHL DUP2 MSTORE ADDRESS PUSH1 0x4 DUP3 ADD MSTORE PUSH14 0xAAEB6D7670E522A718067333CD4E SWAP1 PUSH4 0x4420E486 SWAP1 PUSH1 0x24 ADD PUSH1 0x0 PUSH1 0x40 MLOAD DUP1 DUP4 SUB DUP2 PUSH1 0x0 DUP8 DUP1 EXTCODESIZE ISZERO DUP1 ISZERO PUSH3 0x1B1 JUMPI PUSH1 0x0 DUP1 REVERT JUMPDEST POP GAS CALL ISZERO DUP1 ISZERO PUSH3 0x1C6 JUMPI RETURNDATASIZE PUSH1 0x0 DUP1 RETURNDATACOPY RETURNDATASIZE PUSH1 0x0 REVERT JUMPDEST POP POP POP POP JUMPDEST POP PUSH3 0x1D9 SWAP1 POP CALLER PUSH3 0x208 JUMP JUMPDEST PUSH3 0x1EE DUP3 PUSH1 0x1 PUSH1 0x1 PUSH1 0x80 SHL SUB DUP4 AND PUSH3 0x25A JUMP JUMPDEST PUSH3 0x1FA PUSH1 0x1 PUSH3 0x305 JUMP JUMPDEST POP POP POP POP POP POP POP POP PUSH3 0x5A7 JUMP JUMPDEST PUSH1 0x9 DUP1 SLOAD PUSH1 0x1 PUSH1 0x1 PUSH1 0xA0 SHL SUB DUP4 DUP2 AND PUSH1 0x1 PUSH1 0x1 PUSH1 0xA0 SHL SUB NOT DUP4 AND DUP2 OR SWAP1 SWAP4 SSTORE PUSH1 0x40 MLOAD SWAP2 AND SWAP2 SWAP1 DUP3 SWAP1 PUSH32 0x8292FCE18FA69EDF4DB7B94EA2E58241DF0AE57F97E0A6C9B29067028BF92D76 SWAP1 PUSH1 0x0 SWAP1 LOG3 POP POP JUMP JUMPDEST PUSH2 0x2710 DUP2 GT ISZERO PUSH3 0x2A3 JUMPI PUSH1 0x40 MLOAD PUSH3 0x461BCD PUSH1 0xE5 SHL DUP2 MSTORE PUSH1 0x20 PUSH1 0x4 DUP3 ADD MSTORE PUSH1 0xF PUSH1 0x24 DUP3 ADD MSTORE PUSH15 0x45786365656473206D617820627073 PUSH1 0x88 SHL PUSH1 0x44 DUP3 ADD MSTORE PUSH1 0x64 ADD PUSH1 0x40 MLOAD DUP1 SWAP2 SUB SWAP1 REVERT JUMPDEST PUSH1 0xA DUP1 SLOAD PUSH1 0x1 PUSH1 0x1 PUSH1 0xA0 SHL SUB DUP5 AND PUSH1 0x1 PUSH1 0x1 PUSH1 0xB0 SHL SUB NOT SWAP1 SWAP2 AND DUP2 OR PUSH1 0x1 PUSH1 0xA0 SHL PUSH2 0xFFFF DUP6 AND MUL OR SWAP1 SWAP2 SSTORE PUSH1 0x40 MLOAD DUP3 DUP2 MSTORE PUSH32 0x90D7EC04BCB8978719414F82E52E4CB651DB41D0E6F8CEA6118C2191E6183ADB SWAP1 PUSH1 0x20 ADD PUSH1 0x40 MLOAD DUP1 SWAP2 SUB SWAP1 LOG2 POP POP JUMP JUMPDEST PUSH1 0xE DUP1 SLOAD PUSH1 0xFF NOT AND DUP3 ISZERO ISZERO SWAP1 DUP2 OR SWAP1 SWAP2 SSTORE PUSH1 0x40 MLOAD SWAP1 DUP2 MSTORE PUSH32 0x38475885990D8DFE9CA01F0EF160A1B5514426EAB9DDBC953A3353410BA78096 SWAP1 PUSH1 0x20 ADD PUSH1 0x40 MLOAD DUP1 SWAP2 SUB SWAP1 LOG1 POP JUMP JUMPDEST DUP3 DUP1 SLOAD PUSH3 0x35A SWAP1 PUSH3 0x56B JUMP JUMPDEST SWAP1 PUSH1 0x0 MSTORE PUSH1 0x20 PUSH1 0x0 KECCAK256 SWAP1 PUSH1 0x1F ADD PUSH1 0x20 SWAP1 DIV DUP2 ADD SWAP3 DUP3 PUSH3 0x37E JUMPI PUSH1 0x0 DUP6 SSTORE PUSH3 0x3C9 JUMP JUMPDEST DUP3 PUSH1 0x1F LT PUSH3 0x399 JUMPI DUP1 MLOAD PUSH1 0xFF NOT AND DUP4 DUP1 ADD OR DUP6 SSTORE PUSH3 0x3C9 JUMP JUMPDEST DUP3 DUP1 ADD PUSH1 0x1 ADD DUP6 SSTORE DUP3 ISZERO PUSH3 0x3C9 JUMPI SWAP2 DUP3 ADD JUMPDEST DUP3 DUP2 GT ISZERO PUSH3 0x3C9 JUMPI DUP3 MLOAD DUP3 SSTORE SWAP2 PUSH1 0x20 ADD SWAP2 SWAP1 PUSH1 0x1 ADD SWAP1 PUSH3 0x3AC JUMP JUMPDEST POP PUSH3 0x3D7 SWAP3 SWAP2 POP PUSH3 0x3DB JUMP JUMPDEST POP SWAP1 JUMP JUMPDEST JUMPDEST DUP1 DUP3 GT ISZERO PUSH3 0x3D7 JUMPI PUSH1 0x0 DUP2 SSTORE PUSH1 0x1 ADD PUSH3 0x3DC JUMP JUMPDEST PUSH4 0x4E487B71 PUSH1 0xE0 SHL PUSH1 0x0 MSTORE PUSH1 0x41 PUSH1 0x4 MSTORE PUSH1 0x24 PUSH1 0x0 REVERT JUMPDEST PUSH1 0x0 DUP3 PUSH1 0x1F DUP4 ADD SLT PUSH3 0x41A JUMPI PUSH1 0x0 DUP1 REVERT JUMPDEST DUP2 MLOAD PUSH1 0x1 PUSH1 0x1 PUSH1 0x40 SHL SUB DUP1 DUP3 GT ISZERO PUSH3 0x437 JUMPI PUSH3 0x437 PUSH3 0x3F2 JUMP JUMPDEST PUSH1 0x40 MLOAD PUSH1 0x1F DUP4 ADD PUSH1 0x1F NOT SWAP1 DUP2 AND PUSH1 0x3F ADD AND DUP2 ADD SWAP1 DUP3 DUP3 GT DUP2 DUP4 LT OR ISZERO PUSH3 0x462 JUMPI PUSH3 0x462 PUSH3 0x3F2 JUMP JUMPDEST DUP2 PUSH1 0x40 MSTORE DUP4 DUP2 MSTORE PUSH1 0x20 SWAP3 POP DUP7 DUP4 DUP6 DUP9 ADD ADD GT ISZERO PUSH3 0x47F JUMPI PUSH1 0x0 DUP1 REVERT JUMPDEST PUSH1 0x0 SWAP2 POP JUMPDEST DUP4 DUP3 LT ISZERO PUSH3 0x4A3 JUMPI DUP6 DUP3 ADD DUP4 ADD MLOAD DUP2 DUP4 ADD DUP5 ADD MSTORE SWAP1 DUP3 ADD SWAP1 PUSH3 0x484 JUMP JUMPDEST DUP4 DUP3 GT ISZERO PUSH3 0x4B5 JUMPI PUSH1 0x0 DUP4 DUP6 DUP4 ADD ADD MSTORE JUMPDEST SWAP7 SWAP6 POP POP POP POP POP POP JUMP JUMPDEST PUSH1 0x0 DUP1 PUSH1 0x0 DUP1 PUSH1 0x80 DUP6 DUP8 SUB SLT ISZERO PUSH3 0x4D6 JUMPI PUSH1 0x0 DUP1 REVERT JUMPDEST DUP5 MLOAD PUSH1 0x1 PUSH1 0x1 PUSH1 0x40 SHL SUB DUP1 DUP3 GT ISZERO PUSH3 0x4EE JUMPI PUSH1 0x0 DUP1 REVERT JUMPDEST PUSH3 0x4FC DUP9 DUP4 DUP10 ADD PUSH3 0x408 JUMP JUMPDEST SWAP6 POP PUSH1 0x20 DUP8 ADD MLOAD SWAP2 POP DUP1 DUP3 GT ISZERO PUSH3 0x513 JUMPI PUSH1 0x0 DUP1 REVERT JUMPDEST POP PUSH3 0x522 DUP8 DUP3 DUP9 ADD PUSH3 0x408 JUMP JUMPDEST PUSH1 0x40 DUP8 ADD MLOAD SWAP1 SWAP5 POP SWAP1 POP PUSH1 0x1 PUSH1 0x1 PUSH1 0xA0 SHL SUB DUP2 AND DUP2 EQ PUSH3 0x542 JUMPI PUSH1 0x0 DUP1 REVERT JUMPDEST PUSH1 0x60 DUP7 ADD MLOAD SWAP1 SWAP3 POP PUSH1 0x1 PUSH1 0x1 PUSH1 0x80 SHL SUB DUP2 AND DUP2 EQ PUSH3 0x560 JUMPI PUSH1 0x0 DUP1 REVERT JUMPDEST SWAP4 SWAP7 SWAP3 SWAP6 POP SWAP1 SWAP4 POP POP JUMP JUMPDEST PUSH1 0x1 DUP2 DUP2 SHR SWAP1 DUP3 AND DUP1 PUSH3 0x580 JUMPI PUSH1 0x7F DUP3 AND SWAP2 POP JUMPDEST PUSH1 0x20 DUP3 LT DUP2 SUB PUSH3 0x5A1 JUMPI PUSH4 0x4E487B71 PUSH1 0xE0 SHL PUSH1 0x0 MSTORE PUSH1 0x22 PUSH1 0x4 MSTORE PUSH1 0x24 PUSH1 0x0 REVERT JUMPDEST POP SWAP2 SWAP1 POP JUMP JUMPDEST PUSH2 0x2D94 DUP1 PUSH3 0x5B7 PUSH1 0x0 CODECOPY PUSH1 0x0 RETURN INVALID PUSH1 0x80 PUSH1 0x40 MSTORE CALLVALUE DUP1 ISZERO PUSH2 0x10 JUMPI PUSH1 0x0 DUP1 REVERT JUMPDEST POP PUSH1 0x4 CALLDATASIZE LT PUSH2 0x25B JUMPI PUSH1 0x0 CALLDATALOAD PUSH1 0xE0 SHR DUP1 PUSH4 0x4CC157DF GT PUSH2 0x145 JUMPI DUP1 PUSH4 0x95D89B41 GT PUSH2 0xBD JUMPI DUP1 PUSH4 0xB24F2D39 GT PUSH2 0x8C JUMPI DUP1 PUSH4 0xC87B56DD GT PUSH2 0x71 JUMPI DUP1 PUSH4 0xC87B56DD EQ PUSH2 0x546 JUMPI DUP1 PUSH4 0xE8A3D485 EQ PUSH2 0x559 JUMPI DUP1 PUSH4 0xE985E9C5 EQ PUSH2 0x561 JUMPI PUSH1 0x0 DUP1 REVERT JUMPDEST DUP1 PUSH4 0xB24F2D39 EQ PUSH2 0x515 JUMPI DUP1 PUSH4 0xB88D4FDE EQ PUSH2 0x533 JUMPI PUSH1 0x0 DUP1 REVERT JUMPDEST DUP1 PUSH4 0x95D89B41 EQ PUSH2 0x4C7 JUMPI DUP1 PUSH4 0x9BCF7A15 EQ PUSH2 0x4CF JUMPI DUP1 PUSH4 0xA22CB465 EQ PUSH2 0x4E2 JUMPI DUP1 PUSH4 0xAC9650D8 EQ PUSH2 0x4F5 JUMPI PUSH1 0x0 DUP1 REVERT JUMPDEST DUP1 PUSH4 0x63B45E2D GT PUSH2 0x114 JUMPI DUP1 PUSH4 0x754A81D9 GT PUSH2 0xF9 JUMPI DUP1 PUSH4 0x754A81D9 EQ PUSH2 0x490 JUMPI DUP1 PUSH4 0x8DA5CB5B EQ PUSH2 0x4A3 JUMPI DUP1 PUSH4 0x938E3D7B EQ PUSH2 0x4B4 JUMPI PUSH1 0x0 DUP1 REVERT JUMPDEST DUP1 PUSH4 0x63B45E2D EQ PUSH2 0x475 JUMPI DUP1 PUSH4 0x70A08231 EQ PUSH2 0x47D JUMPI PUSH1 0x0 DUP1 REVERT JUMPDEST DUP1 PUSH4 0x4CC157DF EQ PUSH2 0x40D JUMPI DUP1 PUSH4 0x504C6E01 EQ PUSH2 0x442 JUMPI DUP1 PUSH4 0x600DD5EA EQ PUSH2 0x44F JUMPI DUP1 PUSH4 0x6352211E EQ PUSH2 0x462 JUMPI PUSH1 0x0 DUP1 REVERT JUMPDEST DUP1 PUSH4 0x2419F51B GT PUSH2 0x1D8 JUMPI DUP1 PUSH4 0x3B1475A7 GT PUSH2 0x1A7 JUMPI DUP1 PUSH4 0x42842E0E GT PUSH2 0x18C JUMPI DUP1 PUSH4 0x42842E0E EQ PUSH2 0x3D4 JUMPI DUP1 PUSH4 0x42966C68 EQ PUSH2 0x3E7 JUMPI DUP1 PUSH4 0x430C2081 EQ PUSH2 0x3FA JUMPI PUSH1 0x0 DUP1 REVERT JUMPDEST DUP1 PUSH4 0x3B1475A7 EQ PUSH2 0x3B7 JUMPI DUP1 PUSH4 0x41F43434 EQ PUSH2 0x3BF JUMPI PUSH1 0x0 DUP1 REVERT JUMPDEST DUP1 PUSH4 0x2419F51B EQ PUSH2 0x33F JUMPI DUP1 PUSH4 0x2A55205A EQ PUSH2 0x352 JUMPI DUP1 PUSH4 0x32F0CD64 EQ PUSH2 0x384 JUMPI DUP1 PUSH4 0x3A5376B6 EQ PUSH2 0x397 JUMPI PUSH1 0x0 DUP1 REVERT JUMPDEST DUP1 PUSH4 0x95EA7B3 GT PUSH2 0x22F JUMPI DUP1 PUSH4 0x13FEBA47 GT PUSH2 0x214 JUMPI DUP1 PUSH4 0x13FEBA47 EQ PUSH2 0x303 JUMPI DUP1 PUSH4 0x18160DDD EQ PUSH2 0x316 JUMPI DUP1 PUSH4 0x23B872DD EQ PUSH2 0x32C JUMPI PUSH1 0x0 DUP1 REVERT JUMPDEST DUP1 PUSH4 0x95EA7B3 EQ PUSH2 0x2DD JUMPI DUP1 PUSH4 0x13AF4035 EQ PUSH2 0x2F0 JUMPI PUSH1 0x0 DUP1 REVERT JUMPDEST DUP1 PUSH3 0x75A317 EQ PUSH2 0x260 JUMPI DUP1 PUSH4 0x1FFC9A7 EQ PUSH2 0x275 JUMPI DUP1 PUSH4 0x6FDDE03 EQ PUSH2 0x29D JUMPI DUP1 PUSH4 0x81812FC EQ PUSH2 0x2B2 JUMPI JUMPDEST PUSH1 0x0 DUP1 REVERT JUMPDEST PUSH2 0x273 PUSH2 0x26E CALLDATASIZE PUSH1 0x4 PUSH2 0x25B0 JUMP JUMPDEST PUSH2 0x59D JUMP JUMPDEST STOP JUMPDEST PUSH2 0x288 PUSH2 0x283 CALLDATASIZE PUSH1 0x4 PUSH2 0x2614 JUMP JUMPDEST PUSH2 0x5CA JUMP JUMPDEST PUSH1 0x40 MLOAD SWAP1 ISZERO ISZERO DUP2 MSTORE PUSH1 0x20 ADD JUMPDEST PUSH1 0x40 MLOAD DUP1 SWAP2 SUB SWAP1 RETURN JUMPDEST PUSH2 0x2A5 PUSH2 0x637 JUMP JUMPDEST PUSH1 0x40 MLOAD PUSH2 0x294 SWAP2 SWAP1 PUSH2 0x2689 JUMP JUMPDEST PUSH2 0x2C5 PUSH2 0x2C0 CALLDATASIZE PUSH1 0x4 PUSH2 0x269C JUMP JUMPDEST PUSH2 0x6C9 JUMP JUMPDEST PUSH1 0x40 MLOAD PUSH1 0x1 PUSH1 0x1 PUSH1 0xA0 SHL SUB SWAP1 SWAP2 AND DUP2 MSTORE PUSH1 0x20 ADD PUSH2 0x294 JUMP JUMPDEST PUSH2 0x273 PUSH2 0x2EB CALLDATASIZE PUSH1 0x4 PUSH2 0x26B5 JUMP JUMPDEST PUSH2 0x70D JUMP JUMPDEST PUSH2 0x273 PUSH2 0x2FE CALLDATASIZE PUSH1 0x4 PUSH2 0x26DF JUMP JUMPDEST PUSH2 0x721 JUMP JUMPDEST PUSH2 0x273 PUSH2 0x311 CALLDATASIZE PUSH1 0x4 PUSH2 0x26FA JUMP JUMPDEST PUSH2 0x777 JUMP JUMPDEST PUSH1 0x1 SLOAD PUSH1 0x0 SLOAD SUB JUMPDEST PUSH1 0x40 MLOAD SWAP1 DUP2 MSTORE PUSH1 0x20 ADD PUSH2 0x294 JUMP JUMPDEST PUSH2 0x273 PUSH2 0x33A CALLDATASIZE PUSH1 0x4 PUSH2 0x2767 JUMP JUMPDEST PUSH2 0x817 JUMP JUMPDEST PUSH2 0x31E PUSH2 0x34D CALLDATASIZE PUSH1 0x4 PUSH2 0x269C JUMP JUMPDEST PUSH2 0x83C JUMP JUMPDEST PUSH2 0x365 PUSH2 0x360 CALLDATASIZE PUSH1 0x4 PUSH2 0x27A3 JUMP JUMPDEST PUSH2 0x8BA JUMP JUMPDEST PUSH1 0x40 DUP1 MLOAD PUSH1 0x1 PUSH1 0x1 PUSH1 0xA0 SHL SUB SWAP1 SWAP4 AND DUP4 MSTORE PUSH1 0x20 DUP4 ADD SWAP2 SWAP1 SWAP2 MSTORE ADD PUSH2 0x294 JUMP JUMPDEST PUSH2 0x273 PUSH2 0x392 CALLDATASIZE PUSH1 0x4 PUSH2 0x27D3 JUMP JUMPDEST PUSH2 0x8F7 JUMP JUMPDEST PUSH2 0x3AA PUSH2 0x3A5 CALLDATASIZE PUSH1 0x4 PUSH2 0x269C JUMP JUMPDEST PUSH2 0x97A JUMP JUMPDEST PUSH1 0x40 MLOAD PUSH2 0x294 SWAP2 SWAP1 PUSH2 0x27F0 JUMP JUMPDEST PUSH1 0x0 SLOAD PUSH2 0x31E JUMP JUMPDEST PUSH2 0x2C5 PUSH14 0xAAEB6D7670E522A718067333CD4E DUP2 JUMP JUMPDEST PUSH2 0x273 PUSH2 0x3E2 CALLDATASIZE PUSH1 0x4 PUSH2 0x2767 JUMP JUMPDEST PUSH2 0xBD9 JUMP JUMPDEST PUSH2 0x273 PUSH2 0x3F5 CALLDATASIZE PUSH1 0x4 PUSH2 0x269C JUMP JUMPDEST PUSH2 0xBFE JUMP JUMPDEST PUSH2 0x288 PUSH2 0x408 CALLDATASIZE PUSH1 0x4 PUSH2 0x26B5 JUMP JUMPDEST PUSH2 0xC09 JUMP JUMPDEST PUSH2 0x420 PUSH2 0x41B CALLDATASIZE PUSH1 0x4 PUSH2 0x269C JUMP JUMPDEST PUSH2 0xC88 JUMP JUMPDEST PUSH1 0x40 DUP1 MLOAD PUSH1 0x1 PUSH1 0x1 PUSH1 0xA0 SHL SUB SWAP1 SWAP4 AND DUP4 MSTORE PUSH2 0xFFFF SWAP1 SWAP2 AND PUSH1 0x20 DUP4 ADD MSTORE ADD PUSH2 0x294 JUMP JUMPDEST PUSH1 0xE SLOAD PUSH2 0x288 SWAP1 PUSH1 0xFF AND DUP2 JUMP JUMPDEST PUSH2 0x273 PUSH2 0x45D CALLDATASIZE PUSH1 0x4 PUSH2 0x26B5 JUMP JUMPDEST PUSH2 0xCF3 JUMP JUMPDEST PUSH2 0x2C5 PUSH2 0x470 CALLDATASIZE PUSH1 0x4 PUSH2 0x269C JUMP JUMPDEST PUSH2 0xD46 JUMP JUMPDEST PUSH1 0xC SLOAD PUSH2 0x31E JUMP JUMPDEST PUSH2 0x31E PUSH2 0x48B CALLDATASIZE PUSH1 0x4 PUSH2 0x26DF JUMP JUMPDEST PUSH2 0xD58 JUMP JUMPDEST PUSH2 0x273 PUSH2 0x49E CALLDATASIZE PUSH1 0x4 PUSH2 0x2832 JUMP JUMPDEST PUSH2 0xDA7 JUMP JUMPDEST PUSH1 0x9 SLOAD PUSH1 0x1 PUSH1 0x1 PUSH1 0xA0 SHL SUB AND PUSH2 0x2C5 JUMP JUMPDEST PUSH2 0x273 PUSH2 0x4C2 CALLDATASIZE PUSH1 0x4 PUSH2 0x28B0 JUMP JUMPDEST PUSH2 0xE1B JUMP JUMPDEST PUSH2 0x2A5 PUSH2 0xE69 JUMP JUMPDEST PUSH2 0x273 PUSH2 0x4DD CALLDATASIZE PUSH1 0x4 PUSH2 0x28E5 JUMP JUMPDEST PUSH2 0xE78 JUMP JUMPDEST PUSH2 0x273 PUSH2 0x4F0 CALLDATASIZE PUSH1 0x4 PUSH2 0x290A JUMP JUMPDEST PUSH2 0xEC8 JUMP JUMPDEST PUSH2 0x508 PUSH2 0x503 CALLDATASIZE PUSH1 0x4 PUSH2 0x2941 JUMP JUMPDEST PUSH2 0xEDC JUMP JUMPDEST PUSH1 0x40 MLOAD PUSH2 0x294 SWAP2 SWAP1 PUSH2 0x29B6 JUMP JUMPDEST PUSH1 0xA SLOAD PUSH1 0x1 PUSH1 0x1 PUSH1 0xA0 SHL SUB DUP2 AND SWAP1 PUSH1 0x1 PUSH1 0xA0 SHL SWAP1 DIV PUSH2 0xFFFF AND PUSH2 0x420 JUMP JUMPDEST PUSH2 0x273 PUSH2 0x541 CALLDATASIZE PUSH1 0x4 PUSH2 0x2A18 JUMP JUMPDEST PUSH2 0xFD1 JUMP JUMPDEST PUSH2 0x2A5 PUSH2 0x554 CALLDATASIZE PUSH1 0x4 PUSH2 0x269C JUMP JUMPDEST PUSH2 0xFFE JUMP JUMPDEST PUSH2 0x2A5 PUSH2 0x10EC JUMP JUMPDEST PUSH2 0x288 PUSH2 0x56F CALLDATASIZE PUSH1 0x4 PUSH2 0x2A74 JUMP JUMPDEST PUSH1 0x1 PUSH1 0x1 PUSH1 0xA0 SHL SUB SWAP2 DUP3 AND PUSH1 0x0 SWAP1 DUP2 MSTORE PUSH1 0x7 PUSH1 0x20 SWAP1 DUP2 MSTORE PUSH1 0x40 DUP1 DUP4 KECCAK256 SWAP4 SWAP1 SWAP5 AND DUP3 MSTORE SWAP2 SWAP1 SWAP2 MSTORE KECCAK256 SLOAD PUSH1 0xFF AND SWAP1 JUMP JUMPDEST PUSH1 0x0 SLOAD PUSH2 0x5AA DUP2 DUP4 PUSH2 0x117A JUMP JUMPDEST PUSH2 0x5C5 DUP4 PUSH1 0x1 PUSH1 0x40 MLOAD DUP1 PUSH1 0x20 ADD PUSH1 0x40 MSTORE DUP1 PUSH1 0x0 DUP2 MSTORE POP PUSH2 0x1201 JUMP JUMPDEST POP POP POP JUMP JUMPDEST PUSH1 0x0 PUSH4 0x1FFC9A7 PUSH1 0xE0 SHL PUSH1 0x1 PUSH1 0x1 PUSH1 0xE0 SHL SUB NOT DUP4 AND EQ DUP1 PUSH2 0x5FB JUMPI POP PUSH4 0x80AC58CD PUSH1 0xE0 SHL PUSH1 0x1 PUSH1 0x1 PUSH1 0xE0 SHL SUB NOT DUP4 AND EQ JUMPDEST DUP1 PUSH2 0x616 JUMPI POP PUSH4 0x5B5E139F PUSH1 0xE0 SHL PUSH1 0x1 PUSH1 0x1 PUSH1 0xE0 SHL SUB NOT DUP4 AND EQ JUMPDEST DUP1 PUSH2 0x631 JUMPI POP PUSH1 0x1 PUSH1 0x1 PUSH1 0xE0 SHL SUB NOT DUP3 AND PUSH4 0x152A902D PUSH1 0xE1 SHL EQ JUMPDEST SWAP3 SWAP2 POP POP JUMP JUMPDEST PUSH1 0x60 PUSH1 0x2 DUP1 SLOAD PUSH2 0x646 SWAP1 PUSH2 0x2AA7 JUMP JUMPDEST DUP1 PUSH1 0x1F ADD PUSH1 0x20 DUP1 SWAP2 DIV MUL PUSH1 0x20 ADD PUSH1 0x40 MLOAD SWAP1 DUP2 ADD PUSH1 0x40 MSTORE DUP1 SWAP3 SWAP2 SWAP1 DUP2 DUP2 MSTORE PUSH1 0x20 ADD DUP3 DUP1 SLOAD PUSH2 0x672 SWAP1 PUSH2 0x2AA7 JUMP JUMPDEST DUP1 ISZERO PUSH2 0x6BF JUMPI DUP1 PUSH1 0x1F LT PUSH2 0x694 JUMPI PUSH2 0x100 DUP1 DUP4 SLOAD DIV MUL DUP4 MSTORE SWAP2 PUSH1 0x20 ADD SWAP2 PUSH2 0x6BF JUMP JUMPDEST DUP3 ADD SWAP2 SWAP1 PUSH1 0x0 MSTORE PUSH1 0x20 PUSH1 0x0 KECCAK256 SWAP1 JUMPDEST DUP2 SLOAD DUP2 MSTORE SWAP1 PUSH1 0x1 ADD SWAP1 PUSH1 0x20 ADD DUP1 DUP4 GT PUSH2 0x6A2 JUMPI DUP3 SWAP1 SUB PUSH1 0x1F AND DUP3 ADD SWAP2 JUMPDEST POP POP POP POP POP SWAP1 POP SWAP1 JUMP JUMPDEST PUSH1 0x0 PUSH2 0x6D4 DUP3 PUSH2 0x13C9 JUMP JUMPDEST PUSH2 0x6F1 JUMPI PUSH1 0x40 MLOAD PUSH4 0x33D1C039 PUSH1 0xE2 SHL DUP2 MSTORE PUSH1 0x4 ADD PUSH1 0x40 MLOAD DUP1 SWAP2 SUB SWAP1 REVERT JUMPDEST POP PUSH1 0x0 SWAP1 DUP2 MSTORE PUSH1 0x6 PUSH1 0x20 MSTORE PUSH1 0x40 SWAP1 KECCAK256 SLOAD PUSH1 0x1 PUSH1 0x1 PUSH1 0xA0 SHL SUB AND SWAP1 JUMP JUMPDEST DUP2 PUSH2 0x717 DUP2 PUSH2 0x13F4 JUMP JUMPDEST PUSH2 0x5C5 DUP4 DUP4 PUSH2 0x14B8 JUMP JUMPDEST PUSH2 0x729 PUSH2 0x1539 JUMP JUMPDEST PUSH2 0x76B JUMPI PUSH1 0x40 MLOAD PUSH3 0x461BCD PUSH1 0xE5 SHL DUP2 MSTORE PUSH1 0x20 PUSH1 0x4 DUP3 ADD MSTORE PUSH1 0xE PUSH1 0x24 DUP3 ADD MSTORE PUSH14 0x139BDD08185D5D1A1BDC9A5E9959 PUSH1 0x92 SHL PUSH1 0x44 DUP3 ADD MSTORE PUSH1 0x64 ADD JUMPDEST PUSH1 0x40 MLOAD DUP1 SWAP2 SUB SWAP1 REVERT JUMPDEST PUSH2 0x774 DUP2 PUSH2 0x1566 JUMP JUMPDEST POP JUMP JUMPDEST PUSH2 0x780 DUP4 PUSH2 0x13C9 JUMP JUMPDEST PUSH2 0x7CC JUMPI PUSH1 0x40 MLOAD PUSH3 0x461BCD PUSH1 0xE5 SHL DUP2 MSTORE PUSH1 0x20 PUSH1 0x4 DUP3 ADD MSTORE PUSH1 0x1B PUSH1 0x24 DUP3 ADD MSTORE PUSH32 0x4D794E46543A20746F6B656E20646F6573206E6F742065786973740000000000 PUSH1 0x44 DUP3 ADD MSTORE PUSH1 0x64 ADD PUSH2 0x762 JUMP JUMPDEST PUSH1 0x0 DUP4 DUP2 MSTORE PUSH1 0x10 PUSH1 0x20 SWAP1 DUP2 MSTORE PUSH1 0x40 SWAP1 SWAP2 KECCAK256 DUP4 MLOAD PUSH2 0x7EB SWAP3 DUP6 ADD SWAP1 PUSH2 0x245D JUMP JUMPDEST POP PUSH1 0x0 DUP4 DUP2 MSTORE PUSH1 0x10 PUSH1 0x20 SWAP1 DUP2 MSTORE PUSH1 0x40 SWAP1 SWAP2 KECCAK256 DUP3 MLOAD PUSH2 0x811 SWAP3 PUSH1 0x1 SWAP1 SWAP3 ADD SWAP2 DUP5 ADD SWAP1 PUSH2 0x245D JUMP JUMPDEST POP POP POP POP JUMP JUMPDEST DUP3 PUSH1 0x1 PUSH1 0x1 PUSH1 0xA0 SHL SUB DUP2 AND CALLER EQ PUSH2 0x831 JUMPI PUSH2 0x831 CALLER PUSH2 0x13F4 JUMP JUMPDEST PUSH2 0x811 DUP5 DUP5 DUP5 PUSH2 0x15C5 JUMP JUMPDEST PUSH1 0x0 PUSH2 0x847 PUSH1 0xC SLOAD SWAP1 JUMP JUMPDEST DUP3 LT PUSH2 0x895 JUMPI PUSH1 0x40 MLOAD PUSH3 0x461BCD PUSH1 0xE5 SHL DUP2 MSTORE PUSH1 0x20 PUSH1 0x4 DUP3 ADD MSTORE PUSH1 0xD PUSH1 0x24 DUP3 ADD MSTORE PUSH32 0x496E76616C696420696E64657800000000000000000000000000000000000000 PUSH1 0x44 DUP3 ADD MSTORE PUSH1 0x64 ADD PUSH2 0x762 JUMP JUMPDEST PUSH1 0xC DUP3 DUP2 SLOAD DUP2 LT PUSH2 0x8A8 JUMPI PUSH2 0x8A8 PUSH2 0x2AE1 JUMP JUMPDEST SWAP1 PUSH1 0x0 MSTORE PUSH1 0x20 PUSH1 0x0 KECCAK256 ADD SLOAD SWAP1 POP SWAP2 SWAP1 POP JUMP JUMPDEST PUSH1 0x0 DUP1 PUSH1 0x0 DUP1 PUSH2 0x8C9 DUP7 PUSH2 0xC88 JUMP JUMPDEST SWAP1 SWAP5 POP DUP5 SWAP3 POP PUSH2 0xFFFF AND SWAP1 POP PUSH2 0x2710 PUSH2 0x8E2 DUP3 DUP8 PUSH2 0x2B0D JUMP JUMPDEST PUSH2 0x8EC SWAP2 SWAP1 PUSH2 0x2B42 JUMP JUMPDEST SWAP3 POP POP POP SWAP3 POP SWAP3 SWAP1 POP JUMP JUMPDEST PUSH2 0x8FF PUSH2 0x1539 JUMP JUMPDEST PUSH2 0x971 JUMPI PUSH1 0x40 MLOAD PUSH3 0x461BCD PUSH1 0xE5 SHL DUP2 MSTORE PUSH1 0x20 PUSH1 0x4 DUP3 ADD MSTORE PUSH1 0x2B PUSH1 0x24 DUP3 ADD MSTORE PUSH32 0x4E6F7420617574686F72697A656420746F20736574206F70657261746F722072 PUSH1 0x44 DUP3 ADD MSTORE PUSH32 0x65737472696374696F6E2E000000000000000000000000000000000000000000 PUSH1 0x64 DUP3 ADD MSTORE PUSH1 0x84 ADD PUSH2 0x762 JUMP JUMPDEST PUSH2 0x774 DUP2 PUSH2 0x15D0 JUMP JUMPDEST PUSH1 0x40 DUP1 MLOAD DUP1 DUP3 ADD SWAP1 SWAP2 MSTORE PUSH1 0x60 DUP1 DUP3 MSTORE PUSH1 0x20 DUP3 ADD MSTORE PUSH2 0x997 DUP3 PUSH2 0x13C9 JUMP JUMPDEST PUSH2 0x9E3 JUMPI PUSH1 0x40 MLOAD PUSH3 0x461BCD PUSH1 0xE5 SHL DUP2 MSTORE PUSH1 0x20 PUSH1 0x4 DUP3 ADD MSTORE PUSH1 0x1B PUSH1 0x24 DUP3 ADD MSTORE PUSH32 0x4D794E46543A20746F6B656E20646F6573206E6F742065786973740000000000 PUSH1 0x44 DUP3 ADD MSTORE PUSH1 0x64 ADD PUSH2 0x762 JUMP JUMPDEST PUSH1 0x0 DUP3 DUP2 MSTORE PUSH1 0x10 PUSH1 0x20 MSTORE PUSH1 0x40 SWAP1 KECCAK256 DUP1 SLOAD PUSH2 0x9FC SWAP1 PUSH2 0x2AA7 JUMP JUMPDEST ISZERO SWAP1 POP DUP1 ISZERO PUSH2 0xA26 JUMPI POP PUSH1 0x0 DUP3 DUP2 MSTORE PUSH1 0x10 PUSH1 0x20 MSTORE PUSH1 0x40 SWAP1 KECCAK256 PUSH1 0x1 ADD DUP1 SLOAD PUSH2 0xA22 SWAP1 PUSH2 0x2AA7 JUMP JUMPDEST ISZERO SWAP1 POP JUMPDEST ISZERO PUSH2 0xA92 JUMPI PUSH1 0x40 MLOAD DUP1 PUSH1 0x40 ADD PUSH1 0x40 MSTORE DUP1 PUSH1 0x40 MLOAD DUP1 PUSH1 0x40 ADD PUSH1 0x40 MSTORE DUP1 PUSH1 0x6 DUP2 MSTORE PUSH1 0x20 ADD PUSH32 0x542D706F73650000000000000000000000000000000000000000000000000000 DUP2 MSTORE POP DUP2 MSTORE PUSH1 0x20 ADD PUSH1 0x40 MLOAD DUP1 PUSH1 0x80 ADD PUSH1 0x40 MSTORE DUP1 PUSH1 0x5B DUP2 MSTORE PUSH1 0x20 ADD PUSH2 0x2CDD PUSH1 0x5B SWAP2 CODECOPY SWAP1 MSTORE SWAP3 SWAP2 POP POP JUMP JUMPDEST PUSH1 0x0 DUP3 DUP2 MSTORE PUSH1 0x10 PUSH1 0x20 MSTORE PUSH1 0x40 SWAP1 DUP2 SWAP1 KECCAK256 DUP2 MLOAD DUP1 DUP4 ADD SWAP1 SWAP3 MSTORE DUP1 SLOAD DUP3 SWAP1 DUP3 SWAP1 PUSH2 0xAB9 SWAP1 PUSH2 0x2AA7 JUMP JUMPDEST DUP1 PUSH1 0x1F ADD PUSH1 0x20 DUP1 SWAP2 DIV MUL PUSH1 0x20 ADD PUSH1 0x40 MLOAD SWAP1 DUP2 ADD PUSH1 0x40 MSTORE DUP1 SWAP3 SWAP2 SWAP1 DUP2 DUP2 MSTORE PUSH1 0x20 ADD DUP3 DUP1 SLOAD PUSH2 0xAE5 SWAP1 PUSH2 0x2AA7 JUMP JUMPDEST DUP1 ISZERO PUSH2 0xB32 JUMPI DUP1 PUSH1 0x1F LT PUSH2 0xB07 JUMPI PUSH2 0x100 DUP1 DUP4 SLOAD DIV MUL DUP4 MSTORE SWAP2 PUSH1 0x20 ADD SWAP2 PUSH2 0xB32 JUMP JUMPDEST DUP3 ADD SWAP2 SWAP1 PUSH1 0x0 MSTORE PUSH1 0x20 PUSH1 0x0 KECCAK256 SWAP1 JUMPDEST DUP2 SLOAD DUP2 MSTORE SWAP1 PUSH1 0x1 ADD SWAP1 PUSH1 0x20 ADD DUP1 DUP4 GT PUSH2 0xB15 JUMPI DUP3 SWAP1 SUB PUSH1 0x1F AND DUP3 ADD SWAP2 JUMPDEST POP POP POP POP POP DUP2 MSTORE PUSH1 0x20 ADD PUSH1 0x1 DUP3 ADD DUP1 SLOAD PUSH2 0xB4B SWAP1 PUSH2 0x2AA7 JUMP JUMPDEST DUP1 PUSH1 0x1F ADD PUSH1 0x20 DUP1 SWAP2 DIV MUL PUSH1 0x20 ADD PUSH1 0x40 MLOAD SWAP1 DUP2 ADD PUSH1 0x40 MSTORE DUP1 SWAP3 SWAP2 SWAP1 DUP2 DUP2 MSTORE PUSH1 0x20 ADD DUP3 DUP1 SLOAD PUSH2 0xB77 SWAP1 PUSH2 0x2AA7 JUMP JUMPDEST DUP1 ISZERO PUSH2 0xBC4 JUMPI DUP1 PUSH1 0x1F LT PUSH2 0xB99 JUMPI PUSH2 0x100 DUP1 DUP4 SLOAD DIV MUL DUP4 MSTORE SWAP2 PUSH1 0x20 ADD SWAP2 PUSH2 0xBC4 JUMP JUMPDEST DUP3 ADD SWAP2 SWAP1 PUSH1 0x0 MSTORE PUSH1 0x20 PUSH1 0x0 KECCAK256 SWAP1 JUMPDEST DUP2 SLOAD DUP2 MSTORE SWAP1 PUSH1 0x1 ADD SWAP1 PUSH1 0x20 ADD DUP1 DUP4 GT PUSH2 0xBA7 JUMPI DUP3 SWAP1 SUB PUSH1 0x1F AND DUP3 ADD SWAP2 JUMPDEST POP POP POP POP POP DUP2 MSTORE POP POP SWAP1 POP SWAP2 SWAP1 POP JUMP JUMPDEST SWAP2 SWAP1 POP JUMP JUMPDEST DUP3 PUSH1 0x1 PUSH1 0x1 PUSH1 0xA0 SHL SUB DUP2 AND CALLER EQ PUSH2 0xBF3 JUMPI PUSH2 0xBF3 CALLER PUSH2 0x13F4 JUMP JUMPDEST PUSH2 0x811 DUP5 DUP5 DUP5 PUSH2 0x1617 JUMP JUMPDEST PUSH2 0x774 DUP2 PUSH1 0x1 PUSH2 0x1632 JUMP JUMPDEST PUSH1 0x0 DUP1 PUSH2 0xC15 DUP4 PUSH2 0xD46 JUMP JUMPDEST SWAP1 POP DUP1 PUSH1 0x1 PUSH1 0x1 PUSH1 0xA0 SHL SUB AND DUP5 PUSH1 0x1 PUSH1 0x1 PUSH1 0xA0 SHL SUB AND EQ DUP1 PUSH2 0xC5C JUMPI POP PUSH1 0x1 PUSH1 0x1 PUSH1 0xA0 SHL SUB DUP1 DUP3 AND PUSH1 0x0 SWAP1 DUP2 MSTORE PUSH1 0x7 PUSH1 0x20 SWAP1 DUP2 MSTORE PUSH1 0x40 DUP1 DUP4 KECCAK256 SWAP4 DUP9 AND DUP4 MSTORE SWAP3 SWAP1 MSTORE KECCAK256 SLOAD PUSH1 0xFF AND JUMPDEST DUP1 PUSH2 0xC80 JUMPI POP DUP4 PUSH1 0x1 PUSH1 0x1 PUSH1 0xA0 SHL SUB AND PUSH2 0xC75 DUP5 PUSH2 0x6C9 JUMP JUMPDEST PUSH1 0x1 PUSH1 0x1 PUSH1 0xA0 SHL SUB AND EQ JUMPDEST SWAP5 SWAP4 POP POP POP POP JUMP JUMPDEST PUSH1 0x0 DUP2 DUP2 MSTORE PUSH1 0xB PUSH1 0x20 SWAP1 DUP2 MSTORE PUSH1 0x40 DUP1 DUP4 KECCAK256 DUP2 MLOAD DUP1 DUP4 ADD SWAP1 SWAP3 MSTORE DUP1 SLOAD PUSH1 0x1 PUSH1 0x1 PUSH1 0xA0 SHL SUB AND DUP1 DUP4 MSTORE PUSH1 0x1 SWAP1 SWAP2 ADD SLOAD SWAP3 DUP3 ADD SWAP3 SWAP1 SWAP3 MSTORE DUP3 SWAP2 ISZERO PUSH2 0xCCF JUMPI DUP1 MLOAD PUSH1 0x20 DUP3 ADD MLOAD PUSH2 0xCE9 JUMP JUMPDEST PUSH1 0xA SLOAD PUSH1 0x1 PUSH1 0x1 PUSH1 0xA0 SHL SUB DUP2 AND SWAP1 PUSH1 0x1 PUSH1 0xA0 SHL SWAP1 DIV PUSH2 0xFFFF AND JUMPDEST SWAP3 POP SWAP3 POP POP SWAP2 POP SWAP2 JUMP JUMPDEST PUSH2 0xCFB PUSH2 0x1539 JUMP JUMPDEST PUSH2 0xD38 JUMPI PUSH1 0x40 MLOAD PUSH3 0x461BCD PUSH1 0xE5 SHL DUP2 MSTORE PUSH1 0x20 PUSH1 0x4 DUP3 ADD MSTORE PUSH1 0xE PUSH1 0x24 DUP3 ADD MSTORE PUSH14 0x139BDD08185D5D1A1BDC9A5E9959 PUSH1 0x92 SHL PUSH1 0x44 DUP3 ADD MSTORE PUSH1 0x64 ADD PUSH2 0x762 JUMP JUMPDEST PUSH2 0xD42 DUP3 DUP3 PUSH2 0x1828 JUMP JUMPDEST POP POP JUMP JUMPDEST PUSH1 0x0 PUSH2 0xD51 DUP3 PUSH2 0x18E6 JUMP JUMPDEST MLOAD SWAP3 SWAP2 POP POP JUMP JUMPDEST PUSH1 0x0 PUSH1 0x1 PUSH1 0x1 PUSH1 0xA0 SHL SUB DUP3 AND PUSH2 0xD81 JUMPI PUSH1 0x40 MLOAD PUSH4 0x23D3AD81 PUSH1 0xE2 SHL DUP2 MSTORE PUSH1 0x4 ADD PUSH1 0x40 MLOAD DUP1 SWAP2 SUB SWAP1 REVERT JUMPDEST POP PUSH1 0x1 PUSH1 0x1 PUSH1 0xA0 SHL SUB AND PUSH1 0x0 SWAP1 DUP2 MSTORE PUSH1 0x5 PUSH1 0x20 MSTORE PUSH1 0x40 SWAP1 KECCAK256 SLOAD PUSH8 0xFFFFFFFFFFFFFFFF AND SWAP1 JUMP JUMPDEST PUSH2 0xDAF PUSH2 0x1539 JUMP JUMPDEST PUSH2 0xDFB JUMPI PUSH1 0x40 MLOAD PUSH3 0x461BCD PUSH1 0xE5 SHL DUP2 MSTORE PUSH1 0x20 PUSH1 0x4 DUP3 ADD MSTORE PUSH1 0x17 PUSH1 0x24 DUP3 ADD MSTORE PUSH32 0x4E6F7420617574686F72697A656420746F206D696E742E000000000000000000 PUSH1 0x44 DUP3 ADD MSTORE PUSH1 0x64 ADD PUSH2 0x762 JUMP JUMPDEST PUSH2 0xE0E PUSH2 0xE07 PUSH1 0x0 SLOAD SWAP1 JUMP JUMPDEST DUP5 DUP5 PUSH2 0x1A02 JUMP JUMPDEST POP POP PUSH2 0x811 DUP5 DUP5 DUP4 PUSH2 0x1201 JUMP JUMPDEST PUSH2 0xE23 PUSH2 0x1539 JUMP JUMPDEST PUSH2 0xE60 JUMPI PUSH1 0x40 MLOAD PUSH3 0x461BCD PUSH1 0xE5 SHL DUP2 MSTORE PUSH1 0x20 PUSH1 0x4 DUP3 ADD MSTORE PUSH1 0xE PUSH1 0x24 DUP3 ADD MSTORE PUSH14 0x139BDD08185D5D1A1BDC9A5E9959 PUSH1 0x92 SHL PUSH1 0x44 DUP3 ADD MSTORE PUSH1 0x64 ADD PUSH2 0x762 JUMP JUMPDEST PUSH2 0x774 DUP2 PUSH2 0x1A6F JUMP JUMPDEST PUSH1 0x60 PUSH1 0x3 DUP1 SLOAD PUSH2 0x646 SWAP1 PUSH2 0x2AA7 JUMP JUMPDEST PUSH2 0xE80 PUSH2 0x1539 JUMP JUMPDEST PUSH2 0xEBD JUMPI PUSH1 0x40 MLOAD PUSH3 0x461BCD PUSH1 0xE5 SHL DUP2 MSTORE PUSH1 0x20 PUSH1 0x4 DUP3 ADD MSTORE PUSH1 0xE PUSH1 0x24 DUP3 ADD MSTORE PUSH14 0x139BDD08185D5D1A1BDC9A5E9959 PUSH1 0x92 SHL PUSH1 0x44 DUP3 ADD MSTORE PUSH1 0x64 ADD PUSH2 0x762 JUMP JUMPDEST PUSH2 0x5C5 DUP4 DUP4 DUP4 PUSH2 0x1B51 JUMP JUMPDEST DUP2 PUSH2 0xED2 DUP2 PUSH2 0x13F4 JUMP JUMPDEST PUSH2 0x5C5 DUP4 DUP4 PUSH2 0x1C27 JUMP JUMPDEST PUSH1 0x60 DUP2 PUSH8 0xFFFFFFFFFFFFFFFF DUP2 GT ISZERO PUSH2 0xEF7 JUMPI PUSH2 0xEF7 PUSH2 0x250D JUMP JUMPDEST PUSH1 0x40 MLOAD SWAP1 DUP1 DUP3 MSTORE DUP1 PUSH1 0x20 MUL PUSH1 0x20 ADD DUP3 ADD PUSH1 0x40 MSTORE DUP1 ISZERO PUSH2 0xF2A JUMPI DUP2 PUSH1 0x20 ADD JUMPDEST PUSH1 0x60 DUP2 MSTORE PUSH1 0x20 ADD SWAP1 PUSH1 0x1 SWAP1 SUB SWAP1 DUP2 PUSH2 0xF15 JUMPI SWAP1 POP JUMPDEST POP SWAP1 POP PUSH1 0x0 JUMPDEST DUP3 DUP2 LT ISZERO PUSH2 0xFCA JUMPI PUSH2 0xF9A ADDRESS DUP6 DUP6 DUP5 DUP2 DUP2 LT PUSH2 0xF4E JUMPI PUSH2 0xF4E PUSH2 0x2AE1 JUMP JUMPDEST SWAP1 POP PUSH1 0x20 MUL DUP2 ADD SWAP1 PUSH2 0xF60 SWAP2 SWAP1 PUSH2 0x2B56 JUMP JUMPDEST DUP1 DUP1 PUSH1 0x1F ADD PUSH1 0x20 DUP1 SWAP2 DIV MUL PUSH1 0x20 ADD PUSH1 0x40 MLOAD SWAP1 DUP2 ADD PUSH1 0x40 MSTORE DUP1 SWAP4 SWAP3 SWAP2 SWAP1 DUP2 DUP2 MSTORE PUSH1 0x20 ADD DUP4 DUP4 DUP1 DUP3 DUP5 CALLDATACOPY PUSH1 0x0 SWAP3 ADD SWAP2 SWAP1 SWAP2 MSTORE POP PUSH2 0x1CBC SWAP3 POP POP POP JUMP JUMPDEST DUP3 DUP3 DUP2 MLOAD DUP2 LT PUSH2 0xFAC JUMPI PUSH2 0xFAC PUSH2 0x2AE1 JUMP JUMPDEST PUSH1 0x20 MUL PUSH1 0x20 ADD ADD DUP2 SWAP1 MSTORE POP DUP1 DUP1 PUSH2 0xFC2 SWAP1 PUSH2 0x2BA4 JUMP JUMPDEST SWAP2 POP POP PUSH2 0xF30 JUMP JUMPDEST POP SWAP3 SWAP2 POP POP JUMP JUMPDEST DUP4 PUSH1 0x1 PUSH1 0x1 PUSH1 0xA0 SHL SUB DUP2 AND CALLER EQ PUSH2 0xFEB JUMPI PUSH2 0xFEB CALLER PUSH2 0x13F4 JUMP JUMPDEST PUSH2 0xFF7 DUP6 DUP6 DUP6 DUP6 PUSH2 0x1CE8 JUMP JUMPDEST POP POP POP POP POP JUMP JUMPDEST PUSH1 0x0 DUP2 DUP2 MSTORE PUSH1 0xF PUSH1 0x20 MSTORE PUSH1 0x40 DUP2 KECCAK256 DUP1 SLOAD PUSH1 0x60 SWAP3 SWAP2 SWAP1 PUSH2 0x101C SWAP1 PUSH2 0x2AA7 JUMP JUMPDEST DUP1 PUSH1 0x1F ADD PUSH1 0x20 DUP1 SWAP2 DIV MUL PUSH1 0x20 ADD PUSH1 0x40 MLOAD SWAP1 DUP2 ADD PUSH1 0x40 MSTORE DUP1 SWAP3 SWAP2 SWAP1 DUP2 DUP2 MSTORE PUSH1 0x20 ADD DUP3 DUP1 SLOAD PUSH2 0x1048 SWAP1 PUSH2 0x2AA7 JUMP JUMPDEST DUP1 ISZERO PUSH2 0x1095 JUMPI DUP1 PUSH1 0x1F LT PUSH2 0x106A JUMPI PUSH2 0x100 DUP1 DUP4 SLOAD DIV MUL DUP4 MSTORE SWAP2 PUSH1 0x20 ADD SWAP2 PUSH2 0x1095 JUMP JUMPDEST DUP3 ADD SWAP2 SWAP1 PUSH1 0x0 MSTORE PUSH1 0x20 PUSH1 0x0 KECCAK256 SWAP1 JUMPDEST DUP2 SLOAD DUP2 MSTORE SWAP1 PUSH1 0x1 ADD SWAP1 PUSH1 0x20 ADD DUP1 DUP4 GT PUSH2 0x1078 JUMPI DUP3 SWAP1 SUB PUSH1 0x1F AND DUP3 ADD SWAP2 JUMPDEST POP POP POP POP POP SWAP1 POP PUSH1 0x0 DUP2 MLOAD GT ISZERO PUSH2 0x10AC JUMPI SWAP3 SWAP2 POP POP JUMP JUMPDEST PUSH1 0x0 PUSH2 0x10B7 DUP5 PUSH2 0x1D2C JUMP JUMPDEST SWAP1 POP DUP1 PUSH2 0x10C3 DUP6 PUSH2 0x1ED6 JUMP JUMPDEST PUSH1 0x40 MLOAD PUSH1 0x20 ADD PUSH2 0x10D4 SWAP3 SWAP2 SWAP1 PUSH2 0x2BBD JUMP JUMPDEST PUSH1 0x40 MLOAD PUSH1 0x20 DUP2 DUP4 SUB SUB DUP2 MSTORE SWAP1 PUSH1 0x40 MSTORE SWAP3 POP POP POP SWAP2 SWAP1 POP JUMP JUMPDEST PUSH1 0x8 DUP1 SLOAD PUSH2 0x10F9 SWAP1 PUSH2 0x2AA7 JUMP JUMPDEST DUP1 PUSH1 0x1F ADD PUSH1 0x20 DUP1 SWAP2 DIV MUL PUSH1 0x20 ADD PUSH1 0x40 MLOAD SWAP1 DUP2 ADD PUSH1 0x40 MSTORE DUP1 SWAP3 SWAP2 SWAP1 DUP2 DUP2 MSTORE PUSH1 0x20 ADD DUP3 DUP1 SLOAD PUSH2 0x1125 SWAP1 PUSH2 0x2AA7 JUMP JUMPDEST DUP1 ISZERO PUSH2 0x1172 JUMPI DUP1 PUSH1 0x1F LT PUSH2 0x1147 JUMPI PUSH2 0x100 DUP1 DUP4 SLOAD DIV MUL DUP4 MSTORE SWAP2 PUSH1 0x20 ADD SWAP2 PUSH2 0x1172 JUMP JUMPDEST DUP3 ADD SWAP2 SWAP1 PUSH1 0x0 MSTORE PUSH1 0x20 PUSH1 0x0 KECCAK256 SWAP1 JUMPDEST DUP2 SLOAD DUP2 MSTORE SWAP1 PUSH1 0x1 ADD SWAP1 PUSH1 0x20 ADD DUP1 DUP4 GT PUSH2 0x1155 JUMPI DUP3 SWAP1 SUB PUSH1 0x1F AND DUP3 ADD SWAP2 JUMPDEST POP POP POP POP POP DUP2 JUMP JUMPDEST PUSH1 0x0 DUP3 DUP2 MSTORE PUSH1 0xF PUSH1 0x20 MSTORE PUSH1 0x40 SWAP1 KECCAK256 DUP1 SLOAD PUSH2 0x1193 SWAP1 PUSH2 0x2AA7 JUMP JUMPDEST ISZERO SWAP1 POP PUSH2 0x11E2 JUMPI PUSH1 0x40 MLOAD PUSH3 0x461BCD PUSH1 0xE5 SHL DUP2 MSTORE PUSH1 0x20 PUSH1 0x4 DUP3 ADD MSTORE PUSH1 0xF PUSH1 0x24 DUP3 ADD MSTORE PUSH32 0x55524920616C7265616479207365740000000000000000000000000000000000 PUSH1 0x44 DUP3 ADD MSTORE PUSH1 0x64 ADD PUSH2 0x762 JUMP JUMPDEST PUSH1 0x0 DUP3 DUP2 MSTORE PUSH1 0xF PUSH1 0x20 SWAP1 DUP2 MSTORE PUSH1 0x40 SWAP1 SWAP2 KECCAK256 DUP3 MLOAD PUSH2 0x5C5 SWAP3 DUP5 ADD SWAP1 PUSH2 0x245D JUMP JUMPDEST PUSH1 0x0 SLOAD PUSH1 0x1 PUSH1 0x1 PUSH1 0xA0 SHL SUB DUP5 AND PUSH2 0x122A JUMPI PUSH1 0x40 MLOAD PUSH3 0x2E0763 PUSH1 0xE8 SHL DUP2 MSTORE PUSH1 0x4 ADD PUSH1 0x40 MLOAD DUP1 SWAP2 SUB SWAP1 REVERT JUMPDEST DUP3 PUSH1 0x0 SUB PUSH2 0x124B JUMPI PUSH1 0x40 MLOAD PUSH4 0xB562E8DD PUSH1 0xE0 SHL DUP2 MSTORE PUSH1 0x4 ADD PUSH1 0x40 MLOAD DUP1 SWAP2 SUB SWAP1 REVERT JUMPDEST PUSH1 0x1 PUSH1 0x1 PUSH1 0xA0 SHL SUB DUP5 AND PUSH1 0x0 DUP2 DUP2 MSTORE PUSH1 0x5 PUSH1 0x20 SWAP1 DUP2 MSTORE PUSH1 0x40 DUP1 DUP4 KECCAK256 DUP1 SLOAD PUSH16 0xFFFFFFFFFFFFFFFFFFFFFFFFFFFFFFFF NOT DUP2 AND PUSH8 0xFFFFFFFFFFFFFFFF DUP1 DUP4 AND DUP12 ADD DUP2 AND SWAP2 DUP3 OR PUSH9 0x10000000000000000 PUSH8 0xFFFFFFFFFFFFFFFF NOT SWAP1 SWAP5 AND SWAP1 SWAP3 OR DUP4 SWAP1 DIV DUP2 AND DUP12 ADD DUP2 AND SWAP1 SWAP3 MUL OR SWAP1 SWAP2 SSTORE DUP6 DUP5 MSTORE PUSH1 0x4 SWAP1 SWAP3 MSTORE SWAP1 SWAP2 KECCAK256 DUP1 SLOAD PUSH1 0x1 PUSH1 0x1 PUSH1 0xE0 SHL SUB NOT AND DUP4 OR PUSH1 0x1 PUSH1 0xA0 SHL TIMESTAMP SWAP1 SWAP4 AND SWAP3 SWAP1 SWAP3 MUL SWAP2 SWAP1 SWAP2 OR SWAP1 SSTORE DUP2 SWAP1 DUP2 DUP6 ADD SWAP1 EXTCODESIZE ISZERO PUSH2 0x1374 JUMPI JUMPDEST PUSH1 0x40 MLOAD DUP3 SWAP1 PUSH1 0x1 PUSH1 0x1 PUSH1 0xA0 SHL SUB DUP9 AND SWAP1 PUSH1 0x0 SWAP1 PUSH32 0xDDF252AD1BE2C89B69C2B068FC378DAA952BA7F163C4A11628F55A4DF523B3EF SWAP1 DUP3 SWAP1 LOG4 PUSH2 0x133D PUSH1 0x0 DUP8 DUP5 DUP1 PUSH1 0x1 ADD SWAP6 POP DUP8 PUSH2 0x1FEF JUMP JUMPDEST PUSH2 0x135A JUMPI PUSH1 0x40 MLOAD PUSH4 0x68D2BF6B PUSH1 0xE1 SHL DUP2 MSTORE PUSH1 0x4 ADD PUSH1 0x40 MLOAD DUP1 SWAP2 SUB SWAP1 REVERT JUMPDEST DUP1 DUP3 LT PUSH2 0x12F2 JUMPI DUP3 PUSH1 0x0 SLOAD EQ PUSH2 0x136F JUMPI PUSH1 0x0 DUP1 REVERT JUMPDEST PUSH2 0x13B9 JUMP JUMPDEST JUMPDEST PUSH1 0x40 MLOAD PUSH1 0x1 DUP4 ADD SWAP3 SWAP1 PUSH1 0x1 PUSH1 0x1 PUSH1 0xA0 SHL SUB DUP9 AND SWAP1 PUSH1 0x0 SWAP1 PUSH32 0xDDF252AD1BE2C89B69C2B068FC378DAA952BA7F163C4A11628F55A4DF523B3EF SWAP1 DUP3 SWAP1 LOG4 DUP1 DUP3 LT PUSH2 0x1375 JUMPI JUMPDEST POP PUSH1 0x0 SWAP1 DUP2 SSTORE PUSH2 0x811 SWAP1 DUP6 DUP4 DUP7 DUP5 JUMP JUMPDEST PUSH1 0x0 DUP1 SLOAD DUP3 LT DUP1 ISZERO PUSH2 0x631 JUMPI POP POP PUSH1 0x0 SWAP1 DUP2 MSTORE PUSH1 0x4 PUSH1 0x20 MSTORE PUSH1 0x40 SWAP1 KECCAK256 SLOAD PUSH1 0x1 PUSH1 0xE0 SHL SWAP1 DIV PUSH1 0xFF AND ISZERO SWAP1 JUMP JUMPDEST PUSH1 0xE SLOAD PUSH1 0xFF AND ISZERO PUSH2 0x774 JUMPI PUSH14 0xAAEB6D7670E522A718067333CD4E EXTCODESIZE ISZERO PUSH2 0x774 JUMPI PUSH1 0x40 MLOAD PUSH4 0x3185C44D PUSH1 0xE2 SHL DUP2 MSTORE ADDRESS PUSH1 0x4 DUP3 ADD MSTORE PUSH1 0x1 PUSH1 0x1 PUSH1 0xA0 SHL SUB DUP3 AND PUSH1 0x24 DUP3 ADD MSTORE PUSH14 0xAAEB6D7670E522A718067333CD4E SWAP1 PUSH4 0xC6171134 SWAP1 PUSH1 0x44 ADD PUSH1 0x20 PUSH1 0x40 MLOAD DUP1 DUP4 SUB DUP2 DUP7 GAS STATICCALL ISZERO DUP1 ISZERO PUSH2 0x146C JUMPI RETURNDATASIZE PUSH1 0x0 DUP1 RETURNDATACOPY RETURNDATASIZE PUSH1 0x0 REVERT JUMPDEST POP POP POP POP PUSH1 0x40 MLOAD RETURNDATASIZE PUSH1 0x1F NOT PUSH1 0x1F DUP3 ADD AND DUP3 ADD DUP1 PUSH1 0x40 MSTORE POP DUP2 ADD SWAP1 PUSH2 0x1490 SWAP2 SWAP1 PUSH2 0x2BEC JUMP JUMPDEST PUSH2 0x774 JUMPI PUSH1 0x40 MLOAD PUSH4 0x3B79C773 PUSH1 0xE2 SHL DUP2 MSTORE PUSH1 0x1 PUSH1 0x1 PUSH1 0xA0 SHL SUB DUP3 AND PUSH1 0x4 DUP3 ADD MSTORE PUSH1 0x24 ADD PUSH2 0x762 JUMP JUMPDEST PUSH1 0x0 PUSH2 0x14C3 DUP3 PUSH2 0xD46 JUMP JUMPDEST SWAP1 POP DUP1 PUSH1 0x1 PUSH1 0x1 PUSH1 0xA0 SHL SUB AND DUP4 PUSH1 0x1 PUSH1 0x1 PUSH1 0xA0 SHL SUB AND SUB PUSH2 0x14F7 JUMPI PUSH1 0x40 MLOAD PUSH4 0x250FDEE3 PUSH1 0xE2 SHL DUP2 MSTORE PUSH1 0x4 ADD PUSH1 0x40 MLOAD DUP1 SWAP2 SUB SWAP1 REVERT JUMPDEST CALLER PUSH1 0x1 PUSH1 0x1 PUSH1 0xA0 SHL SUB DUP3 AND EQ PUSH2 0x152E JUMPI PUSH2 0x1511 DUP2 CALLER PUSH2 0x56F JUMP JUMPDEST PUSH2 0x152E JUMPI PUSH1 0x40 MLOAD PUSH4 0x67D9DCA1 PUSH1 0xE1 SHL DUP2 MSTORE PUSH1 0x4 ADD PUSH1 0x40 MLOAD DUP1 SWAP2 SUB SWAP1 REVERT JUMPDEST PUSH2 0x5C5 DUP4 DUP4 DUP4 PUSH2 0x20DA JUMP JUMPDEST PUSH1 0x0 PUSH2 0x154D PUSH1 0x9 SLOAD PUSH1 0x1 PUSH1 0x1 PUSH1 0xA0 SHL SUB AND SWAP1 JUMP JUMPDEST PUSH1 0x1 PUSH1 0x1 PUSH1 0xA0 SHL SUB AND CALLER PUSH1 0x1 PUSH1 0x1 PUSH1 0xA0 SHL SUB AND EQ SWAP1 POP SWAP1 JUMP JUMPDEST PUSH1 0x9 DUP1 SLOAD PUSH1 0x1 PUSH1 0x1 PUSH1 0xA0 SHL SUB DUP4 DUP2 AND PUSH20 0xFFFFFFFFFFFFFFFFFFFFFFFFFFFFFFFFFFFFFFFF NOT DUP4 AND DUP2 OR SWAP1 SWAP4 SSTORE PUSH1 0x40 MLOAD SWAP2 AND SWAP2 SWAP1 DUP3 SWAP1 PUSH32 0x8292FCE18FA69EDF4DB7B94EA2E58241DF0AE57F97E0A6C9B29067028BF92D76 SWAP1 PUSH1 0x0 SWAP1 LOG3 POP POP JUMP JUMPDEST PUSH2 0x5C5 DUP4 DUP4 DUP4 PUSH2 0x2143 JUMP JUMPDEST PUSH1 0xE DUP1 SLOAD PUSH1 0xFF NOT AND DUP3 ISZERO ISZERO SWAP1 DUP2 OR SWAP1 SWAP2 SSTORE PUSH1 0x40 MLOAD SWAP1 DUP2 MSTORE PUSH32 0x38475885990D8DFE9CA01F0EF160A1B5514426EAB9DDBC953A3353410BA78096 SWAP1 PUSH1 0x20 ADD PUSH1 0x40 MLOAD DUP1 SWAP2 SUB SWAP1 LOG1 POP JUMP JUMPDEST PUSH2 0x5C5 DUP4 DUP4 DUP4 PUSH1 0x40 MLOAD DUP1 PUSH1 0x20 ADD PUSH1 0x40 MSTORE DUP1 PUSH1 0x0 DUP2 MSTORE POP PUSH2 0xFD1 JUMP JUMPDEST PUSH1 0x0 PUSH2 0x163D DUP4 PUSH2 0x18E6 JUMP JUMPDEST DUP1 MLOAD SWAP1 SWAP2 POP DUP3 ISZERO PUSH2 0x16A3 JUMPI PUSH1 0x0 CALLER PUSH1 0x1 PUSH1 0x1 PUSH1 0xA0 SHL SUB DUP4 AND EQ DUP1 PUSH2 0x1666 JUMPI POP PUSH2 0x1666 DUP3 CALLER PUSH2 0x56F JUMP JUMPDEST DUP1 PUSH2 0x1681 JUMPI POP CALLER PUSH2 0x1676 DUP7 PUSH2 0x6C9 JUMP JUMPDEST PUSH1 0x1 PUSH1 0x1 PUSH1 0xA0 SHL SUB AND EQ JUMPDEST SWAP1 POP DUP1 PUSH2 0x16A1 JUMPI PUSH1 0x40 MLOAD PUSH4 0x2CE44B5F PUSH1 0xE1 SHL DUP2 MSTORE PUSH1 0x4 ADD PUSH1 0x40 MLOAD DUP1 SWAP2 SUB SWAP1 REVERT JUMPDEST POP JUMPDEST PUSH2 0x16AF PUSH1 0x0 DUP6 DUP4 PUSH2 0x20DA JUMP JUMPDEST PUSH1 0x1 PUSH1 0x1 PUSH1 0xA0 SHL SUB DUP1 DUP3 AND PUSH1 0x0 DUP2 DUP2 MSTORE PUSH1 0x5 PUSH1 0x20 SWAP1 DUP2 MSTORE PUSH1 0x40 DUP1 DUP4 KECCAK256 DUP1 SLOAD PUSH17 0x100000000000000000000000000000000 PUSH1 0x0 NOT PUSH8 0xFFFFFFFFFFFFFFFF DUP1 DUP5 AND SWAP2 SWAP1 SWAP2 ADD DUP2 AND PUSH8 0xFFFFFFFFFFFFFFFF NOT DUP5 AND DUP2 OR DUP4 SWAP1 DIV DUP3 AND PUSH1 0x1 SWAP1 DUP2 ADD DUP4 AND SWAP1 SWAP4 MUL PUSH32 0xFFFFFFFFFFFFFFFF0000000000000000FFFFFFFFFFFFFFFF0000000000000000 SWAP1 SWAP5 AND OR SWAP3 SWAP1 SWAP3 OR DUP4 SSTORE DUP12 DUP7 MSTORE PUSH1 0x4 SWAP1 SWAP5 MSTORE DUP3 DUP6 KECCAK256 DUP1 SLOAD PUSH32 0xFFFFFF00FFFFFFFFFFFFFFFFFFFFFFFFFFFFFFFFFFFFFFFFFFFFFFFFFFFFFFFF TIMESTAMP SWAP1 SWAP4 AND PUSH1 0x1 PUSH1 0xA0 SHL MUL PUSH1 0x1 PUSH1 0x1 PUSH1 0xE0 SHL SUB NOT SWAP1 SWAP2 AND SWAP1 SWAP8 OR SWAP7 SWAP1 SWAP7 OR AND PUSH1 0x1 PUSH1 0xE0 SHL OR DUP6 SSTORE SWAP2 DUP10 ADD DUP1 DUP5 MSTORE SWAP3 KECCAK256 DUP1 SLOAD SWAP2 SWAP5 SWAP1 SWAP2 AND PUSH2 0x17DE JUMPI PUSH1 0x0 SLOAD DUP3 EQ PUSH2 0x17DE JUMPI DUP1 SLOAD PUSH1 0x20 DUP8 ADD MLOAD PUSH8 0xFFFFFFFFFFFFFFFF AND PUSH1 0x1 PUSH1 0xA0 SHL MUL PUSH1 0x1 PUSH1 0x1 PUSH1 0xE0 SHL SUB NOT SWAP1 SWAP2 AND PUSH1 0x1 PUSH1 0x1 PUSH1 0xA0 SHL SUB DUP8 AND OR OR DUP2 SSTORE JUMPDEST POP POP PUSH1 0x40 MLOAD DUP7 SWAP3 POP PUSH1 0x0 SWAP2 POP PUSH1 0x1 PUSH1 0x1 PUSH1 0xA0 SHL SUB DUP5 AND SWAP1 PUSH32 0xDDF252AD1BE2C89B69C2B068FC378DAA952BA7F163C4A11628F55A4DF523B3EF SWAP1 DUP4 SWAP1 LOG4 POP POP PUSH1 0x1 DUP1 SLOAD DUP2 ADD SWAP1 SSTORE POP POP JUMP JUMPDEST PUSH2 0x2710 DUP2 GT ISZERO PUSH2 0x186C JUMPI PUSH1 0x40 MLOAD PUSH3 0x461BCD PUSH1 0xE5 SHL DUP2 MSTORE PUSH1 0x20 PUSH1 0x4 DUP3 ADD MSTORE PUSH1 0xF PUSH1 0x24 DUP3 ADD MSTORE PUSH15 0x45786365656473206D617820627073 PUSH1 0x88 SHL PUSH1 0x44 DUP3 ADD MSTORE PUSH1 0x64 ADD PUSH2 0x762 JUMP JUMPDEST PUSH1 0xA DUP1 SLOAD PUSH1 0x1 PUSH1 0x1 PUSH1 0xA0 SHL SUB DUP5 AND PUSH32 0xFFFFFFFFFFFFFFFFFFFF00000000000000000000000000000000000000000000 SWAP1 SWAP2 AND DUP2 OR PUSH1 0x1 PUSH1 0xA0 SHL PUSH2 0xFFFF DUP6 AND MUL OR SWAP1 SWAP2 SSTORE PUSH1 0x40 MLOAD DUP3 DUP2 MSTORE PUSH32 0x90D7EC04BCB8978719414F82E52E4CB651DB41D0E6F8CEA6118C2191E6183ADB SWAP1 PUSH1 0x20 ADD PUSH1 0x40 MLOAD DUP1 SWAP2 SUB SWAP1 LOG2 POP POP JUMP JUMPDEST PUSH1 0x40 DUP1 MLOAD PUSH1 0x60 DUP2 ADD DUP3 MSTORE PUSH1 0x0 DUP1 DUP3 MSTORE PUSH1 0x20 DUP3 ADD DUP2 SWAP1 MSTORE SWAP2 DUP2 ADD SWAP2 SWAP1 SWAP2 MSTORE DUP2 PUSH1 0x0 SLOAD DUP2 LT ISZERO PUSH2 0x19E9 JUMPI PUSH1 0x0 DUP2 DUP2 MSTORE PUSH1 0x4 PUSH1 0x20 SWAP1 DUP2 MSTORE PUSH1 0x40 SWAP2 DUP3 SWAP1 KECCAK256 DUP3 MLOAD PUSH1 0x60 DUP2 ADD DUP5 MSTORE SWAP1 SLOAD PUSH1 0x1 PUSH1 0x1 PUSH1 0xA0 SHL SUB DUP2 AND DUP3 MSTORE PUSH1 0x1 PUSH1 0xA0 SHL DUP2 DIV PUSH8 0xFFFFFFFFFFFFFFFF AND SWAP3 DUP3 ADD SWAP3 SWAP1 SWAP3 MSTORE PUSH1 0x1 PUSH1 0xE0 SHL SWAP1 SWAP2 DIV PUSH1 0xFF AND ISZERO ISZERO SWAP2 DUP2 ADD DUP3 SWAP1 MSTORE SWAP1 PUSH2 0x19E7 JUMPI DUP1 MLOAD PUSH1 0x1 PUSH1 0x1 PUSH1 0xA0 SHL SUB AND ISZERO PUSH2 0x197D JUMPI SWAP4 SWAP3 POP POP POP JUMP JUMPDEST POP PUSH1 0x0 NOT ADD PUSH1 0x0 DUP2 DUP2 MSTORE PUSH1 0x4 PUSH1 0x20 SWAP1 DUP2 MSTORE PUSH1 0x40 SWAP2 DUP3 SWAP1 KECCAK256 DUP3 MLOAD PUSH1 0x60 DUP2 ADD DUP5 MSTORE SWAP1 SLOAD PUSH1 0x1 PUSH1 0x1 PUSH1 0xA0 SHL SUB DUP2 AND DUP1 DUP4 MSTORE PUSH1 0x1 PUSH1 0xA0 SHL DUP3 DIV PUSH8 0xFFFFFFFFFFFFFFFF AND SWAP4 DUP4 ADD SWAP4 SWAP1 SWAP4 MSTORE PUSH1 0x1 PUSH1 0xE0 SHL SWAP1 DIV PUSH1 0xFF AND ISZERO ISZERO SWAP3 DUP2 ADD SWAP3 SWAP1 SWAP3 MSTORE ISZERO PUSH2 0x19E2 JUMPI SWAP4 SWAP3 POP POP POP JUMP JUMPDEST PUSH2 0x197D JUMP JUMPDEST POP JUMPDEST PUSH1 0x40 MLOAD PUSH4 0x6F96CDA1 PUSH1 0xE1 SHL DUP2 MSTORE PUSH1 0x4 ADD PUSH1 0x40 MLOAD DUP1 SWAP2 SUB SWAP1 REVERT JUMPDEST PUSH1 0x0 DUP1 PUSH2 0x1A0F DUP5 DUP7 PUSH2 0x2C09 JUMP JUMPDEST PUSH1 0xC DUP1 SLOAD PUSH1 0x1 DUP2 ADD SWAP1 SWAP2 SSTORE PUSH32 0xDF6966C971051C3D54EC59162606531493A51404A002842F56009D7E5CF4A8C7 ADD DUP2 SWAP1 SSTORE PUSH1 0x0 DUP2 DUP2 MSTORE PUSH1 0xD PUSH1 0x20 SWAP1 DUP2 MSTORE PUSH1 0x40 SWAP1 SWAP2 KECCAK256 DUP6 MLOAD SWAP3 SWAP5 POP DUP5 SWAP4 POP PUSH2 0x1A66 SWAP3 SWAP1 SWAP2 DUP7 ADD SWAP1 PUSH2 0x245D JUMP JUMPDEST POP SWAP4 POP SWAP4 SWAP2 POP POP JUMP JUMPDEST PUSH1 0x0 PUSH1 0x8 DUP1 SLOAD PUSH2 0x1A7E SWAP1 PUSH2 0x2AA7 JUMP JUMPDEST DUP1 PUSH1 0x1F ADD PUSH1 0x20 DUP1 SWAP2 DIV MUL PUSH1 0x20 ADD PUSH1 0x40 MLOAD SWAP1 DUP2 ADD PUSH1 0x40 MSTORE DUP1 SWAP3 SWAP2 SWAP1 DUP2 DUP2 MSTORE PUSH1 0x20 ADD DUP3 DUP1 SLOAD PUSH2 0x1AAA SWAP1 PUSH2 0x2AA7 JUMP JUMPDEST DUP1 ISZERO PUSH2 0x1AF7 JUMPI DUP1 PUSH1 0x1F LT PUSH2 0x1ACC JUMPI PUSH2 0x100 DUP1 DUP4 SLOAD DIV MUL DUP4 MSTORE SWAP2 PUSH1 0x20 ADD SWAP2 PUSH2 0x1AF7 JUMP JUMPDEST DUP3 ADD SWAP2 SWAP1 PUSH1 0x0 MSTORE PUSH1 0x20 PUSH1 0x0 KECCAK256 SWAP1 JUMPDEST DUP2 SLOAD DUP2 MSTORE SWAP1 PUSH1 0x1 ADD SWAP1 PUSH1 0x20 ADD DUP1 DUP4 GT PUSH2 0x1ADA JUMPI DUP3 SWAP1 SUB PUSH1 0x1F AND DUP3 ADD SWAP2 JUMPDEST POP POP DUP6 MLOAD SWAP4 SWAP5 POP PUSH2 0x1B13 SWAP4 PUSH1 0x8 SWAP4 POP PUSH1 0x20 DUP8 ADD SWAP3 POP SWAP1 POP PUSH2 0x245D JUMP JUMPDEST POP PUSH32 0xC9C7C3FE08B88B4DF9D4D47EF47D2C43D55C025A0BA88CA442580ED9E7348A16 DUP2 DUP4 PUSH1 0x40 MLOAD PUSH2 0x1B45 SWAP3 SWAP2 SWAP1 PUSH2 0x2C21 JUMP JUMPDEST PUSH1 0x40 MLOAD DUP1 SWAP2 SUB SWAP1 LOG1 POP POP JUMP JUMPDEST PUSH2 0x2710 DUP2 GT ISZERO PUSH2 0x1B95 JUMPI PUSH1 0x40 MLOAD PUSH3 0x461BCD PUSH1 0xE5 SHL DUP2 MSTORE PUSH1 0x20 PUSH1 0x4 DUP3 ADD MSTORE PUSH1 0xF PUSH1 0x24 DUP3 ADD MSTORE PUSH15 0x45786365656473206D617820627073 PUSH1 0x88 SHL PUSH1 0x44 DUP3 ADD MSTORE PUSH1 0x64 ADD PUSH2 0x762 JUMP JUMPDEST PUSH1 0x40 DUP1 MLOAD DUP1 DUP3 ADD DUP3 MSTORE PUSH1 0x1 PUSH1 0x1 PUSH1 0xA0 SHL SUB DUP5 DUP2 AND DUP1 DUP4 MSTORE PUSH1 0x20 DUP1 DUP5 ADD DUP7 DUP2 MSTORE PUSH1 0x0 DUP10 DUP2 MSTORE PUSH1 0xB DUP4 MSTORE DUP7 SWAP1 KECCAK256 SWAP5 MLOAD DUP6 SLOAD PUSH20 0xFFFFFFFFFFFFFFFFFFFFFFFFFFFFFFFFFFFFFFFF NOT AND SWAP5 AND SWAP4 SWAP1 SWAP4 OR DUP5 SSTORE SWAP2 MLOAD PUSH1 0x1 SWAP1 SWAP4 ADD SWAP3 SWAP1 SWAP3 SSTORE SWAP2 MLOAD DUP4 DUP2 MSTORE SWAP1 SWAP2 DUP6 SWAP2 PUSH32 0x7365CF4122F072A3365C20D54EFF9B38D73C096C28E1892EC8F5B0E403A0F12D SWAP2 ADD PUSH1 0x40 MLOAD DUP1 SWAP2 SUB SWAP1 LOG3 POP POP POP JUMP JUMPDEST CALLER PUSH1 0x1 PUSH1 0x1 PUSH1 0xA0 SHL SUB DUP4 AND SUB PUSH2 0x1C50 JUMPI PUSH1 0x40 MLOAD PUSH4 0xB06307DB PUSH1 0xE0 SHL DUP2 MSTORE PUSH1 0x4 ADD PUSH1 0x40 MLOAD DUP1 SWAP2 SUB SWAP1 REVERT JUMPDEST CALLER PUSH1 0x0 DUP2 DUP2 MSTORE PUSH1 0x7 PUSH1 0x20 SWAP1 DUP2 MSTORE PUSH1 0x40 DUP1 DUP4 KECCAK256 PUSH1 0x1 PUSH1 0x1 PUSH1 0xA0 SHL SUB DUP8 AND DUP1 DUP6 MSTORE SWAP1 DUP4 MSTORE SWAP3 DUP2 SWAP1 KECCAK256 DUP1 SLOAD PUSH1 0xFF NOT AND DUP7 ISZERO ISZERO SWAP1 DUP2 OR SWAP1 SWAP2 SSTORE SWAP1 MLOAD SWAP1 DUP2 MSTORE SWAP2 SWAP3 SWAP2 PUSH32 0x17307EAB39AB6107E8899845AD3D59BD9653F200F220920489CA2B5937696C31 SWAP2 ADD PUSH1 0x40 MLOAD DUP1 SWAP2 SUB SWAP1 LOG3 POP POP JUMP JUMPDEST PUSH1 0x60 PUSH2 0x1CE1 DUP4 DUP4 PUSH1 0x40 MLOAD DUP1 PUSH1 0x60 ADD PUSH1 0x40 MSTORE DUP1 PUSH1 0x27 DUP2 MSTORE PUSH1 0x20 ADD PUSH2 0x2D38 PUSH1 0x27 SWAP2 CODECOPY PUSH2 0x2330 JUMP JUMPDEST SWAP4 SWAP3 POP POP POP JUMP JUMPDEST PUSH2 0x1CF3 DUP5 DUP5 DUP5 PUSH2 0x2143 JUMP JUMPDEST PUSH1 0x1 PUSH1 0x1 PUSH1 0xA0 SHL SUB DUP4 AND EXTCODESIZE ISZERO PUSH2 0x811 JUMPI PUSH2 0x1D0F DUP5 DUP5 DUP5 DUP5 PUSH2 0x1FEF JUMP JUMPDEST PUSH2 0x811 JUMPI PUSH1 0x40 MLOAD PUSH4 0x68D2BF6B PUSH1 0xE1 SHL DUP2 MSTORE PUSH1 0x4 ADD PUSH1 0x40 MLOAD DUP1 SWAP2 SUB SWAP1 REVERT JUMPDEST PUSH1 0x60 PUSH1 0x0 PUSH2 0x1D39 PUSH1 0xC SLOAD SWAP1 JUMP JUMPDEST SWAP1 POP PUSH1 0x0 PUSH1 0xC DUP1 SLOAD DUP1 PUSH1 0x20 MUL PUSH1 0x20 ADD PUSH1 0x40 MLOAD SWAP1 DUP2 ADD PUSH1 0x40 MSTORE DUP1 SWAP3 SWAP2 SWAP1 DUP2 DUP2 MSTORE PUSH1 0x20 ADD DUP3 DUP1 SLOAD DUP1 ISZERO PUSH2 0x1D89 JUMPI PUSH1 0x20 MUL DUP3 ADD SWAP2 SWAP1 PUSH1 0x0 MSTORE PUSH1 0x20 PUSH1 0x0 KECCAK256 SWAP1 JUMPDEST DUP2 SLOAD DUP2 MSTORE PUSH1 0x20 ADD SWAP1 PUSH1 0x1 ADD SWAP1 DUP1 DUP4 GT PUSH2 0x1D75 JUMPI JUMPDEST POP POP POP POP POP SWAP1 POP PUSH1 0x0 JUMPDEST DUP3 DUP2 LT ISZERO PUSH2 0x1E8D JUMPI DUP2 DUP2 DUP2 MLOAD DUP2 LT PUSH2 0x1DAD JUMPI PUSH2 0x1DAD PUSH2 0x2AE1 JUMP JUMPDEST PUSH1 0x20 MUL PUSH1 0x20 ADD ADD MLOAD DUP6 LT ISZERO PUSH2 0x1E7B JUMPI PUSH1 0xD PUSH1 0x0 DUP4 DUP4 DUP2 MLOAD DUP2 LT PUSH2 0x1DD2 JUMPI PUSH2 0x1DD2 PUSH2 0x2AE1 JUMP JUMPDEST PUSH1 0x20 MUL PUSH1 0x20 ADD ADD MLOAD DUP2 MSTORE PUSH1 0x20 ADD SWAP1 DUP2 MSTORE PUSH1 0x20 ADD PUSH1 0x0 KECCAK256 DUP1 SLOAD PUSH2 0x1DF3 SWAP1 PUSH2 0x2AA7 JUMP JUMPDEST DUP1 PUSH1 0x1F ADD PUSH1 0x20 DUP1 SWAP2 DIV MUL PUSH1 0x20 ADD PUSH1 0x40 MLOAD SWAP1 DUP2 ADD PUSH1 0x40 MSTORE DUP1 SWAP3 SWAP2 SWAP1 DUP2 DUP2 MSTORE PUSH1 0x20 ADD DUP3 DUP1 SLOAD PUSH2 0x1E1F SWAP1 PUSH2 0x2AA7 JUMP JUMPDEST DUP1 ISZERO PUSH2 0x1E6C JUMPI DUP1 PUSH1 0x1F LT PUSH2 0x1E41 JUMPI PUSH2 0x100 DUP1 DUP4 SLOAD DIV MUL DUP4 MSTORE SWAP2 PUSH1 0x20 ADD SWAP2 PUSH2 0x1E6C JUMP JUMPDEST DUP3 ADD SWAP2 SWAP1 PUSH1 0x0 MSTORE PUSH1 0x20 PUSH1 0x0 KECCAK256 SWAP1 JUMPDEST DUP2 SLOAD DUP2 MSTORE SWAP1 PUSH1 0x1 ADD SWAP1 PUSH1 0x20 ADD DUP1 DUP4 GT PUSH2 0x1E4F JUMPI DUP3 SWAP1 SUB PUSH1 0x1F AND DUP3 ADD SWAP2 JUMPDEST POP POP POP POP POP SWAP4 POP POP POP POP SWAP2 SWAP1 POP JUMP JUMPDEST PUSH2 0x1E86 PUSH1 0x1 DUP3 PUSH2 0x2C09 JUMP JUMPDEST SWAP1 POP PUSH2 0x1D93 JUMP JUMPDEST POP PUSH1 0x40 MLOAD PUSH3 0x461BCD PUSH1 0xE5 SHL DUP2 MSTORE PUSH1 0x20 PUSH1 0x4 DUP3 ADD MSTORE PUSH1 0xF PUSH1 0x24 DUP3 ADD MSTORE PUSH32 0x496E76616C696420746F6B656E49640000000000000000000000000000000000 PUSH1 0x44 DUP3 ADD MSTORE PUSH1 0x64 ADD PUSH2 0x762 JUMP JUMPDEST PUSH1 0x60 DUP2 PUSH1 0x0 SUB PUSH2 0x1EFD JUMPI POP POP PUSH1 0x40 DUP1 MLOAD DUP1 DUP3 ADD SWAP1 SWAP2 MSTORE PUSH1 0x1 DUP2 MSTORE PUSH1 0x3 PUSH1 0xFC SHL PUSH1 0x20 DUP3 ADD MSTORE SWAP1 JUMP JUMPDEST DUP2 PUSH1 0x0 JUMPDEST DUP2 ISZERO PUSH2 0x1F27 JUMPI DUP1 PUSH2 0x1F11 DUP2 PUSH2 0x2BA4 JUMP JUMPDEST SWAP2 POP PUSH2 0x1F20 SWAP1 POP PUSH1 0xA DUP4 PUSH2 0x2B42 JUMP JUMPDEST SWAP2 POP PUSH2 0x1F01 JUMP JUMPDEST PUSH1 0x0 DUP2 PUSH8 0xFFFFFFFFFFFFFFFF DUP2 GT ISZERO PUSH2 0x1F42 JUMPI PUSH2 0x1F42 PUSH2 0x250D JUMP JUMPDEST PUSH1 0x40 MLOAD SWAP1 DUP1 DUP3 MSTORE DUP1 PUSH1 0x1F ADD PUSH1 0x1F NOT AND PUSH1 0x20 ADD DUP3 ADD PUSH1 0x40 MSTORE DUP1 ISZERO PUSH2 0x1F6C JUMPI PUSH1 0x20 DUP3 ADD DUP2 DUP1 CALLDATASIZE DUP4 CALLDATACOPY ADD SWAP1 POP JUMPDEST POP SWAP1 POP JUMPDEST DUP5 ISZERO PUSH2 0xC80 JUMPI PUSH2 0x1F81 PUSH1 0x1 DUP4 PUSH2 0x2C46 JUMP JUMPDEST SWAP2 POP PUSH2 0x1F8E PUSH1 0xA DUP7 PUSH2 0x2C5D JUMP JUMPDEST PUSH2 0x1F99 SWAP1 PUSH1 0x30 PUSH2 0x2C09 JUMP JUMPDEST PUSH1 0xF8 SHL DUP2 DUP4 DUP2 MLOAD DUP2 LT PUSH2 0x1FAE JUMPI PUSH2 0x1FAE PUSH2 0x2AE1 JUMP JUMPDEST PUSH1 0x20 ADD ADD SWAP1 PUSH31 0xFFFFFFFFFFFFFFFFFFFFFFFFFFFFFFFFFFFFFFFFFFFFFFFFFFFFFFFFFFFFFF NOT AND SWAP1 DUP2 PUSH1 0x0 BYTE SWAP1 MSTORE8 POP PUSH2 0x1FE8 PUSH1 0xA DUP7 PUSH2 0x2B42 JUMP JUMPDEST SWAP5 POP PUSH2 0x1F70 JUMP JUMPDEST PUSH1 0x40 MLOAD PUSH4 0xA85BD01 PUSH1 0xE1 SHL DUP2 MSTORE PUSH1 0x0 SWAP1 PUSH1 0x1 PUSH1 0x1 PUSH1 0xA0 SHL SUB DUP6 AND SWAP1 PUSH4 0x150B7A02 SWAP1 PUSH2 0x2024 SWAP1 CALLER SWAP1 DUP10 SWAP1 DUP9 SWAP1 DUP9 SWAP1 PUSH1 0x4 ADD PUSH2 0x2C71 JUMP JUMPDEST PUSH1 0x20 PUSH1 0x40 MLOAD DUP1 DUP4 SUB DUP2 PUSH1 0x0 DUP8 GAS CALL SWAP3 POP POP POP DUP1 ISZERO PUSH2 0x205F JUMPI POP PUSH1 0x40 DUP1 MLOAD PUSH1 0x1F RETURNDATASIZE SWAP1 DUP2 ADD PUSH1 0x1F NOT AND DUP3 ADD SWAP1 SWAP3 MSTORE PUSH2 0x205C SWAP2 DUP2 ADD SWAP1 PUSH2 0x2CA3 JUMP JUMPDEST PUSH1 0x1 JUMPDEST PUSH2 0x20BD JUMPI RETURNDATASIZE DUP1 DUP1 ISZERO PUSH2 0x208D JUMPI PUSH1 0x40 MLOAD SWAP2 POP PUSH1 0x1F NOT PUSH1 0x3F RETURNDATASIZE ADD AND DUP3 ADD PUSH1 0x40 MSTORE RETURNDATASIZE DUP3 MSTORE RETURNDATASIZE PUSH1 0x0 PUSH1 0x20 DUP5 ADD RETURNDATACOPY PUSH2 0x2092 JUMP JUMPDEST PUSH1 0x60 SWAP2 POP JUMPDEST POP DUP1 MLOAD PUSH1 0x0 SUB PUSH2 0x20B5 JUMPI PUSH1 0x40 MLOAD PUSH4 0x68D2BF6B PUSH1 0xE1 SHL DUP2 MSTORE PUSH1 0x4 ADD PUSH1 0x40 MLOAD DUP1 SWAP2 SUB SWAP1 REVERT JUMPDEST DUP1 MLOAD DUP2 PUSH1 0x20 ADD REVERT JUMPDEST PUSH1 0x1 PUSH1 0x1 PUSH1 0xE0 SHL SUB NOT AND PUSH4 0xA85BD01 PUSH1 0xE1 SHL EQ SWAP1 POP SWAP5 SWAP4 POP POP POP POP JUMP JUMPDEST PUSH1 0x0 DUP3 DUP2 MSTORE PUSH1 0x6 PUSH1 0x20 MSTORE PUSH1 0x40 DUP1 DUP3 KECCAK256 DUP1 SLOAD PUSH20 0xFFFFFFFFFFFFFFFFFFFFFFFFFFFFFFFFFFFFFFFF NOT AND PUSH1 0x1 PUSH1 0x1 PUSH1 0xA0 SHL SUB DUP8 DUP2 AND SWAP2 DUP3 OR SWAP1 SWAP3 SSTORE SWAP2 MLOAD DUP6 SWAP4 SWAP2 DUP6 AND SWAP2 PUSH32 0x8C5BE1E5EBEC7D5BD14F71427D1E84F3DD0314C0F7B2291E5B200AC8C7C3B925 SWAP2 LOG4 POP POP POP JUMP JUMPDEST PUSH1 0x0 PUSH2 0x214E DUP3 PUSH2 0x18E6 JUMP JUMPDEST SWAP1 POP DUP4 PUSH1 0x1 PUSH1 0x1 PUSH1 0xA0 SHL SUB AND DUP2 PUSH1 0x0 ADD MLOAD PUSH1 0x1 PUSH1 0x1 PUSH1 0xA0 SHL SUB AND EQ PUSH2 0x2185 JUMPI PUSH1 0x40 MLOAD PUSH3 0xA11481 PUSH1 0xE8 SHL DUP2 MSTORE PUSH1 0x4 ADD PUSH1 0x40 MLOAD DUP1 SWAP2 SUB SWAP1 REVERT JUMPDEST PUSH1 0x0 CALLER PUSH1 0x1 PUSH1 0x1 PUSH1 0xA0 SHL SUB DUP7 AND EQ DUP1 PUSH2 0x21A3 JUMPI POP PUSH2 0x21A3 DUP6 CALLER PUSH2 0x56F JUMP JUMPDEST DUP1 PUSH2 0x21BE JUMPI POP CALLER PUSH2 0x21B3 DUP5 PUSH2 0x6C9 JUMP JUMPDEST PUSH1 0x1 PUSH1 0x1 PUSH1 0xA0 SHL SUB AND EQ JUMPDEST SWAP1 POP DUP1 PUSH2 0x21DE JUMPI PUSH1 0x40 MLOAD PUSH4 0x2CE44B5F PUSH1 0xE1 SHL DUP2 MSTORE PUSH1 0x4 ADD PUSH1 0x40 MLOAD DUP1 SWAP2 SUB SWAP1 REVERT JUMPDEST PUSH1 0x1 PUSH1 0x1 PUSH1 0xA0 SHL SUB DUP5 AND PUSH2 0x2205 JUMPI PUSH1 0x40 MLOAD PUSH4 0x3A954ECD PUSH1 0xE2 SHL DUP2 MSTORE PUSH1 0x4 ADD PUSH1 0x40 MLOAD DUP1 SWAP2 SUB SWAP1 REVERT JUMPDEST PUSH2 0x2211 PUSH1 0x0 DUP5 DUP8 PUSH2 0x20DA JUMP JUMPDEST PUSH1 0x1 PUSH1 0x1 PUSH1 0xA0 SHL SUB DUP6 DUP2 AND PUSH1 0x0 SWAP1 DUP2 MSTORE PUSH1 0x5 PUSH1 0x20 SWAP1 DUP2 MSTORE PUSH1 0x40 DUP1 DUP4 KECCAK256 DUP1 SLOAD PUSH8 0xFFFFFFFFFFFFFFFF NOT DUP1 DUP3 AND PUSH8 0xFFFFFFFFFFFFFFFF SWAP3 DUP4 AND PUSH1 0x0 NOT ADD DUP4 AND OR SWAP1 SWAP3 SSTORE DUP10 DUP7 AND DUP1 DUP7 MSTORE DUP4 DUP7 KECCAK256 DUP1 SLOAD SWAP4 DUP5 AND SWAP4 DUP4 AND PUSH1 0x1 SWAP1 DUP2 ADD DUP5 AND SWAP5 SWAP1 SWAP5 OR SWAP1 SSTORE DUP10 DUP7 MSTORE PUSH1 0x4 SWAP1 SWAP5 MSTORE DUP3 DUP6 KECCAK256 DUP1 SLOAD PUSH1 0x1 PUSH1 0x1 PUSH1 0xE0 SHL SUB NOT AND SWAP1 SWAP5 OR PUSH1 0x1 PUSH1 0xA0 SHL TIMESTAMP SWAP1 SWAP3 AND SWAP2 SWAP1 SWAP2 MUL OR DUP4 SSTORE DUP8 ADD DUP1 DUP5 MSTORE SWAP3 KECCAK256 DUP1 SLOAD SWAP2 SWAP4 SWAP1 SWAP2 AND PUSH2 0x22E7 JUMPI PUSH1 0x0 SLOAD DUP3 EQ PUSH2 0x22E7 JUMPI DUP1 SLOAD PUSH1 0x20 DUP7 ADD MLOAD PUSH8 0xFFFFFFFFFFFFFFFF AND PUSH1 0x1 PUSH1 0xA0 SHL MUL PUSH1 0x1 PUSH1 0x1 PUSH1 0xE0 SHL SUB NOT SWAP1 SWAP2 AND PUSH1 0x1 PUSH1 0x1 PUSH1 0xA0 SHL SUB DUP11 AND OR OR DUP2 SSTORE JUMPDEST POP POP POP DUP3 DUP5 PUSH1 0x1 PUSH1 0x1 PUSH1 0xA0 SHL SUB AND DUP7 PUSH1 0x1 PUSH1 0x1 PUSH1 0xA0 SHL SUB AND PUSH32 0xDDF252AD1BE2C89B69C2B068FC378DAA952BA7F163C4A11628F55A4DF523B3EF PUSH1 0x40 MLOAD PUSH1 0x40 MLOAD DUP1 SWAP2 SUB SWAP1 LOG4 PUSH2 0xFF7 JUMP JUMPDEST PUSH1 0x60 PUSH1 0x1 PUSH1 0x1 PUSH1 0xA0 SHL SUB DUP5 AND EXTCODESIZE PUSH2 0x23AF JUMPI PUSH1 0x40 MLOAD PUSH3 0x461BCD PUSH1 0xE5 SHL DUP2 MSTORE PUSH1 0x20 PUSH1 0x4 DUP3 ADD MSTORE PUSH1 0x26 PUSH1 0x24 DUP3 ADD MSTORE PUSH32 0x416464726573733A2064656C65676174652063616C6C20746F206E6F6E2D636F PUSH1 0x44 DUP3 ADD MSTORE PUSH32 0x6E74726163740000000000000000000000000000000000000000000000000000 PUSH1 0x64 DUP3 ADD MSTORE PUSH1 0x84 ADD PUSH2 0x762 JUMP JUMPDEST PUSH1 0x0 DUP1 DUP6 PUSH1 0x1 PUSH1 0x1 PUSH1 0xA0 SHL SUB AND DUP6 PUSH1 0x40 MLOAD PUSH2 0x23CA SWAP2 SWAP1 PUSH2 0x2CC0 JUMP JUMPDEST PUSH1 0x0 PUSH1 0x40 MLOAD DUP1 DUP4 SUB DUP2 DUP6 GAS DELEGATECALL SWAP2 POP POP RETURNDATASIZE DUP1 PUSH1 0x0 DUP2 EQ PUSH2 0x2405 JUMPI PUSH1 0x40 MLOAD SWAP2 POP PUSH1 0x1F NOT PUSH1 0x3F RETURNDATASIZE ADD AND DUP3 ADD PUSH1 0x40 MSTORE RETURNDATASIZE DUP3 MSTORE RETURNDATASIZE PUSH1 0x0 PUSH1 0x20 DUP5 ADD RETURNDATACOPY PUSH2 0x240A JUMP JUMPDEST PUSH1 0x60 SWAP2 POP JUMPDEST POP SWAP2 POP SWAP2 POP PUSH2 0x241A DUP3 DUP3 DUP7 PUSH2 0x2424 JUMP JUMPDEST SWAP7 SWAP6 POP POP POP POP POP POP JUMP JUMPDEST PUSH1 0x60 DUP4 ISZERO PUSH2 0x2433 JUMPI POP DUP2 PUSH2 0x1CE1 JUMP JUMPDEST DUP3 MLOAD ISZERO PUSH2 0x2443 JUMPI DUP3 MLOAD DUP1 DUP5 PUSH1 0x20 ADD REVERT JUMPDEST DUP2 PUSH1 0x40 MLOAD PUSH3 0x461BCD PUSH1 0xE5 SHL DUP2 MSTORE PUSH1 0x4 ADD PUSH2 0x762 SWAP2 SWAP1 PUSH2 0x2689 JUMP JUMPDEST DUP3 DUP1 SLOAD PUSH2 0x2469 SWAP1 PUSH2 0x2AA7 JUMP JUMPDEST SWAP1 PUSH1 0x0 MSTORE PUSH1 0x20 PUSH1 0x0 KECCAK256 SWAP1 PUSH1 0x1F ADD PUSH1 0x20 SWAP1 DIV DUP2 ADD SWAP3 DUP3 PUSH2 0x248B JUMPI PUSH1 0x0 DUP6 SSTORE PUSH2 0x24D1 JUMP JUMPDEST DUP3 PUSH1 0x1F LT PUSH2 0x24A4 JUMPI DUP1 MLOAD PUSH1 0xFF NOT AND DUP4 DUP1 ADD OR DUP6 SSTORE PUSH2 0x24D1 JUMP JUMPDEST DUP3 DUP1 ADD PUSH1 0x1 ADD DUP6 SSTORE DUP3 ISZERO PUSH2 0x24D1 JUMPI SWAP2 DUP3 ADD JUMPDEST DUP3 DUP2 GT ISZERO PUSH2 0x24D1 JUMPI DUP3 MLOAD DUP3 SSTORE SWAP2 PUSH1 0x20 ADD SWAP2 SWAP1 PUSH1 0x1 ADD SWAP1 PUSH2 0x24B6 JUMP JUMPDEST POP PUSH2 0x24DD SWAP3 SWAP2 POP PUSH2 0x24E1 JUMP JUMPDEST POP SWAP1 JUMP JUMPDEST JUMPDEST DUP1 DUP3 GT ISZERO PUSH2 0x24DD JUMPI PUSH1 0x0 DUP2 SSTORE PUSH1 0x1 ADD PUSH2 0x24E2 JUMP JUMPDEST DUP1 CALLDATALOAD PUSH1 0x1 PUSH1 0x1 PUSH1 0xA0 SHL SUB DUP2 AND DUP2 EQ PUSH2 0xBD4 JUMPI PUSH1 0x0 DUP1 REVERT JUMPDEST PUSH4 0x4E487B71 PUSH1 0xE0 SHL PUSH1 0x0 MSTORE PUSH1 0x41 PUSH1 0x4 MSTORE PUSH1 0x24 PUSH1 0x0 REVERT JUMPDEST PUSH1 0x0 DUP3 PUSH1 0x1F DUP4 ADD SLT PUSH2 0x2534 JUMPI PUSH1 0x0 DUP1 REVERT JUMPDEST DUP2 CALLDATALOAD PUSH8 0xFFFFFFFFFFFFFFFF DUP1 DUP3 GT ISZERO PUSH2 0x254F JUMPI PUSH2 0x254F PUSH2 0x250D JUMP JUMPDEST PUSH1 0x40 MLOAD PUSH1 0x1F DUP4 ADD PUSH1 0x1F NOT SWAP1 DUP2 AND PUSH1 0x3F ADD AND DUP2 ADD SWAP1 DUP3 DUP3 GT DUP2 DUP4 LT OR ISZERO PUSH2 0x2577 JUMPI PUSH2 0x2577 PUSH2 0x250D JUMP JUMPDEST DUP2 PUSH1 0x40 MSTORE DUP4 DUP2 MSTORE DUP7 PUSH1 0x20 DUP6 DUP9 ADD ADD GT ISZERO PUSH2 0x2590 JUMPI PUSH1 0x0 DUP1 REVERT JUMPDEST DUP4 PUSH1 0x20 DUP8 ADD PUSH1 0x20 DUP4 ADD CALLDATACOPY PUSH1 0x0 PUSH1 0x20 DUP6 DUP4 ADD ADD MSTORE DUP1 SWAP5 POP POP POP POP POP SWAP3 SWAP2 POP POP JUMP JUMPDEST PUSH1 0x0 DUP1 PUSH1 0x40 DUP4 DUP6 SUB SLT ISZERO PUSH2 0x25C3 JUMPI PUSH1 0x0 DUP1 REVERT JUMPDEST PUSH2 0x25CC DUP4 PUSH2 0x24F6 JUMP JUMPDEST SWAP2 POP PUSH1 0x20 DUP4 ADD CALLDATALOAD PUSH8 0xFFFFFFFFFFFFFFFF DUP2 GT ISZERO PUSH2 0x25E8 JUMPI PUSH1 0x0 DUP1 REVERT JUMPDEST PUSH2 0x25F4 DUP6 DUP3 DUP7 ADD PUSH2 0x2523 JUMP JUMPDEST SWAP2 POP POP SWAP3 POP SWAP3 SWAP1 POP JUMP JUMPDEST PUSH1 0x1 PUSH1 0x1 PUSH1 0xE0 SHL SUB NOT DUP2 AND DUP2 EQ PUSH2 0x774 JUMPI PUSH1 0x0 DUP1 REVERT JUMPDEST PUSH1 0x0 PUSH1 0x20 DUP3 DUP5 SUB SLT ISZERO PUSH2 0x2626 JUMPI PUSH1 0x0 DUP1 REVERT JUMPDEST DUP2 CALLDATALOAD PUSH2 0x1CE1 DUP2 PUSH2 0x25FE JUMP JUMPDEST PUSH1 0x0 JUMPDEST DUP4 DUP2 LT ISZERO PUSH2 0x264C JUMPI DUP2 DUP2 ADD MLOAD DUP4 DUP3 ADD MSTORE PUSH1 0x20 ADD PUSH2 0x2634 JUMP JUMPDEST DUP4 DUP2 GT ISZERO PUSH2 0x811 JUMPI POP POP PUSH1 0x0 SWAP2 ADD MSTORE JUMP JUMPDEST PUSH1 0x0 DUP2 MLOAD DUP1 DUP5 MSTORE PUSH2 0x2675 DUP2 PUSH1 0x20 DUP7 ADD PUSH1 0x20 DUP7 ADD PUSH2 0x2631 JUMP JUMPDEST PUSH1 0x1F ADD PUSH1 0x1F NOT AND SWAP3 SWAP1 SWAP3 ADD PUSH1 0x20 ADD SWAP3 SWAP2 POP POP JUMP JUMPDEST PUSH1 0x20 DUP2 MSTORE PUSH1 0x0 PUSH2 0x1CE1 PUSH1 0x20 DUP4 ADD DUP5 PUSH2 0x265D JUMP JUMPDEST PUSH1 0x0 PUSH1 0x20 DUP3 DUP5 SUB SLT ISZERO PUSH2 0x26AE JUMPI PUSH1 0x0 DUP1 REVERT JUMPDEST POP CALLDATALOAD SWAP2 SWAP1 POP JUMP JUMPDEST PUSH1 0x0 DUP1 PUSH1 0x40 DUP4 DUP6 SUB SLT ISZERO PUSH2 0x26C8 JUMPI PUSH1 0x0 DUP1 REVERT JUMPDEST PUSH2 0x26D1 DUP4 PUSH2 0x24F6 JUMP JUMPDEST SWAP5 PUSH1 0x20 SWAP4 SWAP1 SWAP4 ADD CALLDATALOAD SWAP4 POP POP POP JUMP JUMPDEST PUSH1 0x0 PUSH1 0x20 DUP3 DUP5 SUB SLT ISZERO PUSH2 0x26F1 JUMPI PUSH1 0x0 DUP1 REVERT JUMPDEST PUSH2 0x1CE1 DUP3 PUSH2 0x24F6 JUMP JUMPDEST PUSH1 0x0 DUP1 PUSH1 0x0 PUSH1 0x60 DUP5 DUP7 SUB SLT ISZERO PUSH2 0x270F JUMPI PUSH1 0x0 DUP1 REVERT JUMPDEST DUP4 CALLDATALOAD SWAP3 POP PUSH1 0x20 DUP5 ADD CALLDATALOAD PUSH8 0xFFFFFFFFFFFFFFFF DUP1 DUP3 GT ISZERO PUSH2 0x272E JUMPI PUSH1 0x0 DUP1 REVERT JUMPDEST PUSH2 0x273A DUP8 DUP4 DUP9 ADD PUSH2 0x2523 JUMP JUMPDEST SWAP4 POP PUSH1 0x40 DUP7 ADD CALLDATALOAD SWAP2 POP DUP1 DUP3 GT ISZERO PUSH2 0x2750 JUMPI PUSH1 0x0 DUP1 REVERT JUMPDEST POP PUSH2 0x275D DUP7 DUP3 DUP8 ADD PUSH2 0x2523 JUMP JUMPDEST SWAP2 POP POP SWAP3 POP SWAP3 POP SWAP3 JUMP JUMPDEST PUSH1 0x0 DUP1 PUSH1 0x0 PUSH1 0x60 DUP5 DUP7 SUB SLT ISZERO PUSH2 0x277C JUMPI PUSH1 0x0 DUP1 REVERT JUMPDEST PUSH2 0x2785 DUP5 PUSH2 0x24F6 JUMP JUMPDEST SWAP3 POP PUSH2 0x2793 PUSH1 0x20 DUP6 ADD PUSH2 0x24F6 JUMP JUMPDEST SWAP2 POP PUSH1 0x40 DUP5 ADD CALLDATALOAD SWAP1 POP SWAP3 POP SWAP3 POP SWAP3 JUMP JUMPDEST PUSH1 0x0 DUP1 PUSH1 0x40 DUP4 DUP6 SUB SLT ISZERO PUSH2 0x27B6 JUMPI PUSH1 0x0 DUP1 REVERT JUMPDEST POP POP DUP1 CALLDATALOAD SWAP3 PUSH1 0x20 SWAP1 SWAP2 ADD CALLDATALOAD SWAP2 POP JUMP JUMPDEST DUP1 ISZERO ISZERO DUP2 EQ PUSH2 0x774 JUMPI PUSH1 0x0 DUP1 REVERT JUMPDEST PUSH1 0x0 PUSH1 0x20 DUP3 DUP5 SUB SLT ISZERO PUSH2 0x27E5 JUMPI PUSH1 0x0 DUP1 REVERT JUMPDEST DUP2 CALLDATALOAD PUSH2 0x1CE1 DUP2 PUSH2 0x27C5 JUMP JUMPDEST PUSH1 0x20 DUP2 MSTORE PUSH1 0x0 DUP3 MLOAD PUSH1 0x40 PUSH1 0x20 DUP5 ADD MSTORE PUSH2 0x280C PUSH1 0x60 DUP5 ADD DUP3 PUSH2 0x265D JUMP JUMPDEST SWAP1 POP PUSH1 0x20 DUP5 ADD MLOAD PUSH1 0x1F NOT DUP5 DUP4 SUB ADD PUSH1 0x40 DUP6 ADD MSTORE PUSH2 0x2829 DUP3 DUP3 PUSH2 0x265D JUMP JUMPDEST SWAP6 SWAP5 POP POP POP POP POP JUMP JUMPDEST PUSH1 0x0 DUP1 PUSH1 0x0 DUP1 PUSH1 0x80 DUP6 DUP8 SUB SLT ISZERO PUSH2 0x2848 JUMPI PUSH1 0x0 DUP1 REVERT JUMPDEST PUSH2 0x2851 DUP6 PUSH2 0x24F6 JUMP JUMPDEST SWAP4 POP PUSH1 0x20 DUP6 ADD CALLDATALOAD SWAP3 POP PUSH1 0x40 DUP6 ADD CALLDATALOAD PUSH8 0xFFFFFFFFFFFFFFFF DUP1 DUP3 GT ISZERO PUSH2 0x2875 JUMPI PUSH1 0x0 DUP1 REVERT JUMPDEST PUSH2 0x2881 DUP9 DUP4 DUP10 ADD PUSH2 0x2523 JUMP JUMPDEST SWAP4 POP PUSH1 0x60 DUP8 ADD CALLDATALOAD SWAP2 POP DUP1 DUP3 GT ISZERO PUSH2 0x2897 JUMPI PUSH1 0x0 DUP1 REVERT JUMPDEST POP PUSH2 0x28A4 DUP8 DUP3 DUP9 ADD PUSH2 0x2523 JUMP JUMPDEST SWAP2 POP POP SWAP3 SWAP6 SWAP2 SWAP5 POP SWAP3 POP JUMP JUMPDEST PUSH1 0x0 PUSH1 0x20 DUP3 DUP5 SUB SLT ISZERO PUSH2 0x28C2 JUMPI PUSH1 0x0 DUP1 REVERT JUMPDEST DUP2 CALLDATALOAD PUSH8 0xFFFFFFFFFFFFFFFF DUP2 GT ISZERO PUSH2 0x28D9 JUMPI PUSH1 0x0 DUP1 REVERT JUMPDEST PUSH2 0xC80 DUP5 DUP3 DUP6 ADD PUSH2 0x2523 JUMP JUMPDEST PUSH1 0x0 DUP1 PUSH1 0x0 PUSH1 0x60 DUP5 DUP7 SUB SLT ISZERO PUSH2 0x28FA JUMPI PUSH1 0x0 DUP1 REVERT JUMPDEST DUP4 CALLDATALOAD SWAP3 POP PUSH2 0x2793 PUSH1 0x20 DUP6 ADD PUSH2 0x24F6 JUMP JUMPDEST PUSH1 0x0 DUP1 PUSH1 0x40 DUP4 DUP6 SUB SLT ISZERO PUSH2 0x291D JUMPI PUSH1 0x0 DUP1 REVERT JUMPDEST PUSH2 0x2926 DUP4 PUSH2 0x24F6 JUMP JUMPDEST SWAP2 POP PUSH1 0x20 DUP4 ADD CALLDATALOAD PUSH2 0x2936 DUP2 PUSH2 0x27C5 JUMP JUMPDEST DUP1 SWAP2 POP POP SWAP3 POP SWAP3 SWAP1 POP JUMP JUMPDEST PUSH1 0x0 DUP1 PUSH1 0x20 DUP4 DUP6 SUB SLT ISZERO PUSH2 0x2954 JUMPI PUSH1 0x0 DUP1 REVERT JUMPDEST DUP3 CALLDATALOAD PUSH8 0xFFFFFFFFFFFFFFFF DUP1 DUP3 GT ISZERO PUSH2 0x296C JUMPI PUSH1 0x0 DUP1 REVERT JUMPDEST DUP2 DUP6 ADD SWAP2 POP DUP6 PUSH1 0x1F DUP4 ADD SLT PUSH2 0x2980 JUMPI PUSH1 0x0 DUP1 REVERT JUMPDEST DUP2 CALLDATALOAD DUP2 DUP2 GT ISZERO PUSH2 0x298F JUMPI PUSH1 0x0 DUP1 REVERT JUMPDEST DUP7 PUSH1 0x20 DUP3 PUSH1 0x5 SHL DUP6 ADD ADD GT ISZERO PUSH2 0x29A4 JUMPI PUSH1 0x0 DUP1 REVERT JUMPDEST PUSH1 0x20 SWAP3 SWAP1 SWAP3 ADD SWAP7 SWAP2 SWAP6 POP SWAP1 SWAP4 POP POP POP POP JUMP JUMPDEST PUSH1 0x0 PUSH1 0x20 DUP1 DUP4 ADD DUP2 DUP5 MSTORE DUP1 DUP6 MLOAD DUP1 DUP4 MSTORE PUSH1 0x40 DUP7 ADD SWAP2 POP PUSH1 0x40 DUP2 PUSH1 0x5 SHL DUP8 ADD ADD SWAP3 POP DUP4 DUP8 ADD PUSH1 0x0 JUMPDEST DUP3 DUP2 LT ISZERO PUSH2 0x2A0B JUMPI PUSH1 0x3F NOT DUP9 DUP7 SUB ADD DUP5 MSTORE PUSH2 0x29F9 DUP6 DUP4 MLOAD PUSH2 0x265D JUMP JUMPDEST SWAP5 POP SWAP3 DUP6 ADD SWAP3 SWAP1 DUP6 ADD SWAP1 PUSH1 0x1 ADD PUSH2 0x29DD JUMP JUMPDEST POP SWAP3 SWAP8 SWAP7 POP POP POP POP POP POP POP JUMP JUMPDEST PUSH1 0x0 DUP1 PUSH1 0x0 DUP1 PUSH1 0x80 DUP6 DUP8 SUB SLT ISZERO PUSH2 0x2A2E JUMPI PUSH1 0x0 DUP1 REVERT JUMPDEST PUSH2 0x2A37 DUP6 PUSH2 0x24F6 JUMP JUMPDEST SWAP4 POP PUSH2 0x2A45 PUSH1 0x20 DUP7 ADD PUSH2 0x24F6 JUMP JUMPDEST SWAP3 POP PUSH1 0x40 DUP6 ADD CALLDATALOAD SWAP2 POP PUSH1 0x60 DUP6 ADD CALLDATALOAD PUSH8 0xFFFFFFFFFFFFFFFF DUP2 GT ISZERO PUSH2 0x2A68 JUMPI PUSH1 0x0 DUP1 REVERT JUMPDEST PUSH2 0x28A4 DUP8 DUP3 DUP9 ADD PUSH2 0x2523 JUMP JUMPDEST PUSH1 0x0 DUP1 PUSH1 0x40 DUP4 DUP6 SUB SLT ISZERO PUSH2 0x2A87 JUMPI PUSH1 0x0 DUP1 REVERT JUMPDEST PUSH2 0x2A90 DUP4 PUSH2 0x24F6 JUMP JUMPDEST SWAP2 POP PUSH2 0x2A9E PUSH1 0x20 DUP5 ADD PUSH2 0x24F6 JUMP JUMPDEST SWAP1 POP SWAP3 POP SWAP3 SWAP1 POP JUMP JUMPDEST PUSH1 0x1 DUP2 DUP2 SHR SWAP1 DUP3 AND DUP1 PUSH2 0x2ABB JUMPI PUSH1 0x7F DUP3 AND SWAP2 POP JUMPDEST PUSH1 0x20 DUP3 LT DUP2 SUB PUSH2 0x2ADB JUMPI PUSH4 0x4E487B71 PUSH1 0xE0 SHL PUSH1 0x0 MSTORE PUSH1 0x22 PUSH1 0x4 MSTORE PUSH1 0x24 PUSH1 0x0 REVERT JUMPDEST POP SWAP2 SWAP1 POP JUMP JUMPDEST PUSH4 0x4E487B71 PUSH1 0xE0 SHL PUSH1 0x0 MSTORE PUSH1 0x32 PUSH1 0x4 MSTORE PUSH1 0x24 PUSH1 0x0 REVERT JUMPDEST PUSH4 0x4E487B71 PUSH1 0xE0 SHL PUSH1 0x0 MSTORE PUSH1 0x11 PUSH1 0x4 MSTORE PUSH1 0x24 PUSH1 0x0 REVERT JUMPDEST PUSH1 0x0 DUP2 PUSH1 0x0 NOT DIV DUP4 GT DUP3 ISZERO ISZERO AND ISZERO PUSH2 0x2B27 JUMPI PUSH2 0x2B27 PUSH2 0x2AF7 JUMP JUMPDEST POP MUL SWAP1 JUMP JUMPDEST PUSH4 0x4E487B71 PUSH1 0xE0 SHL PUSH1 0x0 MSTORE PUSH1 0x12 PUSH1 0x4 MSTORE PUSH1 0x24 PUSH1 0x0 REVERT JUMPDEST PUSH1 0x0 DUP3 PUSH2 0x2B51 JUMPI PUSH2 0x2B51 PUSH2 0x2B2C JUMP JUMPDEST POP DIV SWAP1 JUMP JUMPDEST PUSH1 0x0 DUP1 DUP4 CALLDATALOAD PUSH1 0x1E NOT DUP5 CALLDATASIZE SUB ADD DUP2 SLT PUSH2 0x2B6D JUMPI PUSH1 0x0 DUP1 REVERT JUMPDEST DUP4 ADD DUP1 CALLDATALOAD SWAP2 POP PUSH8 0xFFFFFFFFFFFFFFFF DUP3 GT ISZERO PUSH2 0x2B88 JUMPI PUSH1 0x0 DUP1 REVERT JUMPDEST PUSH1 0x20 ADD SWAP2 POP CALLDATASIZE DUP2 SWAP1 SUB DUP3 SGT ISZERO PUSH2 0x2B9D JUMPI PUSH1 0x0 DUP1 REVERT JUMPDEST SWAP3 POP SWAP3 SWAP1 POP JUMP JUMPDEST PUSH1 0x0 PUSH1 0x1 DUP3 ADD PUSH2 0x2BB6 JUMPI PUSH2 0x2BB6 PUSH2 0x2AF7 JUMP JUMPDEST POP PUSH1 0x1 ADD SWAP1 JUMP JUMPDEST PUSH1 0x0 DUP4 MLOAD PUSH2 0x2BCF DUP2 DUP5 PUSH1 0x20 DUP9 ADD PUSH2 0x2631 JUMP JUMPDEST DUP4 MLOAD SWAP1 DUP4 ADD SWAP1 PUSH2 0x2BE3 DUP2 DUP4 PUSH1 0x20 DUP9 ADD PUSH2 0x2631 JUMP JUMPDEST ADD SWAP5 SWAP4 POP POP POP POP JUMP JUMPDEST PUSH1 0x0 PUSH1 0x20 DUP3 DUP5 SUB SLT ISZERO PUSH2 0x2BFE JUMPI PUSH1 0x0 DUP1 REVERT JUMPDEST DUP2 MLOAD PUSH2 0x1CE1 DUP2 PUSH2 0x27C5 JUMP JUMPDEST PUSH1 0x0 DUP3 NOT DUP3 GT ISZERO PUSH2 0x2C1C JUMPI PUSH2 0x2C1C PUSH2 0x2AF7 JUMP JUMPDEST POP ADD SWAP1 JUMP JUMPDEST PUSH1 0x40 DUP2 MSTORE PUSH1 0x0 PUSH2 0x2C34 PUSH1 0x40 DUP4 ADD DUP6 PUSH2 0x265D JUMP JUMPDEST DUP3 DUP2 SUB PUSH1 0x20 DUP5 ADD MSTORE PUSH2 0x2829 DUP2 DUP6 PUSH2 0x265D JUMP JUMPDEST PUSH1 0x0 DUP3 DUP3 LT ISZERO PUSH2 0x2C58 JUMPI PUSH2 0x2C58 PUSH2 0x2AF7 JUMP JUMPDEST POP SUB SWAP1 JUMP JUMPDEST PUSH1 0x0 DUP3 PUSH2 0x2C6C JUMPI PUSH2 0x2C6C PUSH2 0x2B2C JUMP JUMPDEST POP MOD SWAP1 JUMP JUMPDEST PUSH1 0x0 PUSH1 0x1 PUSH1 0x1 PUSH1 0xA0 SHL SUB DUP1 DUP8 AND DUP4 MSTORE DUP1 DUP7 AND PUSH1 0x20 DUP5 ADD MSTORE POP DUP4 PUSH1 0x40 DUP4 ADD MSTORE PUSH1 0x80 PUSH1 0x60 DUP4 ADD MSTORE PUSH2 0x241A PUSH1 0x80 DUP4 ADD DUP5 PUSH2 0x265D JUMP JUMPDEST PUSH1 0x0 PUSH1 0x20 DUP3 DUP5 SUB SLT ISZERO PUSH2 0x2CB5 JUMPI PUSH1 0x0 DUP1 REVERT JUMPDEST DUP2 MLOAD PUSH2 0x1CE1 DUP2 PUSH2 0x25FE JUMP JUMPDEST PUSH1 0x0 DUP3 MLOAD PUSH2 0x2CD2 DUP2 DUP5 PUSH1 0x20 DUP8 ADD PUSH2 0x2631 JUMP JUMPDEST SWAP2 SWAP1 SWAP2 ADD SWAP3 SWAP2 POP POP JUMP INVALID PUSH9 0x747470733A2F2F6970 PUSH7 0x732E7468697264 PUSH24 0x656263646E2E636F6D2F697066732F516D66586674467876 SSTORE PUSH10 0x34336F553769736D4845 PUSH12 0x5252614D736D396662366B77 PC CODESIZE MSTORE PUSH9 0x464C4D77336174792F SLOAD 0x2D POP PUSH16 0x73652E666278416464726573733A206C PUSH16 0x772D6C6576656C2064656C6567617465 KECCAK256 PUSH4 0x616C6C20 PUSH7 0x61696C6564A264 PUSH10 0x7066735822122073AE15 PUSH17 0x59640306692BAF8302B5942D0550B9D02A DUP5 EXTCODESIZE ADD SUB MSIZE 0xC1 GASLIMIT 0x23 MULMOD 0xFB PUSH15 0x64736F6C634300080D003300000000 "
    },
    "gasEstimates": {
      "creation": {
        "codeDepositCost": "2333600",
        "executionCost": "infinite",
        "totalCost": "infinite"
      },
      "external": {
        "OPERATOR_FILTER_REGISTRY()": "306",
        "approve(address,uint256)": "infinite",
        "balanceOf(address)": "2685",
        "batchMintTo(address,uint256,string,bytes)": "infinite",
        "burn(uint256)": "infinite",
        "contractURI()": "infinite",
        "getApproved(uint256)": "6981",
        "getBaseURICount()": "2360",
        "getBatchIdAtIndex(uint256)": "6761",
        "getDefaultRoyaltyInfo()": "2454",
        "getNftAnimation(uint256)": "infinite",
        "getRoyaltyInfoForToken(uint256)": "6937",
        "isApprovedForAll(address,address)": "infinite",
        "isApprovedOrOwner(address,uint256)": "infinite",
        "mintTo(address,string)": "infinite",
        "multicall(bytes[])": "infinite",
        "name()": "infinite",
        "nextTokenIdToMint()": "2360",
        "operatorRestriction()": "2367",
        "owner()": "2420",
        "ownerOf(uint256)": "infinite",
        "royaltyInfo(uint256,uint256)": "7222",
        "safeTransferFrom(address,address,uint256)": "infinite",
        "safeTransferFrom(address,address,uint256,bytes)": "infinite",
        "setAnimationUrl(uint256,string,string)": "infinite",
        "setApprovalForAll(address,bool)": "infinite",
        "setContractURI(string)": "infinite",
        "setDefaultRoyaltyInfo(address,uint256)": "28412",
        "setOperatorRestriction(bool)": "infinite",
        "setOwner(address)": "28442",
        "setRoyaltyInfoForToken(uint256,address,uint256)": "51047",
        "supportsInterface(bytes4)": "634",
        "symbol()": "infinite",
        "tokenURI(uint256)": "infinite",
        "totalSupply()": "4477",
        "transferFrom(address,address,uint256)": "infinite"
      }
    },
    "methodIdentifiers": {
      "OPERATOR_FILTER_REGISTRY()": "41f43434",
      "approve(address,uint256)": "095ea7b3",
      "balanceOf(address)": "70a08231",
      "batchMintTo(address,uint256,string,bytes)": "754a81d9",
      "burn(uint256)": "42966c68",
      "contractURI()": "e8a3d485",
      "getApproved(uint256)": "081812fc",
      "getBaseURICount()": "63b45e2d",
      "getBatchIdAtIndex(uint256)": "2419f51b",
      "getDefaultRoyaltyInfo()": "b24f2d39",
      "getNftAnimation(uint256)": "3a5376b6",
      "getRoyaltyInfoForToken(uint256)": "4cc157df",
      "isApprovedForAll(address,address)": "e985e9c5",
      "isApprovedOrOwner(address,uint256)": "430c2081",
      "mintTo(address,string)": "0075a317",
      "multicall(bytes[])": "ac9650d8",
      "name()": "06fdde03",
      "nextTokenIdToMint()": "3b1475a7",
      "operatorRestriction()": "504c6e01",
      "owner()": "8da5cb5b",
      "ownerOf(uint256)": "6352211e",
      "royaltyInfo(uint256,uint256)": "2a55205a",
      "safeTransferFrom(address,address,uint256)": "42842e0e",
      "safeTransferFrom(address,address,uint256,bytes)": "b88d4fde",
      "setAnimationUrl(uint256,string,string)": "13feba47",
      "setApprovalForAll(address,bool)": "a22cb465",
      "setContractURI(string)": "938e3d7b",
      "setDefaultRoyaltyInfo(address,uint256)": "600dd5ea",
      "setOperatorRestriction(bool)": "32f0cd64",
      "setOwner(address)": "13af4035",
      "setRoyaltyInfoForToken(uint256,address,uint256)": "9bcf7a15",
      "supportsInterface(bytes4)": "01ffc9a7",
      "symbol()": "95d89b41",
      "tokenURI(uint256)": "c87b56dd",
      "totalSupply()": "18160ddd",
      "transferFrom(address,address,uint256)": "23b872dd"
    }
  },
  "storageLayout": {
    "storage": [
      {
        "astId": 687,
        "contract": "DynamicNFT.sol:DynamicNFT",
        "label": "_currentIndex",
        "offset": 0,
        "slot": "0",
        "type": "t_uint256"
      },
      {
        "astId": 689,
        "contract": "DynamicNFT.sol:DynamicNFT",
        "label": "_burnCounter",
        "offset": 0,
        "slot": "1",
        "type": "t_uint256"
      },
      {
        "astId": 691,
        "contract": "DynamicNFT.sol:DynamicNFT",
        "label": "_name",
        "offset": 0,
        "slot": "2",
        "type": "t_string_storage"
      },
      {
        "astId": 693,
        "contract": "DynamicNFT.sol:DynamicNFT",
        "label": "_symbol",
        "offset": 0,
        "slot": "3",
        "type": "t_string_storage"
      },
      {
        "astId": 698,
        "contract": "DynamicNFT.sol:DynamicNFT",
        "label": "_ownerships",
        "offset": 0,
        "slot": "4",
        "type": "t_mapping(t_uint256,t_struct(TokenOwnership)2954_storage)"
      },
      {
        "astId": 703,
        "contract": "DynamicNFT.sol:DynamicNFT",
        "label": "_addressData",
        "offset": 0,
        "slot": "5",
        "type": "t_mapping(t_address,t_struct(AddressData)2963_storage)"
      },
      {
        "astId": 707,
        "contract": "DynamicNFT.sol:DynamicNFT",
        "label": "_tokenApprovals",
        "offset": 0,
        "slot": "6",
        "type": "t_mapping(t_uint256,t_address)"
      },
      {
        "astId": 713,
        "contract": "DynamicNFT.sol:DynamicNFT",
        "label": "_operatorApprovals",
        "offset": 0,
        "slot": "7",
        "type": "t_mapping(t_address,t_mapping(t_address,t_bool))"
      },
      {
        "astId": 616,
        "contract": "DynamicNFT.sol:DynamicNFT",
        "label": "contractURI",
        "offset": 0,
        "slot": "8",
        "type": "t_string_storage"
      },
      {
        "astId": 2337,
        "contract": "DynamicNFT.sol:DynamicNFT",
        "label": "_owner",
        "offset": 0,
        "slot": "9",
        "type": "t_address"
      },
      {
        "astId": 2419,
        "contract": "DynamicNFT.sol:DynamicNFT",
        "label": "royaltyRecipient",
        "offset": 0,
        "slot": "10",
        "type": "t_address"
      },
      {
        "astId": 2422,
        "contract": "DynamicNFT.sol:DynamicNFT",
        "label": "royaltyBps",
        "offset": 20,
        "slot": "10",
        "type": "t_uint16"
      },
      {
        "astId": 2428,
        "contract": "DynamicNFT.sol:DynamicNFT",
        "label": "royaltyInfoForToken",
        "offset": 0,
        "slot": "11",
        "type": "t_mapping(t_uint256,t_struct(RoyaltyInfo)3492_storage)"
      },
      {
        "astId": 2044,
        "contract": "DynamicNFT.sol:DynamicNFT",
        "label": "batchIds",
        "offset": 0,
        "slot": "12",
        "type": "t_array(t_uint256)dyn_storage"
      },
      {
        "astId": 2049,
        "contract": "DynamicNFT.sol:DynamicNFT",
        "label": "baseURI",
        "offset": 0,
        "slot": "13",
        "type": "t_mapping(t_uint256,t_string_storage)"
      },
      {
        "astId": 3701,
        "contract": "DynamicNFT.sol:DynamicNFT",
        "label": "operatorRestriction",
        "offset": 0,
        "slot": "14",
        "type": "t_bool"
      },
      {
        "astId": 172,
        "contract": "DynamicNFT.sol:DynamicNFT",
        "label": "fullURI",
        "offset": 0,
        "slot": "15",
        "type": "t_mapping(t_uint256,t_string_storage)"
      },
      {
        "astId": 15,
        "contract": "DynamicNFT.sol:DynamicNFT",
        "label": "_NftAnimation",
        "offset": 0,
        "slot": "16",
        "type": "t_mapping(t_uint256,t_struct(NftAnimation)10_storage)"
      }
    ],
    "types": {
      "t_address": {
        "encoding": "inplace",
        "label": "address",
        "numberOfBytes": "20"
      },
      "t_array(t_uint256)dyn_storage": {
        "base": "t_uint256",
        "encoding": "dynamic_array",
        "label": "uint256[]",
        "numberOfBytes": "32"
      },
      "t_bool": {
        "encoding": "inplace",
        "label": "bool",
        "numberOfBytes": "1"
      },
      "t_mapping(t_address,t_bool)": {
        "encoding": "mapping",
        "key": "t_address",
        "label": "mapping(address => bool)",
        "numberOfBytes": "32",
        "value": "t_bool"
      },
      "t_mapping(t_address,t_mapping(t_address,t_bool))": {
        "encoding": "mapping",
        "key": "t_address",
        "label": "mapping(address => mapping(address => bool))",
        "numberOfBytes": "32",
        "value": "t_mapping(t_address,t_bool)"
      },
      "t_mapping(t_address,t_struct(AddressData)2963_storage)": {
        "encoding": "mapping",
        "key": "t_address",
        "label": "mapping(address => struct IERC721A.AddressData)",
        "numberOfBytes": "32",
        "value": "t_struct(AddressData)2963_storage"
      },
      "t_mapping(t_uint256,t_address)": {
        "encoding": "mapping",
        "key": "t_uint256",
        "label": "mapping(uint256 => address)",
        "numberOfBytes": "32",
        "value": "t_address"
      },
      "t_mapping(t_uint256,t_string_storage)": {
        "encoding": "mapping",
        "key": "t_uint256",
        "label": "mapping(uint256 => string)",
        "numberOfBytes": "32",
        "value": "t_string_storage"
      },
      "t_mapping(t_uint256,t_struct(NftAnimation)10_storage)": {
        "encoding": "mapping",
        "key": "t_uint256",
        "label": "mapping(uint256 => struct DynamicNFT.NftAnimation)",
        "numberOfBytes": "32",
        "value": "t_struct(NftAnimation)10_storage"
      },
      "t_mapping(t_uint256,t_struct(RoyaltyInfo)3492_storage)": {
        "encoding": "mapping",
        "key": "t_uint256",
        "label": "mapping(uint256 => struct IRoyalty.RoyaltyInfo)",
        "numberOfBytes": "32",
        "value": "t_struct(RoyaltyInfo)3492_storage"
      },
      "t_mapping(t_uint256,t_struct(TokenOwnership)2954_storage)": {
        "encoding": "mapping",
        "key": "t_uint256",
        "label": "mapping(uint256 => struct IERC721A.TokenOwnership)",
        "numberOfBytes": "32",
        "value": "t_struct(TokenOwnership)2954_storage"
      },
      "t_string_storage": {
        "encoding": "bytes",
        "label": "string",
        "numberOfBytes": "32"
      },
      "t_struct(AddressData)2963_storage": {
        "encoding": "inplace",
        "label": "struct IERC721A.AddressData",
        "members": [
          {
            "astId": 2956,
            "contract": "DynamicNFT.sol:DynamicNFT",
            "label": "balance",
            "offset": 0,
            "slot": "0",
            "type": "t_uint64"
          },
          {
            "astId": 2958,
            "contract": "DynamicNFT.sol:DynamicNFT",
            "label": "numberMinted",
            "offset": 8,
            "slot": "0",
            "type": "t_uint64"
          },
          {
            "astId": 2960,
            "contract": "DynamicNFT.sol:DynamicNFT",
            "label": "numberBurned",
            "offset": 16,
            "slot": "0",
            "type": "t_uint64"
          },
          {
            "astId": 2962,
            "contract": "DynamicNFT.sol:DynamicNFT",
            "label": "aux",
            "offset": 24,
            "slot": "0",
            "type": "t_uint64"
          }
        ],
        "numberOfBytes": "32"
      },
      "t_struct(NftAnimation)10_storage": {
        "encoding": "inplace",
        "label": "struct DynamicNFT.NftAnimation",
        "members": [
          {
            "astId": 7,
            "contract": "DynamicNFT.sol:DynamicNFT",
            "label": "name",
            "offset": 0,
            "slot": "0",
            "type": "t_string_storage"
          },
          {
            "astId": 9,
            "contract": "DynamicNFT.sol:DynamicNFT",
            "label": "animationUrl",
            "offset": 0,
            "slot": "1",
            "type": "t_string_storage"
          }
        ],
        "numberOfBytes": "64"
      },
      "t_struct(RoyaltyInfo)3492_storage": {
        "encoding": "inplace",
        "label": "struct IRoyalty.RoyaltyInfo",
        "members": [
          {
            "astId": 3489,
            "contract": "DynamicNFT.sol:DynamicNFT",
            "label": "recipient",
            "offset": 0,
            "slot": "0",
            "type": "t_address"
          },
          {
            "astId": 3491,
            "contract": "DynamicNFT.sol:DynamicNFT",
            "label": "bps",
            "offset": 0,
            "slot": "1",
            "type": "t_uint256"
          }
        ],
        "numberOfBytes": "64"
      },
      "t_struct(TokenOwnership)2954_storage": {
        "encoding": "inplace",
        "label": "struct IERC721A.TokenOwnership",
        "members": [
          {
            "astId": 2949,
            "contract": "DynamicNFT.sol:DynamicNFT",
            "label": "addr",
            "offset": 0,
            "slot": "0",
            "type": "t_address"
          },
          {
            "astId": 2951,
            "contract": "DynamicNFT.sol:DynamicNFT",
            "label": "startTimestamp",
            "offset": 20,
            "slot": "0",
            "type": "t_uint64"
          },
          {
            "astId": 2953,
            "contract": "DynamicNFT.sol:DynamicNFT",
            "label": "burned",
            "offset": 28,
            "slot": "0",
            "type": "t_bool"
          }
        ],
        "numberOfBytes": "32"
      },
      "t_uint16": {
        "encoding": "inplace",
        "label": "uint16",
        "numberOfBytes": "2"
      },
      "t_uint256": {
        "encoding": "inplace",
        "label": "uint256",
        "numberOfBytes": "32"
      },
      "t_uint64": {
        "encoding": "inplace",
        "label": "uint64",
        "numberOfBytes": "8"
      }
    }
  },
  "userdoc": {
    "errors": {
      "ApprovalCallerNotOwnerNorApproved()": [
        {
          "notice": "The caller must own the token or be an approved operator."
        }
      ],
      "ApprovalQueryForNonexistentToken()": [
        {
          "notice": "The token does not exist."
        }
      ],
      "ApprovalToCurrentOwner()": [
        {
          "notice": "The caller cannot approve to the current owner."
        }
      ],
      "ApproveToCaller()": [
        {
          "notice": "The caller cannot approve to their own address."
        }
      ],
      "BalanceQueryForZeroAddress()": [
        {
          "notice": "Cannot query the balance for the zero address."
        }
      ],
      "MintToZeroAddress()": [
        {
          "notice": "Cannot mint to the zero address."
        }
      ],
      "MintZeroQuantity()": [
        {
          "notice": "The quantity of tokens minted must be more than zero."
        }
      ],
      "OwnerQueryForNonexistentToken()": [
        {
          "notice": "The token does not exist."
        }
      ],
      "TransferCallerNotOwnerNorApproved()": [
        {
          "notice": "The caller must own the token or be an approved operator."
        }
      ],
      "TransferFromIncorrectOwner()": [
        {
          "notice": "The token must be owned by `from`."
        }
      ],
      "TransferToNonERC721ReceiverImplementer()": [
        {
          "notice": "Cannot safely transfer to a contract that does not implement the ERC721Receiver interface."
        }
      ],
      "TransferToZeroAddress()": [
        {
          "notice": "Cannot transfer to the zero address."
        }
      ],
      "URIQueryForNonexistentToken()": [
        {
          "notice": "The token does not exist."
        }
      ]
    },
    "kind": "user",
    "methods": {
      "batchMintTo(address,uint256,string,bytes)": {
        "notice": "Lets an authorized address mint multiple NFTs at once to a recipient."
      },
      "burn(uint256)": {
        "notice": "Lets an owner or approved operator burn the NFT of the given tokenId."
      },
      "contractURI()": {
        "notice": "Returns the contract metadata URI."
      },
      "getBaseURICount()": {
        "notice": "Returns the count of batches of NFTs."
      },
      "getBatchIdAtIndex(uint256)": {
        "notice": "Returns the ID for the batch of tokens the given tokenId belongs to."
      },
      "getDefaultRoyaltyInfo()": {
        "notice": "Returns the defualt royalty recipient and BPS for this contract's NFTs."
      },
      "getRoyaltyInfoForToken(uint256)": {
        "notice": "View royalty info for a given token."
      },
      "isApprovedOrOwner(address,uint256)": {
        "notice": "Returns whether a given address is the owner, or approved to transfer an NFT."
      },
      "mintTo(address,string)": {
        "notice": "Lets an authorized address mint an NFT to a recipient."
      },
      "multicall(bytes[])": {
        "notice": "Receives and executes a batch of function calls on this contract."
      },
      "nextTokenIdToMint()": {
        "notice": "The tokenId assigned to the next new NFT to be minted."
      },
      "owner()": {
        "notice": "Returns the owner of the contract."
      },
      "royaltyInfo(uint256,uint256)": {
        "notice": "View royalty info for a given token and sale price."
      },
      "setContractURI(string)": {
        "notice": "Lets a contract admin set the URI for contract-level metadata."
      },
      "setDefaultRoyaltyInfo(address,uint256)": {
        "notice": "Updates default royalty recipient and bps."
      },
      "setOwner(address)": {
        "notice": "Lets an authorized wallet set a new owner for the contract."
      },
      "setRoyaltyInfoForToken(uint256,address,uint256)": {
        "notice": "Updates default royalty recipient and bps for a particular token."
      },
      "tokenURI(uint256)": {
        "notice": "Returns the metadata URI for an NFT."
      }
    },
    "version": 1
  }
}